{
	"StakingPool_flat.sol": {
		"StakingToken": {
			"abi": [
				{
					"inputs": [],
					"stateMutability": "nonpayable",
					"type": "constructor"
				},
				{
					"anonymous": false,
					"inputs": [
						{
							"indexed": true,
							"internalType": "address",
							"name": "owner",
							"type": "address"
						},
						{
							"indexed": true,
							"internalType": "address",
							"name": "spender",
							"type": "address"
						},
						{
							"indexed": false,
							"internalType": "uint256",
							"name": "value",
							"type": "uint256"
						}
					],
					"name": "Approval",
					"type": "event"
				},
				{
					"anonymous": false,
					"inputs": [
						{
							"indexed": true,
							"internalType": "address",
							"name": "previousOwner",
							"type": "address"
						},
						{
							"indexed": true,
							"internalType": "address",
							"name": "newOwner",
							"type": "address"
						}
					],
					"name": "OwnershipTransferred",
					"type": "event"
				},
				{
					"anonymous": false,
					"inputs": [
						{
							"indexed": false,
							"internalType": "uint256",
							"name": "reward",
							"type": "uint256"
						}
					],
					"name": "RewardAdded",
					"type": "event"
				},
				{
					"anonymous": false,
					"inputs": [
						{
							"indexed": true,
							"internalType": "address",
							"name": "user",
							"type": "address"
						},
						{
							"indexed": false,
							"internalType": "uint256",
							"name": "reward",
							"type": "uint256"
						}
					],
					"name": "RewardPaid",
					"type": "event"
				},
				{
					"anonymous": false,
					"inputs": [
						{
							"indexed": false,
							"internalType": "uint256",
							"name": "newDuration",
							"type": "uint256"
						}
					],
					"name": "RewardsDurationUpdated",
					"type": "event"
				},
				{
					"anonymous": false,
					"inputs": [
						{
							"indexed": true,
							"internalType": "address",
							"name": "user",
							"type": "address"
						},
						{
							"indexed": false,
							"internalType": "uint256",
							"name": "amount",
							"type": "uint256"
						}
					],
					"name": "Staked",
					"type": "event"
				},
				{
					"anonymous": false,
					"inputs": [
						{
							"indexed": false,
							"internalType": "uint256",
							"name": "newPrice",
							"type": "uint256"
						}
					],
					"name": "TokenPriceUpdated",
					"type": "event"
				},
				{
					"anonymous": false,
					"inputs": [
						{
							"indexed": true,
							"internalType": "address",
							"name": "from",
							"type": "address"
						},
						{
							"indexed": true,
							"internalType": "address",
							"name": "to",
							"type": "address"
						},
						{
							"indexed": false,
							"internalType": "uint256",
							"name": "value",
							"type": "uint256"
						}
					],
					"name": "Transfer",
					"type": "event"
				},
				{
					"anonymous": false,
					"inputs": [
						{
							"indexed": true,
							"internalType": "address",
							"name": "user",
							"type": "address"
						},
						{
							"indexed": false,
							"internalType": "uint256",
							"name": "amount",
							"type": "uint256"
						}
					],
					"name": "Withdrawn",
					"type": "event"
				},
				{
					"inputs": [
						{
							"internalType": "address",
							"name": "_stakeholder",
							"type": "address"
						}
					],
					"name": "addStakeholder",
					"outputs": [],
					"stateMutability": "nonpayable",
					"type": "function"
				},
				{
					"inputs": [
						{
							"internalType": "address",
							"name": "owner",
							"type": "address"
						},
						{
							"internalType": "address",
							"name": "spender",
							"type": "address"
						}
					],
					"name": "allowance",
					"outputs": [
						{
							"internalType": "uint256",
							"name": "",
							"type": "uint256"
						}
					],
					"stateMutability": "view",
					"type": "function"
				},
				{
					"inputs": [
						{
							"internalType": "address",
							"name": "spender",
							"type": "address"
						},
						{
							"internalType": "uint256",
							"name": "amount",
							"type": "uint256"
						}
					],
					"name": "approve",
					"outputs": [
						{
							"internalType": "bool",
							"name": "",
							"type": "bool"
						}
					],
					"stateMutability": "nonpayable",
					"type": "function"
				},
				{
					"inputs": [
						{
							"internalType": "address",
							"name": "account",
							"type": "address"
						}
					],
					"name": "balanceOf",
					"outputs": [
						{
							"internalType": "uint256",
							"name": "",
							"type": "uint256"
						}
					],
					"stateMutability": "view",
					"type": "function"
				},
				{
					"inputs": [
						{
							"internalType": "address",
							"name": "receiver",
							"type": "address"
						}
					],
					"name": "buyToken",
					"outputs": [
						{
							"internalType": "uint256",
							"name": "",
							"type": "uint256"
						}
					],
					"stateMutability": "payable",
					"type": "function"
				},
				{
					"inputs": [
						{
							"internalType": "address",
							"name": "_stakeholder",
							"type": "address"
						}
					],
					"name": "calculateReward",
					"outputs": [
						{
							"internalType": "uint256",
							"name": "",
							"type": "uint256"
						}
					],
					"stateMutability": "view",
					"type": "function"
				},
				{
					"inputs": [
						{
							"internalType": "uint256",
							"name": "_stake",
							"type": "uint256"
						}
					],
					"name": "createStake",
					"outputs": [],
					"stateMutability": "nonpayable",
					"type": "function"
				},
				{
					"inputs": [],
					"name": "decimals",
					"outputs": [
						{
							"internalType": "uint8",
							"name": "",
							"type": "uint8"
						}
					],
					"stateMutability": "view",
					"type": "function"
				},
				{
					"inputs": [
						{
							"internalType": "address",
							"name": "spender",
							"type": "address"
						},
						{
							"internalType": "uint256",
							"name": "subtractedValue",
							"type": "uint256"
						}
					],
					"name": "decreaseAllowance",
					"outputs": [
						{
							"internalType": "bool",
							"name": "",
							"type": "bool"
						}
					],
					"stateMutability": "nonpayable",
					"type": "function"
				},
				{
					"inputs": [],
					"name": "distributeRewards",
					"outputs": [],
					"stateMutability": "nonpayable",
					"type": "function"
				},
				{
					"inputs": [
						{
							"internalType": "address",
							"name": "account",
							"type": "address"
						}
					],
					"name": "earned",
					"outputs": [
						{
							"internalType": "uint256",
							"name": "",
							"type": "uint256"
						}
					],
					"stateMutability": "view",
					"type": "function"
				},
				{
					"inputs": [],
					"name": "exit",
					"outputs": [],
					"stateMutability": "nonpayable",
					"type": "function"
				},
				{
					"inputs": [],
					"name": "getReward",
					"outputs": [],
					"stateMutability": "nonpayable",
					"type": "function"
				},
				{
					"inputs": [
						{
							"internalType": "address",
							"name": "spender",
							"type": "address"
						},
						{
							"internalType": "uint256",
							"name": "addedValue",
							"type": "uint256"
						}
					],
					"name": "increaseAllowance",
					"outputs": [
						{
							"internalType": "bool",
							"name": "",
							"type": "bool"
						}
					],
					"stateMutability": "nonpayable",
					"type": "function"
				},
				{
					"inputs": [
						{
							"internalType": "address",
							"name": "_address",
							"type": "address"
						}
					],
					"name": "isStakeholder",
					"outputs": [
						{
							"internalType": "bool",
							"name": "",
							"type": "bool"
						},
						{
							"internalType": "uint256",
							"name": "",
							"type": "uint256"
						}
					],
					"stateMutability": "view",
					"type": "function"
				},
				{
					"inputs": [],
					"name": "lastTimeRewardApplicable",
					"outputs": [
						{
							"internalType": "uint256",
							"name": "",
							"type": "uint256"
						}
					],
					"stateMutability": "view",
					"type": "function"
				},
				{
					"inputs": [],
					"name": "lastUpdateTime",
					"outputs": [
						{
							"internalType": "uint256",
							"name": "",
							"type": "uint256"
						}
					],
					"stateMutability": "view",
					"type": "function"
				},
				{
					"inputs": [
						{
							"internalType": "uint256",
							"name": "_tokenPrice",
							"type": "uint256"
						}
					],
					"name": "modifyTokenBuyPrice",
					"outputs": [
						{
							"internalType": "uint256",
							"name": "",
							"type": "uint256"
						}
					],
					"stateMutability": "nonpayable",
					"type": "function"
				},
				{
					"inputs": [],
					"name": "name",
					"outputs": [
						{
							"internalType": "string",
							"name": "",
							"type": "string"
						}
					],
					"stateMutability": "view",
					"type": "function"
				},
				{
					"inputs": [],
					"name": "owner",
					"outputs": [
						{
							"internalType": "address",
							"name": "",
							"type": "address"
						}
					],
					"stateMutability": "view",
					"type": "function"
				},
				{
					"inputs": [],
					"name": "periodFinish",
					"outputs": [
						{
							"internalType": "uint256",
							"name": "",
							"type": "uint256"
						}
					],
					"stateMutability": "view",
					"type": "function"
				},
				{
					"inputs": [
						{
							"internalType": "uint256",
							"name": "_stake",
							"type": "uint256"
						}
					],
					"name": "removeStake",
					"outputs": [],
					"stateMutability": "nonpayable",
					"type": "function"
				},
				{
					"inputs": [
						{
							"internalType": "address",
							"name": "_stakeholder",
							"type": "address"
						}
					],
					"name": "removeStakeholder",
					"outputs": [],
					"stateMutability": "nonpayable",
					"type": "function"
				},
				{
					"inputs": [],
					"name": "renounceOwnership",
					"outputs": [],
					"stateMutability": "nonpayable",
					"type": "function"
				},
				{
					"inputs": [
						{
							"internalType": "address",
							"name": "_stakeholder",
							"type": "address"
						}
					],
					"name": "rewardOf",
					"outputs": [
						{
							"internalType": "uint256",
							"name": "",
							"type": "uint256"
						}
					],
					"stateMutability": "view",
					"type": "function"
				},
				{
					"inputs": [],
					"name": "rewardPerToken",
					"outputs": [
						{
							"internalType": "uint256",
							"name": "",
							"type": "uint256"
						}
					],
					"stateMutability": "view",
					"type": "function"
				},
				{
					"inputs": [],
					"name": "rewardPerTokenStored",
					"outputs": [
						{
							"internalType": "uint256",
							"name": "",
							"type": "uint256"
						}
					],
					"stateMutability": "view",
					"type": "function"
				},
				{
					"inputs": [],
					"name": "rewardRate",
					"outputs": [
						{
							"internalType": "uint256",
							"name": "",
							"type": "uint256"
						}
					],
					"stateMutability": "view",
					"type": "function"
				},
				{
					"inputs": [],
					"name": "rewardsDuration",
					"outputs": [
						{
							"internalType": "uint256",
							"name": "",
							"type": "uint256"
						}
					],
					"stateMutability": "view",
					"type": "function"
				},
				{
					"inputs": [
						{
							"internalType": "address",
							"name": "_stakeholder",
							"type": "address"
						}
					],
					"name": "stakeOf",
					"outputs": [
						{
							"internalType": "uint256",
							"name": "",
							"type": "uint256"
						}
					],
					"stateMutability": "view",
					"type": "function"
				},
				{
					"inputs": [],
					"name": "stakingBase",
					"outputs": [
						{
							"internalType": "uint256",
							"name": "",
							"type": "uint256"
						}
					],
					"stateMutability": "view",
					"type": "function"
				},
				{
					"inputs": [],
					"name": "symbol",
					"outputs": [
						{
							"internalType": "string",
							"name": "",
							"type": "string"
						}
					],
					"stateMutability": "view",
					"type": "function"
				},
				{
					"inputs": [],
					"name": "tokensPerEth",
					"outputs": [
						{
							"internalType": "uint256",
							"name": "",
							"type": "uint256"
						}
					],
					"stateMutability": "view",
					"type": "function"
				},
				{
					"inputs": [],
					"name": "totalRewards",
					"outputs": [
						{
							"internalType": "uint256",
							"name": "",
							"type": "uint256"
						}
					],
					"stateMutability": "view",
					"type": "function"
				},
				{
					"inputs": [],
					"name": "totalStakes",
					"outputs": [
						{
							"internalType": "uint256",
							"name": "",
							"type": "uint256"
						}
					],
					"stateMutability": "view",
					"type": "function"
				},
				{
					"inputs": [],
					"name": "totalSupply",
					"outputs": [
						{
							"internalType": "uint256",
							"name": "",
							"type": "uint256"
						}
					],
					"stateMutability": "view",
					"type": "function"
				},
				{
					"inputs": [
						{
							"internalType": "address",
							"name": "to",
							"type": "address"
						},
						{
							"internalType": "uint256",
							"name": "amount",
							"type": "uint256"
						}
					],
					"name": "transfer",
					"outputs": [
						{
							"internalType": "bool",
							"name": "",
							"type": "bool"
						}
					],
					"stateMutability": "nonpayable",
					"type": "function"
				},
				{
					"inputs": [
						{
							"internalType": "address",
							"name": "from",
							"type": "address"
						},
						{
							"internalType": "address",
							"name": "to",
							"type": "address"
						},
						{
							"internalType": "uint256",
							"name": "amount",
							"type": "uint256"
						}
					],
					"name": "transferFrom",
					"outputs": [
						{
							"internalType": "bool",
							"name": "",
							"type": "bool"
						}
					],
					"stateMutability": "nonpayable",
					"type": "function"
				},
				{
					"inputs": [
						{
							"internalType": "address",
							"name": "newOwner",
							"type": "address"
						}
					],
					"name": "transferOwnership",
					"outputs": [],
					"stateMutability": "nonpayable",
					"type": "function"
				},
				{
					"inputs": [
						{
							"internalType": "address",
							"name": "",
							"type": "address"
						}
					],
					"name": "userRewardPerTokenPaid",
					"outputs": [
						{
							"internalType": "uint256",
							"name": "",
							"type": "uint256"
						}
					],
					"stateMutability": "view",
					"type": "function"
				},
				{
					"inputs": [],
					"name": "withdrawReward",
					"outputs": [],
					"stateMutability": "nonpayable",
					"type": "function"
				}
			],
			"devdoc": {
				"kind": "dev",
				"methods": {
					"allowance(address,address)": {
						"details": "See {IERC20-allowance}."
					},
					"approve(address,uint256)": {
						"details": "See {IERC20-approve}. NOTE: If `amount` is the maximum `uint256`, the allowance is not updated on `transferFrom`. This is semantically equivalent to an infinite approval. Requirements: - `spender` cannot be the zero address."
					},
					"balanceOf(address)": {
						"details": "See {IERC20-balanceOf}."
					},
					"decimals()": {
						"details": "Returns the number of decimals used to get its user representation. For example, if `decimals` equals `2`, a balance of `505` tokens should be displayed to a user as `5.05` (`505 / 10 ** 2`). Tokens usually opt for a value of 18, imitating the relationship between Ether and Wei. This is the value {ERC20} uses, unless this function is overridden; NOTE: This information is only used for _display_ purposes: it in no way affects any of the arithmetic of the contract, including {IERC20-balanceOf} and {IERC20-transfer}."
					},
					"decreaseAllowance(address,uint256)": {
						"details": "Atomically decreases the allowance granted to `spender` by the caller. This is an alternative to {approve} that can be used as a mitigation for problems described in {IERC20-approve}. Emits an {Approval} event indicating the updated allowance. Requirements: - `spender` cannot be the zero address. - `spender` must have allowance for the caller of at least `subtractedValue`."
					},
					"increaseAllowance(address,uint256)": {
						"details": "Atomically increases the allowance granted to `spender` by the caller. This is an alternative to {approve} that can be used as a mitigation for problems described in {IERC20-approve}. Emits an {Approval} event indicating the updated allowance. Requirements: - `spender` cannot be the zero address."
					},
					"name()": {
						"details": "Returns the name of the token."
					},
					"owner()": {
						"details": "Returns the address of the current owner."
					},
					"renounceOwnership()": {
						"details": "Leaves the contract without owner. It will not be possible to call `onlyOwner` functions anymore. Can only be called by the current owner. NOTE: Renouncing ownership will leave the contract without an owner, thereby removing any functionality that is only available to the owner."
					},
					"symbol()": {
						"details": "Returns the symbol of the token, usually a shorter version of the name."
					},
					"totalSupply()": {
						"details": "See {IERC20-totalSupply}."
					},
					"transfer(address,uint256)": {
						"details": "See {IERC20-transfer}. Requirements: - `to` cannot be the zero address. - the caller must have a balance of at least `amount`."
					},
					"transferFrom(address,address,uint256)": {
						"details": "See {IERC20-transferFrom}. Emits an {Approval} event indicating the updated allowance. This is not required by the EIP. See the note at the beginning of {ERC20}. NOTE: Does not update the allowance if the current allowance is the maximum `uint256`. Requirements: - `from` and `to` cannot be the zero address. - `from` must have a balance of at least `amount`. - the caller must have allowance for ``from``'s tokens of at least `amount`."
					},
					"transferOwnership(address)": {
						"details": "Transfers ownership of the contract to a new account (`newOwner`). Can only be called by the current owner."
					}
				},
				"version": 1
			},
			"evm": {
				"assembly": "    /* \"StakingPool_flat.sol\":28939:36378  contract StakingToken is ERC20, Ownable, ReentrancyGuard {... */\n  mstore(0x40, 0xa0)\n    /* \"StakingPool_flat.sol\":29042:29048  10**18 */\n  0x0de0b6b3a7640000\n    /* \"StakingPool_flat.sol\":29003:29048  uint256 public immutable stakingBase = 10**18 */\n  0x80\n  swap1\n  dup2\n  mstore\n  pop\n    /* \"StakingPool_flat.sol\":29355:29361  7 days */\n  0x093a80\n    /* \"StakingPool_flat.sol\":29322:29361  uint256 public rewardsDuration = 7 days */\n  0x09\n  sstore\n    /* \"StakingPool_flat.sol\":30242:30246  1000 */\n  0x03e8\n    /* \"StakingPool_flat.sol\":30212:30246  uint256 public tokensPerEth = 1000 */\n  0x10\n  sstore\n    /* \"StakingPool_flat.sol\":30253:30358  constructor()  ERC20(\"Godfather\", \"GDF\")... */\n  callvalue\n  dup1\n  iszero\n  tag_1\n  jumpi\n  0x00\n  dup1\n  revert\ntag_1:\n  pop\n    /* \"StakingPool_flat.sol\":18214:18327  constructor(string memory name_, string memory symbol_) {... */\n  mload(0x40)\n  dup1\n  0x40\n  add\n  0x40\n  mstore\n  dup1\n  0x09\n  dup2\n  mstore\n  0x20\n  add\n  0x476f646661746865720000000000000000000000000000000000000000000000\n  dup2\n  mstore\n  pop\n  mload(0x40)\n  dup1\n  0x40\n  add\n  0x40\n  mstore\n  dup1\n  0x03\n  dup2\n  mstore\n  0x20\n  add\n  0x4744460000000000000000000000000000000000000000000000000000000000\n  dup2\n  mstore\n  pop\n    /* \"StakingPool_flat.sol\":18288:18293  name_ */\n  dup2\n    /* \"StakingPool_flat.sol\":18280:18285  _name */\n  0x03\n    /* \"StakingPool_flat.sol\":18280:18293  _name = name_ */\n  swap1\n  dup1\n  mload\n  swap1\n  0x20\n  add\n  swap1\n  tag_7\n  swap3\n  swap2\n  swap1\n  tag_8\n  jump\t// in\ntag_7:\n  pop\n    /* \"StakingPool_flat.sol\":18313:18320  symbol_ */\n  dup1\n    /* \"StakingPool_flat.sol\":18303:18310  _symbol */\n  0x04\n    /* \"StakingPool_flat.sol\":18303:18320  _symbol = symbol_ */\n  swap1\n  dup1\n  mload\n  swap1\n  0x20\n  add\n  swap1\n  tag_9\n  swap3\n  swap2\n  swap1\n  tag_8\n  jump\t// in\ntag_9:\n  pop\n    /* \"StakingPool_flat.sol\":18214:18327  constructor(string memory name_, string memory symbol_) {... */\n  pop\n  pop\n    /* \"StakingPool_flat.sol\":11269:11301  _transferOwnership(_msgSender()) */\n  tag_11\n    /* \"StakingPool_flat.sol\":11288:11300  _msgSender() */\n  tag_12\n    /* \"StakingPool_flat.sol\":11288:11298  _msgSender */\n  shl(0x20, tag_13)\n    /* \"StakingPool_flat.sol\":11288:11300  _msgSender() */\n  0x20\n  shr\n  jump\t// in\ntag_12:\n    /* \"StakingPool_flat.sol\":11269:11287  _transferOwnership */\n  shl(0x20, tag_14)\n    /* \"StakingPool_flat.sol\":11269:11301  _transferOwnership(_msgSender()) */\n  0x20\n  shr\n  jump\t// in\ntag_11:\n    /* \"StakingPool_flat.sol\":1734:1735  1 */\n  0x01\n    /* \"StakingPool_flat.sol\":1839:1846  _status */\n  0x06\n    /* \"StakingPool_flat.sol\":1839:1861  _status = _NOT_ENTERED */\n  dup2\n  swap1\n  sstore\n  pop\n    /* \"StakingPool_flat.sol\":30309:30351  _mint(msg.sender, 1000 * 10 ** decimals()) */\n  tag_17\n    /* \"StakingPool_flat.sol\":30315:30325  msg.sender */\n  caller\n    /* \"StakingPool_flat.sol\":30340:30350  decimals() */\n  tag_18\n    /* \"StakingPool_flat.sol\":30340:30348  decimals */\n  shl(0x20, tag_19)\n    /* \"StakingPool_flat.sol\":30340:30350  decimals() */\n  0x20\n  shr\n  jump\t// in\ntag_18:\n    /* \"StakingPool_flat.sol\":30334:30336  10 */\n  0x0a\n    /* \"StakingPool_flat.sol\":30334:30350  10 ** decimals() */\n  tag_20\n  swap2\n  swap1\n  tag_21\n  jump\t// in\ntag_20:\n    /* \"StakingPool_flat.sol\":30327:30331  1000 */\n  0x03e8\n    /* \"StakingPool_flat.sol\":30327:30350  1000 * 10 ** decimals() */\n  tag_22\n  swap2\n  swap1\n  tag_23\n  jump\t// in\ntag_22:\n    /* \"StakingPool_flat.sol\":30309:30314  _mint */\n  shl(0x20, tag_24)\n    /* \"StakingPool_flat.sol\":30309:30351  _mint(msg.sender, 1000 * 10 ** decimals()) */\n  0x20\n  shr\n  jump\t// in\ntag_17:\n    /* \"StakingPool_flat.sol\":28939:36378  contract StakingToken is ERC20, Ownable, ReentrancyGuard {... */\n  jump(tag_25)\n    /* \"StakingPool_flat.sol\":10152:10248  function _msgSender() internal view virtual returns (address) {... */\ntag_13:\n    /* \"StakingPool_flat.sol\":10205:10212  address */\n  0x00\n    /* \"StakingPool_flat.sol\":10231:10241  msg.sender */\n  caller\n    /* \"StakingPool_flat.sol\":10224:10241  return msg.sender */\n  swap1\n  pop\n    /* \"StakingPool_flat.sol\":10152:10248  function _msgSender() internal view virtual returns (address) {... */\n  swap1\n  jump\t// out\n    /* \"StakingPool_flat.sol\":12618:12805  function _transferOwnership(address newOwner) internal virtual {... */\ntag_14:\n    /* \"StakingPool_flat.sol\":12691:12707  address oldOwner */\n  0x00\n    /* \"StakingPool_flat.sol\":12710:12716  _owner */\n  0x05\n  0x00\n  swap1\n  sload\n  swap1\n  0x0100\n  exp\n  swap1\n  div\n  0xffffffffffffffffffffffffffffffffffffffff\n  and\n    /* \"StakingPool_flat.sol\":12691:12716  address oldOwner = _owner */\n  swap1\n  pop\n    /* \"StakingPool_flat.sol\":12735:12743  newOwner */\n  dup2\n    /* \"StakingPool_flat.sol\":12726:12732  _owner */\n  0x05\n  0x00\n    /* \"StakingPool_flat.sol\":12726:12743  _owner = newOwner */\n  0x0100\n  exp\n  dup2\n  sload\n  dup2\n  0xffffffffffffffffffffffffffffffffffffffff\n  mul\n  not\n  and\n  swap1\n  dup4\n  0xffffffffffffffffffffffffffffffffffffffff\n  and\n  mul\n  or\n  swap1\n  sstore\n  pop\n    /* \"StakingPool_flat.sol\":12789:12797  newOwner */\n  dup2\n    /* \"StakingPool_flat.sol\":12758:12798  OwnershipTransferred(oldOwner, newOwner) */\n  0xffffffffffffffffffffffffffffffffffffffff\n  and\n    /* \"StakingPool_flat.sol\":12779:12787  oldOwner */\n  dup2\n    /* \"StakingPool_flat.sol\":12758:12798  OwnershipTransferred(oldOwner, newOwner) */\n  0xffffffffffffffffffffffffffffffffffffffff\n  and\n  0x8be0079c531659141344cd1fd0a4f28419497f9722a3daafe3b4186f6b6457e0\n  mload(0x40)\n  mload(0x40)\n  dup1\n  swap2\n  sub\n  swap1\n  log3\n    /* \"StakingPool_flat.sol\":12681:12805  {... */\n  pop\n    /* \"StakingPool_flat.sol\":12618:12805  function _transferOwnership(address newOwner) internal virtual {... */\n  pop\n  jump\t// out\n    /* \"StakingPool_flat.sol\":19329:19420  function decimals() public view virtual override returns (uint8) {... */\ntag_19:\n    /* \"StakingPool_flat.sol\":19387:19392  uint8 */\n  0x00\n    /* \"StakingPool_flat.sol\":19411:19413  18 */\n  0x12\n    /* \"StakingPool_flat.sol\":19404:19413  return 18 */\n  swap1\n  pop\n    /* \"StakingPool_flat.sol\":19329:19420  function decimals() public view virtual override returns (uint8) {... */\n  swap1\n  jump\t// out\n    /* \"StakingPool_flat.sol\":24651:25040  function _mint(address account, uint256 amount) internal virtual {... */\ntag_24:\n    /* \"StakingPool_flat.sol\":24753:24754  0 */\n  0x00\n    /* \"StakingPool_flat.sol\":24734:24755  account != address(0) */\n  0xffffffffffffffffffffffffffffffffffffffff\n  and\n    /* \"StakingPool_flat.sol\":24734:24741  account */\n  dup3\n    /* \"StakingPool_flat.sol\":24734:24755  account != address(0) */\n  0xffffffffffffffffffffffffffffffffffffffff\n  and\n  eq\n  iszero\n    /* \"StakingPool_flat.sol\":24726:24791  require(account != address(0), \"ERC20: mint to the zero address\") */\n  tag_30\n  jumpi\n  mload(0x40)\n  0x08c379a000000000000000000000000000000000000000000000000000000000\n  dup2\n  mstore\n  0x04\n  add\n  tag_31\n  swap1\n  tag_32\n  jump\t// in\ntag_31:\n  mload(0x40)\n  dup1\n  swap2\n  sub\n  swap1\n  revert\ntag_30:\n    /* \"StakingPool_flat.sol\":24802:24851  _beforeTokenTransfer(address(0), account, amount) */\n  tag_33\n    /* \"StakingPool_flat.sol\":24831:24832  0 */\n  0x00\n    /* \"StakingPool_flat.sol\":24835:24842  account */\n  dup4\n    /* \"StakingPool_flat.sol\":24844:24850  amount */\n  dup4\n    /* \"StakingPool_flat.sol\":24802:24822  _beforeTokenTransfer */\n  shl(0x20, tag_34)\n    /* \"StakingPool_flat.sol\":24802:24851  _beforeTokenTransfer(address(0), account, amount) */\n  0x20\n  shr\n  jump\t// in\ntag_33:\n    /* \"StakingPool_flat.sol\":24878:24884  amount */\n  dup1\n    /* \"StakingPool_flat.sol\":24862:24874  _totalSupply */\n  0x02\n  0x00\n    /* \"StakingPool_flat.sol\":24862:24884  _totalSupply += amount */\n  dup3\n  dup3\n  sload\n  tag_35\n  swap2\n  swap1\n  tag_36\n  jump\t// in\ntag_35:\n  swap3\n  pop\n  pop\n  dup2\n  swap1\n  sstore\n  pop\n    /* \"StakingPool_flat.sol\":24916:24922  amount */\n  dup1\n    /* \"StakingPool_flat.sol\":24894:24903  _balances */\n  0x00\n    /* \"StakingPool_flat.sol\":24894:24912  _balances[account] */\n  dup1\n    /* \"StakingPool_flat.sol\":24904:24911  account */\n  dup5\n    /* \"StakingPool_flat.sol\":24894:24912  _balances[account] */\n  0xffffffffffffffffffffffffffffffffffffffff\n  and\n  0xffffffffffffffffffffffffffffffffffffffff\n  and\n  dup2\n  mstore\n  0x20\n  add\n  swap1\n  dup2\n  mstore\n  0x20\n  add\n  0x00\n  keccak256\n  0x00\n    /* \"StakingPool_flat.sol\":24894:24922  _balances[account] += amount */\n  dup3\n  dup3\n  sload\n  tag_37\n  swap2\n  swap1\n  tag_36\n  jump\t// in\ntag_37:\n  swap3\n  pop\n  pop\n  dup2\n  swap1\n  sstore\n  pop\n    /* \"StakingPool_flat.sol\":24958:24965  account */\n  dup2\n    /* \"StakingPool_flat.sol\":24937:24974  Transfer(address(0), account, amount) */\n  0xffffffffffffffffffffffffffffffffffffffff\n  and\n    /* \"StakingPool_flat.sol\":24954:24955  0 */\n  0x00\n    /* \"StakingPool_flat.sol\":24937:24974  Transfer(address(0), account, amount) */\n  0xffffffffffffffffffffffffffffffffffffffff\n  and\n  0xddf252ad1be2c89b69c2b068fc378daa952ba7f163c4a11628f55a4df523b3ef\n    /* \"StakingPool_flat.sol\":24967:24973  amount */\n  dup4\n    /* \"StakingPool_flat.sol\":24937:24974  Transfer(address(0), account, amount) */\n  mload(0x40)\n  tag_38\n  swap2\n  swap1\n  tag_39\n  jump\t// in\ntag_38:\n  mload(0x40)\n  dup1\n  swap2\n  sub\n  swap1\n  log3\n    /* \"StakingPool_flat.sol\":24985:25033  _afterTokenTransfer(address(0), account, amount) */\n  tag_40\n    /* \"StakingPool_flat.sol\":25013:25014  0 */\n  0x00\n    /* \"StakingPool_flat.sol\":25017:25024  account */\n  dup4\n    /* \"StakingPool_flat.sol\":25026:25032  amount */\n  dup4\n    /* \"StakingPool_flat.sol\":24985:25004  _afterTokenTransfer */\n  shl(0x20, tag_41)\n    /* \"StakingPool_flat.sol\":24985:25033  _afterTokenTransfer(address(0), account, amount) */\n  0x20\n  shr\n  jump\t// in\ntag_40:\n    /* \"StakingPool_flat.sol\":24651:25040  function _mint(address account, uint256 amount) internal virtual {... */\n  pop\n  pop\n  jump\t// out\n    /* \"StakingPool_flat.sol\":28031:28152  function _beforeTokenTransfer(... */\ntag_34:\n  pop\n  pop\n  pop\n  jump\t// out\n    /* \"StakingPool_flat.sol\":28740:28860  function _afterTokenTransfer(... */\ntag_41:\n  pop\n  pop\n  pop\n  jump\t// out\n    /* \"StakingPool_flat.sol\":28939:36378  contract StakingToken is ERC20, Ownable, ReentrancyGuard {... */\ntag_8:\n  dup3\n  dup1\n  sload\n  tag_44\n  swap1\n  tag_45\n  jump\t// in\ntag_44:\n  swap1\n  0x00\n  mstore\n  keccak256(0x00, 0x20)\n  swap1\n  0x1f\n  add\n  0x20\n  swap1\n  div\n  dup2\n  add\n  swap3\n  dup3\n  tag_47\n  jumpi\n  0x00\n  dup6\n  sstore\n  jump(tag_46)\ntag_47:\n  dup3\n  0x1f\n  lt\n  tag_48\n  jumpi\n  dup1\n  mload\n  not(0xff)\n  and\n  dup4\n  dup1\n  add\n  or\n  dup6\n  sstore\n  jump(tag_46)\ntag_48:\n  dup3\n  dup1\n  add\n  0x01\n  add\n  dup6\n  sstore\n  dup3\n  iszero\n  tag_46\n  jumpi\n  swap2\n  dup3\n  add\ntag_49:\n  dup3\n  dup2\n  gt\n  iszero\n  tag_50\n  jumpi\n  dup3\n  mload\n  dup3\n  sstore\n  swap2\n  0x20\n  add\n  swap2\n  swap1\n  0x01\n  add\n  swap1\n  jump(tag_49)\ntag_50:\ntag_46:\n  pop\n  swap1\n  pop\n  tag_51\n  swap2\n  swap1\n  tag_52\n  jump\t// in\ntag_51:\n  pop\n  swap1\n  jump\t// out\ntag_52:\ntag_53:\n  dup1\n  dup3\n  gt\n  iszero\n  tag_54\n  jumpi\n  0x00\n  dup2\n  0x00\n  swap1\n  sstore\n  pop\n  0x01\n  add\n  jump(tag_53)\ntag_54:\n  pop\n  swap1\n  jump\t// out\n    /* \"#utility.yul\":7:373   */\ntag_56:\n    /* \"#utility.yul\":149:152   */\n  0x00\n    /* \"#utility.yul\":170:237   */\n  tag_58\n    /* \"#utility.yul\":234:236   */\n  0x1f\n    /* \"#utility.yul\":229:232   */\n  dup4\n    /* \"#utility.yul\":170:237   */\n  tag_59\n  jump\t// in\ntag_58:\n    /* \"#utility.yul\":163:237   */\n  swap2\n  pop\n    /* \"#utility.yul\":246:339   */\n  tag_60\n    /* \"#utility.yul\":335:338   */\n  dup3\n    /* \"#utility.yul\":246:339   */\n  tag_61\n  jump\t// in\ntag_60:\n    /* \"#utility.yul\":364:366   */\n  0x20\n    /* \"#utility.yul\":359:362   */\n  dup3\n    /* \"#utility.yul\":355:367   */\n  add\n    /* \"#utility.yul\":348:367   */\n  swap1\n  pop\n    /* \"#utility.yul\":7:373   */\n  swap2\n  swap1\n  pop\n  jump\t// out\n    /* \"#utility.yul\":379:497   */\ntag_62:\n    /* \"#utility.yul\":466:490   */\n  tag_64\n    /* \"#utility.yul\":484:489   */\n  dup2\n    /* \"#utility.yul\":466:490   */\n  tag_65\n  jump\t// in\ntag_64:\n    /* \"#utility.yul\":461:464   */\n  dup3\n    /* \"#utility.yul\":454:491   */\n  mstore\n    /* \"#utility.yul\":379:497   */\n  pop\n  pop\n  jump\t// out\n    /* \"#utility.yul\":503:922   */\ntag_32:\n    /* \"#utility.yul\":669:673   */\n  0x00\n    /* \"#utility.yul\":707:709   */\n  0x20\n    /* \"#utility.yul\":696:705   */\n  dup3\n    /* \"#utility.yul\":692:710   */\n  add\n    /* \"#utility.yul\":684:710   */\n  swap1\n  pop\n    /* \"#utility.yul\":756:765   */\n  dup2\n    /* \"#utility.yul\":750:754   */\n  dup2\n    /* \"#utility.yul\":746:766   */\n  sub\n    /* \"#utility.yul\":742:743   */\n  0x00\n    /* \"#utility.yul\":731:740   */\n  dup4\n    /* \"#utility.yul\":727:744   */\n  add\n    /* \"#utility.yul\":720:767   */\n  mstore\n    /* \"#utility.yul\":784:915   */\n  tag_67\n    /* \"#utility.yul\":910:914   */\n  dup2\n    /* \"#utility.yul\":784:915   */\n  tag_56\n  jump\t// in\ntag_67:\n    /* \"#utility.yul\":776:915   */\n  swap1\n  pop\n    /* \"#utility.yul\":503:922   */\n  swap2\n  swap1\n  pop\n  jump\t// out\n    /* \"#utility.yul\":928:1150   */\ntag_39:\n    /* \"#utility.yul\":1021:1025   */\n  0x00\n    /* \"#utility.yul\":1059:1061   */\n  0x20\n    /* \"#utility.yul\":1048:1057   */\n  dup3\n    /* \"#utility.yul\":1044:1062   */\n  add\n    /* \"#utility.yul\":1036:1062   */\n  swap1\n  pop\n    /* \"#utility.yul\":1072:1143   */\n  tag_69\n    /* \"#utility.yul\":1140:1141   */\n  0x00\n    /* \"#utility.yul\":1129:1138   */\n  dup4\n    /* \"#utility.yul\":1125:1142   */\n  add\n    /* \"#utility.yul\":1116:1122   */\n  dup5\n    /* \"#utility.yul\":1072:1143   */\n  tag_62\n  jump\t// in\ntag_69:\n    /* \"#utility.yul\":928:1150   */\n  swap3\n  swap2\n  pop\n  pop\n  jump\t// out\n    /* \"#utility.yul\":1156:1325   */\ntag_59:\n    /* \"#utility.yul\":1240:1251   */\n  0x00\n    /* \"#utility.yul\":1274:1280   */\n  dup3\n    /* \"#utility.yul\":1269:1272   */\n  dup3\n    /* \"#utility.yul\":1262:1281   */\n  mstore\n    /* \"#utility.yul\":1314:1318   */\n  0x20\n    /* \"#utility.yul\":1309:1312   */\n  dup3\n    /* \"#utility.yul\":1305:1319   */\n  add\n    /* \"#utility.yul\":1290:1319   */\n  swap1\n  pop\n    /* \"#utility.yul\":1156:1325   */\n  swap3\n  swap2\n  pop\n  pop\n  jump\t// out\n    /* \"#utility.yul\":1331:1636   */\ntag_36:\n    /* \"#utility.yul\":1371:1374   */\n  0x00\n    /* \"#utility.yul\":1390:1410   */\n  tag_72\n    /* \"#utility.yul\":1408:1409   */\n  dup3\n    /* \"#utility.yul\":1390:1410   */\n  tag_65\n  jump\t// in\ntag_72:\n    /* \"#utility.yul\":1385:1410   */\n  swap2\n  pop\n    /* \"#utility.yul\":1424:1444   */\n  tag_73\n    /* \"#utility.yul\":1442:1443   */\n  dup4\n    /* \"#utility.yul\":1424:1444   */\n  tag_65\n  jump\t// in\ntag_73:\n    /* \"#utility.yul\":1419:1444   */\n  swap3\n  pop\n    /* \"#utility.yul\":1578:1579   */\n  dup3\n    /* \"#utility.yul\":1510:1576   */\n  0xffffffffffffffffffffffffffffffffffffffffffffffffffffffffffffffff\n    /* \"#utility.yul\":1506:1580   */\n  sub\n    /* \"#utility.yul\":1503:1504   */\n  dup3\n    /* \"#utility.yul\":1500:1581   */\n  gt\n    /* \"#utility.yul\":1497:1604   */\n  iszero\n  tag_74\n  jumpi\n    /* \"#utility.yul\":1584:1602   */\n  tag_75\n  tag_76\n  jump\t// in\ntag_75:\n    /* \"#utility.yul\":1497:1604   */\ntag_74:\n    /* \"#utility.yul\":1628:1629   */\n  dup3\n    /* \"#utility.yul\":1625:1626   */\n  dup3\n    /* \"#utility.yul\":1621:1630   */\n  add\n    /* \"#utility.yul\":1614:1630   */\n  swap1\n  pop\n    /* \"#utility.yul\":1331:1636   */\n  swap3\n  swap2\n  pop\n  pop\n  jump\t// out\n    /* \"#utility.yul\":1642:2490   */\ntag_77:\n    /* \"#utility.yul\":1703:1708   */\n  0x00\n    /* \"#utility.yul\":1710:1714   */\n  dup1\n    /* \"#utility.yul\":1734:1740   */\n  dup3\n    /* \"#utility.yul\":1725:1740   */\n  swap2\n  pop\n    /* \"#utility.yul\":1758:1763   */\n  dup4\n    /* \"#utility.yul\":1749:1763   */\n  swap1\n  pop\n    /* \"#utility.yul\":1772:2484   */\ntag_79:\n    /* \"#utility.yul\":1793:1794   */\n  0x01\n    /* \"#utility.yul\":1783:1791   */\n  dup6\n    /* \"#utility.yul\":1780:1795   */\n  gt\n    /* \"#utility.yul\":1772:2484   */\n  iszero\n  tag_81\n  jumpi\n    /* \"#utility.yul\":1888:1892   */\n  dup1\n    /* \"#utility.yul\":1883:1886   */\n  dup7\n    /* \"#utility.yul\":1879:1893   */\n  div\n    /* \"#utility.yul\":1873:1877   */\n  dup2\n    /* \"#utility.yul\":1870:1894   */\n  gt\n    /* \"#utility.yul\":1867:1917   */\n  iszero\n  tag_82\n  jumpi\n    /* \"#utility.yul\":1897:1915   */\n  tag_83\n  tag_76\n  jump\t// in\ntag_83:\n    /* \"#utility.yul\":1867:1917   */\ntag_82:\n    /* \"#utility.yul\":1947:1948   */\n  0x01\n    /* \"#utility.yul\":1937:1945   */\n  dup6\n    /* \"#utility.yul\":1933:1949   */\n  and\n    /* \"#utility.yul\":1930:2381   */\n  iszero\n  tag_84\n  jumpi\n    /* \"#utility.yul\":2362:2366   */\n  dup1\n    /* \"#utility.yul\":2355:2360   */\n  dup3\n    /* \"#utility.yul\":2351:2367   */\n  mul\n    /* \"#utility.yul\":2342:2367   */\n  swap2\n  pop\n    /* \"#utility.yul\":1930:2381   */\ntag_84:\n    /* \"#utility.yul\":2412:2416   */\n  dup1\n    /* \"#utility.yul\":2406:2410   */\n  dup2\n    /* \"#utility.yul\":2402:2417   */\n  mul\n    /* \"#utility.yul\":2394:2417   */\n  swap1\n  pop\n    /* \"#utility.yul\":2442:2474   */\n  tag_85\n    /* \"#utility.yul\":2465:2473   */\n  dup6\n    /* \"#utility.yul\":2442:2474   */\n  tag_86\n  jump\t// in\ntag_85:\n    /* \"#utility.yul\":2430:2474   */\n  swap5\n  pop\n    /* \"#utility.yul\":1772:2484   */\n  jump(tag_79)\ntag_81:\n    /* \"#utility.yul\":1642:2490   */\n  swap5\n  pop\n  swap5\n  swap3\n  pop\n  pop\n  pop\n  jump\t// out\n    /* \"#utility.yul\":2496:2777   */\ntag_21:\n    /* \"#utility.yul\":2554:2559   */\n  0x00\n    /* \"#utility.yul\":2578:2601   */\n  tag_88\n    /* \"#utility.yul\":2596:2600   */\n  dup3\n    /* \"#utility.yul\":2578:2601   */\n  tag_65\n  jump\t// in\ntag_88:\n    /* \"#utility.yul\":2570:2601   */\n  swap2\n  pop\n    /* \"#utility.yul\":2622:2647   */\n  tag_89\n    /* \"#utility.yul\":2638:2646   */\n  dup4\n    /* \"#utility.yul\":2622:2647   */\n  tag_90\n  jump\t// in\ntag_89:\n    /* \"#utility.yul\":2610:2647   */\n  swap3\n  pop\n    /* \"#utility.yul\":2666:2770   */\n  tag_91\n    /* \"#utility.yul\":2703:2769   */\n  0xffffffffffffffffffffffffffffffffffffffffffffffffffffffffffffffff\n    /* \"#utility.yul\":2693:2701   */\n  dup5\n    /* \"#utility.yul\":2687:2691   */\n  dup5\n    /* \"#utility.yul\":2666:2770   */\n  tag_92\n  jump\t// in\ntag_91:\n    /* \"#utility.yul\":2657:2770   */\n  swap1\n  pop\n    /* \"#utility.yul\":2496:2777   */\n  swap3\n  swap2\n  pop\n  pop\n  jump\t// out\n    /* \"#utility.yul\":2783:3856   */\ntag_92:\n    /* \"#utility.yul\":2837:2842   */\n  0x00\n    /* \"#utility.yul\":3028:3036   */\n  dup3\n    /* \"#utility.yul\":3018:3058   */\n  tag_94\n  jumpi\n    /* \"#utility.yul\":3049:3050   */\n  0x01\n    /* \"#utility.yul\":3040:3050   */\n  swap1\n  pop\n    /* \"#utility.yul\":3051:3056   */\n  jump(tag_93)\n    /* \"#utility.yul\":3018:3058   */\ntag_94:\n    /* \"#utility.yul\":3077:3081   */\n  dup2\n    /* \"#utility.yul\":3067:3103   */\n  tag_95\n  jumpi\n    /* \"#utility.yul\":3094:3095   */\n  0x00\n    /* \"#utility.yul\":3085:3095   */\n  swap1\n  pop\n    /* \"#utility.yul\":3096:3101   */\n  jump(tag_93)\n    /* \"#utility.yul\":3067:3103   */\ntag_95:\n    /* \"#utility.yul\":3163:3167   */\n  dup2\n    /* \"#utility.yul\":3211:3212   */\n  0x01\n    /* \"#utility.yul\":3206:3233   */\n  dup2\n  eq\n  tag_97\n  jumpi\n    /* \"#utility.yul\":3247:3248   */\n  0x02\n    /* \"#utility.yul\":3242:3433   */\n  dup2\n  eq\n  tag_98\n  jumpi\n    /* \"#utility.yul\":3156:3433   */\n  jump(tag_96)\n    /* \"#utility.yul\":3206:3233   */\ntag_97:\n    /* \"#utility.yul\":3224:3225   */\n  0x01\n    /* \"#utility.yul\":3215:3225   */\n  swap2\n  pop\n    /* \"#utility.yul\":3226:3231   */\n  pop\n  jump(tag_93)\n    /* \"#utility.yul\":3242:3433   */\ntag_98:\n    /* \"#utility.yul\":3287:3290   */\n  0xff\n    /* \"#utility.yul\":3277:3285   */\n  dup5\n    /* \"#utility.yul\":3274:3291   */\n  gt\n    /* \"#utility.yul\":3271:3314   */\n  iszero\n  tag_99\n  jumpi\n    /* \"#utility.yul\":3294:3312   */\n  tag_100\n  tag_76\n  jump\t// in\ntag_100:\n    /* \"#utility.yul\":3271:3314   */\ntag_99:\n    /* \"#utility.yul\":3343:3351   */\n  dup4\n    /* \"#utility.yul\":3340:3341   */\n  0x02\n    /* \"#utility.yul\":3336:3352   */\n  exp\n    /* \"#utility.yul\":3327:3352   */\n  swap2\n  pop\n    /* \"#utility.yul\":3378:3381   */\n  dup5\n    /* \"#utility.yul\":3371:3376   */\n  dup3\n    /* \"#utility.yul\":3368:3382   */\n  gt\n    /* \"#utility.yul\":3365:3405   */\n  iszero\n  tag_101\n  jumpi\n    /* \"#utility.yul\":3385:3403   */\n  tag_102\n  tag_76\n  jump\t// in\ntag_102:\n    /* \"#utility.yul\":3365:3405   */\ntag_101:\n    /* \"#utility.yul\":3418:3423   */\n  pop\n  jump(tag_93)\n    /* \"#utility.yul\":3156:3433   */\ntag_96:\n  pop\n    /* \"#utility.yul\":3542:3544   */\n  0x20\n    /* \"#utility.yul\":3532:3540   */\n  dup4\n    /* \"#utility.yul\":3529:3545   */\n  lt\n    /* \"#utility.yul\":3523:3526   */\n  0x0133\n    /* \"#utility.yul\":3517:3521   */\n  dup4\n    /* \"#utility.yul\":3514:3527   */\n  lt\n    /* \"#utility.yul\":3510:3546   */\n  and\n    /* \"#utility.yul\":3492:3494   */\n  0x4e\n    /* \"#utility.yul\":3482:3490   */\n  dup5\n    /* \"#utility.yul\":3479:3495   */\n  lt\n    /* \"#utility.yul\":3474:3476   */\n  0x0b\n    /* \"#utility.yul\":3468:3472   */\n  dup5\n    /* \"#utility.yul\":3465:3477   */\n  lt\n    /* \"#utility.yul\":3461:3496   */\n  and\n    /* \"#utility.yul\":3445:3556   */\n  or\n    /* \"#utility.yul\":3442:3688   */\n  iszero\n  tag_103\n  jumpi\n    /* \"#utility.yul\":3598:3606   */\n  dup3\n    /* \"#utility.yul\":3592:3596   */\n  dup3\n    /* \"#utility.yul\":3588:3607   */\n  exp\n    /* \"#utility.yul\":3579:3607   */\n  swap1\n  pop\n    /* \"#utility.yul\":3633:3636   */\n  dup4\n    /* \"#utility.yul\":3626:3631   */\n  dup2\n    /* \"#utility.yul\":3623:3637   */\n  gt\n    /* \"#utility.yul\":3620:3660   */\n  iszero\n  tag_104\n  jumpi\n    /* \"#utility.yul\":3640:3658   */\n  tag_105\n  tag_76\n  jump\t// in\ntag_105:\n    /* \"#utility.yul\":3620:3660   */\ntag_104:\n    /* \"#utility.yul\":3673:3678   */\n  jump(tag_93)\n    /* \"#utility.yul\":3442:3688   */\ntag_103:\n    /* \"#utility.yul\":3713:3755   */\n  tag_106\n    /* \"#utility.yul\":3751:3754   */\n  dup5\n    /* \"#utility.yul\":3741:3749   */\n  dup5\n    /* \"#utility.yul\":3735:3739   */\n  dup5\n    /* \"#utility.yul\":3732:3733   */\n  0x01\n    /* \"#utility.yul\":3713:3755   */\n  tag_77\n  jump\t// in\ntag_106:\n    /* \"#utility.yul\":3698:3755   */\n  swap3\n  pop\n  swap1\n  pop\n    /* \"#utility.yul\":3787:3791   */\n  dup2\n    /* \"#utility.yul\":3782:3785   */\n  dup5\n    /* \"#utility.yul\":3778:3792   */\n  div\n    /* \"#utility.yul\":3771:3776   */\n  dup2\n    /* \"#utility.yul\":3768:3793   */\n  gt\n    /* \"#utility.yul\":3765:3816   */\n  iszero\n  tag_107\n  jumpi\n    /* \"#utility.yul\":3796:3814   */\n  tag_108\n  tag_76\n  jump\t// in\ntag_108:\n    /* \"#utility.yul\":3765:3816   */\ntag_107:\n    /* \"#utility.yul\":3845:3849   */\n  dup2\n    /* \"#utility.yul\":3838:3843   */\n  dup2\n    /* \"#utility.yul\":3834:3850   */\n  mul\n    /* \"#utility.yul\":3825:3850   */\n  swap1\n  pop\n    /* \"#utility.yul\":2783:3856   */\ntag_93:\n  swap4\n  swap3\n  pop\n  pop\n  pop\n  jump\t// out\n    /* \"#utility.yul\":3862:4210   */\ntag_23:\n    /* \"#utility.yul\":3902:3909   */\n  0x00\n    /* \"#utility.yul\":3925:3945   */\n  tag_110\n    /* \"#utility.yul\":3943:3944   */\n  dup3\n    /* \"#utility.yul\":3925:3945   */\n  tag_65\n  jump\t// in\ntag_110:\n    /* \"#utility.yul\":3920:3945   */\n  swap2\n  pop\n    /* \"#utility.yul\":3959:3979   */\n  tag_111\n    /* \"#utility.yul\":3977:3978   */\n  dup4\n    /* \"#utility.yul\":3959:3979   */\n  tag_65\n  jump\t// in\ntag_111:\n    /* \"#utility.yul\":3954:3979   */\n  swap3\n  pop\n    /* \"#utility.yul\":4147:4148   */\n  dup2\n    /* \"#utility.yul\":4079:4145   */\n  0xffffffffffffffffffffffffffffffffffffffffffffffffffffffffffffffff\n    /* \"#utility.yul\":4075:4149   */\n  div\n    /* \"#utility.yul\":4072:4073   */\n  dup4\n    /* \"#utility.yul\":4069:4150   */\n  gt\n    /* \"#utility.yul\":4064:4065   */\n  dup3\n    /* \"#utility.yul\":4057:4066   */\n  iszero\n    /* \"#utility.yul\":4050:4067   */\n  iszero\n    /* \"#utility.yul\":4046:4151   */\n  and\n    /* \"#utility.yul\":4043:4174   */\n  iszero\n  tag_112\n  jumpi\n    /* \"#utility.yul\":4154:4172   */\n  tag_113\n  tag_76\n  jump\t// in\ntag_113:\n    /* \"#utility.yul\":4043:4174   */\ntag_112:\n    /* \"#utility.yul\":4202:4203   */\n  dup3\n    /* \"#utility.yul\":4199:4200   */\n  dup3\n    /* \"#utility.yul\":4195:4204   */\n  mul\n    /* \"#utility.yul\":4184:4204   */\n  swap1\n  pop\n    /* \"#utility.yul\":3862:4210   */\n  swap3\n  swap2\n  pop\n  pop\n  jump\t// out\n    /* \"#utility.yul\":4216:4293   */\ntag_65:\n    /* \"#utility.yul\":4253:4260   */\n  0x00\n    /* \"#utility.yul\":4282:4287   */\n  dup2\n    /* \"#utility.yul\":4271:4287   */\n  swap1\n  pop\n    /* \"#utility.yul\":4216:4293   */\n  swap2\n  swap1\n  pop\n  jump\t// out\n    /* \"#utility.yul\":4299:4385   */\ntag_90:\n    /* \"#utility.yul\":4334:4341   */\n  0x00\n    /* \"#utility.yul\":4374:4378   */\n  0xff\n    /* \"#utility.yul\":4367:4372   */\n  dup3\n    /* \"#utility.yul\":4363:4379   */\n  and\n    /* \"#utility.yul\":4352:4379   */\n  swap1\n  pop\n    /* \"#utility.yul\":4299:4385   */\n  swap2\n  swap1\n  pop\n  jump\t// out\n    /* \"#utility.yul\":4391:4711   */\ntag_45:\n    /* \"#utility.yul\":4435:4441   */\n  0x00\n    /* \"#utility.yul\":4472:4473   */\n  0x02\n    /* \"#utility.yul\":4466:4470   */\n  dup3\n    /* \"#utility.yul\":4462:4474   */\n  div\n    /* \"#utility.yul\":4452:4474   */\n  swap1\n  pop\n    /* \"#utility.yul\":4519:4520   */\n  0x01\n    /* \"#utility.yul\":4513:4517   */\n  dup3\n    /* \"#utility.yul\":4509:4521   */\n  and\n    /* \"#utility.yul\":4540:4558   */\n  dup1\n    /* \"#utility.yul\":4530:4611   */\n  tag_117\n  jumpi\n    /* \"#utility.yul\":4596:4600   */\n  0x7f\n    /* \"#utility.yul\":4588:4594   */\n  dup3\n    /* \"#utility.yul\":4584:4601   */\n  and\n    /* \"#utility.yul\":4574:4601   */\n  swap2\n  pop\n    /* \"#utility.yul\":4530:4611   */\ntag_117:\n    /* \"#utility.yul\":4658:4660   */\n  0x20\n    /* \"#utility.yul\":4650:4656   */\n  dup3\n    /* \"#utility.yul\":4647:4661   */\n  lt\n    /* \"#utility.yul\":4627:4645   */\n  dup2\n    /* \"#utility.yul\":4624:4662   */\n  eq\n    /* \"#utility.yul\":4621:4705   */\n  iszero\n  tag_118\n  jumpi\n    /* \"#utility.yul\":4677:4695   */\n  tag_119\n  tag_120\n  jump\t// in\ntag_119:\n    /* \"#utility.yul\":4621:4705   */\ntag_118:\n    /* \"#utility.yul\":4442:4711   */\n  pop\n    /* \"#utility.yul\":4391:4711   */\n  swap2\n  swap1\n  pop\n  jump\t// out\n    /* \"#utility.yul\":4717:4897   */\ntag_76:\n    /* \"#utility.yul\":4765:4842   */\n  0x4e487b7100000000000000000000000000000000000000000000000000000000\n    /* \"#utility.yul\":4762:4763   */\n  0x00\n    /* \"#utility.yul\":4755:4843   */\n  mstore\n    /* \"#utility.yul\":4862:4866   */\n  0x11\n    /* \"#utility.yul\":4859:4860   */\n  0x04\n    /* \"#utility.yul\":4852:4867   */\n  mstore\n    /* \"#utility.yul\":4886:4890   */\n  0x24\n    /* \"#utility.yul\":4883:4884   */\n  0x00\n    /* \"#utility.yul\":4876:4891   */\n  revert\n    /* \"#utility.yul\":4903:5083   */\ntag_120:\n    /* \"#utility.yul\":4951:5028   */\n  0x4e487b7100000000000000000000000000000000000000000000000000000000\n    /* \"#utility.yul\":4948:4949   */\n  0x00\n    /* \"#utility.yul\":4941:5029   */\n  mstore\n    /* \"#utility.yul\":5048:5052   */\n  0x22\n    /* \"#utility.yul\":5045:5046   */\n  0x04\n    /* \"#utility.yul\":5038:5053   */\n  mstore\n    /* \"#utility.yul\":5072:5076   */\n  0x24\n    /* \"#utility.yul\":5069:5070   */\n  0x00\n    /* \"#utility.yul\":5062:5077   */\n  revert\n    /* \"#utility.yul\":5089:5191   */\ntag_86:\n    /* \"#utility.yul\":5131:5139   */\n  0x00\n    /* \"#utility.yul\":5178:5183   */\n  dup2\n    /* \"#utility.yul\":5175:5176   */\n  0x01\n    /* \"#utility.yul\":5171:5184   */\n  shr\n    /* \"#utility.yul\":5150:5184   */\n  swap1\n  pop\n    /* \"#utility.yul\":5089:5191   */\n  swap2\n  swap1\n  pop\n  jump\t// out\n    /* \"#utility.yul\":5197:5378   */\ntag_61:\n    /* \"#utility.yul\":5337:5370   */\n  0x45524332303a206d696e7420746f20746865207a65726f206164647265737300\n    /* \"#utility.yul\":5333:5334   */\n  0x00\n    /* \"#utility.yul\":5325:5331   */\n  dup3\n    /* \"#utility.yul\":5321:5335   */\n  add\n    /* \"#utility.yul\":5314:5371   */\n  mstore\n    /* \"#utility.yul\":5197:5378   */\n  pop\n  jump\t// out\n    /* \"StakingPool_flat.sol\":28939:36378  contract StakingToken is ERC20, Ownable, ReentrancyGuard {... */\ntag_25:\n  mload(0x80)\n  codecopy(0x00, dataOffset(sub_0), dataSize(sub_0))\n  0x00\n  assignImmutable(\"0xbd94aebd75f3a464b0bdb030c3ab29f1e40f42c99f6ff560a3ece3a6549f5898\")\n  return(0x00, dataSize(sub_0))\nstop\n\nsub_0: assembly {\n        /* \"StakingPool_flat.sol\":28939:36378  contract StakingToken is ERC20, Ownable, ReentrancyGuard {... */\n      mstore(0x40, 0x80)\n      jumpi(tag_1, lt(calldatasize, 0x04))\n      shr(0xe0, calldataload(0x00))\n      dup1\n      0x834dc984\n      gt\n      tag_43\n      jumpi\n      dup1\n      0xc8f33c91\n      gt\n      tag_44\n      jumpi\n      dup1\n      0xdf136d65\n      gt\n      tag_45\n      jumpi\n      dup1\n      0xdf136d65\n      eq\n      tag_37\n      jumpi\n      dup1\n      0xe5c42fd1\n      eq\n      tag_38\n      jumpi\n      dup1\n      0xe9fad8ee\n      eq\n      tag_39\n      jumpi\n      dup1\n      0xebe2b12b\n      eq\n      tag_40\n      jumpi\n      dup1\n      0xef037b90\n      eq\n      tag_41\n      jumpi\n      dup1\n      0xf2fde38b\n      eq\n      tag_42\n      jumpi\n      jump(tag_1)\n    tag_45:\n      dup1\n      0xc8f33c91\n      eq\n      tag_32\n      jumpi\n      dup1\n      0xcbdd69b5\n      eq\n      tag_33\n      jumpi\n      dup1\n      0xcd3daf9d\n      eq\n      tag_34\n      jumpi\n      dup1\n      0xd82e3962\n      eq\n      tag_35\n      jumpi\n      dup1\n      0xdd62ed3e\n      eq\n      tag_36\n      jumpi\n      jump(tag_1)\n    tag_44:\n      dup1\n      0xa457c2d7\n      gt\n      tag_46\n      jumpi\n      dup1\n      0xa457c2d7\n      eq\n      tag_27\n      jumpi\n      dup1\n      0xa9059cbb\n      eq\n      tag_28\n      jumpi\n      dup1\n      0xbcb0c2d7\n      eq\n      tag_29\n      jumpi\n      dup1\n      0xbf9befb1\n      eq\n      tag_30\n      jumpi\n      dup1\n      0xc885bc58\n      eq\n      tag_31\n      jumpi\n      jump(tag_1)\n    tag_46:\n      dup1\n      0x834dc984\n      eq\n      tag_22\n      jumpi\n      dup1\n      0x8b876347\n      eq\n      tag_23\n      jumpi\n      dup1\n      0x8da5cb5b\n      eq\n      tag_24\n      jumpi\n      dup1\n      0x939624ab\n      eq\n      tag_25\n      jumpi\n      dup1\n      0x95d89b41\n      eq\n      tag_26\n      jumpi\n      jump(tag_1)\n    tag_43:\n      dup1\n      0x39509351\n      gt\n      tag_47\n      jumpi\n      dup1\n      0x70a08231\n      gt\n      tag_48\n      jumpi\n      dup1\n      0x70a08231\n      eq\n      tag_17\n      jumpi\n      dup1\n      0x715018a6\n      eq\n      tag_18\n      jumpi\n      dup1\n      0x7b0a47ee\n      eq\n      tag_19\n      jumpi\n      dup1\n      0x7e72fb52\n      eq\n      tag_20\n      jumpi\n      dup1\n      0x80faa57d\n      eq\n      tag_21\n      jumpi\n      jump(tag_1)\n    tag_48:\n      dup1\n      0x39509351\n      eq\n      tag_12\n      jumpi\n      dup1\n      0x3d18b912\n      eq\n      tag_13\n      jumpi\n      dup1\n      0x42623360\n      eq\n      tag_14\n      jumpi\n      dup1\n      0x6041c34f\n      eq\n      tag_15\n      jumpi\n      dup1\n      0x6f4a2cd0\n      eq\n      tag_16\n      jumpi\n      jump(tag_1)\n    tag_47:\n      dup1\n      0x1bf6ddae\n      gt\n      tag_49\n      jumpi\n      dup1\n      0x1bf6ddae\n      eq\n      tag_7\n      jumpi\n      dup1\n      0x1d62ebd9\n      eq\n      tag_8\n      jumpi\n      dup1\n      0x23b872dd\n      eq\n      tag_9\n      jumpi\n      dup1\n      0x313ce567\n      eq\n      tag_10\n      jumpi\n      dup1\n      0x386a9525\n      eq\n      tag_11\n      jumpi\n      jump(tag_1)\n    tag_49:\n      dup1\n      0x8cc262\n      eq\n      tag_2\n      jumpi\n      dup1\n      0x06fdde03\n      eq\n      tag_3\n      jumpi\n      dup1\n      0x095ea7b3\n      eq\n      tag_4\n      jumpi\n      dup1\n      0x0e15561a\n      eq\n      tag_5\n      jumpi\n      dup1\n      0x18160ddd\n      eq\n      tag_6\n      jumpi\n    tag_1:\n      0x00\n      dup1\n      revert\n        /* \"StakingPool_flat.sol\":31842:32073  function earned(address account) public view returns (uint256) {... */\n    tag_2:\n      callvalue\n      dup1\n      iszero\n      tag_50\n      jumpi\n      0x00\n      dup1\n      revert\n    tag_50:\n      pop\n      tag_51\n      0x04\n      dup1\n      calldatasize\n      sub\n      dup2\n      add\n      swap1\n      tag_52\n      swap2\n      swap1\n      tag_53\n      jump\t// in\n    tag_52:\n      tag_54\n      jump\t// in\n    tag_51:\n      mload(0x40)\n      tag_55\n      swap2\n      swap1\n      tag_56\n      jump\t// in\n    tag_55:\n      mload(0x40)\n      dup1\n      swap2\n      sub\n      swap1\n      return\n        /* \"StakingPool_flat.sol\":18392:18490  function name() public view virtual override returns (string memory) {... */\n    tag_3:\n      callvalue\n      dup1\n      iszero\n      tag_57\n      jumpi\n      0x00\n      dup1\n      revert\n    tag_57:\n      pop\n      tag_58\n      tag_59\n      jump\t// in\n    tag_58:\n      mload(0x40)\n      tag_60\n      swap2\n      swap1\n      tag_61\n      jump\t// in\n    tag_60:\n      mload(0x40)\n      dup1\n      swap2\n      sub\n      swap1\n      return\n        /* \"StakingPool_flat.sol\":20669:20866  function approve(address spender, uint256 amount) public virtual override returns (bool) {... */\n    tag_4:\n      callvalue\n      dup1\n      iszero\n      tag_62\n      jumpi\n      0x00\n      dup1\n      revert\n    tag_62:\n      pop\n      tag_63\n      0x04\n      dup1\n      calldatasize\n      sub\n      dup2\n      add\n      swap1\n      tag_64\n      swap2\n      swap1\n      tag_65\n      jump\t// in\n    tag_64:\n      tag_66\n      jump\t// in\n    tag_63:\n      mload(0x40)\n      tag_67\n      swap2\n      swap1\n      tag_68\n      jump\t// in\n    tag_67:\n      mload(0x40)\n      dup1\n      swap2\n      sub\n      swap1\n      return\n        /* \"StakingPool_flat.sol\":34668:34966  function totalRewards()... */\n    tag_5:\n      callvalue\n      dup1\n      iszero\n      tag_69\n      jumpi\n      0x00\n      dup1\n      revert\n    tag_69:\n      pop\n      tag_70\n      tag_71\n      jump\t// in\n    tag_70:\n      mload(0x40)\n      tag_72\n      swap2\n      swap1\n      tag_56\n      jump\t// in\n    tag_72:\n      mload(0x40)\n      dup1\n      swap2\n      sub\n      swap1\n      return\n        /* \"StakingPool_flat.sol\":19480:19586  function totalSupply() public view virtual override returns (uint256) {... */\n    tag_6:\n      callvalue\n      dup1\n      iszero\n      tag_73\n      jumpi\n      0x00\n      dup1\n      revert\n    tag_73:\n      pop\n      tag_74\n      tag_75\n      jump\t// in\n    tag_74:\n      mload(0x40)\n      tag_76\n      swap2\n      swap1\n      tag_56\n      jump\t// in\n    tag_76:\n      mload(0x40)\n      dup1\n      swap2\n      sub\n      swap1\n      return\n        /* \"StakingPool_flat.sol\":32646:32964  function createStake(uint256 _stake)... */\n    tag_7:\n      callvalue\n      dup1\n      iszero\n      tag_77\n      jumpi\n      0x00\n      dup1\n      revert\n    tag_77:\n      pop\n      tag_78\n      0x04\n      dup1\n      calldatasize\n      sub\n      dup2\n      add\n      swap1\n      tag_79\n      swap2\n      swap1\n      tag_80\n      jump\t// in\n    tag_79:\n      tag_81\n      jump\t// in\n    tag_78:\n      stop\n        /* \"StakingPool_flat.sol\":34519:34662  function rewardOf(address _stakeholder) ... */\n    tag_8:\n      callvalue\n      dup1\n      iszero\n      tag_82\n      jumpi\n      0x00\n      dup1\n      revert\n    tag_82:\n      pop\n      tag_83\n      0x04\n      dup1\n      calldatasize\n      sub\n      dup2\n      add\n      swap1\n      tag_84\n      swap2\n      swap1\n      tag_53\n      jump\t// in\n    tag_84:\n      tag_85\n      jump\t// in\n    tag_83:\n      mload(0x40)\n      tag_86\n      swap2\n      swap1\n      tag_56\n      jump\t// in\n    tag_86:\n      mload(0x40)\n      dup1\n      swap2\n      sub\n      swap1\n      return\n        /* \"StakingPool_flat.sol\":21428:21714  function transferFrom(... */\n    tag_9:\n      callvalue\n      dup1\n      iszero\n      tag_87\n      jumpi\n      0x00\n      dup1\n      revert\n    tag_87:\n      pop\n      tag_88\n      0x04\n      dup1\n      calldatasize\n      sub\n      dup2\n      add\n      swap1\n      tag_89\n      swap2\n      swap1\n      tag_90\n      jump\t// in\n    tag_89:\n      tag_91\n      jump\t// in\n    tag_88:\n      mload(0x40)\n      tag_92\n      swap2\n      swap1\n      tag_68\n      jump\t// in\n    tag_92:\n      mload(0x40)\n      dup1\n      swap2\n      sub\n      swap1\n      return\n        /* \"StakingPool_flat.sol\":19329:19420  function decimals() public view virtual override returns (uint8) {... */\n    tag_10:\n      callvalue\n      dup1\n      iszero\n      tag_93\n      jumpi\n      0x00\n      dup1\n      revert\n    tag_93:\n      pop\n      tag_94\n      tag_95\n      jump\t// in\n    tag_94:\n      mload(0x40)\n      tag_96\n      swap2\n      swap1\n      tag_97\n      jump\t// in\n    tag_96:\n      mload(0x40)\n      dup1\n      swap2\n      sub\n      swap1\n      return\n        /* \"StakingPool_flat.sol\":29322:29361  uint256 public rewardsDuration = 7 days */\n    tag_11:\n      callvalue\n      dup1\n      iszero\n      tag_98\n      jumpi\n      0x00\n      dup1\n      revert\n    tag_98:\n      pop\n      tag_99\n      tag_100\n      jump\t// in\n    tag_99:\n      mload(0x40)\n      tag_101\n      swap2\n      swap1\n      tag_56\n      jump\t// in\n    tag_101:\n      mload(0x40)\n      dup1\n      swap2\n      sub\n      swap1\n      return\n        /* \"StakingPool_flat.sol\":22109:22345  function increaseAllowance(address spender, uint256 addedValue) public virtual returns (bool) {... */\n    tag_12:\n      callvalue\n      dup1\n      iszero\n      tag_102\n      jumpi\n      0x00\n      dup1\n      revert\n    tag_102:\n      pop\n      tag_103\n      0x04\n      dup1\n      calldatasize\n      sub\n      dup2\n      add\n      swap1\n      tag_104\n      swap2\n      swap1\n      tag_65\n      jump\t// in\n    tag_104:\n      tag_105\n      jump\t// in\n    tag_103:\n      mload(0x40)\n      tag_106\n      swap2\n      swap1\n      tag_68\n      jump\t// in\n    tag_106:\n      mload(0x40)\n      dup1\n      swap2\n      sub\n      swap1\n      return\n        /* \"StakingPool_flat.sol\":35636:35916  function getReward() public nonReentrant updateReward(msg.sender) {... */\n    tag_13:\n      callvalue\n      dup1\n      iszero\n      tag_107\n      jumpi\n      0x00\n      dup1\n      revert\n    tag_107:\n      pop\n      tag_108\n      tag_109\n      jump\t// in\n    tag_108:\n      stop\n        /* \"StakingPool_flat.sol\":33301:33441  function stakeOf(address _stakeholder)... */\n    tag_14:\n      callvalue\n      dup1\n      iszero\n      tag_110\n      jumpi\n      0x00\n      dup1\n      revert\n    tag_110:\n      pop\n      tag_111\n      0x04\n      dup1\n      calldatasize\n      sub\n      dup2\n      add\n      swap1\n      tag_112\n      swap2\n      swap1\n      tag_53\n      jump\t// in\n    tag_112:\n      tag_113\n      jump\t// in\n    tag_111:\n      mload(0x40)\n      tag_114\n      swap2\n      swap1\n      tag_56\n      jump\t// in\n    tag_114:\n      mload(0x40)\n      dup1\n      swap2\n      sub\n      swap1\n      return\n        /* \"StakingPool_flat.sol\":29003:29048  uint256 public immutable stakingBase = 10**18 */\n    tag_15:\n      callvalue\n      dup1\n      iszero\n      tag_115\n      jumpi\n      0x00\n      dup1\n      revert\n    tag_115:\n      pop\n      tag_116\n      tag_117\n      jump\t// in\n    tag_116:\n      mload(0x40)\n      tag_118\n      swap2\n      swap1\n      tag_56\n      jump\t// in\n    tag_118:\n      mload(0x40)\n      dup1\n      swap2\n      sub\n      swap1\n      return\n        /* \"StakingPool_flat.sol\":35132:35457  function distributeRewards() ... */\n    tag_16:\n      callvalue\n      dup1\n      iszero\n      tag_119\n      jumpi\n      0x00\n      dup1\n      revert\n    tag_119:\n      pop\n      tag_120\n      tag_121\n      jump\t// in\n    tag_120:\n      stop\n        /* \"StakingPool_flat.sol\":19644:19769  function balanceOf(address account) public view virtual override returns (uint256) {... */\n    tag_17:\n      callvalue\n      dup1\n      iszero\n      tag_122\n      jumpi\n      0x00\n      dup1\n      revert\n    tag_122:\n      pop\n      tag_123\n      0x04\n      dup1\n      calldatasize\n      sub\n      dup2\n      add\n      swap1\n      tag_124\n      swap2\n      swap1\n      tag_53\n      jump\t// in\n    tag_124:\n      tag_125\n      jump\t// in\n    tag_123:\n      mload(0x40)\n      tag_126\n      swap2\n      swap1\n      tag_56\n      jump\t// in\n    tag_126:\n      mload(0x40)\n      dup1\n      swap2\n      sub\n      swap1\n      return\n        /* \"StakingPool_flat.sol\":12016:12117  function renounceOwnership() public virtual onlyOwner {... */\n    tag_18:\n      callvalue\n      dup1\n      iszero\n      tag_127\n      jumpi\n      0x00\n      dup1\n      revert\n    tag_127:\n      pop\n      tag_128\n      tag_129\n      jump\t// in\n    tag_128:\n      stop\n        /* \"StakingPool_flat.sol\":29247:29272  uint256 public rewardRate */\n    tag_19:\n      callvalue\n      dup1\n      iszero\n      tag_130\n      jumpi\n      0x00\n      dup1\n      revert\n    tag_130:\n      pop\n      tag_131\n      tag_132\n      jump\t// in\n    tag_131:\n      mload(0x40)\n      tag_133\n      swap2\n      swap1\n      tag_56\n      jump\t// in\n    tag_133:\n      mload(0x40)\n      dup1\n      swap2\n      sub\n      swap1\n      return\n        /* \"StakingPool_flat.sol\":32080:32320  function buyToken(address receiver) public payable returns (uint256){... */\n    tag_20:\n      tag_134\n      0x04\n      dup1\n      calldatasize\n      sub\n      dup2\n      add\n      swap1\n      tag_135\n      swap2\n      swap1\n      tag_53\n      jump\t// in\n    tag_135:\n      tag_136\n      jump\t// in\n    tag_134:\n      mload(0x40)\n      tag_137\n      swap2\n      swap1\n      tag_56\n      jump\t// in\n    tag_137:\n      mload(0x40)\n      dup1\n      swap2\n      sub\n      swap1\n      return\n        /* \"StakingPool_flat.sol\":30945:31098  function lastTimeRewardApplicable() public view returns (uint256) {... */\n    tag_21:\n      callvalue\n      dup1\n      iszero\n      tag_138\n      jumpi\n      0x00\n      dup1\n      revert\n    tag_138:\n      pop\n      tag_139\n      tag_140\n      jump\t// in\n    tag_139:\n      mload(0x40)\n      tag_141\n      swap2\n      swap1\n      tag_56\n      jump\t// in\n    tag_141:\n      mload(0x40)\n      dup1\n      swap2\n      sub\n      swap1\n      return\n        /* \"StakingPool_flat.sol\":32326:32543  function modifyTokenBuyPrice(uint256 _tokenPrice) public onlyOwner returns (uint256)... */\n    tag_22:\n      callvalue\n      dup1\n      iszero\n      tag_142\n      jumpi\n      0x00\n      dup1\n      revert\n    tag_142:\n      pop\n      tag_143\n      0x04\n      dup1\n      calldatasize\n      sub\n      dup2\n      add\n      swap1\n      tag_144\n      swap2\n      swap1\n      tag_80\n      jump\t// in\n    tag_144:\n      tag_145\n      jump\t// in\n    tag_143:\n      mload(0x40)\n      tag_146\n      swap2\n      swap1\n      tag_56\n      jump\t// in\n    tag_146:\n      mload(0x40)\n      dup1\n      swap2\n      sub\n      swap1\n      return\n        /* \"StakingPool_flat.sol\":29864:29921  mapping(address => uint256) public userRewardPerTokenPaid */\n    tag_23:\n      callvalue\n      dup1\n      iszero\n      tag_147\n      jumpi\n      0x00\n      dup1\n      revert\n    tag_147:\n      pop\n      tag_148\n      0x04\n      dup1\n      calldatasize\n      sub\n      dup2\n      add\n      swap1\n      tag_149\n      swap2\n      swap1\n      tag_53\n      jump\t// in\n    tag_149:\n      tag_150\n      jump\t// in\n    tag_148:\n      mload(0x40)\n      tag_151\n      swap2\n      swap1\n      tag_56\n      jump\t// in\n    tag_151:\n      mload(0x40)\n      dup1\n      swap2\n      sub\n      swap1\n      return\n        /* \"StakingPool_flat.sol\":11384:11469  function owner() public view virtual returns (address) {... */\n    tag_24:\n      callvalue\n      dup1\n      iszero\n      tag_152\n      jumpi\n      0x00\n      dup1\n      revert\n    tag_152:\n      pop\n      tag_153\n      tag_154\n      jump\t// in\n    tag_153:\n      mload(0x40)\n      tag_155\n      swap2\n      swap1\n      tag_156\n      jump\t// in\n    tag_155:\n      mload(0x40)\n      dup1\n      swap2\n      sub\n      swap1\n      return\n        /* \"StakingPool_flat.sol\":32970:33295  function removeStake(uint256 _stake)... */\n    tag_25:\n      callvalue\n      dup1\n      iszero\n      tag_157\n      jumpi\n      0x00\n      dup1\n      revert\n    tag_157:\n      pop\n      tag_158\n      0x04\n      dup1\n      calldatasize\n      sub\n      dup2\n      add\n      swap1\n      tag_159\n      swap2\n      swap1\n      tag_80\n      jump\t// in\n    tag_159:\n      tag_160\n      jump\t// in\n    tag_158:\n      stop\n        /* \"StakingPool_flat.sol\":18603:18705  function symbol() public view virtual override returns (string memory) {... */\n    tag_26:\n      callvalue\n      dup1\n      iszero\n      tag_161\n      jumpi\n      0x00\n      dup1\n      revert\n    tag_161:\n      pop\n      tag_162\n      tag_163\n      jump\t// in\n    tag_162:\n      mload(0x40)\n      tag_164\n      swap2\n      swap1\n      tag_61\n      jump\t// in\n    tag_164:\n      mload(0x40)\n      dup1\n      swap2\n      sub\n      swap1\n      return\n        /* \"StakingPool_flat.sol\":22832:23261  function decreaseAllowance(address spender, uint256 subtractedValue) public virtual returns (bool) {... */\n    tag_27:\n      callvalue\n      dup1\n      iszero\n      tag_165\n      jumpi\n      0x00\n      dup1\n      revert\n    tag_165:\n      pop\n      tag_166\n      0x04\n      dup1\n      calldatasize\n      sub\n      dup2\n      add\n      swap1\n      tag_167\n      swap2\n      swap1\n      tag_65\n      jump\t// in\n    tag_167:\n      tag_168\n      jump\t// in\n    tag_166:\n      mload(0x40)\n      tag_169\n      swap2\n      swap1\n      tag_68\n      jump\t// in\n    tag_169:\n      mload(0x40)\n      dup1\n      swap2\n      sub\n      swap1\n      return\n        /* \"StakingPool_flat.sol\":19965:20154  function transfer(address to, uint256 amount) public virtual override returns (bool) {... */\n    tag_28:\n      callvalue\n      dup1\n      iszero\n      tag_170\n      jumpi\n      0x00\n      dup1\n      revert\n    tag_170:\n      pop\n      tag_171\n      0x04\n      dup1\n      calldatasize\n      sub\n      dup2\n      add\n      swap1\n      tag_172\n      swap2\n      swap1\n      tag_65\n      jump\t// in\n    tag_172:\n      tag_173\n      jump\t// in\n    tag_171:\n      mload(0x40)\n      tag_174\n      swap2\n      swap1\n      tag_68\n      jump\t// in\n    tag_174:\n      mload(0x40)\n      dup1\n      swap2\n      sub\n      swap1\n      return\n        /* \"StakingPool_flat.sol\":34226:34513  function removeStakeholder(address _stakeholder)... */\n    tag_29:\n      callvalue\n      dup1\n      iszero\n      tag_175\n      jumpi\n      0x00\n      dup1\n      revert\n    tag_175:\n      pop\n      tag_176\n      0x04\n      dup1\n      calldatasize\n      sub\n      dup2\n      add\n      swap1\n      tag_177\n      swap2\n      swap1\n      tag_53\n      jump\t// in\n    tag_177:\n      tag_178\n      jump\t// in\n    tag_176:\n      stop\n        /* \"StakingPool_flat.sol\":33447:33739  function totalStakes()... */\n    tag_30:\n      callvalue\n      dup1\n      iszero\n      tag_179\n      jumpi\n      0x00\n      dup1\n      revert\n    tag_179:\n      pop\n      tag_180\n      tag_181\n      jump\t// in\n    tag_180:\n      mload(0x40)\n      tag_182\n      swap2\n      swap1\n      tag_56\n      jump\t// in\n    tag_182:\n      mload(0x40)\n      dup1\n      swap2\n      sub\n      swap1\n      return\n        /* \"StakingPool_flat.sol\":35463:35630  function withdrawReward() ... */\n    tag_31:\n      callvalue\n      dup1\n      iszero\n      tag_183\n      jumpi\n      0x00\n      dup1\n      revert\n    tag_183:\n      pop\n      tag_184\n      tag_185\n      jump\t// in\n    tag_184:\n      stop\n        /* \"StakingPool_flat.sol\":29420:29449  uint256 public lastUpdateTime */\n    tag_32:\n      callvalue\n      dup1\n      iszero\n      tag_186\n      jumpi\n      0x00\n      dup1\n      revert\n    tag_186:\n      pop\n      tag_187\n      tag_188\n      jump\t// in\n    tag_187:\n      mload(0x40)\n      tag_189\n      swap2\n      swap1\n      tag_56\n      jump\t// in\n    tag_189:\n      mload(0x40)\n      dup1\n      swap2\n      sub\n      swap1\n      return\n        /* \"StakingPool_flat.sol\":30212:30246  uint256 public tokensPerEth = 1000 */\n    tag_33:\n      callvalue\n      dup1\n      iszero\n      tag_190\n      jumpi\n      0x00\n      dup1\n      revert\n    tag_190:\n      pop\n      tag_191\n      tag_192\n      jump\t// in\n    tag_191:\n      mload(0x40)\n      tag_193\n      swap2\n      swap1\n      tag_56\n      jump\t// in\n    tag_193:\n      mload(0x40)\n      dup1\n      swap2\n      sub\n      swap1\n      return\n        /* \"StakingPool_flat.sol\":31274:31578  function rewardPerToken() public view returns (uint256) {... */\n    tag_34:\n      callvalue\n      dup1\n      iszero\n      tag_194\n      jumpi\n      0x00\n      dup1\n      revert\n    tag_194:\n      pop\n      tag_195\n      tag_196\n      jump\t// in\n    tag_195:\n      mload(0x40)\n      tag_197\n      swap2\n      swap1\n      tag_56\n      jump\t// in\n    tag_197:\n      mload(0x40)\n      dup1\n      swap2\n      sub\n      swap1\n      return\n        /* \"StakingPool_flat.sol\":34972:35126  function calculateReward(address _stakeholder)... */\n    tag_35:\n      callvalue\n      dup1\n      iszero\n      tag_198\n      jumpi\n      0x00\n      dup1\n      revert\n    tag_198:\n      pop\n      tag_199\n      0x04\n      dup1\n      calldatasize\n      sub\n      dup2\n      add\n      swap1\n      tag_200\n      swap2\n      swap1\n      tag_53\n      jump\t// in\n    tag_200:\n      tag_201\n      jump\t// in\n    tag_199:\n      mload(0x40)\n      tag_202\n      swap2\n      swap1\n      tag_56\n      jump\t// in\n    tag_202:\n      mload(0x40)\n      dup1\n      swap2\n      sub\n      swap1\n      return\n        /* \"StakingPool_flat.sol\":20212:20361  function allowance(address owner, address spender) public view virtual override returns (uint256) {... */\n    tag_36:\n      callvalue\n      dup1\n      iszero\n      tag_203\n      jumpi\n      0x00\n      dup1\n      revert\n    tag_203:\n      pop\n      tag_204\n      0x04\n      dup1\n      calldatasize\n      sub\n      dup2\n      add\n      swap1\n      tag_205\n      swap2\n      swap1\n      tag_206\n      jump\t// in\n    tag_205:\n      tag_207\n      jump\t// in\n    tag_204:\n      mload(0x40)\n      tag_208\n      swap2\n      swap1\n      tag_56\n      jump\t// in\n    tag_208:\n      mload(0x40)\n      dup1\n      swap2\n      sub\n      swap1\n      return\n        /* \"StakingPool_flat.sol\":29666:29701  uint256 public rewardPerTokenStored */\n    tag_37:\n      callvalue\n      dup1\n      iszero\n      tag_209\n      jumpi\n      0x00\n      dup1\n      revert\n    tag_209:\n      pop\n      tag_210\n      tag_211\n      jump\t// in\n    tag_210:\n      mload(0x40)\n      tag_212\n      swap2\n      swap1\n      tag_56\n      jump\t// in\n    tag_212:\n      mload(0x40)\n      dup1\n      swap2\n      sub\n      swap1\n      return\n        /* \"StakingPool_flat.sol\":34024:34220  function addStakeholder(address _stakeholder)... */\n    tag_38:\n      callvalue\n      dup1\n      iszero\n      tag_213\n      jumpi\n      0x00\n      dup1\n      revert\n    tag_213:\n      pop\n      tag_214\n      0x04\n      dup1\n      calldatasize\n      sub\n      dup2\n      add\n      swap1\n      tag_215\n      swap2\n      swap1\n      tag_53\n      jump\t// in\n    tag_215:\n      tag_216\n      jump\t// in\n    tag_214:\n      stop\n        /* \"StakingPool_flat.sol\":35922:36017  function exit() public {... */\n    tag_39:\n      callvalue\n      dup1\n      iszero\n      tag_217\n      jumpi\n      0x00\n      dup1\n      revert\n    tag_217:\n      pop\n      tag_218\n      tag_219\n      jump\t// in\n    tag_218:\n      stop\n        /* \"StakingPool_flat.sol\":29127:29154  uint256 public periodFinish */\n    tag_40:\n      callvalue\n      dup1\n      iszero\n      tag_220\n      jumpi\n      0x00\n      dup1\n      revert\n    tag_220:\n      pop\n      tag_221\n      tag_222\n      jump\t// in\n    tag_221:\n      mload(0x40)\n      tag_223\n      swap2\n      swap1\n      tag_56\n      jump\t// in\n    tag_223:\n      mload(0x40)\n      dup1\n      swap2\n      sub\n      swap1\n      return\n        /* \"StakingPool_flat.sol\":33745:34018  function isStakeholder(address _address)... */\n    tag_41:\n      callvalue\n      dup1\n      iszero\n      tag_224\n      jumpi\n      0x00\n      dup1\n      revert\n    tag_224:\n      pop\n      tag_225\n      0x04\n      dup1\n      calldatasize\n      sub\n      dup2\n      add\n      swap1\n      tag_226\n      swap2\n      swap1\n      tag_53\n      jump\t// in\n    tag_226:\n      tag_227\n      jump\t// in\n    tag_225:\n      mload(0x40)\n      tag_228\n      swap3\n      swap2\n      swap1\n      tag_229\n      jump\t// in\n    tag_228:\n      mload(0x40)\n      dup1\n      swap2\n      sub\n      swap1\n      return\n        /* \"StakingPool_flat.sol\":12266:12464  function transferOwnership(address newOwner) public virtual onlyOwner {... */\n    tag_42:\n      callvalue\n      dup1\n      iszero\n      tag_230\n      jumpi\n      0x00\n      dup1\n      revert\n    tag_230:\n      pop\n      tag_231\n      0x04\n      dup1\n      calldatasize\n      sub\n      dup2\n      add\n      swap1\n      tag_232\n      swap2\n      swap1\n      tag_53\n      jump\t// in\n    tag_232:\n      tag_233\n      jump\t// in\n    tag_231:\n      stop\n        /* \"StakingPool_flat.sol\":31842:32073  function earned(address account) public view returns (uint256) {... */\n    tag_54:\n        /* \"StakingPool_flat.sol\":31896:31903  uint256 */\n      0x00\n        /* \"StakingPool_flat.sol\":32050:32057  rewards */\n      0x0f\n        /* \"StakingPool_flat.sol\":32050:32066  rewards[account] */\n      0x00\n        /* \"StakingPool_flat.sol\":32058:32065  account */\n      dup4\n        /* \"StakingPool_flat.sol\":32050:32066  rewards[account] */\n      0xffffffffffffffffffffffffffffffffffffffff\n      and\n      0xffffffffffffffffffffffffffffffffffffffff\n      and\n      dup2\n      mstore\n      0x20\n      add\n      swap1\n      dup2\n      mstore\n      0x20\n      add\n      0x00\n      keccak256\n      sload\n        /* \"StakingPool_flat.sol\":32024:32035  stakingBase */\n      immutable(\"0xbd94aebd75f3a464b0bdb030c3ab29f1e40f42c99f6ff560a3ece3a6549f5898\")\n        /* \"StakingPool_flat.sol\":31976:31998  userRewardPerTokenPaid */\n      0x0c\n        /* \"StakingPool_flat.sol\":31976:32007  userRewardPerTokenPaid[account] */\n      0x00\n        /* \"StakingPool_flat.sol\":31999:32006  account */\n      dup6\n        /* \"StakingPool_flat.sol\":31976:32007  userRewardPerTokenPaid[account] */\n      0xffffffffffffffffffffffffffffffffffffffff\n      and\n      0xffffffffffffffffffffffffffffffffffffffff\n      and\n      dup2\n      mstore\n      0x20\n      add\n      swap1\n      dup2\n      mstore\n      0x20\n      add\n      0x00\n      keccak256\n      sload\n        /* \"StakingPool_flat.sol\":31957:31973  rewardPerToken() */\n      tag_235\n        /* \"StakingPool_flat.sol\":31957:31971  rewardPerToken */\n      tag_196\n        /* \"StakingPool_flat.sol\":31957:31973  rewardPerToken() */\n      jump\t// in\n    tag_235:\n        /* \"StakingPool_flat.sol\":31957:32007  rewardPerToken() - userRewardPerTokenPaid[account] */\n      tag_236\n      swap2\n      swap1\n      tag_237\n      jump\t// in\n    tag_236:\n        /* \"StakingPool_flat.sol\":31935:31953  balanceOf(account) */\n      tag_238\n        /* \"StakingPool_flat.sol\":31945:31952  account */\n      dup6\n        /* \"StakingPool_flat.sol\":31935:31944  balanceOf */\n      tag_125\n        /* \"StakingPool_flat.sol\":31935:31953  balanceOf(account) */\n      jump\t// in\n    tag_238:\n        /* \"StakingPool_flat.sol\":31935:32008  balanceOf(account) * (rewardPerToken() - userRewardPerTokenPaid[account]) */\n      tag_239\n      swap2\n      swap1\n      tag_240\n      jump\t// in\n    tag_239:\n        /* \"StakingPool_flat.sol\":31934:32035  (balanceOf(account) * (rewardPerToken() - userRewardPerTokenPaid[account])) /... */\n      tag_241\n      swap2\n      swap1\n      tag_242\n      jump\t// in\n    tag_241:\n        /* \"StakingPool_flat.sol\":31934:32066  (balanceOf(account) * (rewardPerToken() - userRewardPerTokenPaid[account])) /... */\n      tag_243\n      swap2\n      swap1\n      tag_244\n      jump\t// in\n    tag_243:\n        /* \"StakingPool_flat.sol\":31915:32066  return... */\n      swap1\n      pop\n        /* \"StakingPool_flat.sol\":31842:32073  function earned(address account) public view returns (uint256) {... */\n      swap2\n      swap1\n      pop\n      jump\t// out\n        /* \"StakingPool_flat.sol\":18392:18490  function name() public view virtual override returns (string memory) {... */\n    tag_59:\n        /* \"StakingPool_flat.sol\":18446:18459  string memory */\n      0x60\n        /* \"StakingPool_flat.sol\":18478:18483  _name */\n      0x03\n        /* \"StakingPool_flat.sol\":18471:18483  return _name */\n      dup1\n      sload\n      tag_246\n      swap1\n      tag_247\n      jump\t// in\n    tag_246:\n      dup1\n      0x1f\n      add\n      0x20\n      dup1\n      swap2\n      div\n      mul\n      0x20\n      add\n      mload(0x40)\n      swap1\n      dup2\n      add\n      0x40\n      mstore\n      dup1\n      swap3\n      swap2\n      swap1\n      dup2\n      dup2\n      mstore\n      0x20\n      add\n      dup3\n      dup1\n      sload\n      tag_248\n      swap1\n      tag_247\n      jump\t// in\n    tag_248:\n      dup1\n      iszero\n      tag_249\n      jumpi\n      dup1\n      0x1f\n      lt\n      tag_250\n      jumpi\n      0x0100\n      dup1\n      dup4\n      sload\n      div\n      mul\n      dup4\n      mstore\n      swap2\n      0x20\n      add\n      swap2\n      jump(tag_249)\n    tag_250:\n      dup3\n      add\n      swap2\n      swap1\n      0x00\n      mstore\n      keccak256(0x00, 0x20)\n      swap1\n    tag_251:\n      dup2\n      sload\n      dup2\n      mstore\n      swap1\n      0x01\n      add\n      swap1\n      0x20\n      add\n      dup1\n      dup4\n      gt\n      tag_251\n      jumpi\n      dup3\n      swap1\n      sub\n      0x1f\n      and\n      dup3\n      add\n      swap2\n    tag_249:\n      pop\n      pop\n      pop\n      pop\n      pop\n      swap1\n      pop\n        /* \"StakingPool_flat.sol\":18392:18490  function name() public view virtual override returns (string memory) {... */\n      swap1\n      jump\t// out\n        /* \"StakingPool_flat.sol\":20669:20866  function approve(address spender, uint256 amount) public virtual override returns (bool) {... */\n    tag_66:\n        /* \"StakingPool_flat.sol\":20752:20756  bool */\n      0x00\n        /* \"StakingPool_flat.sol\":20768:20781  address owner */\n      dup1\n        /* \"StakingPool_flat.sol\":20784:20796  _msgSender() */\n      tag_253\n        /* \"StakingPool_flat.sol\":20784:20794  _msgSender */\n      tag_254\n        /* \"StakingPool_flat.sol\":20784:20796  _msgSender() */\n      jump\t// in\n    tag_253:\n        /* \"StakingPool_flat.sol\":20768:20796  address owner = _msgSender() */\n      swap1\n      pop\n        /* \"StakingPool_flat.sol\":20806:20838  _approve(owner, spender, amount) */\n      tag_255\n        /* \"StakingPool_flat.sol\":20815:20820  owner */\n      dup2\n        /* \"StakingPool_flat.sol\":20822:20829  spender */\n      dup6\n        /* \"StakingPool_flat.sol\":20831:20837  amount */\n      dup6\n        /* \"StakingPool_flat.sol\":20806:20814  _approve */\n      tag_256\n        /* \"StakingPool_flat.sol\":20806:20838  _approve(owner, spender, amount) */\n      jump\t// in\n    tag_255:\n        /* \"StakingPool_flat.sol\":20855:20859  true */\n      0x01\n        /* \"StakingPool_flat.sol\":20848:20859  return true */\n      swap2\n      pop\n      pop\n        /* \"StakingPool_flat.sol\":20669:20866  function approve(address spender, uint256 amount) public virtual override returns (bool) {... */\n      swap3\n      swap2\n      pop\n      pop\n      jump\t// out\n        /* \"StakingPool_flat.sol\":34668:34966  function totalRewards()... */\n    tag_71:\n        /* \"StakingPool_flat.sol\":34736:34743  uint256 */\n      0x00\n        /* \"StakingPool_flat.sol\":34759:34780  uint256 _totalRewards */\n      dup1\n        /* \"StakingPool_flat.sol\":34783:34784  0 */\n      0x00\n        /* \"StakingPool_flat.sol\":34759:34784  uint256 _totalRewards = 0 */\n      swap1\n      pop\n        /* \"StakingPool_flat.sol\":34799:34808  uint256 s */\n      0x00\n        /* \"StakingPool_flat.sol\":34794:34930  for (uint256 s = 0; s < stakeholders.length; s += 1){... */\n    tag_258:\n        /* \"StakingPool_flat.sol\":34818:34830  stakeholders */\n      0x0d\n        /* \"StakingPool_flat.sol\":34818:34837  stakeholders.length */\n      dup1\n      sload\n      swap1\n      pop\n        /* \"StakingPool_flat.sol\":34814:34815  s */\n      dup2\n        /* \"StakingPool_flat.sol\":34814:34837  s < stakeholders.length */\n      lt\n        /* \"StakingPool_flat.sol\":34794:34930  for (uint256 s = 0; s < stakeholders.length; s += 1){... */\n      iszero\n      tag_259\n      jumpi\n        /* \"StakingPool_flat.sol\":34876:34919  _totalRewards.add(rewards[stakeholders[s]]) */\n      tag_261\n        /* \"StakingPool_flat.sol\":34894:34901  rewards */\n      0x0f\n        /* \"StakingPool_flat.sol\":34894:34918  rewards[stakeholders[s]] */\n      0x00\n        /* \"StakingPool_flat.sol\":34902:34914  stakeholders */\n      0x0d\n        /* \"StakingPool_flat.sol\":34915:34916  s */\n      dup5\n        /* \"StakingPool_flat.sol\":34902:34917  stakeholders[s] */\n      dup2\n      sload\n      dup2\n      lt\n      tag_262\n      jumpi\n      tag_263\n      tag_264\n      jump\t// in\n    tag_263:\n    tag_262:\n      swap1\n      0x00\n      mstore\n      keccak256(0x00, 0x20)\n      add\n      0x00\n      swap1\n      sload\n      swap1\n      0x0100\n      exp\n      swap1\n      div\n      0xffffffffffffffffffffffffffffffffffffffff\n      and\n        /* \"StakingPool_flat.sol\":34894:34918  rewards[stakeholders[s]] */\n      0xffffffffffffffffffffffffffffffffffffffff\n      and\n      0xffffffffffffffffffffffffffffffffffffffff\n      and\n      dup2\n      mstore\n      0x20\n      add\n      swap1\n      dup2\n      mstore\n      0x20\n      add\n      0x00\n      keccak256\n      sload\n        /* \"StakingPool_flat.sol\":34876:34889  _totalRewards */\n      dup4\n        /* \"StakingPool_flat.sol\":34876:34893  _totalRewards.add */\n      tag_266\n      swap1\n        /* \"StakingPool_flat.sol\":34876:34919  _totalRewards.add(rewards[stakeholders[s]]) */\n      swap2\n      swap1\n      0xffffffff\n      and\n      jump\t// in\n    tag_261:\n        /* \"StakingPool_flat.sol\":34860:34919  _totalRewards = _totalRewards.add(rewards[stakeholders[s]]) */\n      swap2\n      pop\n        /* \"StakingPool_flat.sol\":34844:34845  1 */\n      0x01\n        /* \"StakingPool_flat.sol\":34839:34845  s += 1 */\n      dup2\n      tag_267\n      swap2\n      swap1\n      tag_244\n      jump\t// in\n    tag_267:\n      swap1\n      pop\n        /* \"StakingPool_flat.sol\":34794:34930  for (uint256 s = 0; s < stakeholders.length; s += 1){... */\n      jump(tag_258)\n    tag_259:\n      pop\n        /* \"StakingPool_flat.sol\":34946:34959  _totalRewards */\n      dup1\n        /* \"StakingPool_flat.sol\":34939:34959  return _totalRewards */\n      swap2\n      pop\n      pop\n        /* \"StakingPool_flat.sol\":34668:34966  function totalRewards()... */\n      swap1\n      jump\t// out\n        /* \"StakingPool_flat.sol\":19480:19586  function totalSupply() public view virtual override returns (uint256) {... */\n    tag_75:\n        /* \"StakingPool_flat.sol\":19541:19548  uint256 */\n      0x00\n        /* \"StakingPool_flat.sol\":19567:19579  _totalSupply */\n      sload(0x02)\n        /* \"StakingPool_flat.sol\":19560:19579  return _totalSupply */\n      swap1\n      pop\n        /* \"StakingPool_flat.sol\":19480:19586  function totalSupply() public view virtual override returns (uint256) {... */\n      swap1\n      jump\t// out\n        /* \"StakingPool_flat.sol\":32646:32964  function createStake(uint256 _stake)... */\n    tag_81:\n        /* \"StakingPool_flat.sol\":1777:1778  2 */\n      0x02\n        /* \"StakingPool_flat.sol\":2358:2365  _status */\n      sload(0x06)\n        /* \"StakingPool_flat.sol\":2358:2377  _status != _ENTERED */\n      eq\n      iszero\n        /* \"StakingPool_flat.sol\":2350:2413  require(_status != _ENTERED, \"ReentrancyGuard: reentrant call\") */\n      tag_270\n      jumpi\n      mload(0x40)\n      0x08c379a000000000000000000000000000000000000000000000000000000000\n      dup2\n      mstore\n      0x04\n      add\n      tag_271\n      swap1\n      tag_272\n      jump\t// in\n    tag_271:\n      mload(0x40)\n      dup1\n      swap2\n      sub\n      swap1\n      revert\n    tag_270:\n        /* \"StakingPool_flat.sol\":1777:1778  2 */\n      0x02\n        /* \"StakingPool_flat.sol\":2488:2495  _status */\n      0x06\n        /* \"StakingPool_flat.sol\":2488:2506  _status = _ENTERED */\n      dup2\n      swap1\n      sstore\n      pop\n        /* \"StakingPool_flat.sol\":32740:32750  msg.sender */\n      caller\n        /* \"StakingPool_flat.sol\":30689:30705  rewardPerToken() */\n      tag_274\n        /* \"StakingPool_flat.sol\":30689:30703  rewardPerToken */\n      tag_196\n        /* \"StakingPool_flat.sol\":30689:30705  rewardPerToken() */\n      jump\t// in\n    tag_274:\n        /* \"StakingPool_flat.sol\":30666:30686  rewardPerTokenStored */\n      0x0b\n        /* \"StakingPool_flat.sol\":30666:30705  rewardPerTokenStored = rewardPerToken() */\n      dup2\n      swap1\n      sstore\n      pop\n        /* \"StakingPool_flat.sol\":30732:30758  lastTimeRewardApplicable() */\n      tag_275\n        /* \"StakingPool_flat.sol\":30732:30756  lastTimeRewardApplicable */\n      tag_140\n        /* \"StakingPool_flat.sol\":30732:30758  lastTimeRewardApplicable() */\n      jump\t// in\n    tag_275:\n        /* \"StakingPool_flat.sol\":30715:30729  lastUpdateTime */\n      0x0a\n        /* \"StakingPool_flat.sol\":30715:30758  lastUpdateTime = lastTimeRewardApplicable() */\n      dup2\n      swap1\n      sstore\n      pop\n        /* \"StakingPool_flat.sol\":30791:30792  0 */\n      0x00\n        /* \"StakingPool_flat.sol\":30772:30793  account != address(0) */\n      0xffffffffffffffffffffffffffffffffffffffff\n      and\n        /* \"StakingPool_flat.sol\":30772:30779  account */\n      dup2\n        /* \"StakingPool_flat.sol\":30772:30793  account != address(0) */\n      0xffffffffffffffffffffffffffffffffffffffff\n      and\n      eq\n        /* \"StakingPool_flat.sol\":30768:30922  if (account != address(0)) {... */\n      tag_276\n      jumpi\n        /* \"StakingPool_flat.sol\":30828:30843  earned(account) */\n      tag_277\n        /* \"StakingPool_flat.sol\":30835:30842  account */\n      dup2\n        /* \"StakingPool_flat.sol\":30828:30834  earned */\n      tag_54\n        /* \"StakingPool_flat.sol\":30828:30843  earned(account) */\n      jump\t// in\n    tag_277:\n        /* \"StakingPool_flat.sol\":30809:30816  rewards */\n      0x0f\n        /* \"StakingPool_flat.sol\":30809:30825  rewards[account] */\n      0x00\n        /* \"StakingPool_flat.sol\":30817:30824  account */\n      dup4\n        /* \"StakingPool_flat.sol\":30809:30825  rewards[account] */\n      0xffffffffffffffffffffffffffffffffffffffff\n      and\n      0xffffffffffffffffffffffffffffffffffffffff\n      and\n      dup2\n      mstore\n      0x20\n      add\n      swap1\n      dup2\n      mstore\n      0x20\n      add\n      0x00\n      keccak256\n        /* \"StakingPool_flat.sol\":30809:30843  rewards[account] = earned(account) */\n      dup2\n      swap1\n      sstore\n      pop\n        /* \"StakingPool_flat.sol\":30891:30911  rewardPerTokenStored */\n      sload(0x0b)\n        /* \"StakingPool_flat.sol\":30857:30879  userRewardPerTokenPaid */\n      0x0c\n        /* \"StakingPool_flat.sol\":30857:30888  userRewardPerTokenPaid[account] */\n      0x00\n        /* \"StakingPool_flat.sol\":30880:30887  account */\n      dup4\n        /* \"StakingPool_flat.sol\":30857:30888  userRewardPerTokenPaid[account] */\n      0xffffffffffffffffffffffffffffffffffffffff\n      and\n      0xffffffffffffffffffffffffffffffffffffffff\n      and\n      dup2\n      mstore\n      0x20\n      add\n      swap1\n      dup2\n      mstore\n      0x20\n      add\n      0x00\n      keccak256\n        /* \"StakingPool_flat.sol\":30857:30911  userRewardPerTokenPaid[account] = rewardPerTokenStored */\n      dup2\n      swap1\n      sstore\n      pop\n        /* \"StakingPool_flat.sol\":30768:30922  if (account != address(0)) {... */\n    tag_276:\n        /* \"StakingPool_flat.sol\":32766:32791  _burn(msg.sender, _stake) */\n      tag_279\n        /* \"StakingPool_flat.sol\":32772:32782  msg.sender */\n      caller\n        /* \"StakingPool_flat.sol\":32784:32790  _stake */\n      dup4\n        /* \"StakingPool_flat.sol\":32766:32771  _burn */\n      tag_280\n        /* \"StakingPool_flat.sol\":32766:32791  _burn(msg.sender, _stake) */\n      jump\t// in\n    tag_279:\n        /* \"StakingPool_flat.sol\":32826:32827  0 */\n      0x00\n        /* \"StakingPool_flat.sol\":32804:32810  stakes */\n      0x0e\n        /* \"StakingPool_flat.sol\":32804:32822  stakes[msg.sender] */\n      0x00\n        /* \"StakingPool_flat.sol\":32811:32821  msg.sender */\n      caller\n        /* \"StakingPool_flat.sol\":32804:32822  stakes[msg.sender] */\n      0xffffffffffffffffffffffffffffffffffffffff\n      and\n      0xffffffffffffffffffffffffffffffffffffffff\n      and\n      dup2\n      mstore\n      0x20\n      add\n      swap1\n      dup2\n      mstore\n      0x20\n      add\n      0x00\n      keccak256\n      sload\n        /* \"StakingPool_flat.sol\":32804:32827  stakes[msg.sender] == 0 */\n      eq\n        /* \"StakingPool_flat.sol\":32801:32855  if(stakes[msg.sender] == 0) addStakeholder(msg.sender) */\n      iszero\n      tag_281\n      jumpi\n        /* \"StakingPool_flat.sol\":32829:32855  addStakeholder(msg.sender) */\n      tag_282\n        /* \"StakingPool_flat.sol\":32844:32854  msg.sender */\n      caller\n        /* \"StakingPool_flat.sol\":32829:32843  addStakeholder */\n      tag_216\n        /* \"StakingPool_flat.sol\":32829:32855  addStakeholder(msg.sender) */\n      jump\t// in\n    tag_282:\n        /* \"StakingPool_flat.sol\":32801:32855  if(stakes[msg.sender] == 0) addStakeholder(msg.sender) */\n    tag_281:\n        /* \"StakingPool_flat.sol\":32886:32916  stakes[msg.sender].add(_stake) */\n      tag_283\n        /* \"StakingPool_flat.sol\":32909:32915  _stake */\n      dup3\n        /* \"StakingPool_flat.sol\":32886:32892  stakes */\n      0x0e\n        /* \"StakingPool_flat.sol\":32886:32904  stakes[msg.sender] */\n      0x00\n        /* \"StakingPool_flat.sol\":32893:32903  msg.sender */\n      caller\n        /* \"StakingPool_flat.sol\":32886:32904  stakes[msg.sender] */\n      0xffffffffffffffffffffffffffffffffffffffff\n      and\n      0xffffffffffffffffffffffffffffffffffffffff\n      and\n      dup2\n      mstore\n      0x20\n      add\n      swap1\n      dup2\n      mstore\n      0x20\n      add\n      0x00\n      keccak256\n      sload\n        /* \"StakingPool_flat.sol\":32886:32908  stakes[msg.sender].add */\n      tag_266\n      swap1\n        /* \"StakingPool_flat.sol\":32886:32916  stakes[msg.sender].add(_stake) */\n      swap2\n      swap1\n      0xffffffff\n      and\n      jump\t// in\n    tag_283:\n        /* \"StakingPool_flat.sol\":32865:32871  stakes */\n      0x0e\n        /* \"StakingPool_flat.sol\":32865:32883  stakes[msg.sender] */\n      0x00\n        /* \"StakingPool_flat.sol\":32872:32882  msg.sender */\n      caller\n        /* \"StakingPool_flat.sol\":32865:32883  stakes[msg.sender] */\n      0xffffffffffffffffffffffffffffffffffffffff\n      and\n      0xffffffffffffffffffffffffffffffffffffffff\n      and\n      dup2\n      mstore\n      0x20\n      add\n      swap1\n      dup2\n      mstore\n      0x20\n      add\n      0x00\n      keccak256\n        /* \"StakingPool_flat.sol\":32865:32916  stakes[msg.sender] = stakes[msg.sender].add(_stake) */\n      dup2\n      swap1\n      sstore\n      pop\n        /* \"StakingPool_flat.sol\":32938:32948  msg.sender */\n      caller\n        /* \"StakingPool_flat.sol\":32931:32957  Staked(msg.sender, _stake) */\n      0xffffffffffffffffffffffffffffffffffffffff\n      and\n      0x9e71bc8eea02a63969f509818f2dafb9254532904319f9dbda79b67bd34a5f3d\n        /* \"StakingPool_flat.sol\":32950:32956  _stake */\n      dup4\n        /* \"StakingPool_flat.sol\":32931:32957  Staked(msg.sender, _stake) */\n      mload(0x40)\n      tag_284\n      swap2\n      swap1\n      tag_56\n      jump\t// in\n    tag_284:\n      mload(0x40)\n      dup1\n      swap2\n      sub\n      swap1\n      log2\n        /* \"StakingPool_flat.sol\":2517:2518  _ */\n      pop\n        /* \"StakingPool_flat.sol\":1734:1735  1 */\n      0x01\n        /* \"StakingPool_flat.sol\":2661:2668  _status */\n      0x06\n        /* \"StakingPool_flat.sol\":2661:2683  _status = _NOT_ENTERED */\n      dup2\n      swap1\n      sstore\n      pop\n        /* \"StakingPool_flat.sol\":32646:32964  function createStake(uint256 _stake)... */\n      pop\n      jump\t// out\n        /* \"StakingPool_flat.sol\":34519:34662  function rewardOf(address _stakeholder) ... */\n    tag_85:\n        /* \"StakingPool_flat.sol\":34604:34611  uint256 */\n      0x00\n        /* \"StakingPool_flat.sol\":34634:34641  rewards */\n      0x0f\n        /* \"StakingPool_flat.sol\":34634:34655  rewards[_stakeholder] */\n      0x00\n        /* \"StakingPool_flat.sol\":34642:34654  _stakeholder */\n      dup4\n        /* \"StakingPool_flat.sol\":34634:34655  rewards[_stakeholder] */\n      0xffffffffffffffffffffffffffffffffffffffff\n      and\n      0xffffffffffffffffffffffffffffffffffffffff\n      and\n      dup2\n      mstore\n      0x20\n      add\n      swap1\n      dup2\n      mstore\n      0x20\n      add\n      0x00\n      keccak256\n      sload\n        /* \"StakingPool_flat.sol\":34627:34655  return rewards[_stakeholder] */\n      swap1\n      pop\n        /* \"StakingPool_flat.sol\":34519:34662  function rewardOf(address _stakeholder) ... */\n      swap2\n      swap1\n      pop\n      jump\t// out\n        /* \"StakingPool_flat.sol\":21428:21714  function transferFrom(... */\n    tag_91:\n        /* \"StakingPool_flat.sol\":21555:21559  bool */\n      0x00\n        /* \"StakingPool_flat.sol\":21571:21586  address spender */\n      dup1\n        /* \"StakingPool_flat.sol\":21589:21601  _msgSender() */\n      tag_287\n        /* \"StakingPool_flat.sol\":21589:21599  _msgSender */\n      tag_254\n        /* \"StakingPool_flat.sol\":21589:21601  _msgSender() */\n      jump\t// in\n    tag_287:\n        /* \"StakingPool_flat.sol\":21571:21601  address spender = _msgSender() */\n      swap1\n      pop\n        /* \"StakingPool_flat.sol\":21611:21649  _spendAllowance(from, spender, amount) */\n      tag_288\n        /* \"StakingPool_flat.sol\":21627:21631  from */\n      dup6\n        /* \"StakingPool_flat.sol\":21633:21640  spender */\n      dup3\n        /* \"StakingPool_flat.sol\":21642:21648  amount */\n      dup6\n        /* \"StakingPool_flat.sol\":21611:21626  _spendAllowance */\n      tag_289\n        /* \"StakingPool_flat.sol\":21611:21649  _spendAllowance(from, spender, amount) */\n      jump\t// in\n    tag_288:\n        /* \"StakingPool_flat.sol\":21659:21686  _transfer(from, to, amount) */\n      tag_290\n        /* \"StakingPool_flat.sol\":21669:21673  from */\n      dup6\n        /* \"StakingPool_flat.sol\":21675:21677  to */\n      dup6\n        /* \"StakingPool_flat.sol\":21679:21685  amount */\n      dup6\n        /* \"StakingPool_flat.sol\":21659:21668  _transfer */\n      tag_291\n        /* \"StakingPool_flat.sol\":21659:21686  _transfer(from, to, amount) */\n      jump\t// in\n    tag_290:\n        /* \"StakingPool_flat.sol\":21703:21707  true */\n      0x01\n        /* \"StakingPool_flat.sol\":21696:21707  return true */\n      swap2\n      pop\n      pop\n        /* \"StakingPool_flat.sol\":21428:21714  function transferFrom(... */\n      swap4\n      swap3\n      pop\n      pop\n      pop\n      jump\t// out\n        /* \"StakingPool_flat.sol\":19329:19420  function decimals() public view virtual override returns (uint8) {... */\n    tag_95:\n        /* \"StakingPool_flat.sol\":19387:19392  uint8 */\n      0x00\n        /* \"StakingPool_flat.sol\":19411:19413  18 */\n      0x12\n        /* \"StakingPool_flat.sol\":19404:19413  return 18 */\n      swap1\n      pop\n        /* \"StakingPool_flat.sol\":19329:19420  function decimals() public view virtual override returns (uint8) {... */\n      swap1\n      jump\t// out\n        /* \"StakingPool_flat.sol\":29322:29361  uint256 public rewardsDuration = 7 days */\n    tag_100:\n      sload(0x09)\n      dup2\n      jump\t// out\n        /* \"StakingPool_flat.sol\":22109:22345  function increaseAllowance(address spender, uint256 addedValue) public virtual returns (bool) {... */\n    tag_105:\n        /* \"StakingPool_flat.sol\":22197:22201  bool */\n      0x00\n        /* \"StakingPool_flat.sol\":22213:22226  address owner */\n      dup1\n        /* \"StakingPool_flat.sol\":22229:22241  _msgSender() */\n      tag_294\n        /* \"StakingPool_flat.sol\":22229:22239  _msgSender */\n      tag_254\n        /* \"StakingPool_flat.sol\":22229:22241  _msgSender() */\n      jump\t// in\n    tag_294:\n        /* \"StakingPool_flat.sol\":22213:22241  address owner = _msgSender() */\n      swap1\n      pop\n        /* \"StakingPool_flat.sol\":22251:22317  _approve(owner, spender, _allowances[owner][spender] + addedValue) */\n      tag_295\n        /* \"StakingPool_flat.sol\":22260:22265  owner */\n      dup2\n        /* \"StakingPool_flat.sol\":22267:22274  spender */\n      dup6\n        /* \"StakingPool_flat.sol\":22306:22316  addedValue */\n      dup6\n        /* \"StakingPool_flat.sol\":22276:22287  _allowances */\n      0x01\n        /* \"StakingPool_flat.sol\":22276:22294  _allowances[owner] */\n      0x00\n        /* \"StakingPool_flat.sol\":22288:22293  owner */\n      dup7\n        /* \"StakingPool_flat.sol\":22276:22294  _allowances[owner] */\n      0xffffffffffffffffffffffffffffffffffffffff\n      and\n      0xffffffffffffffffffffffffffffffffffffffff\n      and\n      dup2\n      mstore\n      0x20\n      add\n      swap1\n      dup2\n      mstore\n      0x20\n      add\n      0x00\n      keccak256\n        /* \"StakingPool_flat.sol\":22276:22303  _allowances[owner][spender] */\n      0x00\n        /* \"StakingPool_flat.sol\":22295:22302  spender */\n      dup10\n        /* \"StakingPool_flat.sol\":22276:22303  _allowances[owner][spender] */\n      0xffffffffffffffffffffffffffffffffffffffff\n      and\n      0xffffffffffffffffffffffffffffffffffffffff\n      and\n      dup2\n      mstore\n      0x20\n      add\n      swap1\n      dup2\n      mstore\n      0x20\n      add\n      0x00\n      keccak256\n      sload\n        /* \"StakingPool_flat.sol\":22276:22316  _allowances[owner][spender] + addedValue */\n      tag_296\n      swap2\n      swap1\n      tag_244\n      jump\t// in\n    tag_296:\n        /* \"StakingPool_flat.sol\":22251:22259  _approve */\n      tag_256\n        /* \"StakingPool_flat.sol\":22251:22317  _approve(owner, spender, _allowances[owner][spender] + addedValue) */\n      jump\t// in\n    tag_295:\n        /* \"StakingPool_flat.sol\":22334:22338  true */\n      0x01\n        /* \"StakingPool_flat.sol\":22327:22338  return true */\n      swap2\n      pop\n      pop\n        /* \"StakingPool_flat.sol\":22109:22345  function increaseAllowance(address spender, uint256 addedValue) public virtual returns (bool) {... */\n      swap3\n      swap2\n      pop\n      pop\n      jump\t// out\n        /* \"StakingPool_flat.sol\":35636:35916  function getReward() public nonReentrant updateReward(msg.sender) {... */\n    tag_109:\n        /* \"StakingPool_flat.sol\":1777:1778  2 */\n      0x02\n        /* \"StakingPool_flat.sol\":2358:2365  _status */\n      sload(0x06)\n        /* \"StakingPool_flat.sol\":2358:2377  _status != _ENTERED */\n      eq\n      iszero\n        /* \"StakingPool_flat.sol\":2350:2413  require(_status != _ENTERED, \"ReentrancyGuard: reentrant call\") */\n      tag_298\n      jumpi\n      mload(0x40)\n      0x08c379a000000000000000000000000000000000000000000000000000000000\n      dup2\n      mstore\n      0x04\n      add\n      tag_299\n      swap1\n      tag_272\n      jump\t// in\n    tag_299:\n      mload(0x40)\n      dup1\n      swap2\n      sub\n      swap1\n      revert\n    tag_298:\n        /* \"StakingPool_flat.sol\":1777:1778  2 */\n      0x02\n        /* \"StakingPool_flat.sol\":2488:2495  _status */\n      0x06\n        /* \"StakingPool_flat.sol\":2488:2506  _status = _ENTERED */\n      dup2\n      swap1\n      sstore\n      pop\n        /* \"StakingPool_flat.sol\":35690:35700  msg.sender */\n      caller\n        /* \"StakingPool_flat.sol\":30689:30705  rewardPerToken() */\n      tag_301\n        /* \"StakingPool_flat.sol\":30689:30703  rewardPerToken */\n      tag_196\n        /* \"StakingPool_flat.sol\":30689:30705  rewardPerToken() */\n      jump\t// in\n    tag_301:\n        /* \"StakingPool_flat.sol\":30666:30686  rewardPerTokenStored */\n      0x0b\n        /* \"StakingPool_flat.sol\":30666:30705  rewardPerTokenStored = rewardPerToken() */\n      dup2\n      swap1\n      sstore\n      pop\n        /* \"StakingPool_flat.sol\":30732:30758  lastTimeRewardApplicable() */\n      tag_302\n        /* \"StakingPool_flat.sol\":30732:30756  lastTimeRewardApplicable */\n      tag_140\n        /* \"StakingPool_flat.sol\":30732:30758  lastTimeRewardApplicable() */\n      jump\t// in\n    tag_302:\n        /* \"StakingPool_flat.sol\":30715:30729  lastUpdateTime */\n      0x0a\n        /* \"StakingPool_flat.sol\":30715:30758  lastUpdateTime = lastTimeRewardApplicable() */\n      dup2\n      swap1\n      sstore\n      pop\n        /* \"StakingPool_flat.sol\":30791:30792  0 */\n      0x00\n        /* \"StakingPool_flat.sol\":30772:30793  account != address(0) */\n      0xffffffffffffffffffffffffffffffffffffffff\n      and\n        /* \"StakingPool_flat.sol\":30772:30779  account */\n      dup2\n        /* \"StakingPool_flat.sol\":30772:30793  account != address(0) */\n      0xffffffffffffffffffffffffffffffffffffffff\n      and\n      eq\n        /* \"StakingPool_flat.sol\":30768:30922  if (account != address(0)) {... */\n      tag_303\n      jumpi\n        /* \"StakingPool_flat.sol\":30828:30843  earned(account) */\n      tag_304\n        /* \"StakingPool_flat.sol\":30835:30842  account */\n      dup2\n        /* \"StakingPool_flat.sol\":30828:30834  earned */\n      tag_54\n        /* \"StakingPool_flat.sol\":30828:30843  earned(account) */\n      jump\t// in\n    tag_304:\n        /* \"StakingPool_flat.sol\":30809:30816  rewards */\n      0x0f\n        /* \"StakingPool_flat.sol\":30809:30825  rewards[account] */\n      0x00\n        /* \"StakingPool_flat.sol\":30817:30824  account */\n      dup4\n        /* \"StakingPool_flat.sol\":30809:30825  rewards[account] */\n      0xffffffffffffffffffffffffffffffffffffffff\n      and\n      0xffffffffffffffffffffffffffffffffffffffff\n      and\n      dup2\n      mstore\n      0x20\n      add\n      swap1\n      dup2\n      mstore\n      0x20\n      add\n      0x00\n      keccak256\n        /* \"StakingPool_flat.sol\":30809:30843  rewards[account] = earned(account) */\n      dup2\n      swap1\n      sstore\n      pop\n        /* \"StakingPool_flat.sol\":30891:30911  rewardPerTokenStored */\n      sload(0x0b)\n        /* \"StakingPool_flat.sol\":30857:30879  userRewardPerTokenPaid */\n      0x0c\n        /* \"StakingPool_flat.sol\":30857:30888  userRewardPerTokenPaid[account] */\n      0x00\n        /* \"StakingPool_flat.sol\":30880:30887  account */\n      dup4\n        /* \"StakingPool_flat.sol\":30857:30888  userRewardPerTokenPaid[account] */\n      0xffffffffffffffffffffffffffffffffffffffff\n      and\n      0xffffffffffffffffffffffffffffffffffffffff\n      and\n      dup2\n      mstore\n      0x20\n      add\n      swap1\n      dup2\n      mstore\n      0x20\n      add\n      0x00\n      keccak256\n        /* \"StakingPool_flat.sol\":30857:30911  userRewardPerTokenPaid[account] = rewardPerTokenStored */\n      dup2\n      swap1\n      sstore\n      pop\n        /* \"StakingPool_flat.sol\":30768:30922  if (account != address(0)) {... */\n    tag_303:\n        /* \"StakingPool_flat.sol\":35712:35726  uint256 reward */\n      0x00\n        /* \"StakingPool_flat.sol\":35729:35736  rewards */\n      0x0f\n        /* \"StakingPool_flat.sol\":35729:35748  rewards[msg.sender] */\n      0x00\n        /* \"StakingPool_flat.sol\":35737:35747  msg.sender */\n      caller\n        /* \"StakingPool_flat.sol\":35729:35748  rewards[msg.sender] */\n      0xffffffffffffffffffffffffffffffffffffffff\n      and\n      0xffffffffffffffffffffffffffffffffffffffff\n      and\n      dup2\n      mstore\n      0x20\n      add\n      swap1\n      dup2\n      mstore\n      0x20\n      add\n      0x00\n      keccak256\n      sload\n        /* \"StakingPool_flat.sol\":35712:35748  uint256 reward = rewards[msg.sender] */\n      swap1\n      pop\n        /* \"StakingPool_flat.sol\":35771:35772  0 */\n      0x00\n        /* \"StakingPool_flat.sol\":35762:35768  reward */\n      dup2\n        /* \"StakingPool_flat.sol\":35762:35772  reward > 0 */\n      gt\n        /* \"StakingPool_flat.sol\":35758:35910  if (reward > 0) {... */\n      iszero\n      tag_306\n      jumpi\n        /* \"StakingPool_flat.sol\":35810:35811  0 */\n      0x00\n        /* \"StakingPool_flat.sol\":35788:35795  rewards */\n      0x0f\n        /* \"StakingPool_flat.sol\":35788:35807  rewards[msg.sender] */\n      0x00\n        /* \"StakingPool_flat.sol\":35796:35806  msg.sender */\n      caller\n        /* \"StakingPool_flat.sol\":35788:35807  rewards[msg.sender] */\n      0xffffffffffffffffffffffffffffffffffffffff\n      and\n      0xffffffffffffffffffffffffffffffffffffffff\n      and\n      dup2\n      mstore\n      0x20\n      add\n      swap1\n      dup2\n      mstore\n      0x20\n      add\n      0x00\n      keccak256\n        /* \"StakingPool_flat.sol\":35788:35811  rewards[msg.sender] = 0 */\n      dup2\n      swap1\n      sstore\n      pop\n        /* \"StakingPool_flat.sol\":35825:35850  _mint(msg.sender, reward) */\n      tag_307\n        /* \"StakingPool_flat.sol\":35831:35841  msg.sender */\n      caller\n        /* \"StakingPool_flat.sol\":35843:35849  reward */\n      dup3\n        /* \"StakingPool_flat.sol\":35825:35830  _mint */\n      tag_308\n        /* \"StakingPool_flat.sol\":35825:35850  _mint(msg.sender, reward) */\n      jump\t// in\n    tag_307:\n        /* \"StakingPool_flat.sol\":35880:35890  msg.sender */\n      caller\n        /* \"StakingPool_flat.sol\":35869:35899  RewardPaid(msg.sender, reward) */\n      0xffffffffffffffffffffffffffffffffffffffff\n      and\n      0xe2403640ba68fed3a2f88b7557551d1993f84b99bb10ff833f0cf8db0c5e0486\n        /* \"StakingPool_flat.sol\":35892:35898  reward */\n      dup3\n        /* \"StakingPool_flat.sol\":35869:35899  RewardPaid(msg.sender, reward) */\n      mload(0x40)\n      tag_309\n      swap2\n      swap1\n      tag_56\n      jump\t// in\n    tag_309:\n      mload(0x40)\n      dup1\n      swap2\n      sub\n      swap1\n      log2\n        /* \"StakingPool_flat.sol\":35758:35910  if (reward > 0) {... */\n    tag_306:\n        /* \"StakingPool_flat.sol\":35702:35916  {... */\n      pop\n        /* \"StakingPool_flat.sol\":2517:2518  _ */\n      pop\n        /* \"StakingPool_flat.sol\":1734:1735  1 */\n      0x01\n        /* \"StakingPool_flat.sol\":2661:2668  _status */\n      0x06\n        /* \"StakingPool_flat.sol\":2661:2683  _status = _NOT_ENTERED */\n      dup2\n      swap1\n      sstore\n      pop\n        /* \"StakingPool_flat.sol\":35636:35916  function getReward() public nonReentrant updateReward(msg.sender) {... */\n      jump\t// out\n        /* \"StakingPool_flat.sol\":33301:33441  function stakeOf(address _stakeholder)... */\n    tag_113:\n        /* \"StakingPool_flat.sol\":33384:33391  uint256 */\n      0x00\n        /* \"StakingPool_flat.sol\":33414:33420  stakes */\n      0x0e\n        /* \"StakingPool_flat.sol\":33414:33434  stakes[_stakeholder] */\n      0x00\n        /* \"StakingPool_flat.sol\":33421:33433  _stakeholder */\n      dup4\n        /* \"StakingPool_flat.sol\":33414:33434  stakes[_stakeholder] */\n      0xffffffffffffffffffffffffffffffffffffffff\n      and\n      0xffffffffffffffffffffffffffffffffffffffff\n      and\n      dup2\n      mstore\n      0x20\n      add\n      swap1\n      dup2\n      mstore\n      0x20\n      add\n      0x00\n      keccak256\n      sload\n        /* \"StakingPool_flat.sol\":33407:33434  return stakes[_stakeholder] */\n      swap1\n      pop\n        /* \"StakingPool_flat.sol\":33301:33441  function stakeOf(address _stakeholder)... */\n      swap2\n      swap1\n      pop\n      jump\t// out\n        /* \"StakingPool_flat.sol\":29003:29048  uint256 public immutable stakingBase = 10**18 */\n    tag_117:\n      immutable(\"0xbd94aebd75f3a464b0bdb030c3ab29f1e40f42c99f6ff560a3ece3a6549f5898\")\n      dup2\n      jump\t// out\n        /* \"StakingPool_flat.sol\":35132:35457  function distributeRewards() ... */\n    tag_121:\n        /* \"StakingPool_flat.sol\":11607:11619  _msgSender() */\n      tag_312\n        /* \"StakingPool_flat.sol\":11607:11617  _msgSender */\n      tag_254\n        /* \"StakingPool_flat.sol\":11607:11619  _msgSender() */\n      jump\t// in\n    tag_312:\n        /* \"StakingPool_flat.sol\":11596:11619  owner() == _msgSender() */\n      0xffffffffffffffffffffffffffffffffffffffff\n      and\n        /* \"StakingPool_flat.sol\":11596:11603  owner() */\n      tag_313\n        /* \"StakingPool_flat.sol\":11596:11601  owner */\n      tag_154\n        /* \"StakingPool_flat.sol\":11596:11603  owner() */\n      jump\t// in\n    tag_313:\n        /* \"StakingPool_flat.sol\":11596:11619  owner() == _msgSender() */\n      0xffffffffffffffffffffffffffffffffffffffff\n      and\n      eq\n        /* \"StakingPool_flat.sol\":11588:11656  require(owner() == _msgSender(), \"Ownable: caller is not the owner\") */\n      tag_314\n      jumpi\n      mload(0x40)\n      0x08c379a000000000000000000000000000000000000000000000000000000000\n      dup2\n      mstore\n      0x04\n      add\n      tag_315\n      swap1\n      tag_316\n      jump\t// in\n    tag_315:\n      mload(0x40)\n      dup1\n      swap2\n      sub\n      swap1\n      revert\n    tag_314:\n        /* \"StakingPool_flat.sol\":35214:35223  uint256 s */\n      0x00\n        /* \"StakingPool_flat.sol\":35209:35451  for (uint256 s = 0; s < stakeholders.length; s += 1){... */\n    tag_318:\n        /* \"StakingPool_flat.sol\":35233:35245  stakeholders */\n      0x0d\n        /* \"StakingPool_flat.sol\":35233:35252  stakeholders.length */\n      dup1\n      sload\n      swap1\n      pop\n        /* \"StakingPool_flat.sol\":35229:35230  s */\n      dup2\n        /* \"StakingPool_flat.sol\":35229:35252  s < stakeholders.length */\n      lt\n        /* \"StakingPool_flat.sol\":35209:35451  for (uint256 s = 0; s < stakeholders.length; s += 1){... */\n      iszero\n      tag_319\n      jumpi\n        /* \"StakingPool_flat.sol\":35275:35294  address stakeholder */\n      0x00\n        /* \"StakingPool_flat.sol\":35297:35309  stakeholders */\n      0x0d\n        /* \"StakingPool_flat.sol\":35310:35311  s */\n      dup3\n        /* \"StakingPool_flat.sol\":35297:35312  stakeholders[s] */\n      dup2\n      sload\n      dup2\n      lt\n      tag_321\n      jumpi\n      tag_322\n      tag_264\n      jump\t// in\n    tag_322:\n    tag_321:\n      swap1\n      0x00\n      mstore\n      keccak256(0x00, 0x20)\n      add\n      0x00\n      swap1\n      sload\n      swap1\n      0x0100\n      exp\n      swap1\n      div\n      0xffffffffffffffffffffffffffffffffffffffff\n      and\n        /* \"StakingPool_flat.sol\":35275:35312  address stakeholder = stakeholders[s] */\n      swap1\n      pop\n        /* \"StakingPool_flat.sol\":35326:35340  uint256 reward */\n      0x00\n        /* \"StakingPool_flat.sol\":35343:35371  calculateReward(stakeholder) */\n      tag_324\n        /* \"StakingPool_flat.sol\":35359:35370  stakeholder */\n      dup3\n        /* \"StakingPool_flat.sol\":35343:35358  calculateReward */\n      tag_201\n        /* \"StakingPool_flat.sol\":35343:35371  calculateReward(stakeholder) */\n      jump\t// in\n    tag_324:\n        /* \"StakingPool_flat.sol\":35326:35371  uint256 reward = calculateReward(stakeholder) */\n      swap1\n      pop\n        /* \"StakingPool_flat.sol\":35408:35440  rewards[stakeholder].add(reward) */\n      tag_325\n        /* \"StakingPool_flat.sol\":35433:35439  reward */\n      dup2\n        /* \"StakingPool_flat.sol\":35408:35415  rewards */\n      0x0f\n        /* \"StakingPool_flat.sol\":35408:35428  rewards[stakeholder] */\n      0x00\n        /* \"StakingPool_flat.sol\":35416:35427  stakeholder */\n      dup6\n        /* \"StakingPool_flat.sol\":35408:35428  rewards[stakeholder] */\n      0xffffffffffffffffffffffffffffffffffffffff\n      and\n      0xffffffffffffffffffffffffffffffffffffffff\n      and\n      dup2\n      mstore\n      0x20\n      add\n      swap1\n      dup2\n      mstore\n      0x20\n      add\n      0x00\n      keccak256\n      sload\n        /* \"StakingPool_flat.sol\":35408:35432  rewards[stakeholder].add */\n      tag_266\n      swap1\n        /* \"StakingPool_flat.sol\":35408:35440  rewards[stakeholder].add(reward) */\n      swap2\n      swap1\n      0xffffffff\n      and\n      jump\t// in\n    tag_325:\n        /* \"StakingPool_flat.sol\":35385:35392  rewards */\n      0x0f\n        /* \"StakingPool_flat.sol\":35385:35405  rewards[stakeholder] */\n      0x00\n        /* \"StakingPool_flat.sol\":35393:35404  stakeholder */\n      dup5\n        /* \"StakingPool_flat.sol\":35385:35405  rewards[stakeholder] */\n      0xffffffffffffffffffffffffffffffffffffffff\n      and\n      0xffffffffffffffffffffffffffffffffffffffff\n      and\n      dup2\n      mstore\n      0x20\n      add\n      swap1\n      dup2\n      mstore\n      0x20\n      add\n      0x00\n      keccak256\n        /* \"StakingPool_flat.sol\":35385:35440  rewards[stakeholder] = rewards[stakeholder].add(reward) */\n      dup2\n      swap1\n      sstore\n      pop\n        /* \"StakingPool_flat.sol\":35261:35451  {... */\n      pop\n      pop\n        /* \"StakingPool_flat.sol\":35259:35260  1 */\n      0x01\n        /* \"StakingPool_flat.sol\":35254:35260  s += 1 */\n      dup2\n      tag_326\n      swap2\n      swap1\n      tag_244\n      jump\t// in\n    tag_326:\n      swap1\n      pop\n        /* \"StakingPool_flat.sol\":35209:35451  for (uint256 s = 0; s < stakeholders.length; s += 1){... */\n      jump(tag_318)\n    tag_319:\n      pop\n        /* \"StakingPool_flat.sol\":35132:35457  function distributeRewards() ... */\n      jump\t// out\n        /* \"StakingPool_flat.sol\":19644:19769  function balanceOf(address account) public view virtual override returns (uint256) {... */\n    tag_125:\n        /* \"StakingPool_flat.sol\":19718:19725  uint256 */\n      0x00\n        /* \"StakingPool_flat.sol\":19744:19753  _balances */\n      dup1\n        /* \"StakingPool_flat.sol\":19744:19762  _balances[account] */\n      0x00\n        /* \"StakingPool_flat.sol\":19754:19761  account */\n      dup4\n        /* \"StakingPool_flat.sol\":19744:19762  _balances[account] */\n      0xffffffffffffffffffffffffffffffffffffffff\n      and\n      0xffffffffffffffffffffffffffffffffffffffff\n      and\n      dup2\n      mstore\n      0x20\n      add\n      swap1\n      dup2\n      mstore\n      0x20\n      add\n      0x00\n      keccak256\n      sload\n        /* \"StakingPool_flat.sol\":19737:19762  return _balances[account] */\n      swap1\n      pop\n        /* \"StakingPool_flat.sol\":19644:19769  function balanceOf(address account) public view virtual override returns (uint256) {... */\n      swap2\n      swap1\n      pop\n      jump\t// out\n        /* \"StakingPool_flat.sol\":12016:12117  function renounceOwnership() public virtual onlyOwner {... */\n    tag_129:\n        /* \"StakingPool_flat.sol\":11607:11619  _msgSender() */\n      tag_329\n        /* \"StakingPool_flat.sol\":11607:11617  _msgSender */\n      tag_254\n        /* \"StakingPool_flat.sol\":11607:11619  _msgSender() */\n      jump\t// in\n    tag_329:\n        /* \"StakingPool_flat.sol\":11596:11619  owner() == _msgSender() */\n      0xffffffffffffffffffffffffffffffffffffffff\n      and\n        /* \"StakingPool_flat.sol\":11596:11603  owner() */\n      tag_330\n        /* \"StakingPool_flat.sol\":11596:11601  owner */\n      tag_154\n        /* \"StakingPool_flat.sol\":11596:11603  owner() */\n      jump\t// in\n    tag_330:\n        /* \"StakingPool_flat.sol\":11596:11619  owner() == _msgSender() */\n      0xffffffffffffffffffffffffffffffffffffffff\n      and\n      eq\n        /* \"StakingPool_flat.sol\":11588:11656  require(owner() == _msgSender(), \"Ownable: caller is not the owner\") */\n      tag_331\n      jumpi\n      mload(0x40)\n      0x08c379a000000000000000000000000000000000000000000000000000000000\n      dup2\n      mstore\n      0x04\n      add\n      tag_332\n      swap1\n      tag_316\n      jump\t// in\n    tag_332:\n      mload(0x40)\n      dup1\n      swap2\n      sub\n      swap1\n      revert\n    tag_331:\n        /* \"StakingPool_flat.sol\":12080:12110  _transferOwnership(address(0)) */\n      tag_334\n        /* \"StakingPool_flat.sol\":12107:12108  0 */\n      0x00\n        /* \"StakingPool_flat.sol\":12080:12098  _transferOwnership */\n      tag_335\n        /* \"StakingPool_flat.sol\":12080:12110  _transferOwnership(address(0)) */\n      jump\t// in\n    tag_334:\n        /* \"StakingPool_flat.sol\":12016:12117  function renounceOwnership() public virtual onlyOwner {... */\n      jump\t// out\n        /* \"StakingPool_flat.sol\":29247:29272  uint256 public rewardRate */\n    tag_132:\n      sload(0x08)\n      dup2\n      jump\t// out\n        /* \"StakingPool_flat.sol\":32080:32320  function buyToken(address receiver) public payable returns (uint256){... */\n    tag_136:\n        /* \"StakingPool_flat.sol\":32140:32147  uint256 */\n      0x00\n        /* \"StakingPool_flat.sol\":32158:32177  uint256 tokenAmount */\n      dup1\n        /* \"StakingPool_flat.sol\":32217:32229  tokensPerEth */\n      sload(0x10)\n        /* \"StakingPool_flat.sol\":32203:32213  decimals() */\n      tag_337\n        /* \"StakingPool_flat.sol\":32203:32211  decimals */\n      tag_95\n        /* \"StakingPool_flat.sol\":32203:32213  decimals() */\n      jump\t// in\n    tag_337:\n        /* \"StakingPool_flat.sol\":32197:32199  10 */\n      0x0a\n        /* \"StakingPool_flat.sol\":32197:32213  10 ** decimals() */\n      tag_338\n      swap2\n      swap1\n      tag_339\n      jump\t// in\n    tag_338:\n        /* \"StakingPool_flat.sol\":32193:32194  1 */\n      0x01\n        /* \"StakingPool_flat.sol\":32193:32213  1 * 10 ** decimals() */\n      tag_340\n      swap2\n      swap1\n      tag_240\n      jump\t// in\n    tag_340:\n        /* \"StakingPool_flat.sol\":32180:32189  msg.value */\n      callvalue\n        /* \"StakingPool_flat.sol\":32180:32214  msg.value / (1 * 10 ** decimals()) */\n      tag_341\n      swap2\n      swap1\n      tag_242\n      jump\t// in\n    tag_341:\n        /* \"StakingPool_flat.sol\":32180:32229  msg.value / (1 * 10 ** decimals()) * tokensPerEth */\n      tag_342\n      swap2\n      swap1\n      tag_240\n      jump\t// in\n    tag_342:\n        /* \"StakingPool_flat.sol\":32158:32229  uint256 tokenAmount = msg.value / (1 * 10 ** decimals()) * tokensPerEth */\n      swap1\n      pop\n        /* \"StakingPool_flat.sol\":32248:32276  _mint(receiver, tokenAmount) */\n      tag_343\n        /* \"StakingPool_flat.sol\":32254:32262  receiver */\n      dup4\n        /* \"StakingPool_flat.sol\":32264:32275  tokenAmount */\n      dup3\n        /* \"StakingPool_flat.sol\":32248:32253  _mint */\n      tag_308\n        /* \"StakingPool_flat.sol\":32248:32276  _mint(receiver, tokenAmount) */\n      jump\t// in\n    tag_343:\n        /* \"StakingPool_flat.sol\":32302:32313  tokenAmount */\n      dup1\n        /* \"StakingPool_flat.sol\":32295:32313  return tokenAmount */\n      swap2\n      pop\n      pop\n        /* \"StakingPool_flat.sol\":32080:32320  function buyToken(address receiver) public payable returns (uint256){... */\n      swap2\n      swap1\n      pop\n      jump\t// out\n        /* \"StakingPool_flat.sol\":30945:31098  function lastTimeRewardApplicable() public view returns (uint256) {... */\n    tag_140:\n        /* \"StakingPool_flat.sol\":31002:31009  uint256 */\n      0x00\n        /* \"StakingPool_flat.sol\":31046:31058  periodFinish */\n      sload(0x07)\n        /* \"StakingPool_flat.sol\":31028:31043  block.timestamp */\n      timestamp\n        /* \"StakingPool_flat.sol\":31028:31058  block.timestamp < periodFinish */\n      lt\n        /* \"StakingPool_flat.sol\":31028:31091  block.timestamp < periodFinish ? block.timestamp : periodFinish */\n      tag_345\n      jumpi\n        /* \"StakingPool_flat.sol\":31079:31091  periodFinish */\n      sload(0x07)\n        /* \"StakingPool_flat.sol\":31028:31091  block.timestamp < periodFinish ? block.timestamp : periodFinish */\n      jump(tag_346)\n    tag_345:\n        /* \"StakingPool_flat.sol\":31061:31076  block.timestamp */\n      timestamp\n        /* \"StakingPool_flat.sol\":31028:31091  block.timestamp < periodFinish ? block.timestamp : periodFinish */\n    tag_346:\n        /* \"StakingPool_flat.sol\":31021:31091  return block.timestamp < periodFinish ? block.timestamp : periodFinish */\n      swap1\n      pop\n        /* \"StakingPool_flat.sol\":30945:31098  function lastTimeRewardApplicable() public view returns (uint256) {... */\n      swap1\n      jump\t// out\n        /* \"StakingPool_flat.sol\":32326:32543  function modifyTokenBuyPrice(uint256 _tokenPrice) public onlyOwner returns (uint256)... */\n    tag_145:\n        /* \"StakingPool_flat.sol\":32402:32409  uint256 */\n      0x00\n        /* \"StakingPool_flat.sol\":11607:11619  _msgSender() */\n      tag_348\n        /* \"StakingPool_flat.sol\":11607:11617  _msgSender */\n      tag_254\n        /* \"StakingPool_flat.sol\":11607:11619  _msgSender() */\n      jump\t// in\n    tag_348:\n        /* \"StakingPool_flat.sol\":11596:11619  owner() == _msgSender() */\n      0xffffffffffffffffffffffffffffffffffffffff\n      and\n        /* \"StakingPool_flat.sol\":11596:11603  owner() */\n      tag_349\n        /* \"StakingPool_flat.sol\":11596:11601  owner */\n      tag_154\n        /* \"StakingPool_flat.sol\":11596:11603  owner() */\n      jump\t// in\n    tag_349:\n        /* \"StakingPool_flat.sol\":11596:11619  owner() == _msgSender() */\n      0xffffffffffffffffffffffffffffffffffffffff\n      and\n      eq\n        /* \"StakingPool_flat.sol\":11588:11656  require(owner() == _msgSender(), \"Ownable: caller is not the owner\") */\n      tag_350\n      jumpi\n      mload(0x40)\n      0x08c379a000000000000000000000000000000000000000000000000000000000\n      dup2\n      mstore\n      0x04\n      add\n      tag_351\n      swap1\n      tag_316\n      jump\t// in\n    tag_351:\n      mload(0x40)\n      dup1\n      swap2\n      sub\n      swap1\n      revert\n    tag_350:\n        /* \"StakingPool_flat.sol\":32440:32451  _tokenPrice */\n      dup2\n        /* \"StakingPool_flat.sol\":32425:32437  tokensPerEth */\n      0x10\n        /* \"StakingPool_flat.sol\":32425:32451  tokensPerEth = _tokenPrice */\n      dup2\n      swap1\n      sstore\n      pop\n        /* \"StakingPool_flat.sol\":32475:32506  TokenPriceUpdated(tokensPerEth) */\n      0x6b361c807733cc94a3b7bda39c1c94dcc0511e91aa47b0f7f918068e93976890\n        /* \"StakingPool_flat.sol\":32493:32505  tokensPerEth */\n      sload(0x10)\n        /* \"StakingPool_flat.sol\":32475:32506  TokenPriceUpdated(tokensPerEth) */\n      mload(0x40)\n      tag_353\n      swap2\n      swap1\n      tag_56\n      jump\t// in\n    tag_353:\n      mload(0x40)\n      dup1\n      swap2\n      sub\n      swap1\n      log1\n        /* \"StakingPool_flat.sol\":32524:32536  tokensPerEth */\n      sload(0x10)\n        /* \"StakingPool_flat.sol\":32517:32536  return tokensPerEth */\n      swap1\n      pop\n        /* \"StakingPool_flat.sol\":32326:32543  function modifyTokenBuyPrice(uint256 _tokenPrice) public onlyOwner returns (uint256)... */\n      swap2\n      swap1\n      pop\n      jump\t// out\n        /* \"StakingPool_flat.sol\":29864:29921  mapping(address => uint256) public userRewardPerTokenPaid */\n    tag_150:\n      mstore(0x20, 0x0c)\n      dup1\n      0x00\n      mstore\n      keccak256(0x00, 0x40)\n      0x00\n      swap2\n      pop\n      swap1\n      pop\n      sload\n      dup2\n      jump\t// out\n        /* \"StakingPool_flat.sol\":11384:11469  function owner() public view virtual returns (address) {... */\n    tag_154:\n        /* \"StakingPool_flat.sol\":11430:11437  address */\n      0x00\n        /* \"StakingPool_flat.sol\":11456:11462  _owner */\n      0x05\n      0x00\n      swap1\n      sload\n      swap1\n      0x0100\n      exp\n      swap1\n      div\n      0xffffffffffffffffffffffffffffffffffffffff\n      and\n        /* \"StakingPool_flat.sol\":11449:11462  return _owner */\n      swap1\n      pop\n        /* \"StakingPool_flat.sol\":11384:11469  function owner() public view virtual returns (address) {... */\n      swap1\n      jump\t// out\n        /* \"StakingPool_flat.sol\":32970:33295  function removeStake(uint256 _stake)... */\n    tag_160:\n        /* \"StakingPool_flat.sol\":1777:1778  2 */\n      0x02\n        /* \"StakingPool_flat.sol\":2358:2365  _status */\n      sload(0x06)\n        /* \"StakingPool_flat.sol\":2358:2377  _status != _ENTERED */\n      eq\n      iszero\n        /* \"StakingPool_flat.sol\":2350:2413  require(_status != _ENTERED, \"ReentrancyGuard: reentrant call\") */\n      tag_356\n      jumpi\n      mload(0x40)\n      0x08c379a000000000000000000000000000000000000000000000000000000000\n      dup2\n      mstore\n      0x04\n      add\n      tag_357\n      swap1\n      tag_272\n      jump\t// in\n    tag_357:\n      mload(0x40)\n      dup1\n      swap2\n      sub\n      swap1\n      revert\n    tag_356:\n        /* \"StakingPool_flat.sol\":1777:1778  2 */\n      0x02\n        /* \"StakingPool_flat.sol\":2488:2495  _status */\n      0x06\n        /* \"StakingPool_flat.sol\":2488:2506  _status = _ENTERED */\n      dup2\n      swap1\n      sstore\n      pop\n        /* \"StakingPool_flat.sol\":33065:33075  msg.sender */\n      caller\n        /* \"StakingPool_flat.sol\":30689:30705  rewardPerToken() */\n      tag_359\n        /* \"StakingPool_flat.sol\":30689:30703  rewardPerToken */\n      tag_196\n        /* \"StakingPool_flat.sol\":30689:30705  rewardPerToken() */\n      jump\t// in\n    tag_359:\n        /* \"StakingPool_flat.sol\":30666:30686  rewardPerTokenStored */\n      0x0b\n        /* \"StakingPool_flat.sol\":30666:30705  rewardPerTokenStored = rewardPerToken() */\n      dup2\n      swap1\n      sstore\n      pop\n        /* \"StakingPool_flat.sol\":30732:30758  lastTimeRewardApplicable() */\n      tag_360\n        /* \"StakingPool_flat.sol\":30732:30756  lastTimeRewardApplicable */\n      tag_140\n        /* \"StakingPool_flat.sol\":30732:30758  lastTimeRewardApplicable() */\n      jump\t// in\n    tag_360:\n        /* \"StakingPool_flat.sol\":30715:30729  lastUpdateTime */\n      0x0a\n        /* \"StakingPool_flat.sol\":30715:30758  lastUpdateTime = lastTimeRewardApplicable() */\n      dup2\n      swap1\n      sstore\n      pop\n        /* \"StakingPool_flat.sol\":30791:30792  0 */\n      0x00\n        /* \"StakingPool_flat.sol\":30772:30793  account != address(0) */\n      0xffffffffffffffffffffffffffffffffffffffff\n      and\n        /* \"StakingPool_flat.sol\":30772:30779  account */\n      dup2\n        /* \"StakingPool_flat.sol\":30772:30793  account != address(0) */\n      0xffffffffffffffffffffffffffffffffffffffff\n      and\n      eq\n        /* \"StakingPool_flat.sol\":30768:30922  if (account != address(0)) {... */\n      tag_361\n      jumpi\n        /* \"StakingPool_flat.sol\":30828:30843  earned(account) */\n      tag_362\n        /* \"StakingPool_flat.sol\":30835:30842  account */\n      dup2\n        /* \"StakingPool_flat.sol\":30828:30834  earned */\n      tag_54\n        /* \"StakingPool_flat.sol\":30828:30843  earned(account) */\n      jump\t// in\n    tag_362:\n        /* \"StakingPool_flat.sol\":30809:30816  rewards */\n      0x0f\n        /* \"StakingPool_flat.sol\":30809:30825  rewards[account] */\n      0x00\n        /* \"StakingPool_flat.sol\":30817:30824  account */\n      dup4\n        /* \"StakingPool_flat.sol\":30809:30825  rewards[account] */\n      0xffffffffffffffffffffffffffffffffffffffff\n      and\n      0xffffffffffffffffffffffffffffffffffffffff\n      and\n      dup2\n      mstore\n      0x20\n      add\n      swap1\n      dup2\n      mstore\n      0x20\n      add\n      0x00\n      keccak256\n        /* \"StakingPool_flat.sol\":30809:30843  rewards[account] = earned(account) */\n      dup2\n      swap1\n      sstore\n      pop\n        /* \"StakingPool_flat.sol\":30891:30911  rewardPerTokenStored */\n      sload(0x0b)\n        /* \"StakingPool_flat.sol\":30857:30879  userRewardPerTokenPaid */\n      0x0c\n        /* \"StakingPool_flat.sol\":30857:30888  userRewardPerTokenPaid[account] */\n      0x00\n        /* \"StakingPool_flat.sol\":30880:30887  account */\n      dup4\n        /* \"StakingPool_flat.sol\":30857:30888  userRewardPerTokenPaid[account] */\n      0xffffffffffffffffffffffffffffffffffffffff\n      and\n      0xffffffffffffffffffffffffffffffffffffffff\n      and\n      dup2\n      mstore\n      0x20\n      add\n      swap1\n      dup2\n      mstore\n      0x20\n      add\n      0x00\n      keccak256\n        /* \"StakingPool_flat.sol\":30857:30911  userRewardPerTokenPaid[account] = rewardPerTokenStored */\n      dup2\n      swap1\n      sstore\n      pop\n        /* \"StakingPool_flat.sol\":30768:30922  if (account != address(0)) {... */\n    tag_361:\n        /* \"StakingPool_flat.sol\":33112:33142  stakes[msg.sender].sub(_stake) */\n      tag_364\n        /* \"StakingPool_flat.sol\":33135:33141  _stake */\n      dup3\n        /* \"StakingPool_flat.sol\":33112:33118  stakes */\n      0x0e\n        /* \"StakingPool_flat.sol\":33112:33130  stakes[msg.sender] */\n      0x00\n        /* \"StakingPool_flat.sol\":33119:33129  msg.sender */\n      caller\n        /* \"StakingPool_flat.sol\":33112:33130  stakes[msg.sender] */\n      0xffffffffffffffffffffffffffffffffffffffff\n      and\n      0xffffffffffffffffffffffffffffffffffffffff\n      and\n      dup2\n      mstore\n      0x20\n      add\n      swap1\n      dup2\n      mstore\n      0x20\n      add\n      0x00\n      keccak256\n      sload\n        /* \"StakingPool_flat.sol\":33112:33134  stakes[msg.sender].sub */\n      tag_365\n      swap1\n        /* \"StakingPool_flat.sol\":33112:33142  stakes[msg.sender].sub(_stake) */\n      swap2\n      swap1\n      0xffffffff\n      and\n      jump\t// in\n    tag_364:\n        /* \"StakingPool_flat.sol\":33091:33097  stakes */\n      0x0e\n        /* \"StakingPool_flat.sol\":33091:33109  stakes[msg.sender] */\n      0x00\n        /* \"StakingPool_flat.sol\":33098:33108  msg.sender */\n      caller\n        /* \"StakingPool_flat.sol\":33091:33109  stakes[msg.sender] */\n      0xffffffffffffffffffffffffffffffffffffffff\n      and\n      0xffffffffffffffffffffffffffffffffffffffff\n      and\n      dup2\n      mstore\n      0x20\n      add\n      swap1\n      dup2\n      mstore\n      0x20\n      add\n      0x00\n      keccak256\n        /* \"StakingPool_flat.sol\":33091:33142  stakes[msg.sender] = stakes[msg.sender].sub(_stake) */\n      dup2\n      swap1\n      sstore\n      pop\n        /* \"StakingPool_flat.sol\":33177:33178  0 */\n      0x00\n        /* \"StakingPool_flat.sol\":33155:33161  stakes */\n      0x0e\n        /* \"StakingPool_flat.sol\":33155:33173  stakes[msg.sender] */\n      0x00\n        /* \"StakingPool_flat.sol\":33162:33172  msg.sender */\n      caller\n        /* \"StakingPool_flat.sol\":33155:33173  stakes[msg.sender] */\n      0xffffffffffffffffffffffffffffffffffffffff\n      and\n      0xffffffffffffffffffffffffffffffffffffffff\n      and\n      dup2\n      mstore\n      0x20\n      add\n      swap1\n      dup2\n      mstore\n      0x20\n      add\n      0x00\n      keccak256\n      sload\n        /* \"StakingPool_flat.sol\":33155:33178  stakes[msg.sender] == 0 */\n      eq\n        /* \"StakingPool_flat.sol\":33152:33209  if(stakes[msg.sender] == 0) removeStakeholder(msg.sender) */\n      iszero\n      tag_366\n      jumpi\n        /* \"StakingPool_flat.sol\":33180:33209  removeStakeholder(msg.sender) */\n      tag_367\n        /* \"StakingPool_flat.sol\":33198:33208  msg.sender */\n      caller\n        /* \"StakingPool_flat.sol\":33180:33197  removeStakeholder */\n      tag_178\n        /* \"StakingPool_flat.sol\":33180:33209  removeStakeholder(msg.sender) */\n      jump\t// in\n    tag_367:\n        /* \"StakingPool_flat.sol\":33152:33209  if(stakes[msg.sender] == 0) removeStakeholder(msg.sender) */\n    tag_366:\n        /* \"StakingPool_flat.sol\":33219:33244  _mint(msg.sender, _stake) */\n      tag_368\n        /* \"StakingPool_flat.sol\":33225:33235  msg.sender */\n      caller\n        /* \"StakingPool_flat.sol\":33237:33243  _stake */\n      dup4\n        /* \"StakingPool_flat.sol\":33219:33224  _mint */\n      tag_308\n        /* \"StakingPool_flat.sol\":33219:33244  _mint(msg.sender, _stake) */\n      jump\t// in\n    tag_368:\n        /* \"StakingPool_flat.sol\":33269:33279  msg.sender */\n      caller\n        /* \"StakingPool_flat.sol\":33259:33288  Withdrawn(msg.sender, _stake) */\n      0xffffffffffffffffffffffffffffffffffffffff\n      and\n      0x7084f5476618d8e60b11ef0d7d3f06914655adb8793e28ff7f018d4c76d505d5\n        /* \"StakingPool_flat.sol\":33281:33287  _stake */\n      dup4\n        /* \"StakingPool_flat.sol\":33259:33288  Withdrawn(msg.sender, _stake) */\n      mload(0x40)\n      tag_369\n      swap2\n      swap1\n      tag_56\n      jump\t// in\n    tag_369:\n      mload(0x40)\n      dup1\n      swap2\n      sub\n      swap1\n      log2\n        /* \"StakingPool_flat.sol\":2517:2518  _ */\n      pop\n        /* \"StakingPool_flat.sol\":1734:1735  1 */\n      0x01\n        /* \"StakingPool_flat.sol\":2661:2668  _status */\n      0x06\n        /* \"StakingPool_flat.sol\":2661:2683  _status = _NOT_ENTERED */\n      dup2\n      swap1\n      sstore\n      pop\n        /* \"StakingPool_flat.sol\":32970:33295  function removeStake(uint256 _stake)... */\n      pop\n      jump\t// out\n        /* \"StakingPool_flat.sol\":18603:18705  function symbol() public view virtual override returns (string memory) {... */\n    tag_163:\n        /* \"StakingPool_flat.sol\":18659:18672  string memory */\n      0x60\n        /* \"StakingPool_flat.sol\":18691:18698  _symbol */\n      0x04\n        /* \"StakingPool_flat.sol\":18684:18698  return _symbol */\n      dup1\n      sload\n      tag_371\n      swap1\n      tag_247\n      jump\t// in\n    tag_371:\n      dup1\n      0x1f\n      add\n      0x20\n      dup1\n      swap2\n      div\n      mul\n      0x20\n      add\n      mload(0x40)\n      swap1\n      dup2\n      add\n      0x40\n      mstore\n      dup1\n      swap3\n      swap2\n      swap1\n      dup2\n      dup2\n      mstore\n      0x20\n      add\n      dup3\n      dup1\n      sload\n      tag_372\n      swap1\n      tag_247\n      jump\t// in\n    tag_372:\n      dup1\n      iszero\n      tag_373\n      jumpi\n      dup1\n      0x1f\n      lt\n      tag_374\n      jumpi\n      0x0100\n      dup1\n      dup4\n      sload\n      div\n      mul\n      dup4\n      mstore\n      swap2\n      0x20\n      add\n      swap2\n      jump(tag_373)\n    tag_374:\n      dup3\n      add\n      swap2\n      swap1\n      0x00\n      mstore\n      keccak256(0x00, 0x20)\n      swap1\n    tag_375:\n      dup2\n      sload\n      dup2\n      mstore\n      swap1\n      0x01\n      add\n      swap1\n      0x20\n      add\n      dup1\n      dup4\n      gt\n      tag_375\n      jumpi\n      dup3\n      swap1\n      sub\n      0x1f\n      and\n      dup3\n      add\n      swap2\n    tag_373:\n      pop\n      pop\n      pop\n      pop\n      pop\n      swap1\n      pop\n        /* \"StakingPool_flat.sol\":18603:18705  function symbol() public view virtual override returns (string memory) {... */\n      swap1\n      jump\t// out\n        /* \"StakingPool_flat.sol\":22832:23261  function decreaseAllowance(address spender, uint256 subtractedValue) public virtual returns (bool) {... */\n    tag_168:\n        /* \"StakingPool_flat.sol\":22925:22929  bool */\n      0x00\n        /* \"StakingPool_flat.sol\":22941:22954  address owner */\n      dup1\n        /* \"StakingPool_flat.sol\":22957:22969  _msgSender() */\n      tag_377\n        /* \"StakingPool_flat.sol\":22957:22967  _msgSender */\n      tag_254\n        /* \"StakingPool_flat.sol\":22957:22969  _msgSender() */\n      jump\t// in\n    tag_377:\n        /* \"StakingPool_flat.sol\":22941:22969  address owner = _msgSender() */\n      swap1\n      pop\n        /* \"StakingPool_flat.sol\":22979:23003  uint256 currentAllowance */\n      0x00\n        /* \"StakingPool_flat.sol\":23006:23017  _allowances */\n      0x01\n        /* \"StakingPool_flat.sol\":23006:23024  _allowances[owner] */\n      0x00\n        /* \"StakingPool_flat.sol\":23018:23023  owner */\n      dup4\n        /* \"StakingPool_flat.sol\":23006:23024  _allowances[owner] */\n      0xffffffffffffffffffffffffffffffffffffffff\n      and\n      0xffffffffffffffffffffffffffffffffffffffff\n      and\n      dup2\n      mstore\n      0x20\n      add\n      swap1\n      dup2\n      mstore\n      0x20\n      add\n      0x00\n      keccak256\n        /* \"StakingPool_flat.sol\":23006:23033  _allowances[owner][spender] */\n      0x00\n        /* \"StakingPool_flat.sol\":23025:23032  spender */\n      dup7\n        /* \"StakingPool_flat.sol\":23006:23033  _allowances[owner][spender] */\n      0xffffffffffffffffffffffffffffffffffffffff\n      and\n      0xffffffffffffffffffffffffffffffffffffffff\n      and\n      dup2\n      mstore\n      0x20\n      add\n      swap1\n      dup2\n      mstore\n      0x20\n      add\n      0x00\n      keccak256\n      sload\n        /* \"StakingPool_flat.sol\":22979:23033  uint256 currentAllowance = _allowances[owner][spender] */\n      swap1\n      pop\n        /* \"StakingPool_flat.sol\":23071:23086  subtractedValue */\n      dup4\n        /* \"StakingPool_flat.sol\":23051:23067  currentAllowance */\n      dup2\n        /* \"StakingPool_flat.sol\":23051:23086  currentAllowance >= subtractedValue */\n      lt\n      iszero\n        /* \"StakingPool_flat.sol\":23043:23128  require(currentAllowance >= subtractedValue, \"ERC20: decreased allowance below zero\") */\n      tag_378\n      jumpi\n      mload(0x40)\n      0x08c379a000000000000000000000000000000000000000000000000000000000\n      dup2\n      mstore\n      0x04\n      add\n      tag_379\n      swap1\n      tag_380\n      jump\t// in\n    tag_379:\n      mload(0x40)\n      dup1\n      swap2\n      sub\n      swap1\n      revert\n    tag_378:\n        /* \"StakingPool_flat.sol\":23162:23222  _approve(owner, spender, currentAllowance - subtractedValue) */\n      tag_381\n        /* \"StakingPool_flat.sol\":23171:23176  owner */\n      dup3\n        /* \"StakingPool_flat.sol\":23178:23185  spender */\n      dup7\n        /* \"StakingPool_flat.sol\":23206:23221  subtractedValue */\n      dup7\n        /* \"StakingPool_flat.sol\":23187:23203  currentAllowance */\n      dup5\n        /* \"StakingPool_flat.sol\":23187:23221  currentAllowance - subtractedValue */\n      sub\n        /* \"StakingPool_flat.sol\":23162:23170  _approve */\n      tag_256\n        /* \"StakingPool_flat.sol\":23162:23222  _approve(owner, spender, currentAllowance - subtractedValue) */\n      jump\t// in\n    tag_381:\n        /* \"StakingPool_flat.sol\":23250:23254  true */\n      0x01\n        /* \"StakingPool_flat.sol\":23243:23254  return true */\n      swap3\n      pop\n      pop\n      pop\n        /* \"StakingPool_flat.sol\":22832:23261  function decreaseAllowance(address spender, uint256 subtractedValue) public virtual returns (bool) {... */\n      swap3\n      swap2\n      pop\n      pop\n      jump\t// out\n        /* \"StakingPool_flat.sol\":19965:20154  function transfer(address to, uint256 amount) public virtual override returns (bool) {... */\n    tag_173:\n        /* \"StakingPool_flat.sol\":20044:20048  bool */\n      0x00\n        /* \"StakingPool_flat.sol\":20060:20073  address owner */\n      dup1\n        /* \"StakingPool_flat.sol\":20076:20088  _msgSender() */\n      tag_383\n        /* \"StakingPool_flat.sol\":20076:20086  _msgSender */\n      tag_254\n        /* \"StakingPool_flat.sol\":20076:20088  _msgSender() */\n      jump\t// in\n    tag_383:\n        /* \"StakingPool_flat.sol\":20060:20088  address owner = _msgSender() */\n      swap1\n      pop\n        /* \"StakingPool_flat.sol\":20098:20126  _transfer(owner, to, amount) */\n      tag_384\n        /* \"StakingPool_flat.sol\":20108:20113  owner */\n      dup2\n        /* \"StakingPool_flat.sol\":20115:20117  to */\n      dup6\n        /* \"StakingPool_flat.sol\":20119:20125  amount */\n      dup6\n        /* \"StakingPool_flat.sol\":20098:20107  _transfer */\n      tag_291\n        /* \"StakingPool_flat.sol\":20098:20126  _transfer(owner, to, amount) */\n      jump\t// in\n    tag_384:\n        /* \"StakingPool_flat.sol\":20143:20147  true */\n      0x01\n        /* \"StakingPool_flat.sol\":20136:20147  return true */\n      swap2\n      pop\n      pop\n        /* \"StakingPool_flat.sol\":19965:20154  function transfer(address to, uint256 amount) public virtual override returns (bool) {... */\n      swap3\n      swap2\n      pop\n      pop\n      jump\t// out\n        /* \"StakingPool_flat.sol\":34226:34513  function removeStakeholder(address _stakeholder)... */\n    tag_178:\n        /* \"StakingPool_flat.sol\":34305:34324  bool _isStakeholder */\n      0x00\n        /* \"StakingPool_flat.sol\":34326:34335  uint256 s */\n      dup1\n        /* \"StakingPool_flat.sol\":34339:34366  isStakeholder(_stakeholder) */\n      tag_386\n        /* \"StakingPool_flat.sol\":34353:34365  _stakeholder */\n      dup4\n        /* \"StakingPool_flat.sol\":34339:34352  isStakeholder */\n      tag_227\n        /* \"StakingPool_flat.sol\":34339:34366  isStakeholder(_stakeholder) */\n      jump\t// in\n    tag_386:\n        /* \"StakingPool_flat.sol\":34304:34366  (bool _isStakeholder, uint256 s) = isStakeholder(_stakeholder) */\n      swap2\n      pop\n      swap2\n      pop\n        /* \"StakingPool_flat.sol\":34379:34393  _isStakeholder */\n      dup2\n        /* \"StakingPool_flat.sol\":34376:34506  if(_isStakeholder){... */\n      iszero\n      tag_387\n      jumpi\n        /* \"StakingPool_flat.sol\":34426:34438  stakeholders */\n      0x0d\n        /* \"StakingPool_flat.sol\":34461:34462  1 */\n      0x01\n        /* \"StakingPool_flat.sol\":34439:34451  stakeholders */\n      0x0d\n        /* \"StakingPool_flat.sol\":34439:34458  stakeholders.length */\n      dup1\n      sload\n      swap1\n      pop\n        /* \"StakingPool_flat.sol\":34439:34462  stakeholders.length - 1 */\n      tag_388\n      swap2\n      swap1\n      tag_237\n      jump\t// in\n    tag_388:\n        /* \"StakingPool_flat.sol\":34426:34463  stakeholders[stakeholders.length - 1] */\n      dup2\n      sload\n      dup2\n      lt\n      tag_389\n      jumpi\n      tag_390\n      tag_264\n      jump\t// in\n    tag_390:\n    tag_389:\n      swap1\n      0x00\n      mstore\n      keccak256(0x00, 0x20)\n      add\n      0x00\n      swap1\n      sload\n      swap1\n      0x0100\n      exp\n      swap1\n      div\n      0xffffffffffffffffffffffffffffffffffffffff\n      and\n        /* \"StakingPool_flat.sol\":34408:34420  stakeholders */\n      0x0d\n        /* \"StakingPool_flat.sol\":34421:34422  s */\n      dup3\n        /* \"StakingPool_flat.sol\":34408:34423  stakeholders[s] */\n      dup2\n      sload\n      dup2\n      lt\n      tag_392\n      jumpi\n      tag_393\n      tag_264\n      jump\t// in\n    tag_393:\n    tag_392:\n      swap1\n      0x00\n      mstore\n      keccak256(0x00, 0x20)\n      add\n      0x00\n        /* \"StakingPool_flat.sol\":34408:34463  stakeholders[s] = stakeholders[stakeholders.length - 1] */\n      0x0100\n      exp\n      dup2\n      sload\n      dup2\n      0xffffffffffffffffffffffffffffffffffffffff\n      mul\n      not\n      and\n      swap1\n      dup4\n      0xffffffffffffffffffffffffffffffffffffffff\n      and\n      mul\n      or\n      swap1\n      sstore\n      pop\n        /* \"StakingPool_flat.sol\":34477:34489  stakeholders */\n      0x0d\n        /* \"StakingPool_flat.sol\":34477:34495  stakeholders.pop() */\n      dup1\n      sload\n      dup1\n      tag_395\n      jumpi\n      tag_396\n      tag_397\n      jump\t// in\n    tag_396:\n    tag_395:\n      0x01\n      swap1\n      sub\n      dup2\n      dup2\n      swap1\n      0x00\n      mstore\n      keccak256(0x00, 0x20)\n      add\n      exp(0x0100, 0x00)\n      dup2\n      sload\n      swap1\n      0xffffffffffffffffffffffffffffffffffffffff\n      mul\n      not\n      and\n      swap1\n      sstore\n      swap1\n      sstore\n        /* \"StakingPool_flat.sol\":34376:34506  if(_isStakeholder){... */\n    tag_387:\n        /* \"StakingPool_flat.sol\":34294:34513  {... */\n      pop\n      pop\n        /* \"StakingPool_flat.sol\":34226:34513  function removeStakeholder(address _stakeholder)... */\n      pop\n      jump\t// out\n        /* \"StakingPool_flat.sol\":33447:33739  function totalStakes()... */\n    tag_181:\n        /* \"StakingPool_flat.sol\":33514:33521  uint256 */\n      0x00\n        /* \"StakingPool_flat.sol\":33537:33557  uint256 _totalStakes */\n      dup1\n        /* \"StakingPool_flat.sol\":33560:33561  0 */\n      0x00\n        /* \"StakingPool_flat.sol\":33537:33561  uint256 _totalStakes = 0 */\n      swap1\n      pop\n        /* \"StakingPool_flat.sol\":33576:33585  uint256 s */\n      0x00\n        /* \"StakingPool_flat.sol\":33571:33704  for (uint256 s = 0; s < stakeholders.length; s += 1){... */\n    tag_400:\n        /* \"StakingPool_flat.sol\":33595:33607  stakeholders */\n      0x0d\n        /* \"StakingPool_flat.sol\":33595:33614  stakeholders.length */\n      dup1\n      sload\n      swap1\n      pop\n        /* \"StakingPool_flat.sol\":33591:33592  s */\n      dup2\n        /* \"StakingPool_flat.sol\":33591:33614  s < stakeholders.length */\n      lt\n        /* \"StakingPool_flat.sol\":33571:33704  for (uint256 s = 0; s < stakeholders.length; s += 1){... */\n      iszero\n      tag_401\n      jumpi\n        /* \"StakingPool_flat.sol\":33652:33693  _totalStakes.add(stakes[stakeholders[s]]) */\n      tag_403\n        /* \"StakingPool_flat.sol\":33669:33675  stakes */\n      0x0e\n        /* \"StakingPool_flat.sol\":33669:33692  stakes[stakeholders[s]] */\n      0x00\n        /* \"StakingPool_flat.sol\":33676:33688  stakeholders */\n      0x0d\n        /* \"StakingPool_flat.sol\":33689:33690  s */\n      dup5\n        /* \"StakingPool_flat.sol\":33676:33691  stakeholders[s] */\n      dup2\n      sload\n      dup2\n      lt\n      tag_404\n      jumpi\n      tag_405\n      tag_264\n      jump\t// in\n    tag_405:\n    tag_404:\n      swap1\n      0x00\n      mstore\n      keccak256(0x00, 0x20)\n      add\n      0x00\n      swap1\n      sload\n      swap1\n      0x0100\n      exp\n      swap1\n      div\n      0xffffffffffffffffffffffffffffffffffffffff\n      and\n        /* \"StakingPool_flat.sol\":33669:33692  stakes[stakeholders[s]] */\n      0xffffffffffffffffffffffffffffffffffffffff\n      and\n      0xffffffffffffffffffffffffffffffffffffffff\n      and\n      dup2\n      mstore\n      0x20\n      add\n      swap1\n      dup2\n      mstore\n      0x20\n      add\n      0x00\n      keccak256\n      sload\n        /* \"StakingPool_flat.sol\":33652:33664  _totalStakes */\n      dup4\n        /* \"StakingPool_flat.sol\":33652:33668  _totalStakes.add */\n      tag_266\n      swap1\n        /* \"StakingPool_flat.sol\":33652:33693  _totalStakes.add(stakes[stakeholders[s]]) */\n      swap2\n      swap1\n      0xffffffff\n      and\n      jump\t// in\n    tag_403:\n        /* \"StakingPool_flat.sol\":33637:33693  _totalStakes = _totalStakes.add(stakes[stakeholders[s]]) */\n      swap2\n      pop\n        /* \"StakingPool_flat.sol\":33621:33622  1 */\n      0x01\n        /* \"StakingPool_flat.sol\":33616:33622  s += 1 */\n      dup2\n      tag_407\n      swap2\n      swap1\n      tag_244\n      jump\t// in\n    tag_407:\n      swap1\n      pop\n        /* \"StakingPool_flat.sol\":33571:33704  for (uint256 s = 0; s < stakeholders.length; s += 1){... */\n      jump(tag_400)\n    tag_401:\n      pop\n        /* \"StakingPool_flat.sol\":33720:33732  _totalStakes */\n      dup1\n        /* \"StakingPool_flat.sol\":33713:33732  return _totalStakes */\n      swap2\n      pop\n      pop\n        /* \"StakingPool_flat.sol\":33447:33739  function totalStakes()... */\n      swap1\n      jump\t// out\n        /* \"StakingPool_flat.sol\":35463:35630  function withdrawReward() ... */\n    tag_185:\n        /* \"StakingPool_flat.sol\":35519:35533  uint256 reward */\n      0x00\n        /* \"StakingPool_flat.sol\":35536:35543  rewards */\n      0x0f\n        /* \"StakingPool_flat.sol\":35536:35555  rewards[msg.sender] */\n      0x00\n        /* \"StakingPool_flat.sol\":35544:35554  msg.sender */\n      caller\n        /* \"StakingPool_flat.sol\":35536:35555  rewards[msg.sender] */\n      0xffffffffffffffffffffffffffffffffffffffff\n      and\n      0xffffffffffffffffffffffffffffffffffffffff\n      and\n      dup2\n      mstore\n      0x20\n      add\n      swap1\n      dup2\n      mstore\n      0x20\n      add\n      0x00\n      keccak256\n      sload\n        /* \"StakingPool_flat.sol\":35519:35555  uint256 reward = rewards[msg.sender] */\n      swap1\n      pop\n        /* \"StakingPool_flat.sol\":35587:35588  0 */\n      0x00\n        /* \"StakingPool_flat.sol\":35565:35572  rewards */\n      0x0f\n        /* \"StakingPool_flat.sol\":35565:35584  rewards[msg.sender] */\n      0x00\n        /* \"StakingPool_flat.sol\":35573:35583  msg.sender */\n      caller\n        /* \"StakingPool_flat.sol\":35565:35584  rewards[msg.sender] */\n      0xffffffffffffffffffffffffffffffffffffffff\n      and\n      0xffffffffffffffffffffffffffffffffffffffff\n      and\n      dup2\n      mstore\n      0x20\n      add\n      swap1\n      dup2\n      mstore\n      0x20\n      add\n      0x00\n      keccak256\n        /* \"StakingPool_flat.sol\":35565:35588  rewards[msg.sender] = 0 */\n      dup2\n      swap1\n      sstore\n      pop\n        /* \"StakingPool_flat.sol\":35598:35623  _mint(msg.sender, reward) */\n      tag_409\n        /* \"StakingPool_flat.sol\":35604:35614  msg.sender */\n      caller\n        /* \"StakingPool_flat.sol\":35616:35622  reward */\n      dup3\n        /* \"StakingPool_flat.sol\":35598:35603  _mint */\n      tag_308\n        /* \"StakingPool_flat.sol\":35598:35623  _mint(msg.sender, reward) */\n      jump\t// in\n    tag_409:\n        /* \"StakingPool_flat.sol\":35509:35630  {... */\n      pop\n        /* \"StakingPool_flat.sol\":35463:35630  function withdrawReward() ... */\n      jump\t// out\n        /* \"StakingPool_flat.sol\":29420:29449  uint256 public lastUpdateTime */\n    tag_188:\n      sload(0x0a)\n      dup2\n      jump\t// out\n        /* \"StakingPool_flat.sol\":30212:30246  uint256 public tokensPerEth = 1000 */\n    tag_192:\n      sload(0x10)\n      dup2\n      jump\t// out\n        /* \"StakingPool_flat.sol\":31274:31578  function rewardPerToken() public view returns (uint256) {... */\n    tag_196:\n        /* \"StakingPool_flat.sol\":31321:31328  uint256 */\n      0x00\n        /* \"StakingPool_flat.sol\":31361:31362  0 */\n      dup1\n        /* \"StakingPool_flat.sol\":31344:31357  totalSupply() */\n      tag_411\n        /* \"StakingPool_flat.sol\":31344:31355  totalSupply */\n      tag_75\n        /* \"StakingPool_flat.sol\":31344:31357  totalSupply() */\n      jump\t// in\n    tag_411:\n        /* \"StakingPool_flat.sol\":31344:31362  totalSupply() == 0 */\n      eq\n        /* \"StakingPool_flat.sol\":31340:31416  if (totalSupply() == 0) {... */\n      iszero\n      tag_412\n      jumpi\n        /* \"StakingPool_flat.sol\":31385:31405  rewardPerTokenStored */\n      sload(0x0b)\n        /* \"StakingPool_flat.sol\":31378:31405  return rewardPerTokenStored */\n      swap1\n      pop\n      jump(tag_410)\n        /* \"StakingPool_flat.sol\":31340:31416  if (totalSupply() == 0) {... */\n    tag_412:\n        /* \"StakingPool_flat.sol\":31557:31570  totalSupply() */\n      tag_413\n        /* \"StakingPool_flat.sol\":31557:31568  totalSupply */\n      tag_75\n        /* \"StakingPool_flat.sol\":31557:31570  totalSupply() */\n      jump\t// in\n    tag_413:\n        /* \"StakingPool_flat.sol\":31542:31553  stakingBase */\n      immutable(\"0xbd94aebd75f3a464b0bdb030c3ab29f1e40f42c99f6ff560a3ece3a6549f5898\")\n        /* \"StakingPool_flat.sol\":31529:31539  rewardRate */\n      sload(0x08)\n        /* \"StakingPool_flat.sol\":31511:31525  lastUpdateTime */\n      sload(0x0a)\n        /* \"StakingPool_flat.sol\":31482:31508  lastTimeRewardApplicable() */\n      tag_414\n        /* \"StakingPool_flat.sol\":31482:31506  lastTimeRewardApplicable */\n      tag_140\n        /* \"StakingPool_flat.sol\":31482:31508  lastTimeRewardApplicable() */\n      jump\t// in\n    tag_414:\n        /* \"StakingPool_flat.sol\":31482:31525  lastTimeRewardApplicable() - lastUpdateTime */\n      tag_415\n      swap2\n      swap1\n      tag_237\n      jump\t// in\n    tag_415:\n        /* \"StakingPool_flat.sol\":31481:31539  (lastTimeRewardApplicable() - lastUpdateTime) * rewardRate */\n      tag_416\n      swap2\n      swap1\n      tag_240\n      jump\t// in\n    tag_416:\n        /* \"StakingPool_flat.sol\":31481:31553  (lastTimeRewardApplicable() - lastUpdateTime) * rewardRate * stakingBase */\n      tag_417\n      swap2\n      swap1\n      tag_240\n      jump\t// in\n    tag_417:\n        /* \"StakingPool_flat.sol\":31480:31570  ((lastTimeRewardApplicable() - lastUpdateTime) * rewardRate * stakingBase) / totalSupply() */\n      tag_418\n      swap2\n      swap1\n      tag_242\n      jump\t// in\n    tag_418:\n        /* \"StakingPool_flat.sol\":31444:31464  rewardPerTokenStored */\n      sload(0x0b)\n        /* \"StakingPool_flat.sol\":31444:31571  rewardPerTokenStored +... */\n      tag_419\n      swap2\n      swap1\n      tag_244\n      jump\t// in\n    tag_419:\n        /* \"StakingPool_flat.sol\":31425:31571  return... */\n      swap1\n      pop\n        /* \"StakingPool_flat.sol\":31274:31578  function rewardPerToken() public view returns (uint256) {... */\n    tag_410:\n      swap1\n      jump\t// out\n        /* \"StakingPool_flat.sol\":34972:35126  function calculateReward(address _stakeholder)... */\n    tag_201:\n        /* \"StakingPool_flat.sol\":35063:35070  uint256 */\n      0x00\n        /* \"StakingPool_flat.sol\":35116:35119  100 */\n      0x64\n        /* \"StakingPool_flat.sol\":35093:35099  stakes */\n      0x0e\n        /* \"StakingPool_flat.sol\":35093:35113  stakes[_stakeholder] */\n      0x00\n        /* \"StakingPool_flat.sol\":35100:35112  _stakeholder */\n      dup5\n        /* \"StakingPool_flat.sol\":35093:35113  stakes[_stakeholder] */\n      0xffffffffffffffffffffffffffffffffffffffff\n      and\n      0xffffffffffffffffffffffffffffffffffffffff\n      and\n      dup2\n      mstore\n      0x20\n      add\n      swap1\n      dup2\n      mstore\n      0x20\n      add\n      0x00\n      keccak256\n      sload\n        /* \"StakingPool_flat.sol\":35093:35119  stakes[_stakeholder] / 100 */\n      tag_421\n      swap2\n      swap1\n      tag_242\n      jump\t// in\n    tag_421:\n        /* \"StakingPool_flat.sol\":35086:35119  return stakes[_stakeholder] / 100 */\n      swap1\n      pop\n        /* \"StakingPool_flat.sol\":34972:35126  function calculateReward(address _stakeholder)... */\n      swap2\n      swap1\n      pop\n      jump\t// out\n        /* \"StakingPool_flat.sol\":20212:20361  function allowance(address owner, address spender) public view virtual override returns (uint256) {... */\n    tag_207:\n        /* \"StakingPool_flat.sol\":20301:20308  uint256 */\n      0x00\n        /* \"StakingPool_flat.sol\":20327:20338  _allowances */\n      0x01\n        /* \"StakingPool_flat.sol\":20327:20345  _allowances[owner] */\n      0x00\n        /* \"StakingPool_flat.sol\":20339:20344  owner */\n      dup5\n        /* \"StakingPool_flat.sol\":20327:20345  _allowances[owner] */\n      0xffffffffffffffffffffffffffffffffffffffff\n      and\n      0xffffffffffffffffffffffffffffffffffffffff\n      and\n      dup2\n      mstore\n      0x20\n      add\n      swap1\n      dup2\n      mstore\n      0x20\n      add\n      0x00\n      keccak256\n        /* \"StakingPool_flat.sol\":20327:20354  _allowances[owner][spender] */\n      0x00\n        /* \"StakingPool_flat.sol\":20346:20353  spender */\n      dup4\n        /* \"StakingPool_flat.sol\":20327:20354  _allowances[owner][spender] */\n      0xffffffffffffffffffffffffffffffffffffffff\n      and\n      0xffffffffffffffffffffffffffffffffffffffff\n      and\n      dup2\n      mstore\n      0x20\n      add\n      swap1\n      dup2\n      mstore\n      0x20\n      add\n      0x00\n      keccak256\n      sload\n        /* \"StakingPool_flat.sol\":20320:20354  return _allowances[owner][spender] */\n      swap1\n      pop\n        /* \"StakingPool_flat.sol\":20212:20361  function allowance(address owner, address spender) public view virtual override returns (uint256) {... */\n      swap3\n      swap2\n      pop\n      pop\n      jump\t// out\n        /* \"StakingPool_flat.sol\":29666:29701  uint256 public rewardPerTokenStored */\n    tag_211:\n      sload(0x0b)\n      dup2\n      jump\t// out\n        /* \"StakingPool_flat.sol\":34024:34220  function addStakeholder(address _stakeholder)... */\n    tag_216:\n        /* \"StakingPool_flat.sol\":34100:34119  bool _isStakeholder */\n      0x00\n        /* \"StakingPool_flat.sol\":34125:34152  isStakeholder(_stakeholder) */\n      tag_424\n        /* \"StakingPool_flat.sol\":34139:34151  _stakeholder */\n      dup3\n        /* \"StakingPool_flat.sol\":34125:34138  isStakeholder */\n      tag_227\n        /* \"StakingPool_flat.sol\":34125:34152  isStakeholder(_stakeholder) */\n      jump\t// in\n    tag_424:\n        /* \"StakingPool_flat.sol\":34099:34152  (bool _isStakeholder, ) = isStakeholder(_stakeholder) */\n      pop\n      swap1\n      pop\n        /* \"StakingPool_flat.sol\":34166:34180  _isStakeholder */\n      dup1\n        /* \"StakingPool_flat.sol\":34162:34213  if(!_isStakeholder) stakeholders.push(_stakeholder) */\n      tag_425\n      jumpi\n        /* \"StakingPool_flat.sol\":34182:34194  stakeholders */\n      0x0d\n        /* \"StakingPool_flat.sol\":34200:34212  _stakeholder */\n      dup3\n        /* \"StakingPool_flat.sol\":34182:34213  stakeholders.push(_stakeholder) */\n      swap1\n      dup1\n      0x01\n      dup2\n      sload\n      add\n      dup1\n      dup3\n      sstore\n      dup1\n      swap2\n      pop\n      pop\n      0x01\n      swap1\n      sub\n      swap1\n      0x00\n      mstore\n      keccak256(0x00, 0x20)\n      add\n      0x00\n      swap1\n      swap2\n      swap1\n      swap2\n      swap1\n      swap2\n      0x0100\n      exp\n      dup2\n      sload\n      dup2\n      0xffffffffffffffffffffffffffffffffffffffff\n      mul\n      not\n      and\n      swap1\n      dup4\n      0xffffffffffffffffffffffffffffffffffffffff\n      and\n      mul\n      or\n      swap1\n      sstore\n      pop\n        /* \"StakingPool_flat.sol\":34162:34213  if(!_isStakeholder) stakeholders.push(_stakeholder) */\n    tag_425:\n        /* \"StakingPool_flat.sol\":34089:34220  {... */\n      pop\n        /* \"StakingPool_flat.sol\":34024:34220  function addStakeholder(address _stakeholder)... */\n      pop\n      jump\t// out\n        /* \"StakingPool_flat.sol\":35922:36017  function exit() public {... */\n    tag_219:\n        /* \"StakingPool_flat.sol\":35955:35989  removeStake(balanceOf(msg.sender)) */\n      tag_428\n        /* \"StakingPool_flat.sol\":35967:35988  balanceOf(msg.sender) */\n      tag_429\n        /* \"StakingPool_flat.sol\":35977:35987  msg.sender */\n      caller\n        /* \"StakingPool_flat.sol\":35967:35976  balanceOf */\n      tag_125\n        /* \"StakingPool_flat.sol\":35967:35988  balanceOf(msg.sender) */\n      jump\t// in\n    tag_429:\n        /* \"StakingPool_flat.sol\":35955:35966  removeStake */\n      tag_160\n        /* \"StakingPool_flat.sol\":35955:35989  removeStake(balanceOf(msg.sender)) */\n      jump\t// in\n    tag_428:\n        /* \"StakingPool_flat.sol\":35999:36010  getReward() */\n      tag_430\n        /* \"StakingPool_flat.sol\":35999:36008  getReward */\n      tag_109\n        /* \"StakingPool_flat.sol\":35999:36010  getReward() */\n      jump\t// in\n    tag_430:\n        /* \"StakingPool_flat.sol\":35922:36017  function exit() public {... */\n      jump\t// out\n        /* \"StakingPool_flat.sol\":29127:29154  uint256 public periodFinish */\n    tag_222:\n      sload(0x07)\n      dup2\n      jump\t// out\n        /* \"StakingPool_flat.sol\":33745:34018  function isStakeholder(address _address)... */\n    tag_227:\n        /* \"StakingPool_flat.sol\":33830:33834  bool */\n      0x00\n        /* \"StakingPool_flat.sol\":33836:33843  uint256 */\n      dup1\n        /* \"StakingPool_flat.sol\":33864:33873  uint256 s */\n      0x00\n        /* \"StakingPool_flat.sol\":33859:33985  for (uint256 s = 0; s < stakeholders.length; s += 1){... */\n    tag_432:\n        /* \"StakingPool_flat.sol\":33883:33895  stakeholders */\n      0x0d\n        /* \"StakingPool_flat.sol\":33883:33902  stakeholders.length */\n      dup1\n      sload\n      swap1\n      pop\n        /* \"StakingPool_flat.sol\":33879:33880  s */\n      dup2\n        /* \"StakingPool_flat.sol\":33879:33902  s < stakeholders.length */\n      lt\n        /* \"StakingPool_flat.sol\":33859:33985  for (uint256 s = 0; s < stakeholders.length; s += 1){... */\n      iszero\n      tag_433\n      jumpi\n        /* \"StakingPool_flat.sol\":33941:33953  stakeholders */\n      0x0d\n        /* \"StakingPool_flat.sol\":33954:33955  s */\n      dup2\n        /* \"StakingPool_flat.sol\":33941:33956  stakeholders[s] */\n      dup2\n      sload\n      dup2\n      lt\n      tag_435\n      jumpi\n      tag_436\n      tag_264\n      jump\t// in\n    tag_436:\n    tag_435:\n      swap1\n      0x00\n      mstore\n      keccak256(0x00, 0x20)\n      add\n      0x00\n      swap1\n      sload\n      swap1\n      0x0100\n      exp\n      swap1\n      div\n      0xffffffffffffffffffffffffffffffffffffffff\n      and\n        /* \"StakingPool_flat.sol\":33929:33956  _address == stakeholders[s] */\n      0xffffffffffffffffffffffffffffffffffffffff\n      and\n        /* \"StakingPool_flat.sol\":33929:33937  _address */\n      dup5\n        /* \"StakingPool_flat.sol\":33929:33956  _address == stakeholders[s] */\n      0xffffffffffffffffffffffffffffffffffffffff\n      and\n      eq\n        /* \"StakingPool_flat.sol\":33925:33974  if (_address == stakeholders[s]) return (true, s) */\n      iszero\n      tag_438\n      jumpi\n        /* \"StakingPool_flat.sol\":33966:33970  true */\n      0x01\n        /* \"StakingPool_flat.sol\":33972:33973  s */\n      dup2\n        /* \"StakingPool_flat.sol\":33958:33974  return (true, s) */\n      swap3\n      pop\n      swap3\n      pop\n      pop\n      jump(tag_431)\n        /* \"StakingPool_flat.sol\":33925:33974  if (_address == stakeholders[s]) return (true, s) */\n    tag_438:\n        /* \"StakingPool_flat.sol\":33909:33910  1 */\n      0x01\n        /* \"StakingPool_flat.sol\":33904:33910  s += 1 */\n      dup2\n      tag_439\n      swap2\n      swap1\n      tag_244\n      jump\t// in\n    tag_439:\n      swap1\n      pop\n        /* \"StakingPool_flat.sol\":33859:33985  for (uint256 s = 0; s < stakeholders.length; s += 1){... */\n      jump(tag_432)\n    tag_433:\n      pop\n        /* \"StakingPool_flat.sol\":34002:34007  false */\n      0x00\n        /* \"StakingPool_flat.sol\":34009:34010  0 */\n      dup1\n        /* \"StakingPool_flat.sol\":33994:34011  return (false, 0) */\n      swap2\n      pop\n      swap2\n      pop\n        /* \"StakingPool_flat.sol\":33745:34018  function isStakeholder(address _address)... */\n    tag_431:\n      swap2\n      pop\n      swap2\n      jump\t// out\n        /* \"StakingPool_flat.sol\":12266:12464  function transferOwnership(address newOwner) public virtual onlyOwner {... */\n    tag_233:\n        /* \"StakingPool_flat.sol\":11607:11619  _msgSender() */\n      tag_441\n        /* \"StakingPool_flat.sol\":11607:11617  _msgSender */\n      tag_254\n        /* \"StakingPool_flat.sol\":11607:11619  _msgSender() */\n      jump\t// in\n    tag_441:\n        /* \"StakingPool_flat.sol\":11596:11619  owner() == _msgSender() */\n      0xffffffffffffffffffffffffffffffffffffffff\n      and\n        /* \"StakingPool_flat.sol\":11596:11603  owner() */\n      tag_442\n        /* \"StakingPool_flat.sol\":11596:11601  owner */\n      tag_154\n        /* \"StakingPool_flat.sol\":11596:11603  owner() */\n      jump\t// in\n    tag_442:\n        /* \"StakingPool_flat.sol\":11596:11619  owner() == _msgSender() */\n      0xffffffffffffffffffffffffffffffffffffffff\n      and\n      eq\n        /* \"StakingPool_flat.sol\":11588:11656  require(owner() == _msgSender(), \"Ownable: caller is not the owner\") */\n      tag_443\n      jumpi\n      mload(0x40)\n      0x08c379a000000000000000000000000000000000000000000000000000000000\n      dup2\n      mstore\n      0x04\n      add\n      tag_444\n      swap1\n      tag_316\n      jump\t// in\n    tag_444:\n      mload(0x40)\n      dup1\n      swap2\n      sub\n      swap1\n      revert\n    tag_443:\n        /* \"StakingPool_flat.sol\":12374:12375  0 */\n      0x00\n        /* \"StakingPool_flat.sol\":12354:12376  newOwner != address(0) */\n      0xffffffffffffffffffffffffffffffffffffffff\n      and\n        /* \"StakingPool_flat.sol\":12354:12362  newOwner */\n      dup2\n        /* \"StakingPool_flat.sol\":12354:12376  newOwner != address(0) */\n      0xffffffffffffffffffffffffffffffffffffffff\n      and\n      eq\n      iszero\n        /* \"StakingPool_flat.sol\":12346:12419  require(newOwner != address(0), \"Ownable: new owner is the zero address\") */\n      tag_446\n      jumpi\n      mload(0x40)\n      0x08c379a000000000000000000000000000000000000000000000000000000000\n      dup2\n      mstore\n      0x04\n      add\n      tag_447\n      swap1\n      tag_448\n      jump\t// in\n    tag_447:\n      mload(0x40)\n      dup1\n      swap2\n      sub\n      swap1\n      revert\n    tag_446:\n        /* \"StakingPool_flat.sol\":12429:12457  _transferOwnership(newOwner) */\n      tag_449\n        /* \"StakingPool_flat.sol\":12448:12456  newOwner */\n      dup2\n        /* \"StakingPool_flat.sol\":12429:12447  _transferOwnership */\n      tag_335\n        /* \"StakingPool_flat.sol\":12429:12457  _transferOwnership(newOwner) */\n      jump\t// in\n    tag_449:\n        /* \"StakingPool_flat.sol\":12266:12464  function transferOwnership(address newOwner) public virtual onlyOwner {... */\n      pop\n      jump\t// out\n        /* \"StakingPool_flat.sol\":10152:10248  function _msgSender() internal view virtual returns (address) {... */\n    tag_254:\n        /* \"StakingPool_flat.sol\":10205:10212  address */\n      0x00\n        /* \"StakingPool_flat.sol\":10231:10241  msg.sender */\n      caller\n        /* \"StakingPool_flat.sol\":10224:10241  return msg.sender */\n      swap1\n      pop\n        /* \"StakingPool_flat.sol\":10152:10248  function _msgSender() internal view virtual returns (address) {... */\n      swap1\n      jump\t// out\n        /* \"StakingPool_flat.sol\":26359:26729  function _approve(... */\n    tag_256:\n        /* \"StakingPool_flat.sol\":26507:26508  0 */\n      0x00\n        /* \"StakingPool_flat.sol\":26490:26509  owner != address(0) */\n      0xffffffffffffffffffffffffffffffffffffffff\n      and\n        /* \"StakingPool_flat.sol\":26490:26495  owner */\n      dup4\n        /* \"StakingPool_flat.sol\":26490:26509  owner != address(0) */\n      0xffffffffffffffffffffffffffffffffffffffff\n      and\n      eq\n      iszero\n        /* \"StakingPool_flat.sol\":26482:26550  require(owner != address(0), \"ERC20: approve from the zero address\") */\n      tag_452\n      jumpi\n      mload(0x40)\n      0x08c379a000000000000000000000000000000000000000000000000000000000\n      dup2\n      mstore\n      0x04\n      add\n      tag_453\n      swap1\n      tag_454\n      jump\t// in\n    tag_453:\n      mload(0x40)\n      dup1\n      swap2\n      sub\n      swap1\n      revert\n    tag_452:\n        /* \"StakingPool_flat.sol\":26587:26588  0 */\n      0x00\n        /* \"StakingPool_flat.sol\":26568:26589  spender != address(0) */\n      0xffffffffffffffffffffffffffffffffffffffff\n      and\n        /* \"StakingPool_flat.sol\":26568:26575  spender */\n      dup3\n        /* \"StakingPool_flat.sol\":26568:26589  spender != address(0) */\n      0xffffffffffffffffffffffffffffffffffffffff\n      and\n      eq\n      iszero\n        /* \"StakingPool_flat.sol\":26560:26628  require(spender != address(0), \"ERC20: approve to the zero address\") */\n      tag_455\n      jumpi\n      mload(0x40)\n      0x08c379a000000000000000000000000000000000000000000000000000000000\n      dup2\n      mstore\n      0x04\n      add\n      tag_456\n      swap1\n      tag_457\n      jump\t// in\n    tag_456:\n      mload(0x40)\n      dup1\n      swap2\n      sub\n      swap1\n      revert\n    tag_455:\n        /* \"StakingPool_flat.sol\":26669:26675  amount */\n      dup1\n        /* \"StakingPool_flat.sol\":26639:26650  _allowances */\n      0x01\n        /* \"StakingPool_flat.sol\":26639:26657  _allowances[owner] */\n      0x00\n        /* \"StakingPool_flat.sol\":26651:26656  owner */\n      dup6\n        /* \"StakingPool_flat.sol\":26639:26657  _allowances[owner] */\n      0xffffffffffffffffffffffffffffffffffffffff\n      and\n      0xffffffffffffffffffffffffffffffffffffffff\n      and\n      dup2\n      mstore\n      0x20\n      add\n      swap1\n      dup2\n      mstore\n      0x20\n      add\n      0x00\n      keccak256\n        /* \"StakingPool_flat.sol\":26639:26666  _allowances[owner][spender] */\n      0x00\n        /* \"StakingPool_flat.sol\":26658:26665  spender */\n      dup5\n        /* \"StakingPool_flat.sol\":26639:26666  _allowances[owner][spender] */\n      0xffffffffffffffffffffffffffffffffffffffff\n      and\n      0xffffffffffffffffffffffffffffffffffffffff\n      and\n      dup2\n      mstore\n      0x20\n      add\n      swap1\n      dup2\n      mstore\n      0x20\n      add\n      0x00\n      keccak256\n        /* \"StakingPool_flat.sol\":26639:26675  _allowances[owner][spender] = amount */\n      dup2\n      swap1\n      sstore\n      pop\n        /* \"StakingPool_flat.sol\":26706:26713  spender */\n      dup2\n        /* \"StakingPool_flat.sol\":26690:26722  Approval(owner, spender, amount) */\n      0xffffffffffffffffffffffffffffffffffffffff\n      and\n        /* \"StakingPool_flat.sol\":26699:26704  owner */\n      dup4\n        /* \"StakingPool_flat.sol\":26690:26722  Approval(owner, spender, amount) */\n      0xffffffffffffffffffffffffffffffffffffffff\n      and\n      0x8c5be1e5ebec7d5bd14f71427d1e84f3dd0314c0f7b2291e5b200ac8c7c3b925\n        /* \"StakingPool_flat.sol\":26715:26721  amount */\n      dup4\n        /* \"StakingPool_flat.sol\":26690:26722  Approval(owner, spender, amount) */\n      mload(0x40)\n      tag_458\n      swap2\n      swap1\n      tag_56\n      jump\t// in\n    tag_458:\n      mload(0x40)\n      dup1\n      swap2\n      sub\n      swap1\n      log3\n        /* \"StakingPool_flat.sol\":26359:26729  function _approve(... */\n      pop\n      pop\n      pop\n      jump\t// out\n        /* \"StakingPool_flat.sol\":5462:5558  function add(uint256 a, uint256 b) internal pure returns (uint256) {... */\n    tag_266:\n        /* \"StakingPool_flat.sol\":5520:5527  uint256 */\n      0x00\n        /* \"StakingPool_flat.sol\":5550:5551  b */\n      dup2\n        /* \"StakingPool_flat.sol\":5546:5547  a */\n      dup4\n        /* \"StakingPool_flat.sol\":5546:5551  a + b */\n      tag_460\n      swap2\n      swap1\n      tag_244\n      jump\t// in\n    tag_460:\n        /* \"StakingPool_flat.sol\":5539:5551  return a + b */\n      swap1\n      pop\n        /* \"StakingPool_flat.sol\":5462:5558  function add(uint256 a, uint256 b) internal pure returns (uint256) {... */\n      swap3\n      swap2\n      pop\n      pop\n      jump\t// out\n        /* \"StakingPool_flat.sol\":25360:25936  function _burn(address account, uint256 amount) internal virtual {... */\n    tag_280:\n        /* \"StakingPool_flat.sol\":25462:25463  0 */\n      0x00\n        /* \"StakingPool_flat.sol\":25443:25464  account != address(0) */\n      0xffffffffffffffffffffffffffffffffffffffff\n      and\n        /* \"StakingPool_flat.sol\":25443:25450  account */\n      dup3\n        /* \"StakingPool_flat.sol\":25443:25464  account != address(0) */\n      0xffffffffffffffffffffffffffffffffffffffff\n      and\n      eq\n      iszero\n        /* \"StakingPool_flat.sol\":25435:25502  require(account != address(0), \"ERC20: burn from the zero address\") */\n      tag_462\n      jumpi\n      mload(0x40)\n      0x08c379a000000000000000000000000000000000000000000000000000000000\n      dup2\n      mstore\n      0x04\n      add\n      tag_463\n      swap1\n      tag_464\n      jump\t// in\n    tag_463:\n      mload(0x40)\n      dup1\n      swap2\n      sub\n      swap1\n      revert\n    tag_462:\n        /* \"StakingPool_flat.sol\":25513:25562  _beforeTokenTransfer(account, address(0), amount) */\n      tag_465\n        /* \"StakingPool_flat.sol\":25534:25541  account */\n      dup3\n        /* \"StakingPool_flat.sol\":25551:25552  0 */\n      0x00\n        /* \"StakingPool_flat.sol\":25555:25561  amount */\n      dup4\n        /* \"StakingPool_flat.sol\":25513:25533  _beforeTokenTransfer */\n      tag_466\n        /* \"StakingPool_flat.sol\":25513:25562  _beforeTokenTransfer(account, address(0), amount) */\n      jump\t// in\n    tag_465:\n        /* \"StakingPool_flat.sol\":25573:25595  uint256 accountBalance */\n      0x00\n        /* \"StakingPool_flat.sol\":25598:25607  _balances */\n      dup1\n        /* \"StakingPool_flat.sol\":25598:25616  _balances[account] */\n      0x00\n        /* \"StakingPool_flat.sol\":25608:25615  account */\n      dup5\n        /* \"StakingPool_flat.sol\":25598:25616  _balances[account] */\n      0xffffffffffffffffffffffffffffffffffffffff\n      and\n      0xffffffffffffffffffffffffffffffffffffffff\n      and\n      dup2\n      mstore\n      0x20\n      add\n      swap1\n      dup2\n      mstore\n      0x20\n      add\n      0x00\n      keccak256\n      sload\n        /* \"StakingPool_flat.sol\":25573:25616  uint256 accountBalance = _balances[account] */\n      swap1\n      pop\n        /* \"StakingPool_flat.sol\":25652:25658  amount */\n      dup2\n        /* \"StakingPool_flat.sol\":25634:25648  accountBalance */\n      dup2\n        /* \"StakingPool_flat.sol\":25634:25658  accountBalance >= amount */\n      lt\n      iszero\n        /* \"StakingPool_flat.sol\":25626:25697  require(accountBalance >= amount, \"ERC20: burn amount exceeds balance\") */\n      tag_467\n      jumpi\n      mload(0x40)\n      0x08c379a000000000000000000000000000000000000000000000000000000000\n      dup2\n      mstore\n      0x04\n      add\n      tag_468\n      swap1\n      tag_469\n      jump\t// in\n    tag_468:\n      mload(0x40)\n      dup1\n      swap2\n      sub\n      swap1\n      revert\n    tag_467:\n        /* \"StakingPool_flat.sol\":25769:25775  amount */\n      dup2\n        /* \"StakingPool_flat.sol\":25752:25766  accountBalance */\n      dup2\n        /* \"StakingPool_flat.sol\":25752:25775  accountBalance - amount */\n      sub\n        /* \"StakingPool_flat.sol\":25731:25740  _balances */\n      0x00\n        /* \"StakingPool_flat.sol\":25731:25749  _balances[account] */\n      dup1\n        /* \"StakingPool_flat.sol\":25741:25748  account */\n      dup6\n        /* \"StakingPool_flat.sol\":25731:25749  _balances[account] */\n      0xffffffffffffffffffffffffffffffffffffffff\n      and\n      0xffffffffffffffffffffffffffffffffffffffff\n      and\n      dup2\n      mstore\n      0x20\n      add\n      swap1\n      dup2\n      mstore\n      0x20\n      add\n      0x00\n      keccak256\n        /* \"StakingPool_flat.sol\":25731:25775  _balances[account] = accountBalance - amount */\n      dup2\n      swap1\n      sstore\n      pop\n        /* \"StakingPool_flat.sol\":25811:25817  amount */\n      dup2\n        /* \"StakingPool_flat.sol\":25795:25807  _totalSupply */\n      0x02\n      0x00\n        /* \"StakingPool_flat.sol\":25795:25817  _totalSupply -= amount */\n      dup3\n      dup3\n      sload\n      tag_470\n      swap2\n      swap1\n      tag_237\n      jump\t// in\n    tag_470:\n      swap3\n      pop\n      pop\n      dup2\n      swap1\n      sstore\n      pop\n        /* \"StakingPool_flat.sol\":25859:25860  0 */\n      0x00\n        /* \"StakingPool_flat.sol\":25833:25870  Transfer(account, address(0), amount) */\n      0xffffffffffffffffffffffffffffffffffffffff\n      and\n        /* \"StakingPool_flat.sol\":25842:25849  account */\n      dup4\n        /* \"StakingPool_flat.sol\":25833:25870  Transfer(account, address(0), amount) */\n      0xffffffffffffffffffffffffffffffffffffffff\n      and\n      0xddf252ad1be2c89b69c2b068fc378daa952ba7f163c4a11628f55a4df523b3ef\n        /* \"StakingPool_flat.sol\":25863:25869  amount */\n      dup5\n        /* \"StakingPool_flat.sol\":25833:25870  Transfer(account, address(0), amount) */\n      mload(0x40)\n      tag_471\n      swap2\n      swap1\n      tag_56\n      jump\t// in\n    tag_471:\n      mload(0x40)\n      dup1\n      swap2\n      sub\n      swap1\n      log3\n        /* \"StakingPool_flat.sol\":25881:25929  _afterTokenTransfer(account, address(0), amount) */\n      tag_472\n        /* \"StakingPool_flat.sol\":25901:25908  account */\n      dup4\n        /* \"StakingPool_flat.sol\":25918:25919  0 */\n      0x00\n        /* \"StakingPool_flat.sol\":25922:25928  amount */\n      dup5\n        /* \"StakingPool_flat.sol\":25881:25900  _afterTokenTransfer */\n      tag_473\n        /* \"StakingPool_flat.sol\":25881:25929  _afterTokenTransfer(account, address(0), amount) */\n      jump\t// in\n    tag_472:\n        /* \"StakingPool_flat.sol\":25425:25936  {... */\n      pop\n        /* \"StakingPool_flat.sol\":25360:25936  function _burn(address account, uint256 amount) internal virtual {... */\n      pop\n      pop\n      jump\t// out\n        /* \"StakingPool_flat.sol\":27006:27447  function _spendAllowance(... */\n    tag_289:\n        /* \"StakingPool_flat.sol\":27136:27160  uint256 currentAllowance */\n      0x00\n        /* \"StakingPool_flat.sol\":27163:27188  allowance(owner, spender) */\n      tag_475\n        /* \"StakingPool_flat.sol\":27173:27178  owner */\n      dup5\n        /* \"StakingPool_flat.sol\":27180:27187  spender */\n      dup5\n        /* \"StakingPool_flat.sol\":27163:27172  allowance */\n      tag_207\n        /* \"StakingPool_flat.sol\":27163:27188  allowance(owner, spender) */\n      jump\t// in\n    tag_475:\n        /* \"StakingPool_flat.sol\":27136:27188  uint256 currentAllowance = allowance(owner, spender) */\n      swap1\n      pop\n        /* \"StakingPool_flat.sol\":27222:27239  type(uint256).max */\n      0xffffffffffffffffffffffffffffffffffffffffffffffffffffffffffffffff\n        /* \"StakingPool_flat.sol\":27202:27218  currentAllowance */\n      dup2\n        /* \"StakingPool_flat.sol\":27202:27239  currentAllowance != type(uint256).max */\n      eq\n        /* \"StakingPool_flat.sol\":27198:27441  if (currentAllowance != type(uint256).max) {... */\n      tag_476\n      jumpi\n        /* \"StakingPool_flat.sol\":27283:27289  amount */\n      dup2\n        /* \"StakingPool_flat.sol\":27263:27279  currentAllowance */\n      dup2\n        /* \"StakingPool_flat.sol\":27263:27289  currentAllowance >= amount */\n      lt\n      iszero\n        /* \"StakingPool_flat.sol\":27255:27323  require(currentAllowance >= amount, \"ERC20: insufficient allowance\") */\n      tag_477\n      jumpi\n      mload(0x40)\n      0x08c379a000000000000000000000000000000000000000000000000000000000\n      dup2\n      mstore\n      0x04\n      add\n      tag_478\n      swap1\n      tag_479\n      jump\t// in\n    tag_478:\n      mload(0x40)\n      dup1\n      swap2\n      sub\n      swap1\n      revert\n    tag_477:\n        /* \"StakingPool_flat.sol\":27365:27416  _approve(owner, spender, currentAllowance - amount) */\n      tag_480\n        /* \"StakingPool_flat.sol\":27374:27379  owner */\n      dup5\n        /* \"StakingPool_flat.sol\":27381:27388  spender */\n      dup5\n        /* \"StakingPool_flat.sol\":27409:27415  amount */\n      dup5\n        /* \"StakingPool_flat.sol\":27390:27406  currentAllowance */\n      dup5\n        /* \"StakingPool_flat.sol\":27390:27415  currentAllowance - amount */\n      sub\n        /* \"StakingPool_flat.sol\":27365:27373  _approve */\n      tag_256\n        /* \"StakingPool_flat.sol\":27365:27416  _approve(owner, spender, currentAllowance - amount) */\n      jump\t// in\n    tag_480:\n        /* \"StakingPool_flat.sol\":27198:27441  if (currentAllowance != type(uint256).max) {... */\n    tag_476:\n        /* \"StakingPool_flat.sol\":27126:27447  {... */\n      pop\n        /* \"StakingPool_flat.sol\":27006:27447  function _spendAllowance(... */\n      pop\n      pop\n      pop\n      jump\t// out\n        /* \"StakingPool_flat.sol\":23724:24375  function _transfer(... */\n    tag_291:\n        /* \"StakingPool_flat.sol\":23866:23867  0 */\n      0x00\n        /* \"StakingPool_flat.sol\":23850:23868  from != address(0) */\n      0xffffffffffffffffffffffffffffffffffffffff\n      and\n        /* \"StakingPool_flat.sol\":23850:23854  from */\n      dup4\n        /* \"StakingPool_flat.sol\":23850:23868  from != address(0) */\n      0xffffffffffffffffffffffffffffffffffffffff\n      and\n      eq\n      iszero\n        /* \"StakingPool_flat.sol\":23842:23910  require(from != address(0), \"ERC20: transfer from the zero address\") */\n      tag_482\n      jumpi\n      mload(0x40)\n      0x08c379a000000000000000000000000000000000000000000000000000000000\n      dup2\n      mstore\n      0x04\n      add\n      tag_483\n      swap1\n      tag_484\n      jump\t// in\n    tag_483:\n      mload(0x40)\n      dup1\n      swap2\n      sub\n      swap1\n      revert\n    tag_482:\n        /* \"StakingPool_flat.sol\":23942:23943  0 */\n      0x00\n        /* \"StakingPool_flat.sol\":23928:23944  to != address(0) */\n      0xffffffffffffffffffffffffffffffffffffffff\n      and\n        /* \"StakingPool_flat.sol\":23928:23930  to */\n      dup3\n        /* \"StakingPool_flat.sol\":23928:23944  to != address(0) */\n      0xffffffffffffffffffffffffffffffffffffffff\n      and\n      eq\n      iszero\n        /* \"StakingPool_flat.sol\":23920:23984  require(to != address(0), \"ERC20: transfer to the zero address\") */\n      tag_485\n      jumpi\n      mload(0x40)\n      0x08c379a000000000000000000000000000000000000000000000000000000000\n      dup2\n      mstore\n      0x04\n      add\n      tag_486\n      swap1\n      tag_487\n      jump\t// in\n    tag_486:\n      mload(0x40)\n      dup1\n      swap2\n      sub\n      swap1\n      revert\n    tag_485:\n        /* \"StakingPool_flat.sol\":23995:24033  _beforeTokenTransfer(from, to, amount) */\n      tag_488\n        /* \"StakingPool_flat.sol\":24016:24020  from */\n      dup4\n        /* \"StakingPool_flat.sol\":24022:24024  to */\n      dup4\n        /* \"StakingPool_flat.sol\":24026:24032  amount */\n      dup4\n        /* \"StakingPool_flat.sol\":23995:24015  _beforeTokenTransfer */\n      tag_466\n        /* \"StakingPool_flat.sol\":23995:24033  _beforeTokenTransfer(from, to, amount) */\n      jump\t// in\n    tag_488:\n        /* \"StakingPool_flat.sol\":24044:24063  uint256 fromBalance */\n      0x00\n        /* \"StakingPool_flat.sol\":24066:24075  _balances */\n      dup1\n        /* \"StakingPool_flat.sol\":24066:24081  _balances[from] */\n      0x00\n        /* \"StakingPool_flat.sol\":24076:24080  from */\n      dup6\n        /* \"StakingPool_flat.sol\":24066:24081  _balances[from] */\n      0xffffffffffffffffffffffffffffffffffffffff\n      and\n      0xffffffffffffffffffffffffffffffffffffffff\n      and\n      dup2\n      mstore\n      0x20\n      add\n      swap1\n      dup2\n      mstore\n      0x20\n      add\n      0x00\n      keccak256\n      sload\n        /* \"StakingPool_flat.sol\":24044:24081  uint256 fromBalance = _balances[from] */\n      swap1\n      pop\n        /* \"StakingPool_flat.sol\":24114:24120  amount */\n      dup2\n        /* \"StakingPool_flat.sol\":24099:24110  fromBalance */\n      dup2\n        /* \"StakingPool_flat.sol\":24099:24120  fromBalance >= amount */\n      lt\n      iszero\n        /* \"StakingPool_flat.sol\":24091:24163  require(fromBalance >= amount, \"ERC20: transfer amount exceeds balance\") */\n      tag_489\n      jumpi\n      mload(0x40)\n      0x08c379a000000000000000000000000000000000000000000000000000000000\n      dup2\n      mstore\n      0x04\n      add\n      tag_490\n      swap1\n      tag_491\n      jump\t// in\n    tag_490:\n      mload(0x40)\n      dup1\n      swap2\n      sub\n      swap1\n      revert\n    tag_489:\n        /* \"StakingPool_flat.sol\":24229:24235  amount */\n      dup2\n        /* \"StakingPool_flat.sol\":24215:24226  fromBalance */\n      dup2\n        /* \"StakingPool_flat.sol\":24215:24235  fromBalance - amount */\n      sub\n        /* \"StakingPool_flat.sol\":24197:24206  _balances */\n      0x00\n        /* \"StakingPool_flat.sol\":24197:24212  _balances[from] */\n      dup1\n        /* \"StakingPool_flat.sol\":24207:24211  from */\n      dup7\n        /* \"StakingPool_flat.sol\":24197:24212  _balances[from] */\n      0xffffffffffffffffffffffffffffffffffffffff\n      and\n      0xffffffffffffffffffffffffffffffffffffffff\n      and\n      dup2\n      mstore\n      0x20\n      add\n      swap1\n      dup2\n      mstore\n      0x20\n      add\n      0x00\n      keccak256\n        /* \"StakingPool_flat.sol\":24197:24235  _balances[from] = fromBalance - amount */\n      dup2\n      swap1\n      sstore\n      pop\n        /* \"StakingPool_flat.sol\":24272:24278  amount */\n      dup2\n        /* \"StakingPool_flat.sol\":24255:24264  _balances */\n      0x00\n        /* \"StakingPool_flat.sol\":24255:24268  _balances[to] */\n      dup1\n        /* \"StakingPool_flat.sol\":24265:24267  to */\n      dup6\n        /* \"StakingPool_flat.sol\":24255:24268  _balances[to] */\n      0xffffffffffffffffffffffffffffffffffffffff\n      and\n      0xffffffffffffffffffffffffffffffffffffffff\n      and\n      dup2\n      mstore\n      0x20\n      add\n      swap1\n      dup2\n      mstore\n      0x20\n      add\n      0x00\n      keccak256\n      0x00\n        /* \"StakingPool_flat.sol\":24255:24278  _balances[to] += amount */\n      dup3\n      dup3\n      sload\n      tag_492\n      swap2\n      swap1\n      tag_244\n      jump\t// in\n    tag_492:\n      swap3\n      pop\n      pop\n      dup2\n      swap1\n      sstore\n      pop\n        /* \"StakingPool_flat.sol\":24309:24311  to */\n      dup3\n        /* \"StakingPool_flat.sol\":24294:24320  Transfer(from, to, amount) */\n      0xffffffffffffffffffffffffffffffffffffffff\n      and\n        /* \"StakingPool_flat.sol\":24303:24307  from */\n      dup5\n        /* \"StakingPool_flat.sol\":24294:24320  Transfer(from, to, amount) */\n      0xffffffffffffffffffffffffffffffffffffffff\n      and\n      0xddf252ad1be2c89b69c2b068fc378daa952ba7f163c4a11628f55a4df523b3ef\n        /* \"StakingPool_flat.sol\":24313:24319  amount */\n      dup5\n        /* \"StakingPool_flat.sol\":24294:24320  Transfer(from, to, amount) */\n      mload(0x40)\n      tag_493\n      swap2\n      swap1\n      tag_56\n      jump\t// in\n    tag_493:\n      mload(0x40)\n      dup1\n      swap2\n      sub\n      swap1\n      log3\n        /* \"StakingPool_flat.sol\":24331:24368  _afterTokenTransfer(from, to, amount) */\n      tag_494\n        /* \"StakingPool_flat.sol\":24351:24355  from */\n      dup5\n        /* \"StakingPool_flat.sol\":24357:24359  to */\n      dup5\n        /* \"StakingPool_flat.sol\":24361:24367  amount */\n      dup5\n        /* \"StakingPool_flat.sol\":24331:24350  _afterTokenTransfer */\n      tag_473\n        /* \"StakingPool_flat.sol\":24331:24368  _afterTokenTransfer(from, to, amount) */\n      jump\t// in\n    tag_494:\n        /* \"StakingPool_flat.sol\":23832:24375  {... */\n      pop\n        /* \"StakingPool_flat.sol\":23724:24375  function _transfer(... */\n      pop\n      pop\n      pop\n      jump\t// out\n        /* \"StakingPool_flat.sol\":24651:25040  function _mint(address account, uint256 amount) internal virtual {... */\n    tag_308:\n        /* \"StakingPool_flat.sol\":24753:24754  0 */\n      0x00\n        /* \"StakingPool_flat.sol\":24734:24755  account != address(0) */\n      0xffffffffffffffffffffffffffffffffffffffff\n      and\n        /* \"StakingPool_flat.sol\":24734:24741  account */\n      dup3\n        /* \"StakingPool_flat.sol\":24734:24755  account != address(0) */\n      0xffffffffffffffffffffffffffffffffffffffff\n      and\n      eq\n      iszero\n        /* \"StakingPool_flat.sol\":24726:24791  require(account != address(0), \"ERC20: mint to the zero address\") */\n      tag_496\n      jumpi\n      mload(0x40)\n      0x08c379a000000000000000000000000000000000000000000000000000000000\n      dup2\n      mstore\n      0x04\n      add\n      tag_497\n      swap1\n      tag_498\n      jump\t// in\n    tag_497:\n      mload(0x40)\n      dup1\n      swap2\n      sub\n      swap1\n      revert\n    tag_496:\n        /* \"StakingPool_flat.sol\":24802:24851  _beforeTokenTransfer(address(0), account, amount) */\n      tag_499\n        /* \"StakingPool_flat.sol\":24831:24832  0 */\n      0x00\n        /* \"StakingPool_flat.sol\":24835:24842  account */\n      dup4\n        /* \"StakingPool_flat.sol\":24844:24850  amount */\n      dup4\n        /* \"StakingPool_flat.sol\":24802:24822  _beforeTokenTransfer */\n      tag_466\n        /* \"StakingPool_flat.sol\":24802:24851  _beforeTokenTransfer(address(0), account, amount) */\n      jump\t// in\n    tag_499:\n        /* \"StakingPool_flat.sol\":24878:24884  amount */\n      dup1\n        /* \"StakingPool_flat.sol\":24862:24874  _totalSupply */\n      0x02\n      0x00\n        /* \"StakingPool_flat.sol\":24862:24884  _totalSupply += amount */\n      dup3\n      dup3\n      sload\n      tag_500\n      swap2\n      swap1\n      tag_244\n      jump\t// in\n    tag_500:\n      swap3\n      pop\n      pop\n      dup2\n      swap1\n      sstore\n      pop\n        /* \"StakingPool_flat.sol\":24916:24922  amount */\n      dup1\n        /* \"StakingPool_flat.sol\":24894:24903  _balances */\n      0x00\n        /* \"StakingPool_flat.sol\":24894:24912  _balances[account] */\n      dup1\n        /* \"StakingPool_flat.sol\":24904:24911  account */\n      dup5\n        /* \"StakingPool_flat.sol\":24894:24912  _balances[account] */\n      0xffffffffffffffffffffffffffffffffffffffff\n      and\n      0xffffffffffffffffffffffffffffffffffffffff\n      and\n      dup2\n      mstore\n      0x20\n      add\n      swap1\n      dup2\n      mstore\n      0x20\n      add\n      0x00\n      keccak256\n      0x00\n        /* \"StakingPool_flat.sol\":24894:24922  _balances[account] += amount */\n      dup3\n      dup3\n      sload\n      tag_501\n      swap2\n      swap1\n      tag_244\n      jump\t// in\n    tag_501:\n      swap3\n      pop\n      pop\n      dup2\n      swap1\n      sstore\n      pop\n        /* \"StakingPool_flat.sol\":24958:24965  account */\n      dup2\n        /* \"StakingPool_flat.sol\":24937:24974  Transfer(address(0), account, amount) */\n      0xffffffffffffffffffffffffffffffffffffffff\n      and\n        /* \"StakingPool_flat.sol\":24954:24955  0 */\n      0x00\n        /* \"StakingPool_flat.sol\":24937:24974  Transfer(address(0), account, amount) */\n      0xffffffffffffffffffffffffffffffffffffffff\n      and\n      0xddf252ad1be2c89b69c2b068fc378daa952ba7f163c4a11628f55a4df523b3ef\n        /* \"StakingPool_flat.sol\":24967:24973  amount */\n      dup4\n        /* \"StakingPool_flat.sol\":24937:24974  Transfer(address(0), account, amount) */\n      mload(0x40)\n      tag_502\n      swap2\n      swap1\n      tag_56\n      jump\t// in\n    tag_502:\n      mload(0x40)\n      dup1\n      swap2\n      sub\n      swap1\n      log3\n        /* \"StakingPool_flat.sol\":24985:25033  _afterTokenTransfer(address(0), account, amount) */\n      tag_503\n        /* \"StakingPool_flat.sol\":25013:25014  0 */\n      0x00\n        /* \"StakingPool_flat.sol\":25017:25024  account */\n      dup4\n        /* \"StakingPool_flat.sol\":25026:25032  amount */\n      dup4\n        /* \"StakingPool_flat.sol\":24985:25004  _afterTokenTransfer */\n      tag_473\n        /* \"StakingPool_flat.sol\":24985:25033  _afterTokenTransfer(address(0), account, amount) */\n      jump\t// in\n    tag_503:\n        /* \"StakingPool_flat.sol\":24651:25040  function _mint(address account, uint256 amount) internal virtual {... */\n      pop\n      pop\n      jump\t// out\n        /* \"StakingPool_flat.sol\":12618:12805  function _transferOwnership(address newOwner) internal virtual {... */\n    tag_335:\n        /* \"StakingPool_flat.sol\":12691:12707  address oldOwner */\n      0x00\n        /* \"StakingPool_flat.sol\":12710:12716  _owner */\n      0x05\n      0x00\n      swap1\n      sload\n      swap1\n      0x0100\n      exp\n      swap1\n      div\n      0xffffffffffffffffffffffffffffffffffffffff\n      and\n        /* \"StakingPool_flat.sol\":12691:12716  address oldOwner = _owner */\n      swap1\n      pop\n        /* \"StakingPool_flat.sol\":12735:12743  newOwner */\n      dup2\n        /* \"StakingPool_flat.sol\":12726:12732  _owner */\n      0x05\n      0x00\n        /* \"StakingPool_flat.sol\":12726:12743  _owner = newOwner */\n      0x0100\n      exp\n      dup2\n      sload\n      dup2\n      0xffffffffffffffffffffffffffffffffffffffff\n      mul\n      not\n      and\n      swap1\n      dup4\n      0xffffffffffffffffffffffffffffffffffffffff\n      and\n      mul\n      or\n      swap1\n      sstore\n      pop\n        /* \"StakingPool_flat.sol\":12789:12797  newOwner */\n      dup2\n        /* \"StakingPool_flat.sol\":12758:12798  OwnershipTransferred(oldOwner, newOwner) */\n      0xffffffffffffffffffffffffffffffffffffffff\n      and\n        /* \"StakingPool_flat.sol\":12779:12787  oldOwner */\n      dup2\n        /* \"StakingPool_flat.sol\":12758:12798  OwnershipTransferred(oldOwner, newOwner) */\n      0xffffffffffffffffffffffffffffffffffffffff\n      and\n      0x8be0079c531659141344cd1fd0a4f28419497f9722a3daafe3b4186f6b6457e0\n      mload(0x40)\n      mload(0x40)\n      dup1\n      swap2\n      sub\n      swap1\n      log3\n        /* \"StakingPool_flat.sol\":12681:12805  {... */\n      pop\n        /* \"StakingPool_flat.sol\":12618:12805  function _transferOwnership(address newOwner) internal virtual {... */\n      pop\n      jump\t// out\n        /* \"StakingPool_flat.sol\":5829:5925  function sub(uint256 a, uint256 b) internal pure returns (uint256) {... */\n    tag_365:\n        /* \"StakingPool_flat.sol\":5887:5894  uint256 */\n      0x00\n        /* \"StakingPool_flat.sol\":5917:5918  b */\n      dup2\n        /* \"StakingPool_flat.sol\":5913:5914  a */\n      dup4\n        /* \"StakingPool_flat.sol\":5913:5918  a - b */\n      tag_506\n      swap2\n      swap1\n      tag_237\n      jump\t// in\n    tag_506:\n        /* \"StakingPool_flat.sol\":5906:5918  return a - b */\n      swap1\n      pop\n        /* \"StakingPool_flat.sol\":5829:5925  function sub(uint256 a, uint256 b) internal pure returns (uint256) {... */\n      swap3\n      swap2\n      pop\n      pop\n      jump\t// out\n        /* \"StakingPool_flat.sol\":28031:28152  function _beforeTokenTransfer(... */\n    tag_466:\n      pop\n      pop\n      pop\n      jump\t// out\n        /* \"StakingPool_flat.sol\":28740:28860  function _afterTokenTransfer(... */\n    tag_473:\n      pop\n      pop\n      pop\n      jump\t// out\n        /* \"#utility.yul\":7:146   */\n    tag_510:\n        /* \"#utility.yul\":53:58   */\n      0x00\n        /* \"#utility.yul\":91:97   */\n      dup2\n        /* \"#utility.yul\":78:98   */\n      calldataload\n        /* \"#utility.yul\":69:98   */\n      swap1\n      pop\n        /* \"#utility.yul\":107:140   */\n      tag_512\n        /* \"#utility.yul\":134:139   */\n      dup2\n        /* \"#utility.yul\":107:140   */\n      tag_513\n      jump\t// in\n    tag_512:\n        /* \"#utility.yul\":7:146   */\n      swap3\n      swap2\n      pop\n      pop\n      jump\t// out\n        /* \"#utility.yul\":152:291   */\n    tag_514:\n        /* \"#utility.yul\":198:203   */\n      0x00\n        /* \"#utility.yul\":236:242   */\n      dup2\n        /* \"#utility.yul\":223:243   */\n      calldataload\n        /* \"#utility.yul\":214:243   */\n      swap1\n      pop\n        /* \"#utility.yul\":252:285   */\n      tag_516\n        /* \"#utility.yul\":279:284   */\n      dup2\n        /* \"#utility.yul\":252:285   */\n      tag_517\n      jump\t// in\n    tag_516:\n        /* \"#utility.yul\":152:291   */\n      swap3\n      swap2\n      pop\n      pop\n      jump\t// out\n        /* \"#utility.yul\":297:626   */\n    tag_53:\n        /* \"#utility.yul\":356:362   */\n      0x00\n        /* \"#utility.yul\":405:407   */\n      0x20\n        /* \"#utility.yul\":393:402   */\n      dup3\n        /* \"#utility.yul\":384:391   */\n      dup5\n        /* \"#utility.yul\":380:403   */\n      sub\n        /* \"#utility.yul\":376:408   */\n      slt\n        /* \"#utility.yul\":373:492   */\n      iszero\n      tag_519\n      jumpi\n        /* \"#utility.yul\":411:490   */\n      tag_520\n      tag_521\n      jump\t// in\n    tag_520:\n        /* \"#utility.yul\":373:492   */\n    tag_519:\n        /* \"#utility.yul\":531:532   */\n      0x00\n        /* \"#utility.yul\":556:609   */\n      tag_522\n        /* \"#utility.yul\":601:608   */\n      dup5\n        /* \"#utility.yul\":592:598   */\n      dup3\n        /* \"#utility.yul\":581:590   */\n      dup6\n        /* \"#utility.yul\":577:599   */\n      add\n        /* \"#utility.yul\":556:609   */\n      tag_510\n      jump\t// in\n    tag_522:\n        /* \"#utility.yul\":546:609   */\n      swap2\n      pop\n        /* \"#utility.yul\":502:619   */\n      pop\n        /* \"#utility.yul\":297:626   */\n      swap3\n      swap2\n      pop\n      pop\n      jump\t// out\n        /* \"#utility.yul\":632:1106   */\n    tag_206:\n        /* \"#utility.yul\":700:706   */\n      0x00\n        /* \"#utility.yul\":708:714   */\n      dup1\n        /* \"#utility.yul\":757:759   */\n      0x40\n        /* \"#utility.yul\":745:754   */\n      dup4\n        /* \"#utility.yul\":736:743   */\n      dup6\n        /* \"#utility.yul\":732:755   */\n      sub\n        /* \"#utility.yul\":728:760   */\n      slt\n        /* \"#utility.yul\":725:844   */\n      iszero\n      tag_524\n      jumpi\n        /* \"#utility.yul\":763:842   */\n      tag_525\n      tag_521\n      jump\t// in\n    tag_525:\n        /* \"#utility.yul\":725:844   */\n    tag_524:\n        /* \"#utility.yul\":883:884   */\n      0x00\n        /* \"#utility.yul\":908:961   */\n      tag_526\n        /* \"#utility.yul\":953:960   */\n      dup6\n        /* \"#utility.yul\":944:950   */\n      dup3\n        /* \"#utility.yul\":933:942   */\n      dup7\n        /* \"#utility.yul\":929:951   */\n      add\n        /* \"#utility.yul\":908:961   */\n      tag_510\n      jump\t// in\n    tag_526:\n        /* \"#utility.yul\":898:961   */\n      swap3\n      pop\n        /* \"#utility.yul\":854:971   */\n      pop\n        /* \"#utility.yul\":1010:1012   */\n      0x20\n        /* \"#utility.yul\":1036:1089   */\n      tag_527\n        /* \"#utility.yul\":1081:1088   */\n      dup6\n        /* \"#utility.yul\":1072:1078   */\n      dup3\n        /* \"#utility.yul\":1061:1070   */\n      dup7\n        /* \"#utility.yul\":1057:1079   */\n      add\n        /* \"#utility.yul\":1036:1089   */\n      tag_510\n      jump\t// in\n    tag_527:\n        /* \"#utility.yul\":1026:1089   */\n      swap2\n      pop\n        /* \"#utility.yul\":981:1099   */\n      pop\n        /* \"#utility.yul\":632:1106   */\n      swap3\n      pop\n      swap3\n      swap1\n      pop\n      jump\t// out\n        /* \"#utility.yul\":1112:1731   */\n    tag_90:\n        /* \"#utility.yul\":1189:1195   */\n      0x00\n        /* \"#utility.yul\":1197:1203   */\n      dup1\n        /* \"#utility.yul\":1205:1211   */\n      0x00\n        /* \"#utility.yul\":1254:1256   */\n      0x60\n        /* \"#utility.yul\":1242:1251   */\n      dup5\n        /* \"#utility.yul\":1233:1240   */\n      dup7\n        /* \"#utility.yul\":1229:1252   */\n      sub\n        /* \"#utility.yul\":1225:1257   */\n      slt\n        /* \"#utility.yul\":1222:1341   */\n      iszero\n      tag_529\n      jumpi\n        /* \"#utility.yul\":1260:1339   */\n      tag_530\n      tag_521\n      jump\t// in\n    tag_530:\n        /* \"#utility.yul\":1222:1341   */\n    tag_529:\n        /* \"#utility.yul\":1380:1381   */\n      0x00\n        /* \"#utility.yul\":1405:1458   */\n      tag_531\n        /* \"#utility.yul\":1450:1457   */\n      dup7\n        /* \"#utility.yul\":1441:1447   */\n      dup3\n        /* \"#utility.yul\":1430:1439   */\n      dup8\n        /* \"#utility.yul\":1426:1448   */\n      add\n        /* \"#utility.yul\":1405:1458   */\n      tag_510\n      jump\t// in\n    tag_531:\n        /* \"#utility.yul\":1395:1458   */\n      swap4\n      pop\n        /* \"#utility.yul\":1351:1468   */\n      pop\n        /* \"#utility.yul\":1507:1509   */\n      0x20\n        /* \"#utility.yul\":1533:1586   */\n      tag_532\n        /* \"#utility.yul\":1578:1585   */\n      dup7\n        /* \"#utility.yul\":1569:1575   */\n      dup3\n        /* \"#utility.yul\":1558:1567   */\n      dup8\n        /* \"#utility.yul\":1554:1576   */\n      add\n        /* \"#utility.yul\":1533:1586   */\n      tag_510\n      jump\t// in\n    tag_532:\n        /* \"#utility.yul\":1523:1586   */\n      swap3\n      pop\n        /* \"#utility.yul\":1478:1596   */\n      pop\n        /* \"#utility.yul\":1635:1637   */\n      0x40\n        /* \"#utility.yul\":1661:1714   */\n      tag_533\n        /* \"#utility.yul\":1706:1713   */\n      dup7\n        /* \"#utility.yul\":1697:1703   */\n      dup3\n        /* \"#utility.yul\":1686:1695   */\n      dup8\n        /* \"#utility.yul\":1682:1704   */\n      add\n        /* \"#utility.yul\":1661:1714   */\n      tag_514\n      jump\t// in\n    tag_533:\n        /* \"#utility.yul\":1651:1714   */\n      swap2\n      pop\n        /* \"#utility.yul\":1606:1724   */\n      pop\n        /* \"#utility.yul\":1112:1731   */\n      swap3\n      pop\n      swap3\n      pop\n      swap3\n      jump\t// out\n        /* \"#utility.yul\":1737:2211   */\n    tag_65:\n        /* \"#utility.yul\":1805:1811   */\n      0x00\n        /* \"#utility.yul\":1813:1819   */\n      dup1\n        /* \"#utility.yul\":1862:1864   */\n      0x40\n        /* \"#utility.yul\":1850:1859   */\n      dup4\n        /* \"#utility.yul\":1841:1848   */\n      dup6\n        /* \"#utility.yul\":1837:1860   */\n      sub\n        /* \"#utility.yul\":1833:1865   */\n      slt\n        /* \"#utility.yul\":1830:1949   */\n      iszero\n      tag_535\n      jumpi\n        /* \"#utility.yul\":1868:1947   */\n      tag_536\n      tag_521\n      jump\t// in\n    tag_536:\n        /* \"#utility.yul\":1830:1949   */\n    tag_535:\n        /* \"#utility.yul\":1988:1989   */\n      0x00\n        /* \"#utility.yul\":2013:2066   */\n      tag_537\n        /* \"#utility.yul\":2058:2065   */\n      dup6\n        /* \"#utility.yul\":2049:2055   */\n      dup3\n        /* \"#utility.yul\":2038:2047   */\n      dup7\n        /* \"#utility.yul\":2034:2056   */\n      add\n        /* \"#utility.yul\":2013:2066   */\n      tag_510\n      jump\t// in\n    tag_537:\n        /* \"#utility.yul\":2003:2066   */\n      swap3\n      pop\n        /* \"#utility.yul\":1959:2076   */\n      pop\n        /* \"#utility.yul\":2115:2117   */\n      0x20\n        /* \"#utility.yul\":2141:2194   */\n      tag_538\n        /* \"#utility.yul\":2186:2193   */\n      dup6\n        /* \"#utility.yul\":2177:2183   */\n      dup3\n        /* \"#utility.yul\":2166:2175   */\n      dup7\n        /* \"#utility.yul\":2162:2184   */\n      add\n        /* \"#utility.yul\":2141:2194   */\n      tag_514\n      jump\t// in\n    tag_538:\n        /* \"#utility.yul\":2131:2194   */\n      swap2\n      pop\n        /* \"#utility.yul\":2086:2204   */\n      pop\n        /* \"#utility.yul\":1737:2211   */\n      swap3\n      pop\n      swap3\n      swap1\n      pop\n      jump\t// out\n        /* \"#utility.yul\":2217:2546   */\n    tag_80:\n        /* \"#utility.yul\":2276:2282   */\n      0x00\n        /* \"#utility.yul\":2325:2327   */\n      0x20\n        /* \"#utility.yul\":2313:2322   */\n      dup3\n        /* \"#utility.yul\":2304:2311   */\n      dup5\n        /* \"#utility.yul\":2300:2323   */\n      sub\n        /* \"#utility.yul\":2296:2328   */\n      slt\n        /* \"#utility.yul\":2293:2412   */\n      iszero\n      tag_540\n      jumpi\n        /* \"#utility.yul\":2331:2410   */\n      tag_541\n      tag_521\n      jump\t// in\n    tag_541:\n        /* \"#utility.yul\":2293:2412   */\n    tag_540:\n        /* \"#utility.yul\":2451:2452   */\n      0x00\n        /* \"#utility.yul\":2476:2529   */\n      tag_542\n        /* \"#utility.yul\":2521:2528   */\n      dup5\n        /* \"#utility.yul\":2512:2518   */\n      dup3\n        /* \"#utility.yul\":2501:2510   */\n      dup6\n        /* \"#utility.yul\":2497:2519   */\n      add\n        /* \"#utility.yul\":2476:2529   */\n      tag_514\n      jump\t// in\n    tag_542:\n        /* \"#utility.yul\":2466:2529   */\n      swap2\n      pop\n        /* \"#utility.yul\":2422:2539   */\n      pop\n        /* \"#utility.yul\":2217:2546   */\n      swap3\n      swap2\n      pop\n      pop\n      jump\t// out\n        /* \"#utility.yul\":2552:2670   */\n    tag_543:\n        /* \"#utility.yul\":2639:2663   */\n      tag_545\n        /* \"#utility.yul\":2657:2662   */\n      dup2\n        /* \"#utility.yul\":2639:2663   */\n      tag_546\n      jump\t// in\n    tag_545:\n        /* \"#utility.yul\":2634:2637   */\n      dup3\n        /* \"#utility.yul\":2627:2664   */\n      mstore\n        /* \"#utility.yul\":2552:2670   */\n      pop\n      pop\n      jump\t// out\n        /* \"#utility.yul\":2676:2785   */\n    tag_547:\n        /* \"#utility.yul\":2757:2778   */\n      tag_549\n        /* \"#utility.yul\":2772:2777   */\n      dup2\n        /* \"#utility.yul\":2757:2778   */\n      tag_550\n      jump\t// in\n    tag_549:\n        /* \"#utility.yul\":2752:2755   */\n      dup3\n        /* \"#utility.yul\":2745:2779   */\n      mstore\n        /* \"#utility.yul\":2676:2785   */\n      pop\n      pop\n      jump\t// out\n        /* \"#utility.yul\":2791:3155   */\n    tag_551:\n        /* \"#utility.yul\":2879:2882   */\n      0x00\n        /* \"#utility.yul\":2907:2946   */\n      tag_553\n        /* \"#utility.yul\":2940:2945   */\n      dup3\n        /* \"#utility.yul\":2907:2946   */\n      tag_554\n      jump\t// in\n    tag_553:\n        /* \"#utility.yul\":2962:3033   */\n      tag_555\n        /* \"#utility.yul\":3026:3032   */\n      dup2\n        /* \"#utility.yul\":3021:3024   */\n      dup6\n        /* \"#utility.yul\":2962:3033   */\n      tag_556\n      jump\t// in\n    tag_555:\n        /* \"#utility.yul\":2955:3033   */\n      swap4\n      pop\n        /* \"#utility.yul\":3042:3094   */\n      tag_557\n        /* \"#utility.yul\":3087:3093   */\n      dup2\n        /* \"#utility.yul\":3082:3085   */\n      dup6\n        /* \"#utility.yul\":3075:3079   */\n      0x20\n        /* \"#utility.yul\":3068:3073   */\n      dup7\n        /* \"#utility.yul\":3064:3080   */\n      add\n        /* \"#utility.yul\":3042:3094   */\n      tag_558\n      jump\t// in\n    tag_557:\n        /* \"#utility.yul\":3119:3148   */\n      tag_559\n        /* \"#utility.yul\":3141:3147   */\n      dup2\n        /* \"#utility.yul\":3119:3148   */\n      tag_560\n      jump\t// in\n    tag_559:\n        /* \"#utility.yul\":3114:3117   */\n      dup5\n        /* \"#utility.yul\":3110:3149   */\n      add\n        /* \"#utility.yul\":3103:3149   */\n      swap2\n      pop\n        /* \"#utility.yul\":2883:3155   */\n      pop\n        /* \"#utility.yul\":2791:3155   */\n      swap3\n      swap2\n      pop\n      pop\n      jump\t// out\n        /* \"#utility.yul\":3161:3527   */\n    tag_561:\n        /* \"#utility.yul\":3303:3306   */\n      0x00\n        /* \"#utility.yul\":3324:3391   */\n      tag_563\n        /* \"#utility.yul\":3388:3390   */\n      0x23\n        /* \"#utility.yul\":3383:3386   */\n      dup4\n        /* \"#utility.yul\":3324:3391   */\n      tag_556\n      jump\t// in\n    tag_563:\n        /* \"#utility.yul\":3317:3391   */\n      swap2\n      pop\n        /* \"#utility.yul\":3400:3493   */\n      tag_564\n        /* \"#utility.yul\":3489:3492   */\n      dup3\n        /* \"#utility.yul\":3400:3493   */\n      tag_565\n      jump\t// in\n    tag_564:\n        /* \"#utility.yul\":3518:3520   */\n      0x40\n        /* \"#utility.yul\":3513:3516   */\n      dup3\n        /* \"#utility.yul\":3509:3521   */\n      add\n        /* \"#utility.yul\":3502:3521   */\n      swap1\n      pop\n        /* \"#utility.yul\":3161:3527   */\n      swap2\n      swap1\n      pop\n      jump\t// out\n        /* \"#utility.yul\":3533:3899   */\n    tag_566:\n        /* \"#utility.yul\":3675:3678   */\n      0x00\n        /* \"#utility.yul\":3696:3763   */\n      tag_568\n        /* \"#utility.yul\":3760:3762   */\n      0x22\n        /* \"#utility.yul\":3755:3758   */\n      dup4\n        /* \"#utility.yul\":3696:3763   */\n      tag_556\n      jump\t// in\n    tag_568:\n        /* \"#utility.yul\":3689:3763   */\n      swap2\n      pop\n        /* \"#utility.yul\":3772:3865   */\n      tag_569\n        /* \"#utility.yul\":3861:3864   */\n      dup3\n        /* \"#utility.yul\":3772:3865   */\n      tag_570\n      jump\t// in\n    tag_569:\n        /* \"#utility.yul\":3890:3892   */\n      0x40\n        /* \"#utility.yul\":3885:3888   */\n      dup3\n        /* \"#utility.yul\":3881:3893   */\n      add\n        /* \"#utility.yul\":3874:3893   */\n      swap1\n      pop\n        /* \"#utility.yul\":3533:3899   */\n      swap2\n      swap1\n      pop\n      jump\t// out\n        /* \"#utility.yul\":3905:4271   */\n    tag_571:\n        /* \"#utility.yul\":4047:4050   */\n      0x00\n        /* \"#utility.yul\":4068:4135   */\n      tag_573\n        /* \"#utility.yul\":4132:4134   */\n      0x26\n        /* \"#utility.yul\":4127:4130   */\n      dup4\n        /* \"#utility.yul\":4068:4135   */\n      tag_556\n      jump\t// in\n    tag_573:\n        /* \"#utility.yul\":4061:4135   */\n      swap2\n      pop\n        /* \"#utility.yul\":4144:4237   */\n      tag_574\n        /* \"#utility.yul\":4233:4236   */\n      dup3\n        /* \"#utility.yul\":4144:4237   */\n      tag_575\n      jump\t// in\n    tag_574:\n        /* \"#utility.yul\":4262:4264   */\n      0x40\n        /* \"#utility.yul\":4257:4260   */\n      dup3\n        /* \"#utility.yul\":4253:4265   */\n      add\n        /* \"#utility.yul\":4246:4265   */\n      swap1\n      pop\n        /* \"#utility.yul\":3905:4271   */\n      swap2\n      swap1\n      pop\n      jump\t// out\n        /* \"#utility.yul\":4277:4643   */\n    tag_576:\n        /* \"#utility.yul\":4419:4422   */\n      0x00\n        /* \"#utility.yul\":4440:4507   */\n      tag_578\n        /* \"#utility.yul\":4504:4506   */\n      0x22\n        /* \"#utility.yul\":4499:4502   */\n      dup4\n        /* \"#utility.yul\":4440:4507   */\n      tag_556\n      jump\t// in\n    tag_578:\n        /* \"#utility.yul\":4433:4507   */\n      swap2\n      pop\n        /* \"#utility.yul\":4516:4609   */\n      tag_579\n        /* \"#utility.yul\":4605:4608   */\n      dup3\n        /* \"#utility.yul\":4516:4609   */\n      tag_580\n      jump\t// in\n    tag_579:\n        /* \"#utility.yul\":4634:4636   */\n      0x40\n        /* \"#utility.yul\":4629:4632   */\n      dup3\n        /* \"#utility.yul\":4625:4637   */\n      add\n        /* \"#utility.yul\":4618:4637   */\n      swap1\n      pop\n        /* \"#utility.yul\":4277:4643   */\n      swap2\n      swap1\n      pop\n      jump\t// out\n        /* \"#utility.yul\":4649:5015   */\n    tag_581:\n        /* \"#utility.yul\":4791:4794   */\n      0x00\n        /* \"#utility.yul\":4812:4879   */\n      tag_583\n        /* \"#utility.yul\":4876:4878   */\n      0x1d\n        /* \"#utility.yul\":4871:4874   */\n      dup4\n        /* \"#utility.yul\":4812:4879   */\n      tag_556\n      jump\t// in\n    tag_583:\n        /* \"#utility.yul\":4805:4879   */\n      swap2\n      pop\n        /* \"#utility.yul\":4888:4981   */\n      tag_584\n        /* \"#utility.yul\":4977:4980   */\n      dup3\n        /* \"#utility.yul\":4888:4981   */\n      tag_585\n      jump\t// in\n    tag_584:\n        /* \"#utility.yul\":5006:5008   */\n      0x20\n        /* \"#utility.yul\":5001:5004   */\n      dup3\n        /* \"#utility.yul\":4997:5009   */\n      add\n        /* \"#utility.yul\":4990:5009   */\n      swap1\n      pop\n        /* \"#utility.yul\":4649:5015   */\n      swap2\n      swap1\n      pop\n      jump\t// out\n        /* \"#utility.yul\":5021:5387   */\n    tag_586:\n        /* \"#utility.yul\":5163:5166   */\n      0x00\n        /* \"#utility.yul\":5184:5251   */\n      tag_588\n        /* \"#utility.yul\":5248:5250   */\n      0x26\n        /* \"#utility.yul\":5243:5246   */\n      dup4\n        /* \"#utility.yul\":5184:5251   */\n      tag_556\n      jump\t// in\n    tag_588:\n        /* \"#utility.yul\":5177:5251   */\n      swap2\n      pop\n        /* \"#utility.yul\":5260:5353   */\n      tag_589\n        /* \"#utility.yul\":5349:5352   */\n      dup3\n        /* \"#utility.yul\":5260:5353   */\n      tag_590\n      jump\t// in\n    tag_589:\n        /* \"#utility.yul\":5378:5380   */\n      0x40\n        /* \"#utility.yul\":5373:5376   */\n      dup3\n        /* \"#utility.yul\":5369:5381   */\n      add\n        /* \"#utility.yul\":5362:5381   */\n      swap1\n      pop\n        /* \"#utility.yul\":5021:5387   */\n      swap2\n      swap1\n      pop\n      jump\t// out\n        /* \"#utility.yul\":5393:5759   */\n    tag_591:\n        /* \"#utility.yul\":5535:5538   */\n      0x00\n        /* \"#utility.yul\":5556:5623   */\n      tag_593\n        /* \"#utility.yul\":5620:5622   */\n      0x20\n        /* \"#utility.yul\":5615:5618   */\n      dup4\n        /* \"#utility.yul\":5556:5623   */\n      tag_556\n      jump\t// in\n    tag_593:\n        /* \"#utility.yul\":5549:5623   */\n      swap2\n      pop\n        /* \"#utility.yul\":5632:5725   */\n      tag_594\n        /* \"#utility.yul\":5721:5724   */\n      dup3\n        /* \"#utility.yul\":5632:5725   */\n      tag_595\n      jump\t// in\n    tag_594:\n        /* \"#utility.yul\":5750:5752   */\n      0x20\n        /* \"#utility.yul\":5745:5748   */\n      dup3\n        /* \"#utility.yul\":5741:5753   */\n      add\n        /* \"#utility.yul\":5734:5753   */\n      swap1\n      pop\n        /* \"#utility.yul\":5393:5759   */\n      swap2\n      swap1\n      pop\n      jump\t// out\n        /* \"#utility.yul\":5765:6131   */\n    tag_596:\n        /* \"#utility.yul\":5907:5910   */\n      0x00\n        /* \"#utility.yul\":5928:5995   */\n      tag_598\n        /* \"#utility.yul\":5992:5994   */\n      0x21\n        /* \"#utility.yul\":5987:5990   */\n      dup4\n        /* \"#utility.yul\":5928:5995   */\n      tag_556\n      jump\t// in\n    tag_598:\n        /* \"#utility.yul\":5921:5995   */\n      swap2\n      pop\n        /* \"#utility.yul\":6004:6097   */\n      tag_599\n        /* \"#utility.yul\":6093:6096   */\n      dup3\n        /* \"#utility.yul\":6004:6097   */\n      tag_600\n      jump\t// in\n    tag_599:\n        /* \"#utility.yul\":6122:6124   */\n      0x40\n        /* \"#utility.yul\":6117:6120   */\n      dup3\n        /* \"#utility.yul\":6113:6125   */\n      add\n        /* \"#utility.yul\":6106:6125   */\n      swap1\n      pop\n        /* \"#utility.yul\":5765:6131   */\n      swap2\n      swap1\n      pop\n      jump\t// out\n        /* \"#utility.yul\":6137:6503   */\n    tag_601:\n        /* \"#utility.yul\":6279:6282   */\n      0x00\n        /* \"#utility.yul\":6300:6367   */\n      tag_603\n        /* \"#utility.yul\":6364:6366   */\n      0x25\n        /* \"#utility.yul\":6359:6362   */\n      dup4\n        /* \"#utility.yul\":6300:6367   */\n      tag_556\n      jump\t// in\n    tag_603:\n        /* \"#utility.yul\":6293:6367   */\n      swap2\n      pop\n        /* \"#utility.yul\":6376:6469   */\n      tag_604\n        /* \"#utility.yul\":6465:6468   */\n      dup3\n        /* \"#utility.yul\":6376:6469   */\n      tag_605\n      jump\t// in\n    tag_604:\n        /* \"#utility.yul\":6494:6496   */\n      0x40\n        /* \"#utility.yul\":6489:6492   */\n      dup3\n        /* \"#utility.yul\":6485:6497   */\n      add\n        /* \"#utility.yul\":6478:6497   */\n      swap1\n      pop\n        /* \"#utility.yul\":6137:6503   */\n      swap2\n      swap1\n      pop\n      jump\t// out\n        /* \"#utility.yul\":6509:6875   */\n    tag_606:\n        /* \"#utility.yul\":6651:6654   */\n      0x00\n        /* \"#utility.yul\":6672:6739   */\n      tag_608\n        /* \"#utility.yul\":6736:6738   */\n      0x24\n        /* \"#utility.yul\":6731:6734   */\n      dup4\n        /* \"#utility.yul\":6672:6739   */\n      tag_556\n      jump\t// in\n    tag_608:\n        /* \"#utility.yul\":6665:6739   */\n      swap2\n      pop\n        /* \"#utility.yul\":6748:6841   */\n      tag_609\n        /* \"#utility.yul\":6837:6840   */\n      dup3\n        /* \"#utility.yul\":6748:6841   */\n      tag_610\n      jump\t// in\n    tag_609:\n        /* \"#utility.yul\":6866:6868   */\n      0x40\n        /* \"#utility.yul\":6861:6864   */\n      dup3\n        /* \"#utility.yul\":6857:6869   */\n      add\n        /* \"#utility.yul\":6850:6869   */\n      swap1\n      pop\n        /* \"#utility.yul\":6509:6875   */\n      swap2\n      swap1\n      pop\n      jump\t// out\n        /* \"#utility.yul\":6881:7247   */\n    tag_611:\n        /* \"#utility.yul\":7023:7026   */\n      0x00\n        /* \"#utility.yul\":7044:7111   */\n      tag_613\n        /* \"#utility.yul\":7108:7110   */\n      0x1f\n        /* \"#utility.yul\":7103:7106   */\n      dup4\n        /* \"#utility.yul\":7044:7111   */\n      tag_556\n      jump\t// in\n    tag_613:\n        /* \"#utility.yul\":7037:7111   */\n      swap2\n      pop\n        /* \"#utility.yul\":7120:7213   */\n      tag_614\n        /* \"#utility.yul\":7209:7212   */\n      dup3\n        /* \"#utility.yul\":7120:7213   */\n      tag_615\n      jump\t// in\n    tag_614:\n        /* \"#utility.yul\":7238:7240   */\n      0x20\n        /* \"#utility.yul\":7233:7236   */\n      dup3\n        /* \"#utility.yul\":7229:7241   */\n      add\n        /* \"#utility.yul\":7222:7241   */\n      swap1\n      pop\n        /* \"#utility.yul\":6881:7247   */\n      swap2\n      swap1\n      pop\n      jump\t// out\n        /* \"#utility.yul\":7253:7619   */\n    tag_616:\n        /* \"#utility.yul\":7395:7398   */\n      0x00\n        /* \"#utility.yul\":7416:7483   */\n      tag_618\n        /* \"#utility.yul\":7480:7482   */\n      0x25\n        /* \"#utility.yul\":7475:7478   */\n      dup4\n        /* \"#utility.yul\":7416:7483   */\n      tag_556\n      jump\t// in\n    tag_618:\n        /* \"#utility.yul\":7409:7483   */\n      swap2\n      pop\n        /* \"#utility.yul\":7492:7585   */\n      tag_619\n        /* \"#utility.yul\":7581:7584   */\n      dup3\n        /* \"#utility.yul\":7492:7585   */\n      tag_620\n      jump\t// in\n    tag_619:\n        /* \"#utility.yul\":7610:7612   */\n      0x40\n        /* \"#utility.yul\":7605:7608   */\n      dup3\n        /* \"#utility.yul\":7601:7613   */\n      add\n        /* \"#utility.yul\":7594:7613   */\n      swap1\n      pop\n        /* \"#utility.yul\":7253:7619   */\n      swap2\n      swap1\n      pop\n      jump\t// out\n        /* \"#utility.yul\":7625:7991   */\n    tag_621:\n        /* \"#utility.yul\":7767:7770   */\n      0x00\n        /* \"#utility.yul\":7788:7855   */\n      tag_623\n        /* \"#utility.yul\":7852:7854   */\n      0x1f\n        /* \"#utility.yul\":7847:7850   */\n      dup4\n        /* \"#utility.yul\":7788:7855   */\n      tag_556\n      jump\t// in\n    tag_623:\n        /* \"#utility.yul\":7781:7855   */\n      swap2\n      pop\n        /* \"#utility.yul\":7864:7957   */\n      tag_624\n        /* \"#utility.yul\":7953:7956   */\n      dup3\n        /* \"#utility.yul\":7864:7957   */\n      tag_625\n      jump\t// in\n    tag_624:\n        /* \"#utility.yul\":7982:7984   */\n      0x20\n        /* \"#utility.yul\":7977:7980   */\n      dup3\n        /* \"#utility.yul\":7973:7985   */\n      add\n        /* \"#utility.yul\":7966:7985   */\n      swap1\n      pop\n        /* \"#utility.yul\":7625:7991   */\n      swap2\n      swap1\n      pop\n      jump\t// out\n        /* \"#utility.yul\":7997:8115   */\n    tag_626:\n        /* \"#utility.yul\":8084:8108   */\n      tag_628\n        /* \"#utility.yul\":8102:8107   */\n      dup2\n        /* \"#utility.yul\":8084:8108   */\n      tag_629\n      jump\t// in\n    tag_628:\n        /* \"#utility.yul\":8079:8082   */\n      dup3\n        /* \"#utility.yul\":8072:8109   */\n      mstore\n        /* \"#utility.yul\":7997:8115   */\n      pop\n      pop\n      jump\t// out\n        /* \"#utility.yul\":8121:8233   */\n    tag_630:\n        /* \"#utility.yul\":8204:8226   */\n      tag_632\n        /* \"#utility.yul\":8220:8225   */\n      dup2\n        /* \"#utility.yul\":8204:8226   */\n      tag_633\n      jump\t// in\n    tag_632:\n        /* \"#utility.yul\":8199:8202   */\n      dup3\n        /* \"#utility.yul\":8192:8227   */\n      mstore\n        /* \"#utility.yul\":8121:8233   */\n      pop\n      pop\n      jump\t// out\n        /* \"#utility.yul\":8239:8461   */\n    tag_156:\n        /* \"#utility.yul\":8332:8336   */\n      0x00\n        /* \"#utility.yul\":8370:8372   */\n      0x20\n        /* \"#utility.yul\":8359:8368   */\n      dup3\n        /* \"#utility.yul\":8355:8373   */\n      add\n        /* \"#utility.yul\":8347:8373   */\n      swap1\n      pop\n        /* \"#utility.yul\":8383:8454   */\n      tag_635\n        /* \"#utility.yul\":8451:8452   */\n      0x00\n        /* \"#utility.yul\":8440:8449   */\n      dup4\n        /* \"#utility.yul\":8436:8453   */\n      add\n        /* \"#utility.yul\":8427:8433   */\n      dup5\n        /* \"#utility.yul\":8383:8454   */\n      tag_543\n      jump\t// in\n    tag_635:\n        /* \"#utility.yul\":8239:8461   */\n      swap3\n      swap2\n      pop\n      pop\n      jump\t// out\n        /* \"#utility.yul\":8467:8677   */\n    tag_68:\n        /* \"#utility.yul\":8554:8558   */\n      0x00\n        /* \"#utility.yul\":8592:8594   */\n      0x20\n        /* \"#utility.yul\":8581:8590   */\n      dup3\n        /* \"#utility.yul\":8577:8595   */\n      add\n        /* \"#utility.yul\":8569:8595   */\n      swap1\n      pop\n        /* \"#utility.yul\":8605:8670   */\n      tag_637\n        /* \"#utility.yul\":8667:8668   */\n      0x00\n        /* \"#utility.yul\":8656:8665   */\n      dup4\n        /* \"#utility.yul\":8652:8669   */\n      add\n        /* \"#utility.yul\":8643:8649   */\n      dup5\n        /* \"#utility.yul\":8605:8670   */\n      tag_547\n      jump\t// in\n    tag_637:\n        /* \"#utility.yul\":8467:8677   */\n      swap3\n      swap2\n      pop\n      pop\n      jump\t// out\n        /* \"#utility.yul\":8683:9003   */\n    tag_229:\n        /* \"#utility.yul\":8798:8802   */\n      0x00\n        /* \"#utility.yul\":8836:8838   */\n      0x40\n        /* \"#utility.yul\":8825:8834   */\n      dup3\n        /* \"#utility.yul\":8821:8839   */\n      add\n        /* \"#utility.yul\":8813:8839   */\n      swap1\n      pop\n        /* \"#utility.yul\":8849:8914   */\n      tag_639\n        /* \"#utility.yul\":8911:8912   */\n      0x00\n        /* \"#utility.yul\":8900:8909   */\n      dup4\n        /* \"#utility.yul\":8896:8913   */\n      add\n        /* \"#utility.yul\":8887:8893   */\n      dup6\n        /* \"#utility.yul\":8849:8914   */\n      tag_547\n      jump\t// in\n    tag_639:\n        /* \"#utility.yul\":8924:8996   */\n      tag_640\n        /* \"#utility.yul\":8992:8994   */\n      0x20\n        /* \"#utility.yul\":8981:8990   */\n      dup4\n        /* \"#utility.yul\":8977:8995   */\n      add\n        /* \"#utility.yul\":8968:8974   */\n      dup5\n        /* \"#utility.yul\":8924:8996   */\n      tag_626\n      jump\t// in\n    tag_640:\n        /* \"#utility.yul\":8683:9003   */\n      swap4\n      swap3\n      pop\n      pop\n      pop\n      jump\t// out\n        /* \"#utility.yul\":9009:9322   */\n    tag_61:\n        /* \"#utility.yul\":9122:9126   */\n      0x00\n        /* \"#utility.yul\":9160:9162   */\n      0x20\n        /* \"#utility.yul\":9149:9158   */\n      dup3\n        /* \"#utility.yul\":9145:9163   */\n      add\n        /* \"#utility.yul\":9137:9163   */\n      swap1\n      pop\n        /* \"#utility.yul\":9209:9218   */\n      dup2\n        /* \"#utility.yul\":9203:9207   */\n      dup2\n        /* \"#utility.yul\":9199:9219   */\n      sub\n        /* \"#utility.yul\":9195:9196   */\n      0x00\n        /* \"#utility.yul\":9184:9193   */\n      dup4\n        /* \"#utility.yul\":9180:9197   */\n      add\n        /* \"#utility.yul\":9173:9220   */\n      mstore\n        /* \"#utility.yul\":9237:9315   */\n      tag_642\n        /* \"#utility.yul\":9310:9314   */\n      dup2\n        /* \"#utility.yul\":9301:9307   */\n      dup5\n        /* \"#utility.yul\":9237:9315   */\n      tag_551\n      jump\t// in\n    tag_642:\n        /* \"#utility.yul\":9229:9315   */\n      swap1\n      pop\n        /* \"#utility.yul\":9009:9322   */\n      swap3\n      swap2\n      pop\n      pop\n      jump\t// out\n        /* \"#utility.yul\":9328:9747   */\n    tag_487:\n        /* \"#utility.yul\":9494:9498   */\n      0x00\n        /* \"#utility.yul\":9532:9534   */\n      0x20\n        /* \"#utility.yul\":9521:9530   */\n      dup3\n        /* \"#utility.yul\":9517:9535   */\n      add\n        /* \"#utility.yul\":9509:9535   */\n      swap1\n      pop\n        /* \"#utility.yul\":9581:9590   */\n      dup2\n        /* \"#utility.yul\":9575:9579   */\n      dup2\n        /* \"#utility.yul\":9571:9591   */\n      sub\n        /* \"#utility.yul\":9567:9568   */\n      0x00\n        /* \"#utility.yul\":9556:9565   */\n      dup4\n        /* \"#utility.yul\":9552:9569   */\n      add\n        /* \"#utility.yul\":9545:9592   */\n      mstore\n        /* \"#utility.yul\":9609:9740   */\n      tag_644\n        /* \"#utility.yul\":9735:9739   */\n      dup2\n        /* \"#utility.yul\":9609:9740   */\n      tag_561\n      jump\t// in\n    tag_644:\n        /* \"#utility.yul\":9601:9740   */\n      swap1\n      pop\n        /* \"#utility.yul\":9328:9747   */\n      swap2\n      swap1\n      pop\n      jump\t// out\n        /* \"#utility.yul\":9753:10172   */\n    tag_469:\n        /* \"#utility.yul\":9919:9923   */\n      0x00\n        /* \"#utility.yul\":9957:9959   */\n      0x20\n        /* \"#utility.yul\":9946:9955   */\n      dup3\n        /* \"#utility.yul\":9942:9960   */\n      add\n        /* \"#utility.yul\":9934:9960   */\n      swap1\n      pop\n        /* \"#utility.yul\":10006:10015   */\n      dup2\n        /* \"#utility.yul\":10000:10004   */\n      dup2\n        /* \"#utility.yul\":9996:10016   */\n      sub\n        /* \"#utility.yul\":9992:9993   */\n      0x00\n        /* \"#utility.yul\":9981:9990   */\n      dup4\n        /* \"#utility.yul\":9977:9994   */\n      add\n        /* \"#utility.yul\":9970:10017   */\n      mstore\n        /* \"#utility.yul\":10034:10165   */\n      tag_646\n        /* \"#utility.yul\":10160:10164   */\n      dup2\n        /* \"#utility.yul\":10034:10165   */\n      tag_566\n      jump\t// in\n    tag_646:\n        /* \"#utility.yul\":10026:10165   */\n      swap1\n      pop\n        /* \"#utility.yul\":9753:10172   */\n      swap2\n      swap1\n      pop\n      jump\t// out\n        /* \"#utility.yul\":10178:10597   */\n    tag_448:\n        /* \"#utility.yul\":10344:10348   */\n      0x00\n        /* \"#utility.yul\":10382:10384   */\n      0x20\n        /* \"#utility.yul\":10371:10380   */\n      dup3\n        /* \"#utility.yul\":10367:10385   */\n      add\n        /* \"#utility.yul\":10359:10385   */\n      swap1\n      pop\n        /* \"#utility.yul\":10431:10440   */\n      dup2\n        /* \"#utility.yul\":10425:10429   */\n      dup2\n        /* \"#utility.yul\":10421:10441   */\n      sub\n        /* \"#utility.yul\":10417:10418   */\n      0x00\n        /* \"#utility.yul\":10406:10415   */\n      dup4\n        /* \"#utility.yul\":10402:10419   */\n      add\n        /* \"#utility.yul\":10395:10442   */\n      mstore\n        /* \"#utility.yul\":10459:10590   */\n      tag_648\n        /* \"#utility.yul\":10585:10589   */\n      dup2\n        /* \"#utility.yul\":10459:10590   */\n      tag_571\n      jump\t// in\n    tag_648:\n        /* \"#utility.yul\":10451:10590   */\n      swap1\n      pop\n        /* \"#utility.yul\":10178:10597   */\n      swap2\n      swap1\n      pop\n      jump\t// out\n        /* \"#utility.yul\":10603:11022   */\n    tag_457:\n        /* \"#utility.yul\":10769:10773   */\n      0x00\n        /* \"#utility.yul\":10807:10809   */\n      0x20\n        /* \"#utility.yul\":10796:10805   */\n      dup3\n        /* \"#utility.yul\":10792:10810   */\n      add\n        /* \"#utility.yul\":10784:10810   */\n      swap1\n      pop\n        /* \"#utility.yul\":10856:10865   */\n      dup2\n        /* \"#utility.yul\":10850:10854   */\n      dup2\n        /* \"#utility.yul\":10846:10866   */\n      sub\n        /* \"#utility.yul\":10842:10843   */\n      0x00\n        /* \"#utility.yul\":10831:10840   */\n      dup4\n        /* \"#utility.yul\":10827:10844   */\n      add\n        /* \"#utility.yul\":10820:10867   */\n      mstore\n        /* \"#utility.yul\":10884:11015   */\n      tag_650\n        /* \"#utility.yul\":11010:11014   */\n      dup2\n        /* \"#utility.yul\":10884:11015   */\n      tag_576\n      jump\t// in\n    tag_650:\n        /* \"#utility.yul\":10876:11015   */\n      swap1\n      pop\n        /* \"#utility.yul\":10603:11022   */\n      swap2\n      swap1\n      pop\n      jump\t// out\n        /* \"#utility.yul\":11028:11447   */\n    tag_479:\n        /* \"#utility.yul\":11194:11198   */\n      0x00\n        /* \"#utility.yul\":11232:11234   */\n      0x20\n        /* \"#utility.yul\":11221:11230   */\n      dup3\n        /* \"#utility.yul\":11217:11235   */\n      add\n        /* \"#utility.yul\":11209:11235   */\n      swap1\n      pop\n        /* \"#utility.yul\":11281:11290   */\n      dup2\n        /* \"#utility.yul\":11275:11279   */\n      dup2\n        /* \"#utility.yul\":11271:11291   */\n      sub\n        /* \"#utility.yul\":11267:11268   */\n      0x00\n        /* \"#utility.yul\":11256:11265   */\n      dup4\n        /* \"#utility.yul\":11252:11269   */\n      add\n        /* \"#utility.yul\":11245:11292   */\n      mstore\n        /* \"#utility.yul\":11309:11440   */\n      tag_652\n        /* \"#utility.yul\":11435:11439   */\n      dup2\n        /* \"#utility.yul\":11309:11440   */\n      tag_581\n      jump\t// in\n    tag_652:\n        /* \"#utility.yul\":11301:11440   */\n      swap1\n      pop\n        /* \"#utility.yul\":11028:11447   */\n      swap2\n      swap1\n      pop\n      jump\t// out\n        /* \"#utility.yul\":11453:11872   */\n    tag_491:\n        /* \"#utility.yul\":11619:11623   */\n      0x00\n        /* \"#utility.yul\":11657:11659   */\n      0x20\n        /* \"#utility.yul\":11646:11655   */\n      dup3\n        /* \"#utility.yul\":11642:11660   */\n      add\n        /* \"#utility.yul\":11634:11660   */\n      swap1\n      pop\n        /* \"#utility.yul\":11706:11715   */\n      dup2\n        /* \"#utility.yul\":11700:11704   */\n      dup2\n        /* \"#utility.yul\":11696:11716   */\n      sub\n        /* \"#utility.yul\":11692:11693   */\n      0x00\n        /* \"#utility.yul\":11681:11690   */\n      dup4\n        /* \"#utility.yul\":11677:11694   */\n      add\n        /* \"#utility.yul\":11670:11717   */\n      mstore\n        /* \"#utility.yul\":11734:11865   */\n      tag_654\n        /* \"#utility.yul\":11860:11864   */\n      dup2\n        /* \"#utility.yul\":11734:11865   */\n      tag_586\n      jump\t// in\n    tag_654:\n        /* \"#utility.yul\":11726:11865   */\n      swap1\n      pop\n        /* \"#utility.yul\":11453:11872   */\n      swap2\n      swap1\n      pop\n      jump\t// out\n        /* \"#utility.yul\":11878:12297   */\n    tag_316:\n        /* \"#utility.yul\":12044:12048   */\n      0x00\n        /* \"#utility.yul\":12082:12084   */\n      0x20\n        /* \"#utility.yul\":12071:12080   */\n      dup3\n        /* \"#utility.yul\":12067:12085   */\n      add\n        /* \"#utility.yul\":12059:12085   */\n      swap1\n      pop\n        /* \"#utility.yul\":12131:12140   */\n      dup2\n        /* \"#utility.yul\":12125:12129   */\n      dup2\n        /* \"#utility.yul\":12121:12141   */\n      sub\n        /* \"#utility.yul\":12117:12118   */\n      0x00\n        /* \"#utility.yul\":12106:12115   */\n      dup4\n        /* \"#utility.yul\":12102:12119   */\n      add\n        /* \"#utility.yul\":12095:12142   */\n      mstore\n        /* \"#utility.yul\":12159:12290   */\n      tag_656\n        /* \"#utility.yul\":12285:12289   */\n      dup2\n        /* \"#utility.yul\":12159:12290   */\n      tag_591\n      jump\t// in\n    tag_656:\n        /* \"#utility.yul\":12151:12290   */\n      swap1\n      pop\n        /* \"#utility.yul\":11878:12297   */\n      swap2\n      swap1\n      pop\n      jump\t// out\n        /* \"#utility.yul\":12303:12722   */\n    tag_464:\n        /* \"#utility.yul\":12469:12473   */\n      0x00\n        /* \"#utility.yul\":12507:12509   */\n      0x20\n        /* \"#utility.yul\":12496:12505   */\n      dup3\n        /* \"#utility.yul\":12492:12510   */\n      add\n        /* \"#utility.yul\":12484:12510   */\n      swap1\n      pop\n        /* \"#utility.yul\":12556:12565   */\n      dup2\n        /* \"#utility.yul\":12550:12554   */\n      dup2\n        /* \"#utility.yul\":12546:12566   */\n      sub\n        /* \"#utility.yul\":12542:12543   */\n      0x00\n        /* \"#utility.yul\":12531:12540   */\n      dup4\n        /* \"#utility.yul\":12527:12544   */\n      add\n        /* \"#utility.yul\":12520:12567   */\n      mstore\n        /* \"#utility.yul\":12584:12715   */\n      tag_658\n        /* \"#utility.yul\":12710:12714   */\n      dup2\n        /* \"#utility.yul\":12584:12715   */\n      tag_596\n      jump\t// in\n    tag_658:\n        /* \"#utility.yul\":12576:12715   */\n      swap1\n      pop\n        /* \"#utility.yul\":12303:12722   */\n      swap2\n      swap1\n      pop\n      jump\t// out\n        /* \"#utility.yul\":12728:13147   */\n    tag_484:\n        /* \"#utility.yul\":12894:12898   */\n      0x00\n        /* \"#utility.yul\":12932:12934   */\n      0x20\n        /* \"#utility.yul\":12921:12930   */\n      dup3\n        /* \"#utility.yul\":12917:12935   */\n      add\n        /* \"#utility.yul\":12909:12935   */\n      swap1\n      pop\n        /* \"#utility.yul\":12981:12990   */\n      dup2\n        /* \"#utility.yul\":12975:12979   */\n      dup2\n        /* \"#utility.yul\":12971:12991   */\n      sub\n        /* \"#utility.yul\":12967:12968   */\n      0x00\n        /* \"#utility.yul\":12956:12965   */\n      dup4\n        /* \"#utility.yul\":12952:12969   */\n      add\n        /* \"#utility.yul\":12945:12992   */\n      mstore\n        /* \"#utility.yul\":13009:13140   */\n      tag_660\n        /* \"#utility.yul\":13135:13139   */\n      dup2\n        /* \"#utility.yul\":13009:13140   */\n      tag_601\n      jump\t// in\n    tag_660:\n        /* \"#utility.yul\":13001:13140   */\n      swap1\n      pop\n        /* \"#utility.yul\":12728:13147   */\n      swap2\n      swap1\n      pop\n      jump\t// out\n        /* \"#utility.yul\":13153:13572   */\n    tag_454:\n        /* \"#utility.yul\":13319:13323   */\n      0x00\n        /* \"#utility.yul\":13357:13359   */\n      0x20\n        /* \"#utility.yul\":13346:13355   */\n      dup3\n        /* \"#utility.yul\":13342:13360   */\n      add\n        /* \"#utility.yul\":13334:13360   */\n      swap1\n      pop\n        /* \"#utility.yul\":13406:13415   */\n      dup2\n        /* \"#utility.yul\":13400:13404   */\n      dup2\n        /* \"#utility.yul\":13396:13416   */\n      sub\n        /* \"#utility.yul\":13392:13393   */\n      0x00\n        /* \"#utility.yul\":13381:13390   */\n      dup4\n        /* \"#utility.yul\":13377:13394   */\n      add\n        /* \"#utility.yul\":13370:13417   */\n      mstore\n        /* \"#utility.yul\":13434:13565   */\n      tag_662\n        /* \"#utility.yul\":13560:13564   */\n      dup2\n        /* \"#utility.yul\":13434:13565   */\n      tag_606\n      jump\t// in\n    tag_662:\n        /* \"#utility.yul\":13426:13565   */\n      swap1\n      pop\n        /* \"#utility.yul\":13153:13572   */\n      swap2\n      swap1\n      pop\n      jump\t// out\n        /* \"#utility.yul\":13578:13997   */\n    tag_272:\n        /* \"#utility.yul\":13744:13748   */\n      0x00\n        /* \"#utility.yul\":13782:13784   */\n      0x20\n        /* \"#utility.yul\":13771:13780   */\n      dup3\n        /* \"#utility.yul\":13767:13785   */\n      add\n        /* \"#utility.yul\":13759:13785   */\n      swap1\n      pop\n        /* \"#utility.yul\":13831:13840   */\n      dup2\n        /* \"#utility.yul\":13825:13829   */\n      dup2\n        /* \"#utility.yul\":13821:13841   */\n      sub\n        /* \"#utility.yul\":13817:13818   */\n      0x00\n        /* \"#utility.yul\":13806:13815   */\n      dup4\n        /* \"#utility.yul\":13802:13819   */\n      add\n        /* \"#utility.yul\":13795:13842   */\n      mstore\n        /* \"#utility.yul\":13859:13990   */\n      tag_664\n        /* \"#utility.yul\":13985:13989   */\n      dup2\n        /* \"#utility.yul\":13859:13990   */\n      tag_611\n      jump\t// in\n    tag_664:\n        /* \"#utility.yul\":13851:13990   */\n      swap1\n      pop\n        /* \"#utility.yul\":13578:13997   */\n      swap2\n      swap1\n      pop\n      jump\t// out\n        /* \"#utility.yul\":14003:14422   */\n    tag_380:\n        /* \"#utility.yul\":14169:14173   */\n      0x00\n        /* \"#utility.yul\":14207:14209   */\n      0x20\n        /* \"#utility.yul\":14196:14205   */\n      dup3\n        /* \"#utility.yul\":14192:14210   */\n      add\n        /* \"#utility.yul\":14184:14210   */\n      swap1\n      pop\n        /* \"#utility.yul\":14256:14265   */\n      dup2\n        /* \"#utility.yul\":14250:14254   */\n      dup2\n        /* \"#utility.yul\":14246:14266   */\n      sub\n        /* \"#utility.yul\":14242:14243   */\n      0x00\n        /* \"#utility.yul\":14231:14240   */\n      dup4\n        /* \"#utility.yul\":14227:14244   */\n      add\n        /* \"#utility.yul\":14220:14267   */\n      mstore\n        /* \"#utility.yul\":14284:14415   */\n      tag_666\n        /* \"#utility.yul\":14410:14414   */\n      dup2\n        /* \"#utility.yul\":14284:14415   */\n      tag_616\n      jump\t// in\n    tag_666:\n        /* \"#utility.yul\":14276:14415   */\n      swap1\n      pop\n        /* \"#utility.yul\":14003:14422   */\n      swap2\n      swap1\n      pop\n      jump\t// out\n        /* \"#utility.yul\":14428:14847   */\n    tag_498:\n        /* \"#utility.yul\":14594:14598   */\n      0x00\n        /* \"#utility.yul\":14632:14634   */\n      0x20\n        /* \"#utility.yul\":14621:14630   */\n      dup3\n        /* \"#utility.yul\":14617:14635   */\n      add\n        /* \"#utility.yul\":14609:14635   */\n      swap1\n      pop\n        /* \"#utility.yul\":14681:14690   */\n      dup2\n        /* \"#utility.yul\":14675:14679   */\n      dup2\n        /* \"#utility.yul\":14671:14691   */\n      sub\n        /* \"#utility.yul\":14667:14668   */\n      0x00\n        /* \"#utility.yul\":14656:14665   */\n      dup4\n        /* \"#utility.yul\":14652:14669   */\n      add\n        /* \"#utility.yul\":14645:14692   */\n      mstore\n        /* \"#utility.yul\":14709:14840   */\n      tag_668\n        /* \"#utility.yul\":14835:14839   */\n      dup2\n        /* \"#utility.yul\":14709:14840   */\n      tag_621\n      jump\t// in\n    tag_668:\n        /* \"#utility.yul\":14701:14840   */\n      swap1\n      pop\n        /* \"#utility.yul\":14428:14847   */\n      swap2\n      swap1\n      pop\n      jump\t// out\n        /* \"#utility.yul\":14853:15075   */\n    tag_56:\n        /* \"#utility.yul\":14946:14950   */\n      0x00\n        /* \"#utility.yul\":14984:14986   */\n      0x20\n        /* \"#utility.yul\":14973:14982   */\n      dup3\n        /* \"#utility.yul\":14969:14987   */\n      add\n        /* \"#utility.yul\":14961:14987   */\n      swap1\n      pop\n        /* \"#utility.yul\":14997:15068   */\n      tag_670\n        /* \"#utility.yul\":15065:15066   */\n      0x00\n        /* \"#utility.yul\":15054:15063   */\n      dup4\n        /* \"#utility.yul\":15050:15067   */\n      add\n        /* \"#utility.yul\":15041:15047   */\n      dup5\n        /* \"#utility.yul\":14997:15068   */\n      tag_626\n      jump\t// in\n    tag_670:\n        /* \"#utility.yul\":14853:15075   */\n      swap3\n      swap2\n      pop\n      pop\n      jump\t// out\n        /* \"#utility.yul\":15081:15295   */\n    tag_97:\n        /* \"#utility.yul\":15170:15174   */\n      0x00\n        /* \"#utility.yul\":15208:15210   */\n      0x20\n        /* \"#utility.yul\":15197:15206   */\n      dup3\n        /* \"#utility.yul\":15193:15211   */\n      add\n        /* \"#utility.yul\":15185:15211   */\n      swap1\n      pop\n        /* \"#utility.yul\":15221:15288   */\n      tag_672\n        /* \"#utility.yul\":15285:15286   */\n      0x00\n        /* \"#utility.yul\":15274:15283   */\n      dup4\n        /* \"#utility.yul\":15270:15287   */\n      add\n        /* \"#utility.yul\":15261:15267   */\n      dup5\n        /* \"#utility.yul\":15221:15288   */\n      tag_630\n      jump\t// in\n    tag_672:\n        /* \"#utility.yul\":15081:15295   */\n      swap3\n      swap2\n      pop\n      pop\n      jump\t// out\n        /* \"#utility.yul\":15382:15481   */\n    tag_554:\n        /* \"#utility.yul\":15434:15440   */\n      0x00\n        /* \"#utility.yul\":15468:15473   */\n      dup2\n        /* \"#utility.yul\":15462:15474   */\n      mload\n        /* \"#utility.yul\":15452:15474   */\n      swap1\n      pop\n        /* \"#utility.yul\":15382:15481   */\n      swap2\n      swap1\n      pop\n      jump\t// out\n        /* \"#utility.yul\":15487:15656   */\n    tag_556:\n        /* \"#utility.yul\":15571:15582   */\n      0x00\n        /* \"#utility.yul\":15605:15611   */\n      dup3\n        /* \"#utility.yul\":15600:15603   */\n      dup3\n        /* \"#utility.yul\":15593:15612   */\n      mstore\n        /* \"#utility.yul\":15645:15649   */\n      0x20\n        /* \"#utility.yul\":15640:15643   */\n      dup3\n        /* \"#utility.yul\":15636:15650   */\n      add\n        /* \"#utility.yul\":15621:15650   */\n      swap1\n      pop\n        /* \"#utility.yul\":15487:15656   */\n      swap3\n      swap2\n      pop\n      pop\n      jump\t// out\n        /* \"#utility.yul\":15662:15967   */\n    tag_244:\n        /* \"#utility.yul\":15702:15705   */\n      0x00\n        /* \"#utility.yul\":15721:15741   */\n      tag_678\n        /* \"#utility.yul\":15739:15740   */\n      dup3\n        /* \"#utility.yul\":15721:15741   */\n      tag_629\n      jump\t// in\n    tag_678:\n        /* \"#utility.yul\":15716:15741   */\n      swap2\n      pop\n        /* \"#utility.yul\":15755:15775   */\n      tag_679\n        /* \"#utility.yul\":15773:15774   */\n      dup4\n        /* \"#utility.yul\":15755:15775   */\n      tag_629\n      jump\t// in\n    tag_679:\n        /* \"#utility.yul\":15750:15775   */\n      swap3\n      pop\n        /* \"#utility.yul\":15909:15910   */\n      dup3\n        /* \"#utility.yul\":15841:15907   */\n      0xffffffffffffffffffffffffffffffffffffffffffffffffffffffffffffffff\n        /* \"#utility.yul\":15837:15911   */\n      sub\n        /* \"#utility.yul\":15834:15835   */\n      dup3\n        /* \"#utility.yul\":15831:15912   */\n      gt\n        /* \"#utility.yul\":15828:15935   */\n      iszero\n      tag_680\n      jumpi\n        /* \"#utility.yul\":15915:15933   */\n      tag_681\n      tag_682\n      jump\t// in\n    tag_681:\n        /* \"#utility.yul\":15828:15935   */\n    tag_680:\n        /* \"#utility.yul\":15959:15960   */\n      dup3\n        /* \"#utility.yul\":15956:15957   */\n      dup3\n        /* \"#utility.yul\":15952:15961   */\n      add\n        /* \"#utility.yul\":15945:15961   */\n      swap1\n      pop\n        /* \"#utility.yul\":15662:15967   */\n      swap3\n      swap2\n      pop\n      pop\n      jump\t// out\n        /* \"#utility.yul\":15973:16158   */\n    tag_242:\n        /* \"#utility.yul\":16013:16014   */\n      0x00\n        /* \"#utility.yul\":16030:16050   */\n      tag_684\n        /* \"#utility.yul\":16048:16049   */\n      dup3\n        /* \"#utility.yul\":16030:16050   */\n      tag_629\n      jump\t// in\n    tag_684:\n        /* \"#utility.yul\":16025:16050   */\n      swap2\n      pop\n        /* \"#utility.yul\":16064:16084   */\n      tag_685\n        /* \"#utility.yul\":16082:16083   */\n      dup4\n        /* \"#utility.yul\":16064:16084   */\n      tag_629\n      jump\t// in\n    tag_685:\n        /* \"#utility.yul\":16059:16084   */\n      swap3\n      pop\n        /* \"#utility.yul\":16103:16104   */\n      dup3\n        /* \"#utility.yul\":16093:16128   */\n      tag_686\n      jumpi\n        /* \"#utility.yul\":16108:16126   */\n      tag_687\n      tag_688\n      jump\t// in\n    tag_687:\n        /* \"#utility.yul\":16093:16128   */\n    tag_686:\n        /* \"#utility.yul\":16150:16151   */\n      dup3\n        /* \"#utility.yul\":16147:16148   */\n      dup3\n        /* \"#utility.yul\":16143:16152   */\n      div\n        /* \"#utility.yul\":16138:16152   */\n      swap1\n      pop\n        /* \"#utility.yul\":15973:16158   */\n      swap3\n      swap2\n      pop\n      pop\n      jump\t// out\n        /* \"#utility.yul\":16164:17012   */\n    tag_689:\n        /* \"#utility.yul\":16225:16230   */\n      0x00\n        /* \"#utility.yul\":16232:16236   */\n      dup1\n        /* \"#utility.yul\":16256:16262   */\n      dup3\n        /* \"#utility.yul\":16247:16262   */\n      swap2\n      pop\n        /* \"#utility.yul\":16280:16285   */\n      dup4\n        /* \"#utility.yul\":16271:16285   */\n      swap1\n      pop\n        /* \"#utility.yul\":16294:17006   */\n    tag_691:\n        /* \"#utility.yul\":16315:16316   */\n      0x01\n        /* \"#utility.yul\":16305:16313   */\n      dup6\n        /* \"#utility.yul\":16302:16317   */\n      gt\n        /* \"#utility.yul\":16294:17006   */\n      iszero\n      tag_693\n      jumpi\n        /* \"#utility.yul\":16410:16414   */\n      dup1\n        /* \"#utility.yul\":16405:16408   */\n      dup7\n        /* \"#utility.yul\":16401:16415   */\n      div\n        /* \"#utility.yul\":16395:16399   */\n      dup2\n        /* \"#utility.yul\":16392:16416   */\n      gt\n        /* \"#utility.yul\":16389:16439   */\n      iszero\n      tag_694\n      jumpi\n        /* \"#utility.yul\":16419:16437   */\n      tag_695\n      tag_682\n      jump\t// in\n    tag_695:\n        /* \"#utility.yul\":16389:16439   */\n    tag_694:\n        /* \"#utility.yul\":16469:16470   */\n      0x01\n        /* \"#utility.yul\":16459:16467   */\n      dup6\n        /* \"#utility.yul\":16455:16471   */\n      and\n        /* \"#utility.yul\":16452:16903   */\n      iszero\n      tag_696\n      jumpi\n        /* \"#utility.yul\":16884:16888   */\n      dup1\n        /* \"#utility.yul\":16877:16882   */\n      dup3\n        /* \"#utility.yul\":16873:16889   */\n      mul\n        /* \"#utility.yul\":16864:16889   */\n      swap2\n      pop\n        /* \"#utility.yul\":16452:16903   */\n    tag_696:\n        /* \"#utility.yul\":16934:16938   */\n      dup1\n        /* \"#utility.yul\":16928:16932   */\n      dup2\n        /* \"#utility.yul\":16924:16939   */\n      mul\n        /* \"#utility.yul\":16916:16939   */\n      swap1\n      pop\n        /* \"#utility.yul\":16964:16996   */\n      tag_697\n        /* \"#utility.yul\":16987:16995   */\n      dup6\n        /* \"#utility.yul\":16964:16996   */\n      tag_698\n      jump\t// in\n    tag_697:\n        /* \"#utility.yul\":16952:16996   */\n      swap5\n      pop\n        /* \"#utility.yul\":16294:17006   */\n      jump(tag_691)\n    tag_693:\n        /* \"#utility.yul\":16164:17012   */\n      swap5\n      pop\n      swap5\n      swap3\n      pop\n      pop\n      pop\n      jump\t// out\n        /* \"#utility.yul\":17018:17299   */\n    tag_339:\n        /* \"#utility.yul\":17076:17081   */\n      0x00\n        /* \"#utility.yul\":17100:17123   */\n      tag_700\n        /* \"#utility.yul\":17118:17122   */\n      dup3\n        /* \"#utility.yul\":17100:17123   */\n      tag_629\n      jump\t// in\n    tag_700:\n        /* \"#utility.yul\":17092:17123   */\n      swap2\n      pop\n        /* \"#utility.yul\":17144:17169   */\n      tag_701\n        /* \"#utility.yul\":17160:17168   */\n      dup4\n        /* \"#utility.yul\":17144:17169   */\n      tag_633\n      jump\t// in\n    tag_701:\n        /* \"#utility.yul\":17132:17169   */\n      swap3\n      pop\n        /* \"#utility.yul\":17188:17292   */\n      tag_702\n        /* \"#utility.yul\":17225:17291   */\n      0xffffffffffffffffffffffffffffffffffffffffffffffffffffffffffffffff\n        /* \"#utility.yul\":17215:17223   */\n      dup5\n        /* \"#utility.yul\":17209:17213   */\n      dup5\n        /* \"#utility.yul\":17188:17292   */\n      tag_703\n      jump\t// in\n    tag_702:\n        /* \"#utility.yul\":17179:17292   */\n      swap1\n      pop\n        /* \"#utility.yul\":17018:17299   */\n      swap3\n      swap2\n      pop\n      pop\n      jump\t// out\n        /* \"#utility.yul\":17305:18378   */\n    tag_703:\n        /* \"#utility.yul\":17359:17364   */\n      0x00\n        /* \"#utility.yul\":17550:17558   */\n      dup3\n        /* \"#utility.yul\":17540:17580   */\n      tag_705\n      jumpi\n        /* \"#utility.yul\":17571:17572   */\n      0x01\n        /* \"#utility.yul\":17562:17572   */\n      swap1\n      pop\n        /* \"#utility.yul\":17573:17578   */\n      jump(tag_704)\n        /* \"#utility.yul\":17540:17580   */\n    tag_705:\n        /* \"#utility.yul\":17599:17603   */\n      dup2\n        /* \"#utility.yul\":17589:17625   */\n      tag_706\n      jumpi\n        /* \"#utility.yul\":17616:17617   */\n      0x00\n        /* \"#utility.yul\":17607:17617   */\n      swap1\n      pop\n        /* \"#utility.yul\":17618:17623   */\n      jump(tag_704)\n        /* \"#utility.yul\":17589:17625   */\n    tag_706:\n        /* \"#utility.yul\":17685:17689   */\n      dup2\n        /* \"#utility.yul\":17733:17734   */\n      0x01\n        /* \"#utility.yul\":17728:17755   */\n      dup2\n      eq\n      tag_708\n      jumpi\n        /* \"#utility.yul\":17769:17770   */\n      0x02\n        /* \"#utility.yul\":17764:17955   */\n      dup2\n      eq\n      tag_709\n      jumpi\n        /* \"#utility.yul\":17678:17955   */\n      jump(tag_707)\n        /* \"#utility.yul\":17728:17755   */\n    tag_708:\n        /* \"#utility.yul\":17746:17747   */\n      0x01\n        /* \"#utility.yul\":17737:17747   */\n      swap2\n      pop\n        /* \"#utility.yul\":17748:17753   */\n      pop\n      jump(tag_704)\n        /* \"#utility.yul\":17764:17955   */\n    tag_709:\n        /* \"#utility.yul\":17809:17812   */\n      0xff\n        /* \"#utility.yul\":17799:17807   */\n      dup5\n        /* \"#utility.yul\":17796:17813   */\n      gt\n        /* \"#utility.yul\":17793:17836   */\n      iszero\n      tag_710\n      jumpi\n        /* \"#utility.yul\":17816:17834   */\n      tag_711\n      tag_682\n      jump\t// in\n    tag_711:\n        /* \"#utility.yul\":17793:17836   */\n    tag_710:\n        /* \"#utility.yul\":17865:17873   */\n      dup4\n        /* \"#utility.yul\":17862:17863   */\n      0x02\n        /* \"#utility.yul\":17858:17874   */\n      exp\n        /* \"#utility.yul\":17849:17874   */\n      swap2\n      pop\n        /* \"#utility.yul\":17900:17903   */\n      dup5\n        /* \"#utility.yul\":17893:17898   */\n      dup3\n        /* \"#utility.yul\":17890:17904   */\n      gt\n        /* \"#utility.yul\":17887:17927   */\n      iszero\n      tag_712\n      jumpi\n        /* \"#utility.yul\":17907:17925   */\n      tag_713\n      tag_682\n      jump\t// in\n    tag_713:\n        /* \"#utility.yul\":17887:17927   */\n    tag_712:\n        /* \"#utility.yul\":17940:17945   */\n      pop\n      jump(tag_704)\n        /* \"#utility.yul\":17678:17955   */\n    tag_707:\n      pop\n        /* \"#utility.yul\":18064:18066   */\n      0x20\n        /* \"#utility.yul\":18054:18062   */\n      dup4\n        /* \"#utility.yul\":18051:18067   */\n      lt\n        /* \"#utility.yul\":18045:18048   */\n      0x0133\n        /* \"#utility.yul\":18039:18043   */\n      dup4\n        /* \"#utility.yul\":18036:18049   */\n      lt\n        /* \"#utility.yul\":18032:18068   */\n      and\n        /* \"#utility.yul\":18014:18016   */\n      0x4e\n        /* \"#utility.yul\":18004:18012   */\n      dup5\n        /* \"#utility.yul\":18001:18017   */\n      lt\n        /* \"#utility.yul\":17996:17998   */\n      0x0b\n        /* \"#utility.yul\":17990:17994   */\n      dup5\n        /* \"#utility.yul\":17987:17999   */\n      lt\n        /* \"#utility.yul\":17983:18018   */\n      and\n        /* \"#utility.yul\":17967:18078   */\n      or\n        /* \"#utility.yul\":17964:18210   */\n      iszero\n      tag_714\n      jumpi\n        /* \"#utility.yul\":18120:18128   */\n      dup3\n        /* \"#utility.yul\":18114:18118   */\n      dup3\n        /* \"#utility.yul\":18110:18129   */\n      exp\n        /* \"#utility.yul\":18101:18129   */\n      swap1\n      pop\n        /* \"#utility.yul\":18155:18158   */\n      dup4\n        /* \"#utility.yul\":18148:18153   */\n      dup2\n        /* \"#utility.yul\":18145:18159   */\n      gt\n        /* \"#utility.yul\":18142:18182   */\n      iszero\n      tag_715\n      jumpi\n        /* \"#utility.yul\":18162:18180   */\n      tag_716\n      tag_682\n      jump\t// in\n    tag_716:\n        /* \"#utility.yul\":18142:18182   */\n    tag_715:\n        /* \"#utility.yul\":18195:18200   */\n      jump(tag_704)\n        /* \"#utility.yul\":17964:18210   */\n    tag_714:\n        /* \"#utility.yul\":18235:18277   */\n      tag_717\n        /* \"#utility.yul\":18273:18276   */\n      dup5\n        /* \"#utility.yul\":18263:18271   */\n      dup5\n        /* \"#utility.yul\":18257:18261   */\n      dup5\n        /* \"#utility.yul\":18254:18255   */\n      0x01\n        /* \"#utility.yul\":18235:18277   */\n      tag_689\n      jump\t// in\n    tag_717:\n        /* \"#utility.yul\":18220:18277   */\n      swap3\n      pop\n      swap1\n      pop\n        /* \"#utility.yul\":18309:18313   */\n      dup2\n        /* \"#utility.yul\":18304:18307   */\n      dup5\n        /* \"#utility.yul\":18300:18314   */\n      div\n        /* \"#utility.yul\":18293:18298   */\n      dup2\n        /* \"#utility.yul\":18290:18315   */\n      gt\n        /* \"#utility.yul\":18287:18338   */\n      iszero\n      tag_718\n      jumpi\n        /* \"#utility.yul\":18318:18336   */\n      tag_719\n      tag_682\n      jump\t// in\n    tag_719:\n        /* \"#utility.yul\":18287:18338   */\n    tag_718:\n        /* \"#utility.yul\":18367:18371   */\n      dup2\n        /* \"#utility.yul\":18360:18365   */\n      dup2\n        /* \"#utility.yul\":18356:18372   */\n      mul\n        /* \"#utility.yul\":18347:18372   */\n      swap1\n      pop\n        /* \"#utility.yul\":17305:18378   */\n    tag_704:\n      swap4\n      swap3\n      pop\n      pop\n      pop\n      jump\t// out\n        /* \"#utility.yul\":18384:18732   */\n    tag_240:\n        /* \"#utility.yul\":18424:18431   */\n      0x00\n        /* \"#utility.yul\":18447:18467   */\n      tag_721\n        /* \"#utility.yul\":18465:18466   */\n      dup3\n        /* \"#utility.yul\":18447:18467   */\n      tag_629\n      jump\t// in\n    tag_721:\n        /* \"#utility.yul\":18442:18467   */\n      swap2\n      pop\n        /* \"#utility.yul\":18481:18501   */\n      tag_722\n        /* \"#utility.yul\":18499:18500   */\n      dup4\n        /* \"#utility.yul\":18481:18501   */\n      tag_629\n      jump\t// in\n    tag_722:\n        /* \"#utility.yul\":18476:18501   */\n      swap3\n      pop\n        /* \"#utility.yul\":18669:18670   */\n      dup2\n        /* \"#utility.yul\":18601:18667   */\n      0xffffffffffffffffffffffffffffffffffffffffffffffffffffffffffffffff\n        /* \"#utility.yul\":18597:18671   */\n      div\n        /* \"#utility.yul\":18594:18595   */\n      dup4\n        /* \"#utility.yul\":18591:18672   */\n      gt\n        /* \"#utility.yul\":18586:18587   */\n      dup3\n        /* \"#utility.yul\":18579:18588   */\n      iszero\n        /* \"#utility.yul\":18572:18589   */\n      iszero\n        /* \"#utility.yul\":18568:18673   */\n      and\n        /* \"#utility.yul\":18565:18696   */\n      iszero\n      tag_723\n      jumpi\n        /* \"#utility.yul\":18676:18694   */\n      tag_724\n      tag_682\n      jump\t// in\n    tag_724:\n        /* \"#utility.yul\":18565:18696   */\n    tag_723:\n        /* \"#utility.yul\":18724:18725   */\n      dup3\n        /* \"#utility.yul\":18721:18722   */\n      dup3\n        /* \"#utility.yul\":18717:18726   */\n      mul\n        /* \"#utility.yul\":18706:18726   */\n      swap1\n      pop\n        /* \"#utility.yul\":18384:18732   */\n      swap3\n      swap2\n      pop\n      pop\n      jump\t// out\n        /* \"#utility.yul\":18738:18929   */\n    tag_237:\n        /* \"#utility.yul\":18778:18782   */\n      0x00\n        /* \"#utility.yul\":18798:18818   */\n      tag_726\n        /* \"#utility.yul\":18816:18817   */\n      dup3\n        /* \"#utility.yul\":18798:18818   */\n      tag_629\n      jump\t// in\n    tag_726:\n        /* \"#utility.yul\":18793:18818   */\n      swap2\n      pop\n        /* \"#utility.yul\":18832:18852   */\n      tag_727\n        /* \"#utility.yul\":18850:18851   */\n      dup4\n        /* \"#utility.yul\":18832:18852   */\n      tag_629\n      jump\t// in\n    tag_727:\n        /* \"#utility.yul\":18827:18852   */\n      swap3\n      pop\n        /* \"#utility.yul\":18871:18872   */\n      dup3\n        /* \"#utility.yul\":18868:18869   */\n      dup3\n        /* \"#utility.yul\":18865:18873   */\n      lt\n        /* \"#utility.yul\":18862:18896   */\n      iszero\n      tag_728\n      jumpi\n        /* \"#utility.yul\":18876:18894   */\n      tag_729\n      tag_682\n      jump\t// in\n    tag_729:\n        /* \"#utility.yul\":18862:18896   */\n    tag_728:\n        /* \"#utility.yul\":18921:18922   */\n      dup3\n        /* \"#utility.yul\":18918:18919   */\n      dup3\n        /* \"#utility.yul\":18914:18923   */\n      sub\n        /* \"#utility.yul\":18906:18923   */\n      swap1\n      pop\n        /* \"#utility.yul\":18738:18929   */\n      swap3\n      swap2\n      pop\n      pop\n      jump\t// out\n        /* \"#utility.yul\":18935:19031   */\n    tag_546:\n        /* \"#utility.yul\":18972:18979   */\n      0x00\n        /* \"#utility.yul\":19001:19025   */\n      tag_731\n        /* \"#utility.yul\":19019:19024   */\n      dup3\n        /* \"#utility.yul\":19001:19025   */\n      tag_732\n      jump\t// in\n    tag_731:\n        /* \"#utility.yul\":18990:19025   */\n      swap1\n      pop\n        /* \"#utility.yul\":18935:19031   */\n      swap2\n      swap1\n      pop\n      jump\t// out\n        /* \"#utility.yul\":19037:19127   */\n    tag_550:\n        /* \"#utility.yul\":19071:19078   */\n      0x00\n        /* \"#utility.yul\":19114:19119   */\n      dup2\n        /* \"#utility.yul\":19107:19120   */\n      iszero\n        /* \"#utility.yul\":19100:19121   */\n      iszero\n        /* \"#utility.yul\":19089:19121   */\n      swap1\n      pop\n        /* \"#utility.yul\":19037:19127   */\n      swap2\n      swap1\n      pop\n      jump\t// out\n        /* \"#utility.yul\":19133:19259   */\n    tag_732:\n        /* \"#utility.yul\":19170:19177   */\n      0x00\n        /* \"#utility.yul\":19210:19252   */\n      0xffffffffffffffffffffffffffffffffffffffff\n        /* \"#utility.yul\":19203:19208   */\n      dup3\n        /* \"#utility.yul\":19199:19253   */\n      and\n        /* \"#utility.yul\":19188:19253   */\n      swap1\n      pop\n        /* \"#utility.yul\":19133:19259   */\n      swap2\n      swap1\n      pop\n      jump\t// out\n        /* \"#utility.yul\":19265:19342   */\n    tag_629:\n        /* \"#utility.yul\":19302:19309   */\n      0x00\n        /* \"#utility.yul\":19331:19336   */\n      dup2\n        /* \"#utility.yul\":19320:19336   */\n      swap1\n      pop\n        /* \"#utility.yul\":19265:19342   */\n      swap2\n      swap1\n      pop\n      jump\t// out\n        /* \"#utility.yul\":19348:19434   */\n    tag_633:\n        /* \"#utility.yul\":19383:19390   */\n      0x00\n        /* \"#utility.yul\":19423:19427   */\n      0xff\n        /* \"#utility.yul\":19416:19421   */\n      dup3\n        /* \"#utility.yul\":19412:19428   */\n      and\n        /* \"#utility.yul\":19401:19428   */\n      swap1\n      pop\n        /* \"#utility.yul\":19348:19434   */\n      swap2\n      swap1\n      pop\n      jump\t// out\n        /* \"#utility.yul\":19440:19747   */\n    tag_558:\n        /* \"#utility.yul\":19508:19509   */\n      0x00\n        /* \"#utility.yul\":19518:19631   */\n    tag_738:\n        /* \"#utility.yul\":19532:19538   */\n      dup4\n        /* \"#utility.yul\":19529:19530   */\n      dup2\n        /* \"#utility.yul\":19526:19539   */\n      lt\n        /* \"#utility.yul\":19518:19631   */\n      iszero\n      tag_740\n      jumpi\n        /* \"#utility.yul\":19617:19618   */\n      dup1\n        /* \"#utility.yul\":19612:19615   */\n      dup3\n        /* \"#utility.yul\":19608:19619   */\n      add\n        /* \"#utility.yul\":19602:19620   */\n      mload\n        /* \"#utility.yul\":19598:19599   */\n      dup2\n        /* \"#utility.yul\":19593:19596   */\n      dup5\n        /* \"#utility.yul\":19589:19600   */\n      add\n        /* \"#utility.yul\":19582:19621   */\n      mstore\n        /* \"#utility.yul\":19554:19556   */\n      0x20\n        /* \"#utility.yul\":19551:19552   */\n      dup2\n        /* \"#utility.yul\":19547:19557   */\n      add\n        /* \"#utility.yul\":19542:19557   */\n      swap1\n      pop\n        /* \"#utility.yul\":19518:19631   */\n      jump(tag_738)\n    tag_740:\n        /* \"#utility.yul\":19649:19655   */\n      dup4\n        /* \"#utility.yul\":19646:19647   */\n      dup2\n        /* \"#utility.yul\":19643:19656   */\n      gt\n        /* \"#utility.yul\":19640:19741   */\n      iszero\n      tag_741\n      jumpi\n        /* \"#utility.yul\":19729:19730   */\n      0x00\n        /* \"#utility.yul\":19720:19726   */\n      dup5\n        /* \"#utility.yul\":19715:19718   */\n      dup5\n        /* \"#utility.yul\":19711:19727   */\n      add\n        /* \"#utility.yul\":19704:19731   */\n      mstore\n        /* \"#utility.yul\":19640:19741   */\n    tag_741:\n        /* \"#utility.yul\":19489:19747   */\n      pop\n        /* \"#utility.yul\":19440:19747   */\n      pop\n      pop\n      pop\n      jump\t// out\n        /* \"#utility.yul\":19753:20073   */\n    tag_247:\n        /* \"#utility.yul\":19797:19803   */\n      0x00\n        /* \"#utility.yul\":19834:19835   */\n      0x02\n        /* \"#utility.yul\":19828:19832   */\n      dup3\n        /* \"#utility.yul\":19824:19836   */\n      div\n        /* \"#utility.yul\":19814:19836   */\n      swap1\n      pop\n        /* \"#utility.yul\":19881:19882   */\n      0x01\n        /* \"#utility.yul\":19875:19879   */\n      dup3\n        /* \"#utility.yul\":19871:19883   */\n      and\n        /* \"#utility.yul\":19902:19920   */\n      dup1\n        /* \"#utility.yul\":19892:19973   */\n      tag_743\n      jumpi\n        /* \"#utility.yul\":19958:19962   */\n      0x7f\n        /* \"#utility.yul\":19950:19956   */\n      dup3\n        /* \"#utility.yul\":19946:19963   */\n      and\n        /* \"#utility.yul\":19936:19963   */\n      swap2\n      pop\n        /* \"#utility.yul\":19892:19973   */\n    tag_743:\n        /* \"#utility.yul\":20020:20022   */\n      0x20\n        /* \"#utility.yul\":20012:20018   */\n      dup3\n        /* \"#utility.yul\":20009:20023   */\n      lt\n        /* \"#utility.yul\":19989:20007   */\n      dup2\n        /* \"#utility.yul\":19986:20024   */\n      eq\n        /* \"#utility.yul\":19983:20067   */\n      iszero\n      tag_744\n      jumpi\n        /* \"#utility.yul\":20039:20057   */\n      tag_745\n      tag_746\n      jump\t// in\n    tag_745:\n        /* \"#utility.yul\":19983:20067   */\n    tag_744:\n        /* \"#utility.yul\":19804:20073   */\n      pop\n        /* \"#utility.yul\":19753:20073   */\n      swap2\n      swap1\n      pop\n      jump\t// out\n        /* \"#utility.yul\":20079:20259   */\n    tag_682:\n        /* \"#utility.yul\":20127:20204   */\n      0x4e487b7100000000000000000000000000000000000000000000000000000000\n        /* \"#utility.yul\":20124:20125   */\n      0x00\n        /* \"#utility.yul\":20117:20205   */\n      mstore\n        /* \"#utility.yul\":20224:20228   */\n      0x11\n        /* \"#utility.yul\":20221:20222   */\n      0x04\n        /* \"#utility.yul\":20214:20229   */\n      mstore\n        /* \"#utility.yul\":20248:20252   */\n      0x24\n        /* \"#utility.yul\":20245:20246   */\n      0x00\n        /* \"#utility.yul\":20238:20253   */\n      revert\n        /* \"#utility.yul\":20265:20445   */\n    tag_688:\n        /* \"#utility.yul\":20313:20390   */\n      0x4e487b7100000000000000000000000000000000000000000000000000000000\n        /* \"#utility.yul\":20310:20311   */\n      0x00\n        /* \"#utility.yul\":20303:20391   */\n      mstore\n        /* \"#utility.yul\":20410:20414   */\n      0x12\n        /* \"#utility.yul\":20407:20408   */\n      0x04\n        /* \"#utility.yul\":20400:20415   */\n      mstore\n        /* \"#utility.yul\":20434:20438   */\n      0x24\n        /* \"#utility.yul\":20431:20432   */\n      0x00\n        /* \"#utility.yul\":20424:20439   */\n      revert\n        /* \"#utility.yul\":20451:20631   */\n    tag_746:\n        /* \"#utility.yul\":20499:20576   */\n      0x4e487b7100000000000000000000000000000000000000000000000000000000\n        /* \"#utility.yul\":20496:20497   */\n      0x00\n        /* \"#utility.yul\":20489:20577   */\n      mstore\n        /* \"#utility.yul\":20596:20600   */\n      0x22\n        /* \"#utility.yul\":20593:20594   */\n      0x04\n        /* \"#utility.yul\":20586:20601   */\n      mstore\n        /* \"#utility.yul\":20620:20624   */\n      0x24\n        /* \"#utility.yul\":20617:20618   */\n      0x00\n        /* \"#utility.yul\":20610:20625   */\n      revert\n        /* \"#utility.yul\":20637:20817   */\n    tag_397:\n        /* \"#utility.yul\":20685:20762   */\n      0x4e487b7100000000000000000000000000000000000000000000000000000000\n        /* \"#utility.yul\":20682:20683   */\n      0x00\n        /* \"#utility.yul\":20675:20763   */\n      mstore\n        /* \"#utility.yul\":20782:20786   */\n      0x31\n        /* \"#utility.yul\":20779:20780   */\n      0x04\n        /* \"#utility.yul\":20772:20787   */\n      mstore\n        /* \"#utility.yul\":20806:20810   */\n      0x24\n        /* \"#utility.yul\":20803:20804   */\n      0x00\n        /* \"#utility.yul\":20796:20811   */\n      revert\n        /* \"#utility.yul\":20823:21003   */\n    tag_264:\n        /* \"#utility.yul\":20871:20948   */\n      0x4e487b7100000000000000000000000000000000000000000000000000000000\n        /* \"#utility.yul\":20868:20869   */\n      0x00\n        /* \"#utility.yul\":20861:20949   */\n      mstore\n        /* \"#utility.yul\":20968:20972   */\n      0x32\n        /* \"#utility.yul\":20965:20966   */\n      0x04\n        /* \"#utility.yul\":20958:20973   */\n      mstore\n        /* \"#utility.yul\":20992:20996   */\n      0x24\n        /* \"#utility.yul\":20989:20990   */\n      0x00\n        /* \"#utility.yul\":20982:20997   */\n      revert\n        /* \"#utility.yul\":21132:21249   */\n    tag_521:\n        /* \"#utility.yul\":21241:21242   */\n      0x00\n        /* \"#utility.yul\":21238:21239   */\n      dup1\n        /* \"#utility.yul\":21231:21243   */\n      revert\n        /* \"#utility.yul\":21255:21357   */\n    tag_560:\n        /* \"#utility.yul\":21296:21302   */\n      0x00\n        /* \"#utility.yul\":21347:21349   */\n      0x1f\n        /* \"#utility.yul\":21343:21350   */\n      not\n        /* \"#utility.yul\":21338:21340   */\n      0x1f\n        /* \"#utility.yul\":21331:21336   */\n      dup4\n        /* \"#utility.yul\":21327:21341   */\n      add\n        /* \"#utility.yul\":21323:21351   */\n      and\n        /* \"#utility.yul\":21313:21351   */\n      swap1\n      pop\n        /* \"#utility.yul\":21255:21357   */\n      swap2\n      swap1\n      pop\n      jump\t// out\n        /* \"#utility.yul\":21363:21465   */\n    tag_698:\n        /* \"#utility.yul\":21405:21413   */\n      0x00\n        /* \"#utility.yul\":21452:21457   */\n      dup2\n        /* \"#utility.yul\":21449:21450   */\n      0x01\n        /* \"#utility.yul\":21445:21458   */\n      shr\n        /* \"#utility.yul\":21424:21458   */\n      swap1\n      pop\n        /* \"#utility.yul\":21363:21465   */\n      swap2\n      swap1\n      pop\n      jump\t// out\n        /* \"#utility.yul\":21471:21693   */\n    tag_565:\n        /* \"#utility.yul\":21611:21645   */\n      0x45524332303a207472616e7366657220746f20746865207a65726f2061646472\n        /* \"#utility.yul\":21607:21608   */\n      0x00\n        /* \"#utility.yul\":21599:21605   */\n      dup3\n        /* \"#utility.yul\":21595:21609   */\n      add\n        /* \"#utility.yul\":21588:21646   */\n      mstore\n        /* \"#utility.yul\":21680:21685   */\n      0x6573730000000000000000000000000000000000000000000000000000000000\n        /* \"#utility.yul\":21675:21677   */\n      0x20\n        /* \"#utility.yul\":21667:21673   */\n      dup3\n        /* \"#utility.yul\":21663:21678   */\n      add\n        /* \"#utility.yul\":21656:21686   */\n      mstore\n        /* \"#utility.yul\":21471:21693   */\n      pop\n      jump\t// out\n        /* \"#utility.yul\":21699:21920   */\n    tag_570:\n        /* \"#utility.yul\":21839:21873   */\n      0x45524332303a206275726e20616d6f756e7420657863656564732062616c616e\n        /* \"#utility.yul\":21835:21836   */\n      0x00\n        /* \"#utility.yul\":21827:21833   */\n      dup3\n        /* \"#utility.yul\":21823:21837   */\n      add\n        /* \"#utility.yul\":21816:21874   */\n      mstore\n        /* \"#utility.yul\":21908:21912   */\n      0x6365000000000000000000000000000000000000000000000000000000000000\n        /* \"#utility.yul\":21903:21905   */\n      0x20\n        /* \"#utility.yul\":21895:21901   */\n      dup3\n        /* \"#utility.yul\":21891:21906   */\n      add\n        /* \"#utility.yul\":21884:21913   */\n      mstore\n        /* \"#utility.yul\":21699:21920   */\n      pop\n      jump\t// out\n        /* \"#utility.yul\":21926:22151   */\n    tag_575:\n        /* \"#utility.yul\":22066:22100   */\n      0x4f776e61626c653a206e6577206f776e657220697320746865207a65726f2061\n        /* \"#utility.yul\":22062:22063   */\n      0x00\n        /* \"#utility.yul\":22054:22060   */\n      dup3\n        /* \"#utility.yul\":22050:22064   */\n      add\n        /* \"#utility.yul\":22043:22101   */\n      mstore\n        /* \"#utility.yul\":22135:22143   */\n      0x6464726573730000000000000000000000000000000000000000000000000000\n        /* \"#utility.yul\":22130:22132   */\n      0x20\n        /* \"#utility.yul\":22122:22128   */\n      dup3\n        /* \"#utility.yul\":22118:22133   */\n      add\n        /* \"#utility.yul\":22111:22144   */\n      mstore\n        /* \"#utility.yul\":21926:22151   */\n      pop\n      jump\t// out\n        /* \"#utility.yul\":22157:22378   */\n    tag_580:\n        /* \"#utility.yul\":22297:22331   */\n      0x45524332303a20617070726f766520746f20746865207a65726f206164647265\n        /* \"#utility.yul\":22293:22294   */\n      0x00\n        /* \"#utility.yul\":22285:22291   */\n      dup3\n        /* \"#utility.yul\":22281:22295   */\n      add\n        /* \"#utility.yul\":22274:22332   */\n      mstore\n        /* \"#utility.yul\":22366:22370   */\n      0x7373000000000000000000000000000000000000000000000000000000000000\n        /* \"#utility.yul\":22361:22363   */\n      0x20\n        /* \"#utility.yul\":22353:22359   */\n      dup3\n        /* \"#utility.yul\":22349:22364   */\n      add\n        /* \"#utility.yul\":22342:22371   */\n      mstore\n        /* \"#utility.yul\":22157:22378   */\n      pop\n      jump\t// out\n        /* \"#utility.yul\":22384:22563   */\n    tag_585:\n        /* \"#utility.yul\":22524:22555   */\n      0x45524332303a20696e73756666696369656e7420616c6c6f77616e6365000000\n        /* \"#utility.yul\":22520:22521   */\n      0x00\n        /* \"#utility.yul\":22512:22518   */\n      dup3\n        /* \"#utility.yul\":22508:22522   */\n      add\n        /* \"#utility.yul\":22501:22556   */\n      mstore\n        /* \"#utility.yul\":22384:22563   */\n      pop\n      jump\t// out\n        /* \"#utility.yul\":22569:22794   */\n    tag_590:\n        /* \"#utility.yul\":22709:22743   */\n      0x45524332303a207472616e7366657220616d6f756e7420657863656564732062\n        /* \"#utility.yul\":22705:22706   */\n      0x00\n        /* \"#utility.yul\":22697:22703   */\n      dup3\n        /* \"#utility.yul\":22693:22707   */\n      add\n        /* \"#utility.yul\":22686:22744   */\n      mstore\n        /* \"#utility.yul\":22778:22786   */\n      0x616c616e63650000000000000000000000000000000000000000000000000000\n        /* \"#utility.yul\":22773:22775   */\n      0x20\n        /* \"#utility.yul\":22765:22771   */\n      dup3\n        /* \"#utility.yul\":22761:22776   */\n      add\n        /* \"#utility.yul\":22754:22787   */\n      mstore\n        /* \"#utility.yul\":22569:22794   */\n      pop\n      jump\t// out\n        /* \"#utility.yul\":22800:22982   */\n    tag_595:\n        /* \"#utility.yul\":22940:22974   */\n      0x4f776e61626c653a2063616c6c6572206973206e6f7420746865206f776e6572\n        /* \"#utility.yul\":22936:22937   */\n      0x00\n        /* \"#utility.yul\":22928:22934   */\n      dup3\n        /* \"#utility.yul\":22924:22938   */\n      add\n        /* \"#utility.yul\":22917:22975   */\n      mstore\n        /* \"#utility.yul\":22800:22982   */\n      pop\n      jump\t// out\n        /* \"#utility.yul\":22988:23208   */\n    tag_600:\n        /* \"#utility.yul\":23128:23162   */\n      0x45524332303a206275726e2066726f6d20746865207a65726f20616464726573\n        /* \"#utility.yul\":23124:23125   */\n      0x00\n        /* \"#utility.yul\":23116:23122   */\n      dup3\n        /* \"#utility.yul\":23112:23126   */\n      add\n        /* \"#utility.yul\":23105:23163   */\n      mstore\n        /* \"#utility.yul\":23197:23200   */\n      0x7300000000000000000000000000000000000000000000000000000000000000\n        /* \"#utility.yul\":23192:23194   */\n      0x20\n        /* \"#utility.yul\":23184:23190   */\n      dup3\n        /* \"#utility.yul\":23180:23195   */\n      add\n        /* \"#utility.yul\":23173:23201   */\n      mstore\n        /* \"#utility.yul\":22988:23208   */\n      pop\n      jump\t// out\n        /* \"#utility.yul\":23214:23438   */\n    tag_605:\n        /* \"#utility.yul\":23354:23388   */\n      0x45524332303a207472616e736665722066726f6d20746865207a65726f206164\n        /* \"#utility.yul\":23350:23351   */\n      0x00\n        /* \"#utility.yul\":23342:23348   */\n      dup3\n        /* \"#utility.yul\":23338:23352   */\n      add\n        /* \"#utility.yul\":23331:23389   */\n      mstore\n        /* \"#utility.yul\":23423:23430   */\n      0x6472657373000000000000000000000000000000000000000000000000000000\n        /* \"#utility.yul\":23418:23420   */\n      0x20\n        /* \"#utility.yul\":23410:23416   */\n      dup3\n        /* \"#utility.yul\":23406:23421   */\n      add\n        /* \"#utility.yul\":23399:23431   */\n      mstore\n        /* \"#utility.yul\":23214:23438   */\n      pop\n      jump\t// out\n        /* \"#utility.yul\":23444:23667   */\n    tag_610:\n        /* \"#utility.yul\":23584:23618   */\n      0x45524332303a20617070726f76652066726f6d20746865207a65726f20616464\n        /* \"#utility.yul\":23580:23581   */\n      0x00\n        /* \"#utility.yul\":23572:23578   */\n      dup3\n        /* \"#utility.yul\":23568:23582   */\n      add\n        /* \"#utility.yul\":23561:23619   */\n      mstore\n        /* \"#utility.yul\":23653:23659   */\n      0x7265737300000000000000000000000000000000000000000000000000000000\n        /* \"#utility.yul\":23648:23650   */\n      0x20\n        /* \"#utility.yul\":23640:23646   */\n      dup3\n        /* \"#utility.yul\":23636:23651   */\n      add\n        /* \"#utility.yul\":23629:23660   */\n      mstore\n        /* \"#utility.yul\":23444:23667   */\n      pop\n      jump\t// out\n        /* \"#utility.yul\":23673:23854   */\n    tag_615:\n        /* \"#utility.yul\":23813:23846   */\n      0x5265656e7472616e637947756172643a207265656e7472616e742063616c6c00\n        /* \"#utility.yul\":23809:23810   */\n      0x00\n        /* \"#utility.yul\":23801:23807   */\n      dup3\n        /* \"#utility.yul\":23797:23811   */\n      add\n        /* \"#utility.yul\":23790:23847   */\n      mstore\n        /* \"#utility.yul\":23673:23854   */\n      pop\n      jump\t// out\n        /* \"#utility.yul\":23860:24084   */\n    tag_620:\n        /* \"#utility.yul\":24000:24034   */\n      0x45524332303a2064656372656173656420616c6c6f77616e63652062656c6f77\n        /* \"#utility.yul\":23996:23997   */\n      0x00\n        /* \"#utility.yul\":23988:23994   */\n      dup3\n        /* \"#utility.yul\":23984:23998   */\n      add\n        /* \"#utility.yul\":23977:24035   */\n      mstore\n        /* \"#utility.yul\":24069:24076   */\n      0x207a65726f000000000000000000000000000000000000000000000000000000\n        /* \"#utility.yul\":24064:24066   */\n      0x20\n        /* \"#utility.yul\":24056:24062   */\n      dup3\n        /* \"#utility.yul\":24052:24067   */\n      add\n        /* \"#utility.yul\":24045:24077   */\n      mstore\n        /* \"#utility.yul\":23860:24084   */\n      pop\n      jump\t// out\n        /* \"#utility.yul\":24090:24271   */\n    tag_625:\n        /* \"#utility.yul\":24230:24263   */\n      0x45524332303a206d696e7420746f20746865207a65726f206164647265737300\n        /* \"#utility.yul\":24226:24227   */\n      0x00\n        /* \"#utility.yul\":24218:24224   */\n      dup3\n        /* \"#utility.yul\":24214:24228   */\n      add\n        /* \"#utility.yul\":24207:24264   */\n      mstore\n        /* \"#utility.yul\":24090:24271   */\n      pop\n      jump\t// out\n        /* \"#utility.yul\":24277:24399   */\n    tag_513:\n        /* \"#utility.yul\":24350:24374   */\n      tag_771\n        /* \"#utility.yul\":24368:24373   */\n      dup2\n        /* \"#utility.yul\":24350:24374   */\n      tag_546\n      jump\t// in\n    tag_771:\n        /* \"#utility.yul\":24343:24348   */\n      dup2\n        /* \"#utility.yul\":24340:24375   */\n      eq\n        /* \"#utility.yul\":24330:24393   */\n      tag_772\n      jumpi\n        /* \"#utility.yul\":24389:24390   */\n      0x00\n        /* \"#utility.yul\":24386:24387   */\n      dup1\n        /* \"#utility.yul\":24379:24391   */\n      revert\n        /* \"#utility.yul\":24330:24393   */\n    tag_772:\n        /* \"#utility.yul\":24277:24399   */\n      pop\n      jump\t// out\n        /* \"#utility.yul\":24405:24527   */\n    tag_517:\n        /* \"#utility.yul\":24478:24502   */\n      tag_774\n        /* \"#utility.yul\":24496:24501   */\n      dup2\n        /* \"#utility.yul\":24478:24502   */\n      tag_629\n      jump\t// in\n    tag_774:\n        /* \"#utility.yul\":24471:24476   */\n      dup2\n        /* \"#utility.yul\":24468:24503   */\n      eq\n        /* \"#utility.yul\":24458:24521   */\n      tag_775\n      jumpi\n        /* \"#utility.yul\":24517:24518   */\n      0x00\n        /* \"#utility.yul\":24514:24515   */\n      dup1\n        /* \"#utility.yul\":24507:24519   */\n      revert\n        /* \"#utility.yul\":24458:24521   */\n    tag_775:\n        /* \"#utility.yul\":24405:24527   */\n      pop\n      jump\t// out\n\n    auxdata: 0xa2646970667358221220d2e4035fa41eae59add70699a814cb76c2427e193f9f522625ad625a19c8093d64736f6c63430008070033\n}\n",
				"bytecode": {
					"linkReferences": {},
					"object": "60a0604052670de0b6b3a764000060809081525062093a806009556103e86010553480156200002d57600080fd5b506040518060400160405280600981526020017f476f6466617468657200000000000000000000000000000000000000000000008152506040518060400160405280600381526020017f47444600000000000000000000000000000000000000000000000000000000008152508160039080519060200190620000b292919062000394565b508060049080519060200190620000cb92919062000394565b505050620000ee620000e26200013a60201b60201c565b6200014260201b60201c565b600160068190555062000134336200010b6200020860201b60201c565b600a62000119919062000584565b6103e8620001289190620006c1565b6200021160201b60201c565b62000803565b600033905090565b6000600560009054906101000a900473ffffffffffffffffffffffffffffffffffffffff16905081600560006101000a81548173ffffffffffffffffffffffffffffffffffffffff021916908373ffffffffffffffffffffffffffffffffffffffff1602179055508173ffffffffffffffffffffffffffffffffffffffff168173ffffffffffffffffffffffffffffffffffffffff167f8be0079c531659141344cd1fd0a4f28419497f9722a3daafe3b4186f6b6457e060405160405180910390a35050565b60006012905090565b600073ffffffffffffffffffffffffffffffffffffffff168273ffffffffffffffffffffffffffffffffffffffff16141562000284576040517f08c379a00000000000000000000000000000000000000000000000000000000081526004016200027b906200047c565b60405180910390fd5b62000298600083836200038a60201b60201c565b8060026000828254620002ac9190620004cc565b92505081905550806000808473ffffffffffffffffffffffffffffffffffffffff1673ffffffffffffffffffffffffffffffffffffffff1681526020019081526020016000206000828254620003039190620004cc565b925050819055508173ffffffffffffffffffffffffffffffffffffffff16600073ffffffffffffffffffffffffffffffffffffffff167fddf252ad1be2c89b69c2b068fc378daa952ba7f163c4a11628f55a4df523b3ef836040516200036a91906200049e565b60405180910390a362000386600083836200038f60201b60201c565b5050565b505050565b505050565b828054620003a29062000739565b90600052602060002090601f016020900481019282620003c6576000855562000412565b82601f10620003e157805160ff191683800117855562000412565b8280016001018555821562000412579182015b8281111562000411578251825591602001919060010190620003f4565b5b50905062000421919062000425565b5090565b5b808211156200044057600081600090555060010162000426565b5090565b600062000453601f83620004bb565b91506200046082620007da565b602082019050919050565b620004768162000722565b82525050565b60006020820190508181036000830152620004978162000444565b9050919050565b6000602082019050620004b560008301846200046b565b92915050565b600082825260208201905092915050565b6000620004d98262000722565b9150620004e68362000722565b9250827fffffffffffffffffffffffffffffffffffffffffffffffffffffffffffffffff038211156200051e576200051d6200076f565b5b828201905092915050565b6000808291508390505b60018511156200057b578086048111156200055357620005526200076f565b5b6001851615620005635780820291505b80810290506200057385620007cd565b945062000533565b94509492505050565b6000620005918262000722565b91506200059e836200072c565b9250620005cd7fffffffffffffffffffffffffffffffffffffffffffffffffffffffffffffffff8484620005d5565b905092915050565b600082620005e75760019050620006ba565b81620005f75760009050620006ba565b81600181146200061057600281146200061b5762000651565b6001915050620006ba565b60ff84111562000630576200062f6200076f565b5b8360020a9150848211156200064a57620006496200076f565b5b50620006ba565b5060208310610133831016604e8410600b84101617156200068b5782820a9050838111156200068557620006846200076f565b5b620006ba565b6200069a848484600162000529565b92509050818404811115620006b457620006b36200076f565b5b81810290505b9392505050565b6000620006ce8262000722565b9150620006db8362000722565b9250817fffffffffffffffffffffffffffffffffffffffffffffffffffffffffffffffff04831182151516156200071757620007166200076f565b5b828202905092915050565b6000819050919050565b600060ff82169050919050565b600060028204905060018216806200075257607f821691505b602082108114156200076957620007686200079e565b5b50919050565b7f4e487b7100000000000000000000000000000000000000000000000000000000600052601160045260246000fd5b7f4e487b7100000000000000000000000000000000000000000000000000000000600052602260045260246000fd5b60008160011c9050919050565b7f45524332303a206d696e7420746f20746865207a65726f206164647265737300600082015250565b6080516137bf6200082d60003960008181610a050152818161124a0152611cf701526137bf6000f3fe6080604052600436106102455760003560e01c8063834dc98411610139578063c8f33c91116100b6578063df136d651161007a578063df136d65146108c4578063e5c42fd1146108ef578063e9fad8ee14610918578063ebe2b12b1461092f578063ef037b901461095a578063f2fde38b1461099857610245565b8063c8f33c91146107c9578063cbdd69b5146107f4578063cd3daf9d1461081f578063d82e39621461084a578063dd62ed3e1461088757610245565b8063a457c2d7116100fd578063a457c2d7146106e4578063a9059cbb14610721578063bcb0c2d71461075e578063bf9befb114610787578063c885bc58146107b257610245565b8063834dc984146105eb5780638b876347146106285780638da5cb5b14610665578063939624ab1461069057806395d89b41146106b957610245565b806339509351116101c757806370a082311161018b57806370a0823114610511578063715018a61461054e5780637b0a47ee146105655780637e72fb521461059057806380faa57d146105c057610245565b8063395093511461043e5780633d18b9121461047b57806342623360146104925780636041c34f146104cf5780636f4a2cd0146104fa57610245565b80631bf6ddae1161020e5780631bf6ddae146103455780631d62ebd91461036e57806323b872dd146103ab578063313ce567146103e8578063386a95251461041357610245565b80628cc2621461024a57806306fdde0314610287578063095ea7b3146102b25780630e15561a146102ef57806318160ddd1461031a575b600080fd5b34801561025657600080fd5b50610271600480360381019061026c91906129c6565b6109c1565b60405161027e9190612f50565b60405180910390f35b34801561029357600080fd5b5061029c610aa4565b6040516102a99190612d8e565b60405180910390f35b3480156102be57600080fd5b506102d960048036038101906102d49190612a86565b610b36565b6040516102e69190612d4a565b60405180910390f35b3480156102fb57600080fd5b50610304610b59565b6040516103119190612f50565b60405180910390f35b34801561032657600080fd5b5061032f610c1e565b60405161033c9190612f50565b60405180910390f35b34801561035157600080fd5b5061036c60048036038101906103679190612ac6565b610c28565b005b34801561037a57600080fd5b50610395600480360381019061039091906129c6565b610ea5565b6040516103a29190612f50565b60405180910390f35b3480156103b757600080fd5b506103d260048036038101906103cd9190612a33565b610eee565b6040516103df9190612d4a565b60405180910390f35b3480156103f457600080fd5b506103fd610f1d565b60405161040a9190612f6b565b60405180910390f35b34801561041f57600080fd5b50610428610f26565b6040516104359190612f50565b60405180910390f35b34801561044a57600080fd5b5061046560048036038101906104609190612a86565b610f2c565b6040516104729190612d4a565b60405180910390f35b34801561048757600080fd5b50610490610fd6565b005b34801561049e57600080fd5b506104b960048036038101906104b491906129c6565b6111ff565b6040516104c69190612f50565b60405180910390f35b3480156104db57600080fd5b506104e4611248565b6040516104f19190612f50565b60405180910390f35b34801561050657600080fd5b5061050f61126c565b005b34801561051d57600080fd5b50610538600480360381019061053391906129c6565b6113f6565b6040516105459190612f50565b60405180910390f35b34801561055a57600080fd5b5061056361143e565b005b34801561057157600080fd5b5061057a6114c6565b6040516105879190612f50565b60405180910390f35b6105aa60048036038101906105a591906129c6565b6114cc565b6040516105b79190612f50565b60405180910390f35b3480156105cc57600080fd5b506105d561151c565b6040516105e29190612f50565b60405180910390f35b3480156105f757600080fd5b50610612600480360381019061060d9190612ac6565b611536565b60405161061f9190612f50565b60405180910390f35b34801561063457600080fd5b5061064f600480360381019061064a91906129c6565b6115fe565b60405161065c9190612f50565b60405180910390f35b34801561067157600080fd5b5061067a611616565b6040516106879190612d2f565b60405180910390f35b34801561069c57600080fd5b506106b760048036038101906106b29190612ac6565b611640565b005b3480156106c557600080fd5b506106ce6118bd565b6040516106db9190612d8e565b60405180910390f35b3480156106f057600080fd5b5061070b60048036038101906107069190612a86565b61194f565b6040516107189190612d4a565b60405180910390f35b34801561072d57600080fd5b5061074860048036038101906107439190612a86565b611a39565b6040516107559190612d4a565b60405180910390f35b34801561076a57600080fd5b50610785600480360381019061078091906129c6565b611a5c565b005b34801561079357600080fd5b5061079c611b6b565b6040516107a99190612f50565b60405180910390f35b3480156107be57600080fd5b506107c7611c30565b005b3480156107d557600080fd5b506107de611cc6565b6040516107eb9190612f50565b60405180910390f35b34801561080057600080fd5b50610809611ccc565b6040516108169190612f50565b60405180910390f35b34801561082b57600080fd5b50610834611cd2565b6040516108419190612f50565b60405180910390f35b34801561085657600080fd5b50610871600480360381019061086c91906129c6565b611d5f565b60405161087e9190612f50565b60405180910390f35b34801561089357600080fd5b506108ae60048036038101906108a991906129f3565b611db4565b6040516108bb9190612f50565b60405180910390f35b3480156108d057600080fd5b506108d9611e3b565b6040516108e69190612f50565b60405180910390f35b3480156108fb57600080fd5b50610916600480360381019061091191906129c6565b611e41565b005b34801561092457600080fd5b5061092d611ebc565b005b34801561093b57600080fd5b50610944611ed7565b6040516109519190612f50565b60405180910390f35b34801561096657600080fd5b50610981600480360381019061097c91906129c6565b611edd565b60405161098f929190612d65565b60405180910390f35b3480156109a457600080fd5b506109bf60048036038101906109ba91906129c6565b611f91565b005b6000600f60008373ffffffffffffffffffffffffffffffffffffffff1673ffffffffffffffffffffffffffffffffffffffff168152602001908152602001600020547f0000000000000000000000000000000000000000000000000000000000000000600c60008573ffffffffffffffffffffffffffffffffffffffff1673ffffffffffffffffffffffffffffffffffffffff16815260200190815260200160002054610a6c611cd2565b610a7691906131f4565b610a7f856113f6565b610a89919061319a565b610a939190612ff8565b610a9d9190612fa2565b9050919050565b606060038054610ab3906132b0565b80601f0160208091040260200160405190810160405280929190818152602001828054610adf906132b0565b8015610b2c5780601f10610b0157610100808354040283529160200191610b2c565b820191906000526020600020905b815481529060010190602001808311610b0f57829003601f168201915b5050505050905090565b600080610b41612089565b9050610b4e818585612091565b600191505092915050565b6000806000905060005b600d80549050811015610c1657610c00600f6000600d8481548110610b8b57610b8a61339e565b5b9060005260206000200160009054906101000a900473ffffffffffffffffffffffffffffffffffffffff1673ffffffffffffffffffffffffffffffffffffffff1673ffffffffffffffffffffffffffffffffffffffff168152602001908152602001600020548361225c90919063ffffffff16565b9150600181610c0f9190612fa2565b9050610b63565b508091505090565b6000600254905090565b60026006541415610c6e576040517f08c379a0000000000000000000000000000000000000000000000000000000008152600401610c6590612ef0565b60405180910390fd5b600260068190555033610c7f611cd2565b600b81905550610c8d61151c565b600a81905550600073ffffffffffffffffffffffffffffffffffffffff168173ffffffffffffffffffffffffffffffffffffffff1614610d5a57610cd0816109c1565b600f60008373ffffffffffffffffffffffffffffffffffffffff1673ffffffffffffffffffffffffffffffffffffffff16815260200190815260200160002081905550600b54600c60008373ffffffffffffffffffffffffffffffffffffffff1673ffffffffffffffffffffffffffffffffffffffff168152602001908152602001600020819055505b610d643383612272565b6000600e60003373ffffffffffffffffffffffffffffffffffffffff1673ffffffffffffffffffffffffffffffffffffffff168152602001908152602001600020541415610db657610db533611e41565b5b610e0882600e60003373ffffffffffffffffffffffffffffffffffffffff1673ffffffffffffffffffffffffffffffffffffffff1681526020019081526020016000205461225c90919063ffffffff16565b600e60003373ffffffffffffffffffffffffffffffffffffffff1673ffffffffffffffffffffffffffffffffffffffff168152602001908152602001600020819055503373ffffffffffffffffffffffffffffffffffffffff167f9e71bc8eea02a63969f509818f2dafb9254532904319f9dbda79b67bd34a5f3d83604051610e919190612f50565b60405180910390a250600160068190555050565b6000600f60008373ffffffffffffffffffffffffffffffffffffffff1673ffffffffffffffffffffffffffffffffffffffff168152602001908152602001600020549050919050565b600080610ef9612089565b9050610f06858285612449565b610f118585856124d5565b60019150509392505050565b60006012905090565b60095481565b600080610f37612089565b9050610fcb818585600160008673ffffffffffffffffffffffffffffffffffffffff1673ffffffffffffffffffffffffffffffffffffffff16815260200190815260200160002060008973ffffffffffffffffffffffffffffffffffffffff1673ffffffffffffffffffffffffffffffffffffffff16815260200190815260200160002054610fc69190612fa2565b612091565b600191505092915050565b6002600654141561101c576040517f08c379a000000000000000000000000000000000000000000000000000000000815260040161101390612ef0565b60405180910390fd5b60026006819055503361102d611cd2565b600b8190555061103b61151c565b600a81905550600073ffffffffffffffffffffffffffffffffffffffff168173ffffffffffffffffffffffffffffffffffffffff16146111085761107e816109c1565b600f60008373ffffffffffffffffffffffffffffffffffffffff1673ffffffffffffffffffffffffffffffffffffffff16815260200190815260200160002081905550600b54600c60008373ffffffffffffffffffffffffffffffffffffffff1673ffffffffffffffffffffffffffffffffffffffff168152602001908152602001600020819055505b6000600f60003373ffffffffffffffffffffffffffffffffffffffff1673ffffffffffffffffffffffffffffffffffffffff16815260200190815260200160002054905060008111156111f3576000600f60003373ffffffffffffffffffffffffffffffffffffffff1673ffffffffffffffffffffffffffffffffffffffff168152602001908152602001600020819055506111a43382612756565b3373ffffffffffffffffffffffffffffffffffffffff167fe2403640ba68fed3a2f88b7557551d1993f84b99bb10ff833f0cf8db0c5e0486826040516111ea9190612f50565b60405180910390a25b50506001600681905550565b6000600e60008373ffffffffffffffffffffffffffffffffffffffff1673ffffffffffffffffffffffffffffffffffffffff168152602001908152602001600020549050919050565b7f000000000000000000000000000000000000000000000000000000000000000081565b611274612089565b73ffffffffffffffffffffffffffffffffffffffff16611292611616565b73ffffffffffffffffffffffffffffffffffffffff16146112e8576040517f08c379a00000000000000000000000000000000000000000000000000000000081526004016112df90612e70565b60405180910390fd5b60005b600d805490508110156113f3576000600d828154811061130e5761130d61339e565b5b9060005260206000200160009054906101000a900473ffffffffffffffffffffffffffffffffffffffff169050600061134682611d5f565b905061139a81600f60008573ffffffffffffffffffffffffffffffffffffffff1673ffffffffffffffffffffffffffffffffffffffff1681526020019081526020016000205461225c90919063ffffffff16565b600f60008473ffffffffffffffffffffffffffffffffffffffff1673ffffffffffffffffffffffffffffffffffffffff1681526020019081526020016000208190555050506001816113ec9190612fa2565b90506112eb565b50565b60008060008373ffffffffffffffffffffffffffffffffffffffff1673ffffffffffffffffffffffffffffffffffffffff168152602001908152602001600020549050919050565b611446612089565b73ffffffffffffffffffffffffffffffffffffffff16611464611616565b73ffffffffffffffffffffffffffffffffffffffff16146114ba576040517f08c379a00000000000000000000000000000000000000000000000000000000081526004016114b190612e70565b60405180910390fd5b6114c460006128b6565b565b60085481565b6000806010546114da610f1d565b600a6114e6919061307c565b60016114f2919061319a565b346114fd9190612ff8565b611507919061319a565b90506115138382612756565b80915050919050565b6000600754421061152f57600754611531565b425b905090565b6000611540612089565b73ffffffffffffffffffffffffffffffffffffffff1661155e611616565b73ffffffffffffffffffffffffffffffffffffffff16146115b4576040517f08c379a00000000000000000000000000000000000000000000000000000000081526004016115ab90612e70565b60405180910390fd5b816010819055507f6b361c807733cc94a3b7bda39c1c94dcc0511e91aa47b0f7f918068e939768906010546040516115ec9190612f50565b60405180910390a16010549050919050565b600c6020528060005260406000206000915090505481565b6000600560009054906101000a900473ffffffffffffffffffffffffffffffffffffffff16905090565b60026006541415611686576040517f08c379a000000000000000000000000000000000000000000000000000000000815260040161167d90612ef0565b60405180910390fd5b600260068190555033611697611cd2565b600b819055506116a561151c565b600a81905550600073ffffffffffffffffffffffffffffffffffffffff168173ffffffffffffffffffffffffffffffffffffffff1614611772576116e8816109c1565b600f60008373ffffffffffffffffffffffffffffffffffffffff1673ffffffffffffffffffffffffffffffffffffffff16815260200190815260200160002081905550600b54600c60008373ffffffffffffffffffffffffffffffffffffffff1673ffffffffffffffffffffffffffffffffffffffff168152602001908152602001600020819055505b6117c482600e60003373ffffffffffffffffffffffffffffffffffffffff1673ffffffffffffffffffffffffffffffffffffffff1681526020019081526020016000205461297c90919063ffffffff16565b600e60003373ffffffffffffffffffffffffffffffffffffffff1673ffffffffffffffffffffffffffffffffffffffff168152602001908152602001600020819055506000600e60003373ffffffffffffffffffffffffffffffffffffffff1673ffffffffffffffffffffffffffffffffffffffff1681526020019081526020016000205414156118595761185833611a5c565b5b6118633383612756565b3373ffffffffffffffffffffffffffffffffffffffff167f7084f5476618d8e60b11ef0d7d3f06914655adb8793e28ff7f018d4c76d505d5836040516118a99190612f50565b60405180910390a250600160068190555050565b6060600480546118cc906132b0565b80601f01602080910402602001604051908101604052809291908181526020018280546118f8906132b0565b80156119455780601f1061191a57610100808354040283529160200191611945565b820191906000526020600020905b81548152906001019060200180831161192857829003601f168201915b5050505050905090565b60008061195a612089565b90506000600160008373ffffffffffffffffffffffffffffffffffffffff1673ffffffffffffffffffffffffffffffffffffffff16815260200190815260200160002060008673ffffffffffffffffffffffffffffffffffffffff1673ffffffffffffffffffffffffffffffffffffffff16815260200190815260200160002054905083811015611a20576040517f08c379a0000000000000000000000000000000000000000000000000000000008152600401611a1790612f10565b60405180910390fd5b611a2d8286868403612091565b60019250505092915050565b600080611a44612089565b9050611a518185856124d5565b600191505092915050565b600080611a6883611edd565b915091508115611b6657600d6001600d80549050611a8691906131f4565b81548110611a9757611a9661339e565b5b9060005260206000200160009054906101000a900473ffffffffffffffffffffffffffffffffffffffff16600d8281548110611ad657611ad561339e565b5b9060005260206000200160006101000a81548173ffffffffffffffffffffffffffffffffffffffff021916908373ffffffffffffffffffffffffffffffffffffffff160217905550600d805480611b3057611b2f61336f565b5b6001900381819060005260206000200160006101000a81549073ffffffffffffffffffffffffffffffffffffffff021916905590555b505050565b6000806000905060005b600d80549050811015611c2857611c12600e6000600d8481548110611b9d57611b9c61339e565b5b9060005260206000200160009054906101000a900473ffffffffffffffffffffffffffffffffffffffff1673ffffffffffffffffffffffffffffffffffffffff1673ffffffffffffffffffffffffffffffffffffffff168152602001908152602001600020548361225c90919063ffffffff16565b9150600181611c219190612fa2565b9050611b75565b508091505090565b6000600f60003373ffffffffffffffffffffffffffffffffffffffff1673ffffffffffffffffffffffffffffffffffffffff1681526020019081526020016000205490506000600f60003373ffffffffffffffffffffffffffffffffffffffff1673ffffffffffffffffffffffffffffffffffffffff16815260200190815260200160002081905550611cc33382612756565b50565b600a5481565b60105481565b600080611cdd610c1e565b1415611ced57600b549050611d5c565b611cf5610c1e565b7f0000000000000000000000000000000000000000000000000000000000000000600854600a54611d2461151c565b611d2e91906131f4565b611d38919061319a565b611d42919061319a565b611d4c9190612ff8565b600b54611d599190612fa2565b90505b90565b60006064600e60008473ffffffffffffffffffffffffffffffffffffffff1673ffffffffffffffffffffffffffffffffffffffff16815260200190815260200160002054611dad9190612ff8565b9050919050565b6000600160008473ffffffffffffffffffffffffffffffffffffffff1673ffffffffffffffffffffffffffffffffffffffff16815260200190815260200160002060008373ffffffffffffffffffffffffffffffffffffffff1673ffffffffffffffffffffffffffffffffffffffff16815260200190815260200160002054905092915050565b600b5481565b6000611e4c82611edd565b50905080611eb857600d829080600181540180825580915050600190039060005260206000200160009091909190916101000a81548173ffffffffffffffffffffffffffffffffffffffff021916908373ffffffffffffffffffffffffffffffffffffffff1602179055505b5050565b611ecd611ec8336113f6565b611640565b611ed5610fd6565b565b60075481565b60008060005b600d80549050811015611f8357600d8181548110611f0457611f0361339e565b5b9060005260206000200160009054906101000a900473ffffffffffffffffffffffffffffffffffffffff1673ffffffffffffffffffffffffffffffffffffffff168473ffffffffffffffffffffffffffffffffffffffff161415611f6f576001819250925050611f8c565b600181611f7c9190612fa2565b9050611ee3565b50600080915091505b915091565b611f99612089565b73ffffffffffffffffffffffffffffffffffffffff16611fb7611616565b73ffffffffffffffffffffffffffffffffffffffff161461200d576040517f08c379a000000000000000000000000000000000000000000000000000000000815260040161200490612e70565b60405180910390fd5b600073ffffffffffffffffffffffffffffffffffffffff168173ffffffffffffffffffffffffffffffffffffffff16141561207d576040517f08c379a000000000000000000000000000000000000000000000000000000000815260040161207490612df0565b60405180910390fd5b612086816128b6565b50565b600033905090565b600073ffffffffffffffffffffffffffffffffffffffff168373ffffffffffffffffffffffffffffffffffffffff161415612101576040517f08c379a00000000000000000000000000000000000000000000000000000000081526004016120f890612ed0565b60405180910390fd5b600073ffffffffffffffffffffffffffffffffffffffff168273ffffffffffffffffffffffffffffffffffffffff161415612171576040517f08c379a000000000000000000000000000000000000000000000000000000000815260040161216890612e10565b60405180910390fd5b80600160008573ffffffffffffffffffffffffffffffffffffffff1673ffffffffffffffffffffffffffffffffffffffff16815260200190815260200160002060008473ffffffffffffffffffffffffffffffffffffffff1673ffffffffffffffffffffffffffffffffffffffff168152602001908152602001600020819055508173ffffffffffffffffffffffffffffffffffffffff168373ffffffffffffffffffffffffffffffffffffffff167f8c5be1e5ebec7d5bd14f71427d1e84f3dd0314c0f7b2291e5b200ac8c7c3b9258360405161224f9190612f50565b60405180910390a3505050565b6000818361226a9190612fa2565b905092915050565b600073ffffffffffffffffffffffffffffffffffffffff168273ffffffffffffffffffffffffffffffffffffffff1614156122e2576040517f08c379a00000000000000000000000000000000000000000000000000000000081526004016122d990612e90565b60405180910390fd5b6122ee82600083612992565b60008060008473ffffffffffffffffffffffffffffffffffffffff1673ffffffffffffffffffffffffffffffffffffffff16815260200190815260200160002054905081811015612374576040517f08c379a000000000000000000000000000000000000000000000000000000000815260040161236b90612dd0565b60405180910390fd5b8181036000808573ffffffffffffffffffffffffffffffffffffffff1673ffffffffffffffffffffffffffffffffffffffff1681526020019081526020016000208190555081600260008282546123cb91906131f4565b92505081905550600073ffffffffffffffffffffffffffffffffffffffff168373ffffffffffffffffffffffffffffffffffffffff167fddf252ad1be2c89b69c2b068fc378daa952ba7f163c4a11628f55a4df523b3ef846040516124309190612f50565b60405180910390a361244483600084612997565b505050565b60006124558484611db4565b90507fffffffffffffffffffffffffffffffffffffffffffffffffffffffffffffffff81146124cf57818110156124c1576040517f08c379a00000000000000000000000000000000000000000000000000000000081526004016124b890612e30565b60405180910390fd5b6124ce8484848403612091565b5b50505050565b600073ffffffffffffffffffffffffffffffffffffffff168373ffffffffffffffffffffffffffffffffffffffff161415612545576040517f08c379a000000000000000000000000000000000000000000000000000000000815260040161253c90612eb0565b60405180910390fd5b600073ffffffffffffffffffffffffffffffffffffffff168273ffffffffffffffffffffffffffffffffffffffff1614156125b5576040517f08c379a00000000000000000000000000000000000000000000000000000000081526004016125ac90612db0565b60405180910390fd5b6125c0838383612992565b60008060008573ffffffffffffffffffffffffffffffffffffffff1673ffffffffffffffffffffffffffffffffffffffff16815260200190815260200160002054905081811015612646576040517f08c379a000000000000000000000000000000000000000000000000000000000815260040161263d90612e50565b60405180910390fd5b8181036000808673ffffffffffffffffffffffffffffffffffffffff1673ffffffffffffffffffffffffffffffffffffffff16815260200190815260200160002081905550816000808573ffffffffffffffffffffffffffffffffffffffff1673ffffffffffffffffffffffffffffffffffffffff16815260200190815260200160002060008282546126d99190612fa2565b925050819055508273ffffffffffffffffffffffffffffffffffffffff168473ffffffffffffffffffffffffffffffffffffffff167fddf252ad1be2c89b69c2b068fc378daa952ba7f163c4a11628f55a4df523b3ef8460405161273d9190612f50565b60405180910390a3612750848484612997565b50505050565b600073ffffffffffffffffffffffffffffffffffffffff168273ffffffffffffffffffffffffffffffffffffffff1614156127c6576040517f08c379a00000000000000000000000000000000000000000000000000000000081526004016127bd90612f30565b60405180910390fd5b6127d260008383612992565b80600260008282546127e49190612fa2565b92505081905550806000808473ffffffffffffffffffffffffffffffffffffffff1673ffffffffffffffffffffffffffffffffffffffff16815260200190815260200160002060008282546128399190612fa2565b925050819055508173ffffffffffffffffffffffffffffffffffffffff16600073ffffffffffffffffffffffffffffffffffffffff167fddf252ad1be2c89b69c2b068fc378daa952ba7f163c4a11628f55a4df523b3ef8360405161289e9190612f50565b60405180910390a36128b260008383612997565b5050565b6000600560009054906101000a900473ffffffffffffffffffffffffffffffffffffffff16905081600560006101000a81548173ffffffffffffffffffffffffffffffffffffffff021916908373ffffffffffffffffffffffffffffffffffffffff1602179055508173ffffffffffffffffffffffffffffffffffffffff168173ffffffffffffffffffffffffffffffffffffffff167f8be0079c531659141344cd1fd0a4f28419497f9722a3daafe3b4186f6b6457e060405160405180910390a35050565b6000818361298a91906131f4565b905092915050565b505050565b505050565b6000813590506129ab8161375b565b92915050565b6000813590506129c081613772565b92915050565b6000602082840312156129dc576129db6133cd565b5b60006129ea8482850161299c565b91505092915050565b60008060408385031215612a0a57612a096133cd565b5b6000612a188582860161299c565b9250506020612a298582860161299c565b9150509250929050565b600080600060608486031215612a4c57612a4b6133cd565b5b6000612a5a8682870161299c565b9350506020612a6b8682870161299c565b9250506040612a7c868287016129b1565b9150509250925092565b60008060408385031215612a9d57612a9c6133cd565b5b6000612aab8582860161299c565b9250506020612abc858286016129b1565b9150509250929050565b600060208284031215612adc57612adb6133cd565b5b6000612aea848285016129b1565b91505092915050565b612afc81613228565b82525050565b612b0b8161323a565b82525050565b6000612b1c82612f86565b612b268185612f91565b9350612b3681856020860161327d565b612b3f816133d2565b840191505092915050565b6000612b57602383612f91565b9150612b62826133f0565b604082019050919050565b6000612b7a602283612f91565b9150612b858261343f565b604082019050919050565b6000612b9d602683612f91565b9150612ba88261348e565b604082019050919050565b6000612bc0602283612f91565b9150612bcb826134dd565b604082019050919050565b6000612be3601d83612f91565b9150612bee8261352c565b602082019050919050565b6000612c06602683612f91565b9150612c1182613555565b604082019050919050565b6000612c29602083612f91565b9150612c34826135a4565b602082019050919050565b6000612c4c602183612f91565b9150612c57826135cd565b604082019050919050565b6000612c6f602583612f91565b9150612c7a8261361c565b604082019050919050565b6000612c92602483612f91565b9150612c9d8261366b565b604082019050919050565b6000612cb5601f83612f91565b9150612cc0826136ba565b602082019050919050565b6000612cd8602583612f91565b9150612ce3826136e3565b604082019050919050565b6000612cfb601f83612f91565b9150612d0682613732565b602082019050919050565b612d1a81613266565b82525050565b612d2981613270565b82525050565b6000602082019050612d446000830184612af3565b92915050565b6000602082019050612d5f6000830184612b02565b92915050565b6000604082019050612d7a6000830185612b02565b612d876020830184612d11565b9392505050565b60006020820190508181036000830152612da88184612b11565b905092915050565b60006020820190508181036000830152612dc981612b4a565b9050919050565b60006020820190508181036000830152612de981612b6d565b9050919050565b60006020820190508181036000830152612e0981612b90565b9050919050565b60006020820190508181036000830152612e2981612bb3565b9050919050565b60006020820190508181036000830152612e4981612bd6565b9050919050565b60006020820190508181036000830152612e6981612bf9565b9050919050565b60006020820190508181036000830152612e8981612c1c565b9050919050565b60006020820190508181036000830152612ea981612c3f565b9050919050565b60006020820190508181036000830152612ec981612c62565b9050919050565b60006020820190508181036000830152612ee981612c85565b9050919050565b60006020820190508181036000830152612f0981612ca8565b9050919050565b60006020820190508181036000830152612f2981612ccb565b9050919050565b60006020820190508181036000830152612f4981612cee565b9050919050565b6000602082019050612f656000830184612d11565b92915050565b6000602082019050612f806000830184612d20565b92915050565b600081519050919050565b600082825260208201905092915050565b6000612fad82613266565b9150612fb883613266565b9250827fffffffffffffffffffffffffffffffffffffffffffffffffffffffffffffffff03821115612fed57612fec6132e2565b5b828201905092915050565b600061300382613266565b915061300e83613266565b92508261301e5761301d613311565b5b828204905092915050565b6000808291508390505b60018511156130735780860481111561304f5761304e6132e2565b5b600185161561305e5780820291505b808102905061306c856133e3565b9450613033565b94509492505050565b600061308782613266565b915061309283613270565b92506130bf7fffffffffffffffffffffffffffffffffffffffffffffffffffffffffffffffff84846130c7565b905092915050565b6000826130d75760019050613193565b816130e55760009050613193565b81600181146130fb576002811461310557613134565b6001915050613193565b60ff841115613117576131166132e2565b5b8360020a91508482111561312e5761312d6132e2565b5b50613193565b5060208310610133831016604e8410600b84101617156131695782820a905083811115613164576131636132e2565b5b613193565b6131768484846001613029565b9250905081840481111561318d5761318c6132e2565b5b81810290505b9392505050565b60006131a582613266565b91506131b083613266565b9250817fffffffffffffffffffffffffffffffffffffffffffffffffffffffffffffffff04831182151516156131e9576131e86132e2565b5b828202905092915050565b60006131ff82613266565b915061320a83613266565b92508282101561321d5761321c6132e2565b5b828203905092915050565b600061323382613246565b9050919050565b60008115159050919050565b600073ffffffffffffffffffffffffffffffffffffffff82169050919050565b6000819050919050565b600060ff82169050919050565b60005b8381101561329b578082015181840152602081019050613280565b838111156132aa576000848401525b50505050565b600060028204905060018216806132c857607f821691505b602082108114156132dc576132db613340565b5b50919050565b7f4e487b7100000000000000000000000000000000000000000000000000000000600052601160045260246000fd5b7f4e487b7100000000000000000000000000000000000000000000000000000000600052601260045260246000fd5b7f4e487b7100000000000000000000000000000000000000000000000000000000600052602260045260246000fd5b7f4e487b7100000000000000000000000000000000000000000000000000000000600052603160045260246000fd5b7f4e487b7100000000000000000000000000000000000000000000000000000000600052603260045260246000fd5b600080fd5b6000601f19601f8301169050919050565b60008160011c9050919050565b7f45524332303a207472616e7366657220746f20746865207a65726f206164647260008201527f6573730000000000000000000000000000000000000000000000000000000000602082015250565b7f45524332303a206275726e20616d6f756e7420657863656564732062616c616e60008201527f6365000000000000000000000000000000000000000000000000000000000000602082015250565b7f4f776e61626c653a206e6577206f776e657220697320746865207a65726f206160008201527f6464726573730000000000000000000000000000000000000000000000000000602082015250565b7f45524332303a20617070726f766520746f20746865207a65726f20616464726560008201527f7373000000000000000000000000000000000000000000000000000000000000602082015250565b7f45524332303a20696e73756666696369656e7420616c6c6f77616e6365000000600082015250565b7f45524332303a207472616e7366657220616d6f756e742065786365656473206260008201527f616c616e63650000000000000000000000000000000000000000000000000000602082015250565b7f4f776e61626c653a2063616c6c6572206973206e6f7420746865206f776e6572600082015250565b7f45524332303a206275726e2066726f6d20746865207a65726f2061646472657360008201527f7300000000000000000000000000000000000000000000000000000000000000602082015250565b7f45524332303a207472616e736665722066726f6d20746865207a65726f20616460008201527f6472657373000000000000000000000000000000000000000000000000000000602082015250565b7f45524332303a20617070726f76652066726f6d20746865207a65726f2061646460008201527f7265737300000000000000000000000000000000000000000000000000000000602082015250565b7f5265656e7472616e637947756172643a207265656e7472616e742063616c6c00600082015250565b7f45524332303a2064656372656173656420616c6c6f77616e63652062656c6f7760008201527f207a65726f000000000000000000000000000000000000000000000000000000602082015250565b7f45524332303a206d696e7420746f20746865207a65726f206164647265737300600082015250565b61376481613228565b811461376f57600080fd5b50565b61377b81613266565b811461378657600080fd5b5056fea2646970667358221220d2e4035fa41eae59add70699a814cb76c2427e193f9f522625ad625a19c8093d64736f6c63430008070033",
					"opcodes": "PUSH1 0xA0 PUSH1 0x40 MSTORE PUSH8 0xDE0B6B3A7640000 PUSH1 0x80 SWAP1 DUP2 MSTORE POP PUSH3 0x93A80 PUSH1 0x9 SSTORE PUSH2 0x3E8 PUSH1 0x10 SSTORE CALLVALUE DUP1 ISZERO PUSH3 0x2D JUMPI PUSH1 0x0 DUP1 REVERT JUMPDEST POP PUSH1 0x40 MLOAD DUP1 PUSH1 0x40 ADD PUSH1 0x40 MSTORE DUP1 PUSH1 0x9 DUP2 MSTORE PUSH1 0x20 ADD PUSH32 0x476F646661746865720000000000000000000000000000000000000000000000 DUP2 MSTORE POP PUSH1 0x40 MLOAD DUP1 PUSH1 0x40 ADD PUSH1 0x40 MSTORE DUP1 PUSH1 0x3 DUP2 MSTORE PUSH1 0x20 ADD PUSH32 0x4744460000000000000000000000000000000000000000000000000000000000 DUP2 MSTORE POP DUP2 PUSH1 0x3 SWAP1 DUP1 MLOAD SWAP1 PUSH1 0x20 ADD SWAP1 PUSH3 0xB2 SWAP3 SWAP2 SWAP1 PUSH3 0x394 JUMP JUMPDEST POP DUP1 PUSH1 0x4 SWAP1 DUP1 MLOAD SWAP1 PUSH1 0x20 ADD SWAP1 PUSH3 0xCB SWAP3 SWAP2 SWAP1 PUSH3 0x394 JUMP JUMPDEST POP POP POP PUSH3 0xEE PUSH3 0xE2 PUSH3 0x13A PUSH1 0x20 SHL PUSH1 0x20 SHR JUMP JUMPDEST PUSH3 0x142 PUSH1 0x20 SHL PUSH1 0x20 SHR JUMP JUMPDEST PUSH1 0x1 PUSH1 0x6 DUP2 SWAP1 SSTORE POP PUSH3 0x134 CALLER PUSH3 0x10B PUSH3 0x208 PUSH1 0x20 SHL PUSH1 0x20 SHR JUMP JUMPDEST PUSH1 0xA PUSH3 0x119 SWAP2 SWAP1 PUSH3 0x584 JUMP JUMPDEST PUSH2 0x3E8 PUSH3 0x128 SWAP2 SWAP1 PUSH3 0x6C1 JUMP JUMPDEST PUSH3 0x211 PUSH1 0x20 SHL PUSH1 0x20 SHR JUMP JUMPDEST PUSH3 0x803 JUMP JUMPDEST PUSH1 0x0 CALLER SWAP1 POP SWAP1 JUMP JUMPDEST PUSH1 0x0 PUSH1 0x5 PUSH1 0x0 SWAP1 SLOAD SWAP1 PUSH2 0x100 EXP SWAP1 DIV PUSH20 0xFFFFFFFFFFFFFFFFFFFFFFFFFFFFFFFFFFFFFFFF AND SWAP1 POP DUP2 PUSH1 0x5 PUSH1 0x0 PUSH2 0x100 EXP DUP2 SLOAD DUP2 PUSH20 0xFFFFFFFFFFFFFFFFFFFFFFFFFFFFFFFFFFFFFFFF MUL NOT AND SWAP1 DUP4 PUSH20 0xFFFFFFFFFFFFFFFFFFFFFFFFFFFFFFFFFFFFFFFF AND MUL OR SWAP1 SSTORE POP DUP2 PUSH20 0xFFFFFFFFFFFFFFFFFFFFFFFFFFFFFFFFFFFFFFFF AND DUP2 PUSH20 0xFFFFFFFFFFFFFFFFFFFFFFFFFFFFFFFFFFFFFFFF AND PUSH32 0x8BE0079C531659141344CD1FD0A4F28419497F9722A3DAAFE3B4186F6B6457E0 PUSH1 0x40 MLOAD PUSH1 0x40 MLOAD DUP1 SWAP2 SUB SWAP1 LOG3 POP POP JUMP JUMPDEST PUSH1 0x0 PUSH1 0x12 SWAP1 POP SWAP1 JUMP JUMPDEST PUSH1 0x0 PUSH20 0xFFFFFFFFFFFFFFFFFFFFFFFFFFFFFFFFFFFFFFFF AND DUP3 PUSH20 0xFFFFFFFFFFFFFFFFFFFFFFFFFFFFFFFFFFFFFFFF AND EQ ISZERO PUSH3 0x284 JUMPI PUSH1 0x40 MLOAD PUSH32 0x8C379A000000000000000000000000000000000000000000000000000000000 DUP2 MSTORE PUSH1 0x4 ADD PUSH3 0x27B SWAP1 PUSH3 0x47C JUMP JUMPDEST PUSH1 0x40 MLOAD DUP1 SWAP2 SUB SWAP1 REVERT JUMPDEST PUSH3 0x298 PUSH1 0x0 DUP4 DUP4 PUSH3 0x38A PUSH1 0x20 SHL PUSH1 0x20 SHR JUMP JUMPDEST DUP1 PUSH1 0x2 PUSH1 0x0 DUP3 DUP3 SLOAD PUSH3 0x2AC SWAP2 SWAP1 PUSH3 0x4CC JUMP JUMPDEST SWAP3 POP POP DUP2 SWAP1 SSTORE POP DUP1 PUSH1 0x0 DUP1 DUP5 PUSH20 0xFFFFFFFFFFFFFFFFFFFFFFFFFFFFFFFFFFFFFFFF AND PUSH20 0xFFFFFFFFFFFFFFFFFFFFFFFFFFFFFFFFFFFFFFFF AND DUP2 MSTORE PUSH1 0x20 ADD SWAP1 DUP2 MSTORE PUSH1 0x20 ADD PUSH1 0x0 KECCAK256 PUSH1 0x0 DUP3 DUP3 SLOAD PUSH3 0x303 SWAP2 SWAP1 PUSH3 0x4CC JUMP JUMPDEST SWAP3 POP POP DUP2 SWAP1 SSTORE POP DUP2 PUSH20 0xFFFFFFFFFFFFFFFFFFFFFFFFFFFFFFFFFFFFFFFF AND PUSH1 0x0 PUSH20 0xFFFFFFFFFFFFFFFFFFFFFFFFFFFFFFFFFFFFFFFF AND PUSH32 0xDDF252AD1BE2C89B69C2B068FC378DAA952BA7F163C4A11628F55A4DF523B3EF DUP4 PUSH1 0x40 MLOAD PUSH3 0x36A SWAP2 SWAP1 PUSH3 0x49E JUMP JUMPDEST PUSH1 0x40 MLOAD DUP1 SWAP2 SUB SWAP1 LOG3 PUSH3 0x386 PUSH1 0x0 DUP4 DUP4 PUSH3 0x38F PUSH1 0x20 SHL PUSH1 0x20 SHR JUMP JUMPDEST POP POP JUMP JUMPDEST POP POP POP JUMP JUMPDEST POP POP POP JUMP JUMPDEST DUP3 DUP1 SLOAD PUSH3 0x3A2 SWAP1 PUSH3 0x739 JUMP JUMPDEST SWAP1 PUSH1 0x0 MSTORE PUSH1 0x20 PUSH1 0x0 KECCAK256 SWAP1 PUSH1 0x1F ADD PUSH1 0x20 SWAP1 DIV DUP2 ADD SWAP3 DUP3 PUSH3 0x3C6 JUMPI PUSH1 0x0 DUP6 SSTORE PUSH3 0x412 JUMP JUMPDEST DUP3 PUSH1 0x1F LT PUSH3 0x3E1 JUMPI DUP1 MLOAD PUSH1 0xFF NOT AND DUP4 DUP1 ADD OR DUP6 SSTORE PUSH3 0x412 JUMP JUMPDEST DUP3 DUP1 ADD PUSH1 0x1 ADD DUP6 SSTORE DUP3 ISZERO PUSH3 0x412 JUMPI SWAP2 DUP3 ADD JUMPDEST DUP3 DUP2 GT ISZERO PUSH3 0x411 JUMPI DUP3 MLOAD DUP3 SSTORE SWAP2 PUSH1 0x20 ADD SWAP2 SWAP1 PUSH1 0x1 ADD SWAP1 PUSH3 0x3F4 JUMP JUMPDEST JUMPDEST POP SWAP1 POP PUSH3 0x421 SWAP2 SWAP1 PUSH3 0x425 JUMP JUMPDEST POP SWAP1 JUMP JUMPDEST JUMPDEST DUP1 DUP3 GT ISZERO PUSH3 0x440 JUMPI PUSH1 0x0 DUP2 PUSH1 0x0 SWAP1 SSTORE POP PUSH1 0x1 ADD PUSH3 0x426 JUMP JUMPDEST POP SWAP1 JUMP JUMPDEST PUSH1 0x0 PUSH3 0x453 PUSH1 0x1F DUP4 PUSH3 0x4BB JUMP JUMPDEST SWAP2 POP PUSH3 0x460 DUP3 PUSH3 0x7DA JUMP JUMPDEST PUSH1 0x20 DUP3 ADD SWAP1 POP SWAP2 SWAP1 POP JUMP JUMPDEST PUSH3 0x476 DUP2 PUSH3 0x722 JUMP JUMPDEST DUP3 MSTORE POP POP JUMP JUMPDEST PUSH1 0x0 PUSH1 0x20 DUP3 ADD SWAP1 POP DUP2 DUP2 SUB PUSH1 0x0 DUP4 ADD MSTORE PUSH3 0x497 DUP2 PUSH3 0x444 JUMP JUMPDEST SWAP1 POP SWAP2 SWAP1 POP JUMP JUMPDEST PUSH1 0x0 PUSH1 0x20 DUP3 ADD SWAP1 POP PUSH3 0x4B5 PUSH1 0x0 DUP4 ADD DUP5 PUSH3 0x46B JUMP JUMPDEST SWAP3 SWAP2 POP POP JUMP JUMPDEST PUSH1 0x0 DUP3 DUP3 MSTORE PUSH1 0x20 DUP3 ADD SWAP1 POP SWAP3 SWAP2 POP POP JUMP JUMPDEST PUSH1 0x0 PUSH3 0x4D9 DUP3 PUSH3 0x722 JUMP JUMPDEST SWAP2 POP PUSH3 0x4E6 DUP4 PUSH3 0x722 JUMP JUMPDEST SWAP3 POP DUP3 PUSH32 0xFFFFFFFFFFFFFFFFFFFFFFFFFFFFFFFFFFFFFFFFFFFFFFFFFFFFFFFFFFFFFFFF SUB DUP3 GT ISZERO PUSH3 0x51E JUMPI PUSH3 0x51D PUSH3 0x76F JUMP JUMPDEST JUMPDEST DUP3 DUP3 ADD SWAP1 POP SWAP3 SWAP2 POP POP JUMP JUMPDEST PUSH1 0x0 DUP1 DUP3 SWAP2 POP DUP4 SWAP1 POP JUMPDEST PUSH1 0x1 DUP6 GT ISZERO PUSH3 0x57B JUMPI DUP1 DUP7 DIV DUP2 GT ISZERO PUSH3 0x553 JUMPI PUSH3 0x552 PUSH3 0x76F JUMP JUMPDEST JUMPDEST PUSH1 0x1 DUP6 AND ISZERO PUSH3 0x563 JUMPI DUP1 DUP3 MUL SWAP2 POP JUMPDEST DUP1 DUP2 MUL SWAP1 POP PUSH3 0x573 DUP6 PUSH3 0x7CD JUMP JUMPDEST SWAP5 POP PUSH3 0x533 JUMP JUMPDEST SWAP5 POP SWAP5 SWAP3 POP POP POP JUMP JUMPDEST PUSH1 0x0 PUSH3 0x591 DUP3 PUSH3 0x722 JUMP JUMPDEST SWAP2 POP PUSH3 0x59E DUP4 PUSH3 0x72C JUMP JUMPDEST SWAP3 POP PUSH3 0x5CD PUSH32 0xFFFFFFFFFFFFFFFFFFFFFFFFFFFFFFFFFFFFFFFFFFFFFFFFFFFFFFFFFFFFFFFF DUP5 DUP5 PUSH3 0x5D5 JUMP JUMPDEST SWAP1 POP SWAP3 SWAP2 POP POP JUMP JUMPDEST PUSH1 0x0 DUP3 PUSH3 0x5E7 JUMPI PUSH1 0x1 SWAP1 POP PUSH3 0x6BA JUMP JUMPDEST DUP2 PUSH3 0x5F7 JUMPI PUSH1 0x0 SWAP1 POP PUSH3 0x6BA JUMP JUMPDEST DUP2 PUSH1 0x1 DUP2 EQ PUSH3 0x610 JUMPI PUSH1 0x2 DUP2 EQ PUSH3 0x61B JUMPI PUSH3 0x651 JUMP JUMPDEST PUSH1 0x1 SWAP2 POP POP PUSH3 0x6BA JUMP JUMPDEST PUSH1 0xFF DUP5 GT ISZERO PUSH3 0x630 JUMPI PUSH3 0x62F PUSH3 0x76F JUMP JUMPDEST JUMPDEST DUP4 PUSH1 0x2 EXP SWAP2 POP DUP5 DUP3 GT ISZERO PUSH3 0x64A JUMPI PUSH3 0x649 PUSH3 0x76F JUMP JUMPDEST JUMPDEST POP PUSH3 0x6BA JUMP JUMPDEST POP PUSH1 0x20 DUP4 LT PUSH2 0x133 DUP4 LT AND PUSH1 0x4E DUP5 LT PUSH1 0xB DUP5 LT AND OR ISZERO PUSH3 0x68B JUMPI DUP3 DUP3 EXP SWAP1 POP DUP4 DUP2 GT ISZERO PUSH3 0x685 JUMPI PUSH3 0x684 PUSH3 0x76F JUMP JUMPDEST JUMPDEST PUSH3 0x6BA JUMP JUMPDEST PUSH3 0x69A DUP5 DUP5 DUP5 PUSH1 0x1 PUSH3 0x529 JUMP JUMPDEST SWAP3 POP SWAP1 POP DUP2 DUP5 DIV DUP2 GT ISZERO PUSH3 0x6B4 JUMPI PUSH3 0x6B3 PUSH3 0x76F JUMP JUMPDEST JUMPDEST DUP2 DUP2 MUL SWAP1 POP JUMPDEST SWAP4 SWAP3 POP POP POP JUMP JUMPDEST PUSH1 0x0 PUSH3 0x6CE DUP3 PUSH3 0x722 JUMP JUMPDEST SWAP2 POP PUSH3 0x6DB DUP4 PUSH3 0x722 JUMP JUMPDEST SWAP3 POP DUP2 PUSH32 0xFFFFFFFFFFFFFFFFFFFFFFFFFFFFFFFFFFFFFFFFFFFFFFFFFFFFFFFFFFFFFFFF DIV DUP4 GT DUP3 ISZERO ISZERO AND ISZERO PUSH3 0x717 JUMPI PUSH3 0x716 PUSH3 0x76F JUMP JUMPDEST JUMPDEST DUP3 DUP3 MUL SWAP1 POP SWAP3 SWAP2 POP POP JUMP JUMPDEST PUSH1 0x0 DUP2 SWAP1 POP SWAP2 SWAP1 POP JUMP JUMPDEST PUSH1 0x0 PUSH1 0xFF DUP3 AND SWAP1 POP SWAP2 SWAP1 POP JUMP JUMPDEST PUSH1 0x0 PUSH1 0x2 DUP3 DIV SWAP1 POP PUSH1 0x1 DUP3 AND DUP1 PUSH3 0x752 JUMPI PUSH1 0x7F DUP3 AND SWAP2 POP JUMPDEST PUSH1 0x20 DUP3 LT DUP2 EQ ISZERO PUSH3 0x769 JUMPI PUSH3 0x768 PUSH3 0x79E JUMP JUMPDEST JUMPDEST POP SWAP2 SWAP1 POP JUMP JUMPDEST PUSH32 0x4E487B7100000000000000000000000000000000000000000000000000000000 PUSH1 0x0 MSTORE PUSH1 0x11 PUSH1 0x4 MSTORE PUSH1 0x24 PUSH1 0x0 REVERT JUMPDEST PUSH32 0x4E487B7100000000000000000000000000000000000000000000000000000000 PUSH1 0x0 MSTORE PUSH1 0x22 PUSH1 0x4 MSTORE PUSH1 0x24 PUSH1 0x0 REVERT JUMPDEST PUSH1 0x0 DUP2 PUSH1 0x1 SHR SWAP1 POP SWAP2 SWAP1 POP JUMP JUMPDEST PUSH32 0x45524332303A206D696E7420746F20746865207A65726F206164647265737300 PUSH1 0x0 DUP3 ADD MSTORE POP JUMP JUMPDEST PUSH1 0x80 MLOAD PUSH2 0x37BF PUSH3 0x82D PUSH1 0x0 CODECOPY PUSH1 0x0 DUP2 DUP2 PUSH2 0xA05 ADD MSTORE DUP2 DUP2 PUSH2 0x124A ADD MSTORE PUSH2 0x1CF7 ADD MSTORE PUSH2 0x37BF PUSH1 0x0 RETURN INVALID PUSH1 0x80 PUSH1 0x40 MSTORE PUSH1 0x4 CALLDATASIZE LT PUSH2 0x245 JUMPI PUSH1 0x0 CALLDATALOAD PUSH1 0xE0 SHR DUP1 PUSH4 0x834DC984 GT PUSH2 0x139 JUMPI DUP1 PUSH4 0xC8F33C91 GT PUSH2 0xB6 JUMPI DUP1 PUSH4 0xDF136D65 GT PUSH2 0x7A JUMPI DUP1 PUSH4 0xDF136D65 EQ PUSH2 0x8C4 JUMPI DUP1 PUSH4 0xE5C42FD1 EQ PUSH2 0x8EF JUMPI DUP1 PUSH4 0xE9FAD8EE EQ PUSH2 0x918 JUMPI DUP1 PUSH4 0xEBE2B12B EQ PUSH2 0x92F JUMPI DUP1 PUSH4 0xEF037B90 EQ PUSH2 0x95A JUMPI DUP1 PUSH4 0xF2FDE38B EQ PUSH2 0x998 JUMPI PUSH2 0x245 JUMP JUMPDEST DUP1 PUSH4 0xC8F33C91 EQ PUSH2 0x7C9 JUMPI DUP1 PUSH4 0xCBDD69B5 EQ PUSH2 0x7F4 JUMPI DUP1 PUSH4 0xCD3DAF9D EQ PUSH2 0x81F JUMPI DUP1 PUSH4 0xD82E3962 EQ PUSH2 0x84A JUMPI DUP1 PUSH4 0xDD62ED3E EQ PUSH2 0x887 JUMPI PUSH2 0x245 JUMP JUMPDEST DUP1 PUSH4 0xA457C2D7 GT PUSH2 0xFD JUMPI DUP1 PUSH4 0xA457C2D7 EQ PUSH2 0x6E4 JUMPI DUP1 PUSH4 0xA9059CBB EQ PUSH2 0x721 JUMPI DUP1 PUSH4 0xBCB0C2D7 EQ PUSH2 0x75E JUMPI DUP1 PUSH4 0xBF9BEFB1 EQ PUSH2 0x787 JUMPI DUP1 PUSH4 0xC885BC58 EQ PUSH2 0x7B2 JUMPI PUSH2 0x245 JUMP JUMPDEST DUP1 PUSH4 0x834DC984 EQ PUSH2 0x5EB JUMPI DUP1 PUSH4 0x8B876347 EQ PUSH2 0x628 JUMPI DUP1 PUSH4 0x8DA5CB5B EQ PUSH2 0x665 JUMPI DUP1 PUSH4 0x939624AB EQ PUSH2 0x690 JUMPI DUP1 PUSH4 0x95D89B41 EQ PUSH2 0x6B9 JUMPI PUSH2 0x245 JUMP JUMPDEST DUP1 PUSH4 0x39509351 GT PUSH2 0x1C7 JUMPI DUP1 PUSH4 0x70A08231 GT PUSH2 0x18B JUMPI DUP1 PUSH4 0x70A08231 EQ PUSH2 0x511 JUMPI DUP1 PUSH4 0x715018A6 EQ PUSH2 0x54E JUMPI DUP1 PUSH4 0x7B0A47EE EQ PUSH2 0x565 JUMPI DUP1 PUSH4 0x7E72FB52 EQ PUSH2 0x590 JUMPI DUP1 PUSH4 0x80FAA57D EQ PUSH2 0x5C0 JUMPI PUSH2 0x245 JUMP JUMPDEST DUP1 PUSH4 0x39509351 EQ PUSH2 0x43E JUMPI DUP1 PUSH4 0x3D18B912 EQ PUSH2 0x47B JUMPI DUP1 PUSH4 0x42623360 EQ PUSH2 0x492 JUMPI DUP1 PUSH4 0x6041C34F EQ PUSH2 0x4CF JUMPI DUP1 PUSH4 0x6F4A2CD0 EQ PUSH2 0x4FA JUMPI PUSH2 0x245 JUMP JUMPDEST DUP1 PUSH4 0x1BF6DDAE GT PUSH2 0x20E JUMPI DUP1 PUSH4 0x1BF6DDAE EQ PUSH2 0x345 JUMPI DUP1 PUSH4 0x1D62EBD9 EQ PUSH2 0x36E JUMPI DUP1 PUSH4 0x23B872DD EQ PUSH2 0x3AB JUMPI DUP1 PUSH4 0x313CE567 EQ PUSH2 0x3E8 JUMPI DUP1 PUSH4 0x386A9525 EQ PUSH2 0x413 JUMPI PUSH2 0x245 JUMP JUMPDEST DUP1 PUSH3 0x8CC262 EQ PUSH2 0x24A JUMPI DUP1 PUSH4 0x6FDDE03 EQ PUSH2 0x287 JUMPI DUP1 PUSH4 0x95EA7B3 EQ PUSH2 0x2B2 JUMPI DUP1 PUSH4 0xE15561A EQ PUSH2 0x2EF JUMPI DUP1 PUSH4 0x18160DDD EQ PUSH2 0x31A JUMPI JUMPDEST PUSH1 0x0 DUP1 REVERT JUMPDEST CALLVALUE DUP1 ISZERO PUSH2 0x256 JUMPI PUSH1 0x0 DUP1 REVERT JUMPDEST POP PUSH2 0x271 PUSH1 0x4 DUP1 CALLDATASIZE SUB DUP2 ADD SWAP1 PUSH2 0x26C SWAP2 SWAP1 PUSH2 0x29C6 JUMP JUMPDEST PUSH2 0x9C1 JUMP JUMPDEST PUSH1 0x40 MLOAD PUSH2 0x27E SWAP2 SWAP1 PUSH2 0x2F50 JUMP JUMPDEST PUSH1 0x40 MLOAD DUP1 SWAP2 SUB SWAP1 RETURN JUMPDEST CALLVALUE DUP1 ISZERO PUSH2 0x293 JUMPI PUSH1 0x0 DUP1 REVERT JUMPDEST POP PUSH2 0x29C PUSH2 0xAA4 JUMP JUMPDEST PUSH1 0x40 MLOAD PUSH2 0x2A9 SWAP2 SWAP1 PUSH2 0x2D8E JUMP JUMPDEST PUSH1 0x40 MLOAD DUP1 SWAP2 SUB SWAP1 RETURN JUMPDEST CALLVALUE DUP1 ISZERO PUSH2 0x2BE JUMPI PUSH1 0x0 DUP1 REVERT JUMPDEST POP PUSH2 0x2D9 PUSH1 0x4 DUP1 CALLDATASIZE SUB DUP2 ADD SWAP1 PUSH2 0x2D4 SWAP2 SWAP1 PUSH2 0x2A86 JUMP JUMPDEST PUSH2 0xB36 JUMP JUMPDEST PUSH1 0x40 MLOAD PUSH2 0x2E6 SWAP2 SWAP1 PUSH2 0x2D4A JUMP JUMPDEST PUSH1 0x40 MLOAD DUP1 SWAP2 SUB SWAP1 RETURN JUMPDEST CALLVALUE DUP1 ISZERO PUSH2 0x2FB JUMPI PUSH1 0x0 DUP1 REVERT JUMPDEST POP PUSH2 0x304 PUSH2 0xB59 JUMP JUMPDEST PUSH1 0x40 MLOAD PUSH2 0x311 SWAP2 SWAP1 PUSH2 0x2F50 JUMP JUMPDEST PUSH1 0x40 MLOAD DUP1 SWAP2 SUB SWAP1 RETURN JUMPDEST CALLVALUE DUP1 ISZERO PUSH2 0x326 JUMPI PUSH1 0x0 DUP1 REVERT JUMPDEST POP PUSH2 0x32F PUSH2 0xC1E JUMP JUMPDEST PUSH1 0x40 MLOAD PUSH2 0x33C SWAP2 SWAP1 PUSH2 0x2F50 JUMP JUMPDEST PUSH1 0x40 MLOAD DUP1 SWAP2 SUB SWAP1 RETURN JUMPDEST CALLVALUE DUP1 ISZERO PUSH2 0x351 JUMPI PUSH1 0x0 DUP1 REVERT JUMPDEST POP PUSH2 0x36C PUSH1 0x4 DUP1 CALLDATASIZE SUB DUP2 ADD SWAP1 PUSH2 0x367 SWAP2 SWAP1 PUSH2 0x2AC6 JUMP JUMPDEST PUSH2 0xC28 JUMP JUMPDEST STOP JUMPDEST CALLVALUE DUP1 ISZERO PUSH2 0x37A JUMPI PUSH1 0x0 DUP1 REVERT JUMPDEST POP PUSH2 0x395 PUSH1 0x4 DUP1 CALLDATASIZE SUB DUP2 ADD SWAP1 PUSH2 0x390 SWAP2 SWAP1 PUSH2 0x29C6 JUMP JUMPDEST PUSH2 0xEA5 JUMP JUMPDEST PUSH1 0x40 MLOAD PUSH2 0x3A2 SWAP2 SWAP1 PUSH2 0x2F50 JUMP JUMPDEST PUSH1 0x40 MLOAD DUP1 SWAP2 SUB SWAP1 RETURN JUMPDEST CALLVALUE DUP1 ISZERO PUSH2 0x3B7 JUMPI PUSH1 0x0 DUP1 REVERT JUMPDEST POP PUSH2 0x3D2 PUSH1 0x4 DUP1 CALLDATASIZE SUB DUP2 ADD SWAP1 PUSH2 0x3CD SWAP2 SWAP1 PUSH2 0x2A33 JUMP JUMPDEST PUSH2 0xEEE JUMP JUMPDEST PUSH1 0x40 MLOAD PUSH2 0x3DF SWAP2 SWAP1 PUSH2 0x2D4A JUMP JUMPDEST PUSH1 0x40 MLOAD DUP1 SWAP2 SUB SWAP1 RETURN JUMPDEST CALLVALUE DUP1 ISZERO PUSH2 0x3F4 JUMPI PUSH1 0x0 DUP1 REVERT JUMPDEST POP PUSH2 0x3FD PUSH2 0xF1D JUMP JUMPDEST PUSH1 0x40 MLOAD PUSH2 0x40A SWAP2 SWAP1 PUSH2 0x2F6B JUMP JUMPDEST PUSH1 0x40 MLOAD DUP1 SWAP2 SUB SWAP1 RETURN JUMPDEST CALLVALUE DUP1 ISZERO PUSH2 0x41F JUMPI PUSH1 0x0 DUP1 REVERT JUMPDEST POP PUSH2 0x428 PUSH2 0xF26 JUMP JUMPDEST PUSH1 0x40 MLOAD PUSH2 0x435 SWAP2 SWAP1 PUSH2 0x2F50 JUMP JUMPDEST PUSH1 0x40 MLOAD DUP1 SWAP2 SUB SWAP1 RETURN JUMPDEST CALLVALUE DUP1 ISZERO PUSH2 0x44A JUMPI PUSH1 0x0 DUP1 REVERT JUMPDEST POP PUSH2 0x465 PUSH1 0x4 DUP1 CALLDATASIZE SUB DUP2 ADD SWAP1 PUSH2 0x460 SWAP2 SWAP1 PUSH2 0x2A86 JUMP JUMPDEST PUSH2 0xF2C JUMP JUMPDEST PUSH1 0x40 MLOAD PUSH2 0x472 SWAP2 SWAP1 PUSH2 0x2D4A JUMP JUMPDEST PUSH1 0x40 MLOAD DUP1 SWAP2 SUB SWAP1 RETURN JUMPDEST CALLVALUE DUP1 ISZERO PUSH2 0x487 JUMPI PUSH1 0x0 DUP1 REVERT JUMPDEST POP PUSH2 0x490 PUSH2 0xFD6 JUMP JUMPDEST STOP JUMPDEST CALLVALUE DUP1 ISZERO PUSH2 0x49E JUMPI PUSH1 0x0 DUP1 REVERT JUMPDEST POP PUSH2 0x4B9 PUSH1 0x4 DUP1 CALLDATASIZE SUB DUP2 ADD SWAP1 PUSH2 0x4B4 SWAP2 SWAP1 PUSH2 0x29C6 JUMP JUMPDEST PUSH2 0x11FF JUMP JUMPDEST PUSH1 0x40 MLOAD PUSH2 0x4C6 SWAP2 SWAP1 PUSH2 0x2F50 JUMP JUMPDEST PUSH1 0x40 MLOAD DUP1 SWAP2 SUB SWAP1 RETURN JUMPDEST CALLVALUE DUP1 ISZERO PUSH2 0x4DB JUMPI PUSH1 0x0 DUP1 REVERT JUMPDEST POP PUSH2 0x4E4 PUSH2 0x1248 JUMP JUMPDEST PUSH1 0x40 MLOAD PUSH2 0x4F1 SWAP2 SWAP1 PUSH2 0x2F50 JUMP JUMPDEST PUSH1 0x40 MLOAD DUP1 SWAP2 SUB SWAP1 RETURN JUMPDEST CALLVALUE DUP1 ISZERO PUSH2 0x506 JUMPI PUSH1 0x0 DUP1 REVERT JUMPDEST POP PUSH2 0x50F PUSH2 0x126C JUMP JUMPDEST STOP JUMPDEST CALLVALUE DUP1 ISZERO PUSH2 0x51D JUMPI PUSH1 0x0 DUP1 REVERT JUMPDEST POP PUSH2 0x538 PUSH1 0x4 DUP1 CALLDATASIZE SUB DUP2 ADD SWAP1 PUSH2 0x533 SWAP2 SWAP1 PUSH2 0x29C6 JUMP JUMPDEST PUSH2 0x13F6 JUMP JUMPDEST PUSH1 0x40 MLOAD PUSH2 0x545 SWAP2 SWAP1 PUSH2 0x2F50 JUMP JUMPDEST PUSH1 0x40 MLOAD DUP1 SWAP2 SUB SWAP1 RETURN JUMPDEST CALLVALUE DUP1 ISZERO PUSH2 0x55A JUMPI PUSH1 0x0 DUP1 REVERT JUMPDEST POP PUSH2 0x563 PUSH2 0x143E JUMP JUMPDEST STOP JUMPDEST CALLVALUE DUP1 ISZERO PUSH2 0x571 JUMPI PUSH1 0x0 DUP1 REVERT JUMPDEST POP PUSH2 0x57A PUSH2 0x14C6 JUMP JUMPDEST PUSH1 0x40 MLOAD PUSH2 0x587 SWAP2 SWAP1 PUSH2 0x2F50 JUMP JUMPDEST PUSH1 0x40 MLOAD DUP1 SWAP2 SUB SWAP1 RETURN JUMPDEST PUSH2 0x5AA PUSH1 0x4 DUP1 CALLDATASIZE SUB DUP2 ADD SWAP1 PUSH2 0x5A5 SWAP2 SWAP1 PUSH2 0x29C6 JUMP JUMPDEST PUSH2 0x14CC JUMP JUMPDEST PUSH1 0x40 MLOAD PUSH2 0x5B7 SWAP2 SWAP1 PUSH2 0x2F50 JUMP JUMPDEST PUSH1 0x40 MLOAD DUP1 SWAP2 SUB SWAP1 RETURN JUMPDEST CALLVALUE DUP1 ISZERO PUSH2 0x5CC JUMPI PUSH1 0x0 DUP1 REVERT JUMPDEST POP PUSH2 0x5D5 PUSH2 0x151C JUMP JUMPDEST PUSH1 0x40 MLOAD PUSH2 0x5E2 SWAP2 SWAP1 PUSH2 0x2F50 JUMP JUMPDEST PUSH1 0x40 MLOAD DUP1 SWAP2 SUB SWAP1 RETURN JUMPDEST CALLVALUE DUP1 ISZERO PUSH2 0x5F7 JUMPI PUSH1 0x0 DUP1 REVERT JUMPDEST POP PUSH2 0x612 PUSH1 0x4 DUP1 CALLDATASIZE SUB DUP2 ADD SWAP1 PUSH2 0x60D SWAP2 SWAP1 PUSH2 0x2AC6 JUMP JUMPDEST PUSH2 0x1536 JUMP JUMPDEST PUSH1 0x40 MLOAD PUSH2 0x61F SWAP2 SWAP1 PUSH2 0x2F50 JUMP JUMPDEST PUSH1 0x40 MLOAD DUP1 SWAP2 SUB SWAP1 RETURN JUMPDEST CALLVALUE DUP1 ISZERO PUSH2 0x634 JUMPI PUSH1 0x0 DUP1 REVERT JUMPDEST POP PUSH2 0x64F PUSH1 0x4 DUP1 CALLDATASIZE SUB DUP2 ADD SWAP1 PUSH2 0x64A SWAP2 SWAP1 PUSH2 0x29C6 JUMP JUMPDEST PUSH2 0x15FE JUMP JUMPDEST PUSH1 0x40 MLOAD PUSH2 0x65C SWAP2 SWAP1 PUSH2 0x2F50 JUMP JUMPDEST PUSH1 0x40 MLOAD DUP1 SWAP2 SUB SWAP1 RETURN JUMPDEST CALLVALUE DUP1 ISZERO PUSH2 0x671 JUMPI PUSH1 0x0 DUP1 REVERT JUMPDEST POP PUSH2 0x67A PUSH2 0x1616 JUMP JUMPDEST PUSH1 0x40 MLOAD PUSH2 0x687 SWAP2 SWAP1 PUSH2 0x2D2F JUMP JUMPDEST PUSH1 0x40 MLOAD DUP1 SWAP2 SUB SWAP1 RETURN JUMPDEST CALLVALUE DUP1 ISZERO PUSH2 0x69C JUMPI PUSH1 0x0 DUP1 REVERT JUMPDEST POP PUSH2 0x6B7 PUSH1 0x4 DUP1 CALLDATASIZE SUB DUP2 ADD SWAP1 PUSH2 0x6B2 SWAP2 SWAP1 PUSH2 0x2AC6 JUMP JUMPDEST PUSH2 0x1640 JUMP JUMPDEST STOP JUMPDEST CALLVALUE DUP1 ISZERO PUSH2 0x6C5 JUMPI PUSH1 0x0 DUP1 REVERT JUMPDEST POP PUSH2 0x6CE PUSH2 0x18BD JUMP JUMPDEST PUSH1 0x40 MLOAD PUSH2 0x6DB SWAP2 SWAP1 PUSH2 0x2D8E JUMP JUMPDEST PUSH1 0x40 MLOAD DUP1 SWAP2 SUB SWAP1 RETURN JUMPDEST CALLVALUE DUP1 ISZERO PUSH2 0x6F0 JUMPI PUSH1 0x0 DUP1 REVERT JUMPDEST POP PUSH2 0x70B PUSH1 0x4 DUP1 CALLDATASIZE SUB DUP2 ADD SWAP1 PUSH2 0x706 SWAP2 SWAP1 PUSH2 0x2A86 JUMP JUMPDEST PUSH2 0x194F JUMP JUMPDEST PUSH1 0x40 MLOAD PUSH2 0x718 SWAP2 SWAP1 PUSH2 0x2D4A JUMP JUMPDEST PUSH1 0x40 MLOAD DUP1 SWAP2 SUB SWAP1 RETURN JUMPDEST CALLVALUE DUP1 ISZERO PUSH2 0x72D JUMPI PUSH1 0x0 DUP1 REVERT JUMPDEST POP PUSH2 0x748 PUSH1 0x4 DUP1 CALLDATASIZE SUB DUP2 ADD SWAP1 PUSH2 0x743 SWAP2 SWAP1 PUSH2 0x2A86 JUMP JUMPDEST PUSH2 0x1A39 JUMP JUMPDEST PUSH1 0x40 MLOAD PUSH2 0x755 SWAP2 SWAP1 PUSH2 0x2D4A JUMP JUMPDEST PUSH1 0x40 MLOAD DUP1 SWAP2 SUB SWAP1 RETURN JUMPDEST CALLVALUE DUP1 ISZERO PUSH2 0x76A JUMPI PUSH1 0x0 DUP1 REVERT JUMPDEST POP PUSH2 0x785 PUSH1 0x4 DUP1 CALLDATASIZE SUB DUP2 ADD SWAP1 PUSH2 0x780 SWAP2 SWAP1 PUSH2 0x29C6 JUMP JUMPDEST PUSH2 0x1A5C JUMP JUMPDEST STOP JUMPDEST CALLVALUE DUP1 ISZERO PUSH2 0x793 JUMPI PUSH1 0x0 DUP1 REVERT JUMPDEST POP PUSH2 0x79C PUSH2 0x1B6B JUMP JUMPDEST PUSH1 0x40 MLOAD PUSH2 0x7A9 SWAP2 SWAP1 PUSH2 0x2F50 JUMP JUMPDEST PUSH1 0x40 MLOAD DUP1 SWAP2 SUB SWAP1 RETURN JUMPDEST CALLVALUE DUP1 ISZERO PUSH2 0x7BE JUMPI PUSH1 0x0 DUP1 REVERT JUMPDEST POP PUSH2 0x7C7 PUSH2 0x1C30 JUMP JUMPDEST STOP JUMPDEST CALLVALUE DUP1 ISZERO PUSH2 0x7D5 JUMPI PUSH1 0x0 DUP1 REVERT JUMPDEST POP PUSH2 0x7DE PUSH2 0x1CC6 JUMP JUMPDEST PUSH1 0x40 MLOAD PUSH2 0x7EB SWAP2 SWAP1 PUSH2 0x2F50 JUMP JUMPDEST PUSH1 0x40 MLOAD DUP1 SWAP2 SUB SWAP1 RETURN JUMPDEST CALLVALUE DUP1 ISZERO PUSH2 0x800 JUMPI PUSH1 0x0 DUP1 REVERT JUMPDEST POP PUSH2 0x809 PUSH2 0x1CCC JUMP JUMPDEST PUSH1 0x40 MLOAD PUSH2 0x816 SWAP2 SWAP1 PUSH2 0x2F50 JUMP JUMPDEST PUSH1 0x40 MLOAD DUP1 SWAP2 SUB SWAP1 RETURN JUMPDEST CALLVALUE DUP1 ISZERO PUSH2 0x82B JUMPI PUSH1 0x0 DUP1 REVERT JUMPDEST POP PUSH2 0x834 PUSH2 0x1CD2 JUMP JUMPDEST PUSH1 0x40 MLOAD PUSH2 0x841 SWAP2 SWAP1 PUSH2 0x2F50 JUMP JUMPDEST PUSH1 0x40 MLOAD DUP1 SWAP2 SUB SWAP1 RETURN JUMPDEST CALLVALUE DUP1 ISZERO PUSH2 0x856 JUMPI PUSH1 0x0 DUP1 REVERT JUMPDEST POP PUSH2 0x871 PUSH1 0x4 DUP1 CALLDATASIZE SUB DUP2 ADD SWAP1 PUSH2 0x86C SWAP2 SWAP1 PUSH2 0x29C6 JUMP JUMPDEST PUSH2 0x1D5F JUMP JUMPDEST PUSH1 0x40 MLOAD PUSH2 0x87E SWAP2 SWAP1 PUSH2 0x2F50 JUMP JUMPDEST PUSH1 0x40 MLOAD DUP1 SWAP2 SUB SWAP1 RETURN JUMPDEST CALLVALUE DUP1 ISZERO PUSH2 0x893 JUMPI PUSH1 0x0 DUP1 REVERT JUMPDEST POP PUSH2 0x8AE PUSH1 0x4 DUP1 CALLDATASIZE SUB DUP2 ADD SWAP1 PUSH2 0x8A9 SWAP2 SWAP1 PUSH2 0x29F3 JUMP JUMPDEST PUSH2 0x1DB4 JUMP JUMPDEST PUSH1 0x40 MLOAD PUSH2 0x8BB SWAP2 SWAP1 PUSH2 0x2F50 JUMP JUMPDEST PUSH1 0x40 MLOAD DUP1 SWAP2 SUB SWAP1 RETURN JUMPDEST CALLVALUE DUP1 ISZERO PUSH2 0x8D0 JUMPI PUSH1 0x0 DUP1 REVERT JUMPDEST POP PUSH2 0x8D9 PUSH2 0x1E3B JUMP JUMPDEST PUSH1 0x40 MLOAD PUSH2 0x8E6 SWAP2 SWAP1 PUSH2 0x2F50 JUMP JUMPDEST PUSH1 0x40 MLOAD DUP1 SWAP2 SUB SWAP1 RETURN JUMPDEST CALLVALUE DUP1 ISZERO PUSH2 0x8FB JUMPI PUSH1 0x0 DUP1 REVERT JUMPDEST POP PUSH2 0x916 PUSH1 0x4 DUP1 CALLDATASIZE SUB DUP2 ADD SWAP1 PUSH2 0x911 SWAP2 SWAP1 PUSH2 0x29C6 JUMP JUMPDEST PUSH2 0x1E41 JUMP JUMPDEST STOP JUMPDEST CALLVALUE DUP1 ISZERO PUSH2 0x924 JUMPI PUSH1 0x0 DUP1 REVERT JUMPDEST POP PUSH2 0x92D PUSH2 0x1EBC JUMP JUMPDEST STOP JUMPDEST CALLVALUE DUP1 ISZERO PUSH2 0x93B JUMPI PUSH1 0x0 DUP1 REVERT JUMPDEST POP PUSH2 0x944 PUSH2 0x1ED7 JUMP JUMPDEST PUSH1 0x40 MLOAD PUSH2 0x951 SWAP2 SWAP1 PUSH2 0x2F50 JUMP JUMPDEST PUSH1 0x40 MLOAD DUP1 SWAP2 SUB SWAP1 RETURN JUMPDEST CALLVALUE DUP1 ISZERO PUSH2 0x966 JUMPI PUSH1 0x0 DUP1 REVERT JUMPDEST POP PUSH2 0x981 PUSH1 0x4 DUP1 CALLDATASIZE SUB DUP2 ADD SWAP1 PUSH2 0x97C SWAP2 SWAP1 PUSH2 0x29C6 JUMP JUMPDEST PUSH2 0x1EDD JUMP JUMPDEST PUSH1 0x40 MLOAD PUSH2 0x98F SWAP3 SWAP2 SWAP1 PUSH2 0x2D65 JUMP JUMPDEST PUSH1 0x40 MLOAD DUP1 SWAP2 SUB SWAP1 RETURN JUMPDEST CALLVALUE DUP1 ISZERO PUSH2 0x9A4 JUMPI PUSH1 0x0 DUP1 REVERT JUMPDEST POP PUSH2 0x9BF PUSH1 0x4 DUP1 CALLDATASIZE SUB DUP2 ADD SWAP1 PUSH2 0x9BA SWAP2 SWAP1 PUSH2 0x29C6 JUMP JUMPDEST PUSH2 0x1F91 JUMP JUMPDEST STOP JUMPDEST PUSH1 0x0 PUSH1 0xF PUSH1 0x0 DUP4 PUSH20 0xFFFFFFFFFFFFFFFFFFFFFFFFFFFFFFFFFFFFFFFF AND PUSH20 0xFFFFFFFFFFFFFFFFFFFFFFFFFFFFFFFFFFFFFFFF AND DUP2 MSTORE PUSH1 0x20 ADD SWAP1 DUP2 MSTORE PUSH1 0x20 ADD PUSH1 0x0 KECCAK256 SLOAD PUSH32 0x0 PUSH1 0xC PUSH1 0x0 DUP6 PUSH20 0xFFFFFFFFFFFFFFFFFFFFFFFFFFFFFFFFFFFFFFFF AND PUSH20 0xFFFFFFFFFFFFFFFFFFFFFFFFFFFFFFFFFFFFFFFF AND DUP2 MSTORE PUSH1 0x20 ADD SWAP1 DUP2 MSTORE PUSH1 0x20 ADD PUSH1 0x0 KECCAK256 SLOAD PUSH2 0xA6C PUSH2 0x1CD2 JUMP JUMPDEST PUSH2 0xA76 SWAP2 SWAP1 PUSH2 0x31F4 JUMP JUMPDEST PUSH2 0xA7F DUP6 PUSH2 0x13F6 JUMP JUMPDEST PUSH2 0xA89 SWAP2 SWAP1 PUSH2 0x319A JUMP JUMPDEST PUSH2 0xA93 SWAP2 SWAP1 PUSH2 0x2FF8 JUMP JUMPDEST PUSH2 0xA9D SWAP2 SWAP1 PUSH2 0x2FA2 JUMP JUMPDEST SWAP1 POP SWAP2 SWAP1 POP JUMP JUMPDEST PUSH1 0x60 PUSH1 0x3 DUP1 SLOAD PUSH2 0xAB3 SWAP1 PUSH2 0x32B0 JUMP JUMPDEST DUP1 PUSH1 0x1F ADD PUSH1 0x20 DUP1 SWAP2 DIV MUL PUSH1 0x20 ADD PUSH1 0x40 MLOAD SWAP1 DUP2 ADD PUSH1 0x40 MSTORE DUP1 SWAP3 SWAP2 SWAP1 DUP2 DUP2 MSTORE PUSH1 0x20 ADD DUP3 DUP1 SLOAD PUSH2 0xADF SWAP1 PUSH2 0x32B0 JUMP JUMPDEST DUP1 ISZERO PUSH2 0xB2C JUMPI DUP1 PUSH1 0x1F LT PUSH2 0xB01 JUMPI PUSH2 0x100 DUP1 DUP4 SLOAD DIV MUL DUP4 MSTORE SWAP2 PUSH1 0x20 ADD SWAP2 PUSH2 0xB2C JUMP JUMPDEST DUP3 ADD SWAP2 SWAP1 PUSH1 0x0 MSTORE PUSH1 0x20 PUSH1 0x0 KECCAK256 SWAP1 JUMPDEST DUP2 SLOAD DUP2 MSTORE SWAP1 PUSH1 0x1 ADD SWAP1 PUSH1 0x20 ADD DUP1 DUP4 GT PUSH2 0xB0F JUMPI DUP3 SWAP1 SUB PUSH1 0x1F AND DUP3 ADD SWAP2 JUMPDEST POP POP POP POP POP SWAP1 POP SWAP1 JUMP JUMPDEST PUSH1 0x0 DUP1 PUSH2 0xB41 PUSH2 0x2089 JUMP JUMPDEST SWAP1 POP PUSH2 0xB4E DUP2 DUP6 DUP6 PUSH2 0x2091 JUMP JUMPDEST PUSH1 0x1 SWAP2 POP POP SWAP3 SWAP2 POP POP JUMP JUMPDEST PUSH1 0x0 DUP1 PUSH1 0x0 SWAP1 POP PUSH1 0x0 JUMPDEST PUSH1 0xD DUP1 SLOAD SWAP1 POP DUP2 LT ISZERO PUSH2 0xC16 JUMPI PUSH2 0xC00 PUSH1 0xF PUSH1 0x0 PUSH1 0xD DUP5 DUP2 SLOAD DUP2 LT PUSH2 0xB8B JUMPI PUSH2 0xB8A PUSH2 0x339E JUMP JUMPDEST JUMPDEST SWAP1 PUSH1 0x0 MSTORE PUSH1 0x20 PUSH1 0x0 KECCAK256 ADD PUSH1 0x0 SWAP1 SLOAD SWAP1 PUSH2 0x100 EXP SWAP1 DIV PUSH20 0xFFFFFFFFFFFFFFFFFFFFFFFFFFFFFFFFFFFFFFFF AND PUSH20 0xFFFFFFFFFFFFFFFFFFFFFFFFFFFFFFFFFFFFFFFF AND PUSH20 0xFFFFFFFFFFFFFFFFFFFFFFFFFFFFFFFFFFFFFFFF AND DUP2 MSTORE PUSH1 0x20 ADD SWAP1 DUP2 MSTORE PUSH1 0x20 ADD PUSH1 0x0 KECCAK256 SLOAD DUP4 PUSH2 0x225C SWAP1 SWAP2 SWAP1 PUSH4 0xFFFFFFFF AND JUMP JUMPDEST SWAP2 POP PUSH1 0x1 DUP2 PUSH2 0xC0F SWAP2 SWAP1 PUSH2 0x2FA2 JUMP JUMPDEST SWAP1 POP PUSH2 0xB63 JUMP JUMPDEST POP DUP1 SWAP2 POP POP SWAP1 JUMP JUMPDEST PUSH1 0x0 PUSH1 0x2 SLOAD SWAP1 POP SWAP1 JUMP JUMPDEST PUSH1 0x2 PUSH1 0x6 SLOAD EQ ISZERO PUSH2 0xC6E JUMPI PUSH1 0x40 MLOAD PUSH32 0x8C379A000000000000000000000000000000000000000000000000000000000 DUP2 MSTORE PUSH1 0x4 ADD PUSH2 0xC65 SWAP1 PUSH2 0x2EF0 JUMP JUMPDEST PUSH1 0x40 MLOAD DUP1 SWAP2 SUB SWAP1 REVERT JUMPDEST PUSH1 0x2 PUSH1 0x6 DUP2 SWAP1 SSTORE POP CALLER PUSH2 0xC7F PUSH2 0x1CD2 JUMP JUMPDEST PUSH1 0xB DUP2 SWAP1 SSTORE POP PUSH2 0xC8D PUSH2 0x151C JUMP JUMPDEST PUSH1 0xA DUP2 SWAP1 SSTORE POP PUSH1 0x0 PUSH20 0xFFFFFFFFFFFFFFFFFFFFFFFFFFFFFFFFFFFFFFFF AND DUP2 PUSH20 0xFFFFFFFFFFFFFFFFFFFFFFFFFFFFFFFFFFFFFFFF AND EQ PUSH2 0xD5A JUMPI PUSH2 0xCD0 DUP2 PUSH2 0x9C1 JUMP JUMPDEST PUSH1 0xF PUSH1 0x0 DUP4 PUSH20 0xFFFFFFFFFFFFFFFFFFFFFFFFFFFFFFFFFFFFFFFF AND PUSH20 0xFFFFFFFFFFFFFFFFFFFFFFFFFFFFFFFFFFFFFFFF AND DUP2 MSTORE PUSH1 0x20 ADD SWAP1 DUP2 MSTORE PUSH1 0x20 ADD PUSH1 0x0 KECCAK256 DUP2 SWAP1 SSTORE POP PUSH1 0xB SLOAD PUSH1 0xC PUSH1 0x0 DUP4 PUSH20 0xFFFFFFFFFFFFFFFFFFFFFFFFFFFFFFFFFFFFFFFF AND PUSH20 0xFFFFFFFFFFFFFFFFFFFFFFFFFFFFFFFFFFFFFFFF AND DUP2 MSTORE PUSH1 0x20 ADD SWAP1 DUP2 MSTORE PUSH1 0x20 ADD PUSH1 0x0 KECCAK256 DUP2 SWAP1 SSTORE POP JUMPDEST PUSH2 0xD64 CALLER DUP4 PUSH2 0x2272 JUMP JUMPDEST PUSH1 0x0 PUSH1 0xE PUSH1 0x0 CALLER PUSH20 0xFFFFFFFFFFFFFFFFFFFFFFFFFFFFFFFFFFFFFFFF AND PUSH20 0xFFFFFFFFFFFFFFFFFFFFFFFFFFFFFFFFFFFFFFFF AND DUP2 MSTORE PUSH1 0x20 ADD SWAP1 DUP2 MSTORE PUSH1 0x20 ADD PUSH1 0x0 KECCAK256 SLOAD EQ ISZERO PUSH2 0xDB6 JUMPI PUSH2 0xDB5 CALLER PUSH2 0x1E41 JUMP JUMPDEST JUMPDEST PUSH2 0xE08 DUP3 PUSH1 0xE PUSH1 0x0 CALLER PUSH20 0xFFFFFFFFFFFFFFFFFFFFFFFFFFFFFFFFFFFFFFFF AND PUSH20 0xFFFFFFFFFFFFFFFFFFFFFFFFFFFFFFFFFFFFFFFF AND DUP2 MSTORE PUSH1 0x20 ADD SWAP1 DUP2 MSTORE PUSH1 0x20 ADD PUSH1 0x0 KECCAK256 SLOAD PUSH2 0x225C SWAP1 SWAP2 SWAP1 PUSH4 0xFFFFFFFF AND JUMP JUMPDEST PUSH1 0xE PUSH1 0x0 CALLER PUSH20 0xFFFFFFFFFFFFFFFFFFFFFFFFFFFFFFFFFFFFFFFF AND PUSH20 0xFFFFFFFFFFFFFFFFFFFFFFFFFFFFFFFFFFFFFFFF AND DUP2 MSTORE PUSH1 0x20 ADD SWAP1 DUP2 MSTORE PUSH1 0x20 ADD PUSH1 0x0 KECCAK256 DUP2 SWAP1 SSTORE POP CALLER PUSH20 0xFFFFFFFFFFFFFFFFFFFFFFFFFFFFFFFFFFFFFFFF AND PUSH32 0x9E71BC8EEA02A63969F509818F2DAFB9254532904319F9DBDA79B67BD34A5F3D DUP4 PUSH1 0x40 MLOAD PUSH2 0xE91 SWAP2 SWAP1 PUSH2 0x2F50 JUMP JUMPDEST PUSH1 0x40 MLOAD DUP1 SWAP2 SUB SWAP1 LOG2 POP PUSH1 0x1 PUSH1 0x6 DUP2 SWAP1 SSTORE POP POP JUMP JUMPDEST PUSH1 0x0 PUSH1 0xF PUSH1 0x0 DUP4 PUSH20 0xFFFFFFFFFFFFFFFFFFFFFFFFFFFFFFFFFFFFFFFF AND PUSH20 0xFFFFFFFFFFFFFFFFFFFFFFFFFFFFFFFFFFFFFFFF AND DUP2 MSTORE PUSH1 0x20 ADD SWAP1 DUP2 MSTORE PUSH1 0x20 ADD PUSH1 0x0 KECCAK256 SLOAD SWAP1 POP SWAP2 SWAP1 POP JUMP JUMPDEST PUSH1 0x0 DUP1 PUSH2 0xEF9 PUSH2 0x2089 JUMP JUMPDEST SWAP1 POP PUSH2 0xF06 DUP6 DUP3 DUP6 PUSH2 0x2449 JUMP JUMPDEST PUSH2 0xF11 DUP6 DUP6 DUP6 PUSH2 0x24D5 JUMP JUMPDEST PUSH1 0x1 SWAP2 POP POP SWAP4 SWAP3 POP POP POP JUMP JUMPDEST PUSH1 0x0 PUSH1 0x12 SWAP1 POP SWAP1 JUMP JUMPDEST PUSH1 0x9 SLOAD DUP2 JUMP JUMPDEST PUSH1 0x0 DUP1 PUSH2 0xF37 PUSH2 0x2089 JUMP JUMPDEST SWAP1 POP PUSH2 0xFCB DUP2 DUP6 DUP6 PUSH1 0x1 PUSH1 0x0 DUP7 PUSH20 0xFFFFFFFFFFFFFFFFFFFFFFFFFFFFFFFFFFFFFFFF AND PUSH20 0xFFFFFFFFFFFFFFFFFFFFFFFFFFFFFFFFFFFFFFFF AND DUP2 MSTORE PUSH1 0x20 ADD SWAP1 DUP2 MSTORE PUSH1 0x20 ADD PUSH1 0x0 KECCAK256 PUSH1 0x0 DUP10 PUSH20 0xFFFFFFFFFFFFFFFFFFFFFFFFFFFFFFFFFFFFFFFF AND PUSH20 0xFFFFFFFFFFFFFFFFFFFFFFFFFFFFFFFFFFFFFFFF AND DUP2 MSTORE PUSH1 0x20 ADD SWAP1 DUP2 MSTORE PUSH1 0x20 ADD PUSH1 0x0 KECCAK256 SLOAD PUSH2 0xFC6 SWAP2 SWAP1 PUSH2 0x2FA2 JUMP JUMPDEST PUSH2 0x2091 JUMP JUMPDEST PUSH1 0x1 SWAP2 POP POP SWAP3 SWAP2 POP POP JUMP JUMPDEST PUSH1 0x2 PUSH1 0x6 SLOAD EQ ISZERO PUSH2 0x101C JUMPI PUSH1 0x40 MLOAD PUSH32 0x8C379A000000000000000000000000000000000000000000000000000000000 DUP2 MSTORE PUSH1 0x4 ADD PUSH2 0x1013 SWAP1 PUSH2 0x2EF0 JUMP JUMPDEST PUSH1 0x40 MLOAD DUP1 SWAP2 SUB SWAP1 REVERT JUMPDEST PUSH1 0x2 PUSH1 0x6 DUP2 SWAP1 SSTORE POP CALLER PUSH2 0x102D PUSH2 0x1CD2 JUMP JUMPDEST PUSH1 0xB DUP2 SWAP1 SSTORE POP PUSH2 0x103B PUSH2 0x151C JUMP JUMPDEST PUSH1 0xA DUP2 SWAP1 SSTORE POP PUSH1 0x0 PUSH20 0xFFFFFFFFFFFFFFFFFFFFFFFFFFFFFFFFFFFFFFFF AND DUP2 PUSH20 0xFFFFFFFFFFFFFFFFFFFFFFFFFFFFFFFFFFFFFFFF AND EQ PUSH2 0x1108 JUMPI PUSH2 0x107E DUP2 PUSH2 0x9C1 JUMP JUMPDEST PUSH1 0xF PUSH1 0x0 DUP4 PUSH20 0xFFFFFFFFFFFFFFFFFFFFFFFFFFFFFFFFFFFFFFFF AND PUSH20 0xFFFFFFFFFFFFFFFFFFFFFFFFFFFFFFFFFFFFFFFF AND DUP2 MSTORE PUSH1 0x20 ADD SWAP1 DUP2 MSTORE PUSH1 0x20 ADD PUSH1 0x0 KECCAK256 DUP2 SWAP1 SSTORE POP PUSH1 0xB SLOAD PUSH1 0xC PUSH1 0x0 DUP4 PUSH20 0xFFFFFFFFFFFFFFFFFFFFFFFFFFFFFFFFFFFFFFFF AND PUSH20 0xFFFFFFFFFFFFFFFFFFFFFFFFFFFFFFFFFFFFFFFF AND DUP2 MSTORE PUSH1 0x20 ADD SWAP1 DUP2 MSTORE PUSH1 0x20 ADD PUSH1 0x0 KECCAK256 DUP2 SWAP1 SSTORE POP JUMPDEST PUSH1 0x0 PUSH1 0xF PUSH1 0x0 CALLER PUSH20 0xFFFFFFFFFFFFFFFFFFFFFFFFFFFFFFFFFFFFFFFF AND PUSH20 0xFFFFFFFFFFFFFFFFFFFFFFFFFFFFFFFFFFFFFFFF AND DUP2 MSTORE PUSH1 0x20 ADD SWAP1 DUP2 MSTORE PUSH1 0x20 ADD PUSH1 0x0 KECCAK256 SLOAD SWAP1 POP PUSH1 0x0 DUP2 GT ISZERO PUSH2 0x11F3 JUMPI PUSH1 0x0 PUSH1 0xF PUSH1 0x0 CALLER PUSH20 0xFFFFFFFFFFFFFFFFFFFFFFFFFFFFFFFFFFFFFFFF AND PUSH20 0xFFFFFFFFFFFFFFFFFFFFFFFFFFFFFFFFFFFFFFFF AND DUP2 MSTORE PUSH1 0x20 ADD SWAP1 DUP2 MSTORE PUSH1 0x20 ADD PUSH1 0x0 KECCAK256 DUP2 SWAP1 SSTORE POP PUSH2 0x11A4 CALLER DUP3 PUSH2 0x2756 JUMP JUMPDEST CALLER PUSH20 0xFFFFFFFFFFFFFFFFFFFFFFFFFFFFFFFFFFFFFFFF AND PUSH32 0xE2403640BA68FED3A2F88B7557551D1993F84B99BB10FF833F0CF8DB0C5E0486 DUP3 PUSH1 0x40 MLOAD PUSH2 0x11EA SWAP2 SWAP1 PUSH2 0x2F50 JUMP JUMPDEST PUSH1 0x40 MLOAD DUP1 SWAP2 SUB SWAP1 LOG2 JUMPDEST POP POP PUSH1 0x1 PUSH1 0x6 DUP2 SWAP1 SSTORE POP JUMP JUMPDEST PUSH1 0x0 PUSH1 0xE PUSH1 0x0 DUP4 PUSH20 0xFFFFFFFFFFFFFFFFFFFFFFFFFFFFFFFFFFFFFFFF AND PUSH20 0xFFFFFFFFFFFFFFFFFFFFFFFFFFFFFFFFFFFFFFFF AND DUP2 MSTORE PUSH1 0x20 ADD SWAP1 DUP2 MSTORE PUSH1 0x20 ADD PUSH1 0x0 KECCAK256 SLOAD SWAP1 POP SWAP2 SWAP1 POP JUMP JUMPDEST PUSH32 0x0 DUP2 JUMP JUMPDEST PUSH2 0x1274 PUSH2 0x2089 JUMP JUMPDEST PUSH20 0xFFFFFFFFFFFFFFFFFFFFFFFFFFFFFFFFFFFFFFFF AND PUSH2 0x1292 PUSH2 0x1616 JUMP JUMPDEST PUSH20 0xFFFFFFFFFFFFFFFFFFFFFFFFFFFFFFFFFFFFFFFF AND EQ PUSH2 0x12E8 JUMPI PUSH1 0x40 MLOAD PUSH32 0x8C379A000000000000000000000000000000000000000000000000000000000 DUP2 MSTORE PUSH1 0x4 ADD PUSH2 0x12DF SWAP1 PUSH2 0x2E70 JUMP JUMPDEST PUSH1 0x40 MLOAD DUP1 SWAP2 SUB SWAP1 REVERT JUMPDEST PUSH1 0x0 JUMPDEST PUSH1 0xD DUP1 SLOAD SWAP1 POP DUP2 LT ISZERO PUSH2 0x13F3 JUMPI PUSH1 0x0 PUSH1 0xD DUP3 DUP2 SLOAD DUP2 LT PUSH2 0x130E JUMPI PUSH2 0x130D PUSH2 0x339E JUMP JUMPDEST JUMPDEST SWAP1 PUSH1 0x0 MSTORE PUSH1 0x20 PUSH1 0x0 KECCAK256 ADD PUSH1 0x0 SWAP1 SLOAD SWAP1 PUSH2 0x100 EXP SWAP1 DIV PUSH20 0xFFFFFFFFFFFFFFFFFFFFFFFFFFFFFFFFFFFFFFFF AND SWAP1 POP PUSH1 0x0 PUSH2 0x1346 DUP3 PUSH2 0x1D5F JUMP JUMPDEST SWAP1 POP PUSH2 0x139A DUP2 PUSH1 0xF PUSH1 0x0 DUP6 PUSH20 0xFFFFFFFFFFFFFFFFFFFFFFFFFFFFFFFFFFFFFFFF AND PUSH20 0xFFFFFFFFFFFFFFFFFFFFFFFFFFFFFFFFFFFFFFFF AND DUP2 MSTORE PUSH1 0x20 ADD SWAP1 DUP2 MSTORE PUSH1 0x20 ADD PUSH1 0x0 KECCAK256 SLOAD PUSH2 0x225C SWAP1 SWAP2 SWAP1 PUSH4 0xFFFFFFFF AND JUMP JUMPDEST PUSH1 0xF PUSH1 0x0 DUP5 PUSH20 0xFFFFFFFFFFFFFFFFFFFFFFFFFFFFFFFFFFFFFFFF AND PUSH20 0xFFFFFFFFFFFFFFFFFFFFFFFFFFFFFFFFFFFFFFFF AND DUP2 MSTORE PUSH1 0x20 ADD SWAP1 DUP2 MSTORE PUSH1 0x20 ADD PUSH1 0x0 KECCAK256 DUP2 SWAP1 SSTORE POP POP POP PUSH1 0x1 DUP2 PUSH2 0x13EC SWAP2 SWAP1 PUSH2 0x2FA2 JUMP JUMPDEST SWAP1 POP PUSH2 0x12EB JUMP JUMPDEST POP JUMP JUMPDEST PUSH1 0x0 DUP1 PUSH1 0x0 DUP4 PUSH20 0xFFFFFFFFFFFFFFFFFFFFFFFFFFFFFFFFFFFFFFFF AND PUSH20 0xFFFFFFFFFFFFFFFFFFFFFFFFFFFFFFFFFFFFFFFF AND DUP2 MSTORE PUSH1 0x20 ADD SWAP1 DUP2 MSTORE PUSH1 0x20 ADD PUSH1 0x0 KECCAK256 SLOAD SWAP1 POP SWAP2 SWAP1 POP JUMP JUMPDEST PUSH2 0x1446 PUSH2 0x2089 JUMP JUMPDEST PUSH20 0xFFFFFFFFFFFFFFFFFFFFFFFFFFFFFFFFFFFFFFFF AND PUSH2 0x1464 PUSH2 0x1616 JUMP JUMPDEST PUSH20 0xFFFFFFFFFFFFFFFFFFFFFFFFFFFFFFFFFFFFFFFF AND EQ PUSH2 0x14BA JUMPI PUSH1 0x40 MLOAD PUSH32 0x8C379A000000000000000000000000000000000000000000000000000000000 DUP2 MSTORE PUSH1 0x4 ADD PUSH2 0x14B1 SWAP1 PUSH2 0x2E70 JUMP JUMPDEST PUSH1 0x40 MLOAD DUP1 SWAP2 SUB SWAP1 REVERT JUMPDEST PUSH2 0x14C4 PUSH1 0x0 PUSH2 0x28B6 JUMP JUMPDEST JUMP JUMPDEST PUSH1 0x8 SLOAD DUP2 JUMP JUMPDEST PUSH1 0x0 DUP1 PUSH1 0x10 SLOAD PUSH2 0x14DA PUSH2 0xF1D JUMP JUMPDEST PUSH1 0xA PUSH2 0x14E6 SWAP2 SWAP1 PUSH2 0x307C JUMP JUMPDEST PUSH1 0x1 PUSH2 0x14F2 SWAP2 SWAP1 PUSH2 0x319A JUMP JUMPDEST CALLVALUE PUSH2 0x14FD SWAP2 SWAP1 PUSH2 0x2FF8 JUMP JUMPDEST PUSH2 0x1507 SWAP2 SWAP1 PUSH2 0x319A JUMP JUMPDEST SWAP1 POP PUSH2 0x1513 DUP4 DUP3 PUSH2 0x2756 JUMP JUMPDEST DUP1 SWAP2 POP POP SWAP2 SWAP1 POP JUMP JUMPDEST PUSH1 0x0 PUSH1 0x7 SLOAD TIMESTAMP LT PUSH2 0x152F JUMPI PUSH1 0x7 SLOAD PUSH2 0x1531 JUMP JUMPDEST TIMESTAMP JUMPDEST SWAP1 POP SWAP1 JUMP JUMPDEST PUSH1 0x0 PUSH2 0x1540 PUSH2 0x2089 JUMP JUMPDEST PUSH20 0xFFFFFFFFFFFFFFFFFFFFFFFFFFFFFFFFFFFFFFFF AND PUSH2 0x155E PUSH2 0x1616 JUMP JUMPDEST PUSH20 0xFFFFFFFFFFFFFFFFFFFFFFFFFFFFFFFFFFFFFFFF AND EQ PUSH2 0x15B4 JUMPI PUSH1 0x40 MLOAD PUSH32 0x8C379A000000000000000000000000000000000000000000000000000000000 DUP2 MSTORE PUSH1 0x4 ADD PUSH2 0x15AB SWAP1 PUSH2 0x2E70 JUMP JUMPDEST PUSH1 0x40 MLOAD DUP1 SWAP2 SUB SWAP1 REVERT JUMPDEST DUP2 PUSH1 0x10 DUP2 SWAP1 SSTORE POP PUSH32 0x6B361C807733CC94A3B7BDA39C1C94DCC0511E91AA47B0F7F918068E93976890 PUSH1 0x10 SLOAD PUSH1 0x40 MLOAD PUSH2 0x15EC SWAP2 SWAP1 PUSH2 0x2F50 JUMP JUMPDEST PUSH1 0x40 MLOAD DUP1 SWAP2 SUB SWAP1 LOG1 PUSH1 0x10 SLOAD SWAP1 POP SWAP2 SWAP1 POP JUMP JUMPDEST PUSH1 0xC PUSH1 0x20 MSTORE DUP1 PUSH1 0x0 MSTORE PUSH1 0x40 PUSH1 0x0 KECCAK256 PUSH1 0x0 SWAP2 POP SWAP1 POP SLOAD DUP2 JUMP JUMPDEST PUSH1 0x0 PUSH1 0x5 PUSH1 0x0 SWAP1 SLOAD SWAP1 PUSH2 0x100 EXP SWAP1 DIV PUSH20 0xFFFFFFFFFFFFFFFFFFFFFFFFFFFFFFFFFFFFFFFF AND SWAP1 POP SWAP1 JUMP JUMPDEST PUSH1 0x2 PUSH1 0x6 SLOAD EQ ISZERO PUSH2 0x1686 JUMPI PUSH1 0x40 MLOAD PUSH32 0x8C379A000000000000000000000000000000000000000000000000000000000 DUP2 MSTORE PUSH1 0x4 ADD PUSH2 0x167D SWAP1 PUSH2 0x2EF0 JUMP JUMPDEST PUSH1 0x40 MLOAD DUP1 SWAP2 SUB SWAP1 REVERT JUMPDEST PUSH1 0x2 PUSH1 0x6 DUP2 SWAP1 SSTORE POP CALLER PUSH2 0x1697 PUSH2 0x1CD2 JUMP JUMPDEST PUSH1 0xB DUP2 SWAP1 SSTORE POP PUSH2 0x16A5 PUSH2 0x151C JUMP JUMPDEST PUSH1 0xA DUP2 SWAP1 SSTORE POP PUSH1 0x0 PUSH20 0xFFFFFFFFFFFFFFFFFFFFFFFFFFFFFFFFFFFFFFFF AND DUP2 PUSH20 0xFFFFFFFFFFFFFFFFFFFFFFFFFFFFFFFFFFFFFFFF AND EQ PUSH2 0x1772 JUMPI PUSH2 0x16E8 DUP2 PUSH2 0x9C1 JUMP JUMPDEST PUSH1 0xF PUSH1 0x0 DUP4 PUSH20 0xFFFFFFFFFFFFFFFFFFFFFFFFFFFFFFFFFFFFFFFF AND PUSH20 0xFFFFFFFFFFFFFFFFFFFFFFFFFFFFFFFFFFFFFFFF AND DUP2 MSTORE PUSH1 0x20 ADD SWAP1 DUP2 MSTORE PUSH1 0x20 ADD PUSH1 0x0 KECCAK256 DUP2 SWAP1 SSTORE POP PUSH1 0xB SLOAD PUSH1 0xC PUSH1 0x0 DUP4 PUSH20 0xFFFFFFFFFFFFFFFFFFFFFFFFFFFFFFFFFFFFFFFF AND PUSH20 0xFFFFFFFFFFFFFFFFFFFFFFFFFFFFFFFFFFFFFFFF AND DUP2 MSTORE PUSH1 0x20 ADD SWAP1 DUP2 MSTORE PUSH1 0x20 ADD PUSH1 0x0 KECCAK256 DUP2 SWAP1 SSTORE POP JUMPDEST PUSH2 0x17C4 DUP3 PUSH1 0xE PUSH1 0x0 CALLER PUSH20 0xFFFFFFFFFFFFFFFFFFFFFFFFFFFFFFFFFFFFFFFF AND PUSH20 0xFFFFFFFFFFFFFFFFFFFFFFFFFFFFFFFFFFFFFFFF AND DUP2 MSTORE PUSH1 0x20 ADD SWAP1 DUP2 MSTORE PUSH1 0x20 ADD PUSH1 0x0 KECCAK256 SLOAD PUSH2 0x297C SWAP1 SWAP2 SWAP1 PUSH4 0xFFFFFFFF AND JUMP JUMPDEST PUSH1 0xE PUSH1 0x0 CALLER PUSH20 0xFFFFFFFFFFFFFFFFFFFFFFFFFFFFFFFFFFFFFFFF AND PUSH20 0xFFFFFFFFFFFFFFFFFFFFFFFFFFFFFFFFFFFFFFFF AND DUP2 MSTORE PUSH1 0x20 ADD SWAP1 DUP2 MSTORE PUSH1 0x20 ADD PUSH1 0x0 KECCAK256 DUP2 SWAP1 SSTORE POP PUSH1 0x0 PUSH1 0xE PUSH1 0x0 CALLER PUSH20 0xFFFFFFFFFFFFFFFFFFFFFFFFFFFFFFFFFFFFFFFF AND PUSH20 0xFFFFFFFFFFFFFFFFFFFFFFFFFFFFFFFFFFFFFFFF AND DUP2 MSTORE PUSH1 0x20 ADD SWAP1 DUP2 MSTORE PUSH1 0x20 ADD PUSH1 0x0 KECCAK256 SLOAD EQ ISZERO PUSH2 0x1859 JUMPI PUSH2 0x1858 CALLER PUSH2 0x1A5C JUMP JUMPDEST JUMPDEST PUSH2 0x1863 CALLER DUP4 PUSH2 0x2756 JUMP JUMPDEST CALLER PUSH20 0xFFFFFFFFFFFFFFFFFFFFFFFFFFFFFFFFFFFFFFFF AND PUSH32 0x7084F5476618D8E60B11EF0D7D3F06914655ADB8793E28FF7F018D4C76D505D5 DUP4 PUSH1 0x40 MLOAD PUSH2 0x18A9 SWAP2 SWAP1 PUSH2 0x2F50 JUMP JUMPDEST PUSH1 0x40 MLOAD DUP1 SWAP2 SUB SWAP1 LOG2 POP PUSH1 0x1 PUSH1 0x6 DUP2 SWAP1 SSTORE POP POP JUMP JUMPDEST PUSH1 0x60 PUSH1 0x4 DUP1 SLOAD PUSH2 0x18CC SWAP1 PUSH2 0x32B0 JUMP JUMPDEST DUP1 PUSH1 0x1F ADD PUSH1 0x20 DUP1 SWAP2 DIV MUL PUSH1 0x20 ADD PUSH1 0x40 MLOAD SWAP1 DUP2 ADD PUSH1 0x40 MSTORE DUP1 SWAP3 SWAP2 SWAP1 DUP2 DUP2 MSTORE PUSH1 0x20 ADD DUP3 DUP1 SLOAD PUSH2 0x18F8 SWAP1 PUSH2 0x32B0 JUMP JUMPDEST DUP1 ISZERO PUSH2 0x1945 JUMPI DUP1 PUSH1 0x1F LT PUSH2 0x191A JUMPI PUSH2 0x100 DUP1 DUP4 SLOAD DIV MUL DUP4 MSTORE SWAP2 PUSH1 0x20 ADD SWAP2 PUSH2 0x1945 JUMP JUMPDEST DUP3 ADD SWAP2 SWAP1 PUSH1 0x0 MSTORE PUSH1 0x20 PUSH1 0x0 KECCAK256 SWAP1 JUMPDEST DUP2 SLOAD DUP2 MSTORE SWAP1 PUSH1 0x1 ADD SWAP1 PUSH1 0x20 ADD DUP1 DUP4 GT PUSH2 0x1928 JUMPI DUP3 SWAP1 SUB PUSH1 0x1F AND DUP3 ADD SWAP2 JUMPDEST POP POP POP POP POP SWAP1 POP SWAP1 JUMP JUMPDEST PUSH1 0x0 DUP1 PUSH2 0x195A PUSH2 0x2089 JUMP JUMPDEST SWAP1 POP PUSH1 0x0 PUSH1 0x1 PUSH1 0x0 DUP4 PUSH20 0xFFFFFFFFFFFFFFFFFFFFFFFFFFFFFFFFFFFFFFFF AND PUSH20 0xFFFFFFFFFFFFFFFFFFFFFFFFFFFFFFFFFFFFFFFF AND DUP2 MSTORE PUSH1 0x20 ADD SWAP1 DUP2 MSTORE PUSH1 0x20 ADD PUSH1 0x0 KECCAK256 PUSH1 0x0 DUP7 PUSH20 0xFFFFFFFFFFFFFFFFFFFFFFFFFFFFFFFFFFFFFFFF AND PUSH20 0xFFFFFFFFFFFFFFFFFFFFFFFFFFFFFFFFFFFFFFFF AND DUP2 MSTORE PUSH1 0x20 ADD SWAP1 DUP2 MSTORE PUSH1 0x20 ADD PUSH1 0x0 KECCAK256 SLOAD SWAP1 POP DUP4 DUP2 LT ISZERO PUSH2 0x1A20 JUMPI PUSH1 0x40 MLOAD PUSH32 0x8C379A000000000000000000000000000000000000000000000000000000000 DUP2 MSTORE PUSH1 0x4 ADD PUSH2 0x1A17 SWAP1 PUSH2 0x2F10 JUMP JUMPDEST PUSH1 0x40 MLOAD DUP1 SWAP2 SUB SWAP1 REVERT JUMPDEST PUSH2 0x1A2D DUP3 DUP7 DUP7 DUP5 SUB PUSH2 0x2091 JUMP JUMPDEST PUSH1 0x1 SWAP3 POP POP POP SWAP3 SWAP2 POP POP JUMP JUMPDEST PUSH1 0x0 DUP1 PUSH2 0x1A44 PUSH2 0x2089 JUMP JUMPDEST SWAP1 POP PUSH2 0x1A51 DUP2 DUP6 DUP6 PUSH2 0x24D5 JUMP JUMPDEST PUSH1 0x1 SWAP2 POP POP SWAP3 SWAP2 POP POP JUMP JUMPDEST PUSH1 0x0 DUP1 PUSH2 0x1A68 DUP4 PUSH2 0x1EDD JUMP JUMPDEST SWAP2 POP SWAP2 POP DUP2 ISZERO PUSH2 0x1B66 JUMPI PUSH1 0xD PUSH1 0x1 PUSH1 0xD DUP1 SLOAD SWAP1 POP PUSH2 0x1A86 SWAP2 SWAP1 PUSH2 0x31F4 JUMP JUMPDEST DUP2 SLOAD DUP2 LT PUSH2 0x1A97 JUMPI PUSH2 0x1A96 PUSH2 0x339E JUMP JUMPDEST JUMPDEST SWAP1 PUSH1 0x0 MSTORE PUSH1 0x20 PUSH1 0x0 KECCAK256 ADD PUSH1 0x0 SWAP1 SLOAD SWAP1 PUSH2 0x100 EXP SWAP1 DIV PUSH20 0xFFFFFFFFFFFFFFFFFFFFFFFFFFFFFFFFFFFFFFFF AND PUSH1 0xD DUP3 DUP2 SLOAD DUP2 LT PUSH2 0x1AD6 JUMPI PUSH2 0x1AD5 PUSH2 0x339E JUMP JUMPDEST JUMPDEST SWAP1 PUSH1 0x0 MSTORE PUSH1 0x20 PUSH1 0x0 KECCAK256 ADD PUSH1 0x0 PUSH2 0x100 EXP DUP2 SLOAD DUP2 PUSH20 0xFFFFFFFFFFFFFFFFFFFFFFFFFFFFFFFFFFFFFFFF MUL NOT AND SWAP1 DUP4 PUSH20 0xFFFFFFFFFFFFFFFFFFFFFFFFFFFFFFFFFFFFFFFF AND MUL OR SWAP1 SSTORE POP PUSH1 0xD DUP1 SLOAD DUP1 PUSH2 0x1B30 JUMPI PUSH2 0x1B2F PUSH2 0x336F JUMP JUMPDEST JUMPDEST PUSH1 0x1 SWAP1 SUB DUP2 DUP2 SWAP1 PUSH1 0x0 MSTORE PUSH1 0x20 PUSH1 0x0 KECCAK256 ADD PUSH1 0x0 PUSH2 0x100 EXP DUP2 SLOAD SWAP1 PUSH20 0xFFFFFFFFFFFFFFFFFFFFFFFFFFFFFFFFFFFFFFFF MUL NOT AND SWAP1 SSTORE SWAP1 SSTORE JUMPDEST POP POP POP JUMP JUMPDEST PUSH1 0x0 DUP1 PUSH1 0x0 SWAP1 POP PUSH1 0x0 JUMPDEST PUSH1 0xD DUP1 SLOAD SWAP1 POP DUP2 LT ISZERO PUSH2 0x1C28 JUMPI PUSH2 0x1C12 PUSH1 0xE PUSH1 0x0 PUSH1 0xD DUP5 DUP2 SLOAD DUP2 LT PUSH2 0x1B9D JUMPI PUSH2 0x1B9C PUSH2 0x339E JUMP JUMPDEST JUMPDEST SWAP1 PUSH1 0x0 MSTORE PUSH1 0x20 PUSH1 0x0 KECCAK256 ADD PUSH1 0x0 SWAP1 SLOAD SWAP1 PUSH2 0x100 EXP SWAP1 DIV PUSH20 0xFFFFFFFFFFFFFFFFFFFFFFFFFFFFFFFFFFFFFFFF AND PUSH20 0xFFFFFFFFFFFFFFFFFFFFFFFFFFFFFFFFFFFFFFFF AND PUSH20 0xFFFFFFFFFFFFFFFFFFFFFFFFFFFFFFFFFFFFFFFF AND DUP2 MSTORE PUSH1 0x20 ADD SWAP1 DUP2 MSTORE PUSH1 0x20 ADD PUSH1 0x0 KECCAK256 SLOAD DUP4 PUSH2 0x225C SWAP1 SWAP2 SWAP1 PUSH4 0xFFFFFFFF AND JUMP JUMPDEST SWAP2 POP PUSH1 0x1 DUP2 PUSH2 0x1C21 SWAP2 SWAP1 PUSH2 0x2FA2 JUMP JUMPDEST SWAP1 POP PUSH2 0x1B75 JUMP JUMPDEST POP DUP1 SWAP2 POP POP SWAP1 JUMP JUMPDEST PUSH1 0x0 PUSH1 0xF PUSH1 0x0 CALLER PUSH20 0xFFFFFFFFFFFFFFFFFFFFFFFFFFFFFFFFFFFFFFFF AND PUSH20 0xFFFFFFFFFFFFFFFFFFFFFFFFFFFFFFFFFFFFFFFF AND DUP2 MSTORE PUSH1 0x20 ADD SWAP1 DUP2 MSTORE PUSH1 0x20 ADD PUSH1 0x0 KECCAK256 SLOAD SWAP1 POP PUSH1 0x0 PUSH1 0xF PUSH1 0x0 CALLER PUSH20 0xFFFFFFFFFFFFFFFFFFFFFFFFFFFFFFFFFFFFFFFF AND PUSH20 0xFFFFFFFFFFFFFFFFFFFFFFFFFFFFFFFFFFFFFFFF AND DUP2 MSTORE PUSH1 0x20 ADD SWAP1 DUP2 MSTORE PUSH1 0x20 ADD PUSH1 0x0 KECCAK256 DUP2 SWAP1 SSTORE POP PUSH2 0x1CC3 CALLER DUP3 PUSH2 0x2756 JUMP JUMPDEST POP JUMP JUMPDEST PUSH1 0xA SLOAD DUP2 JUMP JUMPDEST PUSH1 0x10 SLOAD DUP2 JUMP JUMPDEST PUSH1 0x0 DUP1 PUSH2 0x1CDD PUSH2 0xC1E JUMP JUMPDEST EQ ISZERO PUSH2 0x1CED JUMPI PUSH1 0xB SLOAD SWAP1 POP PUSH2 0x1D5C JUMP JUMPDEST PUSH2 0x1CF5 PUSH2 0xC1E JUMP JUMPDEST PUSH32 0x0 PUSH1 0x8 SLOAD PUSH1 0xA SLOAD PUSH2 0x1D24 PUSH2 0x151C JUMP JUMPDEST PUSH2 0x1D2E SWAP2 SWAP1 PUSH2 0x31F4 JUMP JUMPDEST PUSH2 0x1D38 SWAP2 SWAP1 PUSH2 0x319A JUMP JUMPDEST PUSH2 0x1D42 SWAP2 SWAP1 PUSH2 0x319A JUMP JUMPDEST PUSH2 0x1D4C SWAP2 SWAP1 PUSH2 0x2FF8 JUMP JUMPDEST PUSH1 0xB SLOAD PUSH2 0x1D59 SWAP2 SWAP1 PUSH2 0x2FA2 JUMP JUMPDEST SWAP1 POP JUMPDEST SWAP1 JUMP JUMPDEST PUSH1 0x0 PUSH1 0x64 PUSH1 0xE PUSH1 0x0 DUP5 PUSH20 0xFFFFFFFFFFFFFFFFFFFFFFFFFFFFFFFFFFFFFFFF AND PUSH20 0xFFFFFFFFFFFFFFFFFFFFFFFFFFFFFFFFFFFFFFFF AND DUP2 MSTORE PUSH1 0x20 ADD SWAP1 DUP2 MSTORE PUSH1 0x20 ADD PUSH1 0x0 KECCAK256 SLOAD PUSH2 0x1DAD SWAP2 SWAP1 PUSH2 0x2FF8 JUMP JUMPDEST SWAP1 POP SWAP2 SWAP1 POP JUMP JUMPDEST PUSH1 0x0 PUSH1 0x1 PUSH1 0x0 DUP5 PUSH20 0xFFFFFFFFFFFFFFFFFFFFFFFFFFFFFFFFFFFFFFFF AND PUSH20 0xFFFFFFFFFFFFFFFFFFFFFFFFFFFFFFFFFFFFFFFF AND DUP2 MSTORE PUSH1 0x20 ADD SWAP1 DUP2 MSTORE PUSH1 0x20 ADD PUSH1 0x0 KECCAK256 PUSH1 0x0 DUP4 PUSH20 0xFFFFFFFFFFFFFFFFFFFFFFFFFFFFFFFFFFFFFFFF AND PUSH20 0xFFFFFFFFFFFFFFFFFFFFFFFFFFFFFFFFFFFFFFFF AND DUP2 MSTORE PUSH1 0x20 ADD SWAP1 DUP2 MSTORE PUSH1 0x20 ADD PUSH1 0x0 KECCAK256 SLOAD SWAP1 POP SWAP3 SWAP2 POP POP JUMP JUMPDEST PUSH1 0xB SLOAD DUP2 JUMP JUMPDEST PUSH1 0x0 PUSH2 0x1E4C DUP3 PUSH2 0x1EDD JUMP JUMPDEST POP SWAP1 POP DUP1 PUSH2 0x1EB8 JUMPI PUSH1 0xD DUP3 SWAP1 DUP1 PUSH1 0x1 DUP2 SLOAD ADD DUP1 DUP3 SSTORE DUP1 SWAP2 POP POP PUSH1 0x1 SWAP1 SUB SWAP1 PUSH1 0x0 MSTORE PUSH1 0x20 PUSH1 0x0 KECCAK256 ADD PUSH1 0x0 SWAP1 SWAP2 SWAP1 SWAP2 SWAP1 SWAP2 PUSH2 0x100 EXP DUP2 SLOAD DUP2 PUSH20 0xFFFFFFFFFFFFFFFFFFFFFFFFFFFFFFFFFFFFFFFF MUL NOT AND SWAP1 DUP4 PUSH20 0xFFFFFFFFFFFFFFFFFFFFFFFFFFFFFFFFFFFFFFFF AND MUL OR SWAP1 SSTORE POP JUMPDEST POP POP JUMP JUMPDEST PUSH2 0x1ECD PUSH2 0x1EC8 CALLER PUSH2 0x13F6 JUMP JUMPDEST PUSH2 0x1640 JUMP JUMPDEST PUSH2 0x1ED5 PUSH2 0xFD6 JUMP JUMPDEST JUMP JUMPDEST PUSH1 0x7 SLOAD DUP2 JUMP JUMPDEST PUSH1 0x0 DUP1 PUSH1 0x0 JUMPDEST PUSH1 0xD DUP1 SLOAD SWAP1 POP DUP2 LT ISZERO PUSH2 0x1F83 JUMPI PUSH1 0xD DUP2 DUP2 SLOAD DUP2 LT PUSH2 0x1F04 JUMPI PUSH2 0x1F03 PUSH2 0x339E JUMP JUMPDEST JUMPDEST SWAP1 PUSH1 0x0 MSTORE PUSH1 0x20 PUSH1 0x0 KECCAK256 ADD PUSH1 0x0 SWAP1 SLOAD SWAP1 PUSH2 0x100 EXP SWAP1 DIV PUSH20 0xFFFFFFFFFFFFFFFFFFFFFFFFFFFFFFFFFFFFFFFF AND PUSH20 0xFFFFFFFFFFFFFFFFFFFFFFFFFFFFFFFFFFFFFFFF AND DUP5 PUSH20 0xFFFFFFFFFFFFFFFFFFFFFFFFFFFFFFFFFFFFFFFF AND EQ ISZERO PUSH2 0x1F6F JUMPI PUSH1 0x1 DUP2 SWAP3 POP SWAP3 POP POP PUSH2 0x1F8C JUMP JUMPDEST PUSH1 0x1 DUP2 PUSH2 0x1F7C SWAP2 SWAP1 PUSH2 0x2FA2 JUMP JUMPDEST SWAP1 POP PUSH2 0x1EE3 JUMP JUMPDEST POP PUSH1 0x0 DUP1 SWAP2 POP SWAP2 POP JUMPDEST SWAP2 POP SWAP2 JUMP JUMPDEST PUSH2 0x1F99 PUSH2 0x2089 JUMP JUMPDEST PUSH20 0xFFFFFFFFFFFFFFFFFFFFFFFFFFFFFFFFFFFFFFFF AND PUSH2 0x1FB7 PUSH2 0x1616 JUMP JUMPDEST PUSH20 0xFFFFFFFFFFFFFFFFFFFFFFFFFFFFFFFFFFFFFFFF AND EQ PUSH2 0x200D JUMPI PUSH1 0x40 MLOAD PUSH32 0x8C379A000000000000000000000000000000000000000000000000000000000 DUP2 MSTORE PUSH1 0x4 ADD PUSH2 0x2004 SWAP1 PUSH2 0x2E70 JUMP JUMPDEST PUSH1 0x40 MLOAD DUP1 SWAP2 SUB SWAP1 REVERT JUMPDEST PUSH1 0x0 PUSH20 0xFFFFFFFFFFFFFFFFFFFFFFFFFFFFFFFFFFFFFFFF AND DUP2 PUSH20 0xFFFFFFFFFFFFFFFFFFFFFFFFFFFFFFFFFFFFFFFF AND EQ ISZERO PUSH2 0x207D JUMPI PUSH1 0x40 MLOAD PUSH32 0x8C379A000000000000000000000000000000000000000000000000000000000 DUP2 MSTORE PUSH1 0x4 ADD PUSH2 0x2074 SWAP1 PUSH2 0x2DF0 JUMP JUMPDEST PUSH1 0x40 MLOAD DUP1 SWAP2 SUB SWAP1 REVERT JUMPDEST PUSH2 0x2086 DUP2 PUSH2 0x28B6 JUMP JUMPDEST POP JUMP JUMPDEST PUSH1 0x0 CALLER SWAP1 POP SWAP1 JUMP JUMPDEST PUSH1 0x0 PUSH20 0xFFFFFFFFFFFFFFFFFFFFFFFFFFFFFFFFFFFFFFFF AND DUP4 PUSH20 0xFFFFFFFFFFFFFFFFFFFFFFFFFFFFFFFFFFFFFFFF AND EQ ISZERO PUSH2 0x2101 JUMPI PUSH1 0x40 MLOAD PUSH32 0x8C379A000000000000000000000000000000000000000000000000000000000 DUP2 MSTORE PUSH1 0x4 ADD PUSH2 0x20F8 SWAP1 PUSH2 0x2ED0 JUMP JUMPDEST PUSH1 0x40 MLOAD DUP1 SWAP2 SUB SWAP1 REVERT JUMPDEST PUSH1 0x0 PUSH20 0xFFFFFFFFFFFFFFFFFFFFFFFFFFFFFFFFFFFFFFFF AND DUP3 PUSH20 0xFFFFFFFFFFFFFFFFFFFFFFFFFFFFFFFFFFFFFFFF AND EQ ISZERO PUSH2 0x2171 JUMPI PUSH1 0x40 MLOAD PUSH32 0x8C379A000000000000000000000000000000000000000000000000000000000 DUP2 MSTORE PUSH1 0x4 ADD PUSH2 0x2168 SWAP1 PUSH2 0x2E10 JUMP JUMPDEST PUSH1 0x40 MLOAD DUP1 SWAP2 SUB SWAP1 REVERT JUMPDEST DUP1 PUSH1 0x1 PUSH1 0x0 DUP6 PUSH20 0xFFFFFFFFFFFFFFFFFFFFFFFFFFFFFFFFFFFFFFFF AND PUSH20 0xFFFFFFFFFFFFFFFFFFFFFFFFFFFFFFFFFFFFFFFF AND DUP2 MSTORE PUSH1 0x20 ADD SWAP1 DUP2 MSTORE PUSH1 0x20 ADD PUSH1 0x0 KECCAK256 PUSH1 0x0 DUP5 PUSH20 0xFFFFFFFFFFFFFFFFFFFFFFFFFFFFFFFFFFFFFFFF AND PUSH20 0xFFFFFFFFFFFFFFFFFFFFFFFFFFFFFFFFFFFFFFFF AND DUP2 MSTORE PUSH1 0x20 ADD SWAP1 DUP2 MSTORE PUSH1 0x20 ADD PUSH1 0x0 KECCAK256 DUP2 SWAP1 SSTORE POP DUP2 PUSH20 0xFFFFFFFFFFFFFFFFFFFFFFFFFFFFFFFFFFFFFFFF AND DUP4 PUSH20 0xFFFFFFFFFFFFFFFFFFFFFFFFFFFFFFFFFFFFFFFF AND PUSH32 0x8C5BE1E5EBEC7D5BD14F71427D1E84F3DD0314C0F7B2291E5B200AC8C7C3B925 DUP4 PUSH1 0x40 MLOAD PUSH2 0x224F SWAP2 SWAP1 PUSH2 0x2F50 JUMP JUMPDEST PUSH1 0x40 MLOAD DUP1 SWAP2 SUB SWAP1 LOG3 POP POP POP JUMP JUMPDEST PUSH1 0x0 DUP2 DUP4 PUSH2 0x226A SWAP2 SWAP1 PUSH2 0x2FA2 JUMP JUMPDEST SWAP1 POP SWAP3 SWAP2 POP POP JUMP JUMPDEST PUSH1 0x0 PUSH20 0xFFFFFFFFFFFFFFFFFFFFFFFFFFFFFFFFFFFFFFFF AND DUP3 PUSH20 0xFFFFFFFFFFFFFFFFFFFFFFFFFFFFFFFFFFFFFFFF AND EQ ISZERO PUSH2 0x22E2 JUMPI PUSH1 0x40 MLOAD PUSH32 0x8C379A000000000000000000000000000000000000000000000000000000000 DUP2 MSTORE PUSH1 0x4 ADD PUSH2 0x22D9 SWAP1 PUSH2 0x2E90 JUMP JUMPDEST PUSH1 0x40 MLOAD DUP1 SWAP2 SUB SWAP1 REVERT JUMPDEST PUSH2 0x22EE DUP3 PUSH1 0x0 DUP4 PUSH2 0x2992 JUMP JUMPDEST PUSH1 0x0 DUP1 PUSH1 0x0 DUP5 PUSH20 0xFFFFFFFFFFFFFFFFFFFFFFFFFFFFFFFFFFFFFFFF AND PUSH20 0xFFFFFFFFFFFFFFFFFFFFFFFFFFFFFFFFFFFFFFFF AND DUP2 MSTORE PUSH1 0x20 ADD SWAP1 DUP2 MSTORE PUSH1 0x20 ADD PUSH1 0x0 KECCAK256 SLOAD SWAP1 POP DUP2 DUP2 LT ISZERO PUSH2 0x2374 JUMPI PUSH1 0x40 MLOAD PUSH32 0x8C379A000000000000000000000000000000000000000000000000000000000 DUP2 MSTORE PUSH1 0x4 ADD PUSH2 0x236B SWAP1 PUSH2 0x2DD0 JUMP JUMPDEST PUSH1 0x40 MLOAD DUP1 SWAP2 SUB SWAP1 REVERT JUMPDEST DUP2 DUP2 SUB PUSH1 0x0 DUP1 DUP6 PUSH20 0xFFFFFFFFFFFFFFFFFFFFFFFFFFFFFFFFFFFFFFFF AND PUSH20 0xFFFFFFFFFFFFFFFFFFFFFFFFFFFFFFFFFFFFFFFF AND DUP2 MSTORE PUSH1 0x20 ADD SWAP1 DUP2 MSTORE PUSH1 0x20 ADD PUSH1 0x0 KECCAK256 DUP2 SWAP1 SSTORE POP DUP2 PUSH1 0x2 PUSH1 0x0 DUP3 DUP3 SLOAD PUSH2 0x23CB SWAP2 SWAP1 PUSH2 0x31F4 JUMP JUMPDEST SWAP3 POP POP DUP2 SWAP1 SSTORE POP PUSH1 0x0 PUSH20 0xFFFFFFFFFFFFFFFFFFFFFFFFFFFFFFFFFFFFFFFF AND DUP4 PUSH20 0xFFFFFFFFFFFFFFFFFFFFFFFFFFFFFFFFFFFFFFFF AND PUSH32 0xDDF252AD1BE2C89B69C2B068FC378DAA952BA7F163C4A11628F55A4DF523B3EF DUP5 PUSH1 0x40 MLOAD PUSH2 0x2430 SWAP2 SWAP1 PUSH2 0x2F50 JUMP JUMPDEST PUSH1 0x40 MLOAD DUP1 SWAP2 SUB SWAP1 LOG3 PUSH2 0x2444 DUP4 PUSH1 0x0 DUP5 PUSH2 0x2997 JUMP JUMPDEST POP POP POP JUMP JUMPDEST PUSH1 0x0 PUSH2 0x2455 DUP5 DUP5 PUSH2 0x1DB4 JUMP JUMPDEST SWAP1 POP PUSH32 0xFFFFFFFFFFFFFFFFFFFFFFFFFFFFFFFFFFFFFFFFFFFFFFFFFFFFFFFFFFFFFFFF DUP2 EQ PUSH2 0x24CF JUMPI DUP2 DUP2 LT ISZERO PUSH2 0x24C1 JUMPI PUSH1 0x40 MLOAD PUSH32 0x8C379A000000000000000000000000000000000000000000000000000000000 DUP2 MSTORE PUSH1 0x4 ADD PUSH2 0x24B8 SWAP1 PUSH2 0x2E30 JUMP JUMPDEST PUSH1 0x40 MLOAD DUP1 SWAP2 SUB SWAP1 REVERT JUMPDEST PUSH2 0x24CE DUP5 DUP5 DUP5 DUP5 SUB PUSH2 0x2091 JUMP JUMPDEST JUMPDEST POP POP POP POP JUMP JUMPDEST PUSH1 0x0 PUSH20 0xFFFFFFFFFFFFFFFFFFFFFFFFFFFFFFFFFFFFFFFF AND DUP4 PUSH20 0xFFFFFFFFFFFFFFFFFFFFFFFFFFFFFFFFFFFFFFFF AND EQ ISZERO PUSH2 0x2545 JUMPI PUSH1 0x40 MLOAD PUSH32 0x8C379A000000000000000000000000000000000000000000000000000000000 DUP2 MSTORE PUSH1 0x4 ADD PUSH2 0x253C SWAP1 PUSH2 0x2EB0 JUMP JUMPDEST PUSH1 0x40 MLOAD DUP1 SWAP2 SUB SWAP1 REVERT JUMPDEST PUSH1 0x0 PUSH20 0xFFFFFFFFFFFFFFFFFFFFFFFFFFFFFFFFFFFFFFFF AND DUP3 PUSH20 0xFFFFFFFFFFFFFFFFFFFFFFFFFFFFFFFFFFFFFFFF AND EQ ISZERO PUSH2 0x25B5 JUMPI PUSH1 0x40 MLOAD PUSH32 0x8C379A000000000000000000000000000000000000000000000000000000000 DUP2 MSTORE PUSH1 0x4 ADD PUSH2 0x25AC SWAP1 PUSH2 0x2DB0 JUMP JUMPDEST PUSH1 0x40 MLOAD DUP1 SWAP2 SUB SWAP1 REVERT JUMPDEST PUSH2 0x25C0 DUP4 DUP4 DUP4 PUSH2 0x2992 JUMP JUMPDEST PUSH1 0x0 DUP1 PUSH1 0x0 DUP6 PUSH20 0xFFFFFFFFFFFFFFFFFFFFFFFFFFFFFFFFFFFFFFFF AND PUSH20 0xFFFFFFFFFFFFFFFFFFFFFFFFFFFFFFFFFFFFFFFF AND DUP2 MSTORE PUSH1 0x20 ADD SWAP1 DUP2 MSTORE PUSH1 0x20 ADD PUSH1 0x0 KECCAK256 SLOAD SWAP1 POP DUP2 DUP2 LT ISZERO PUSH2 0x2646 JUMPI PUSH1 0x40 MLOAD PUSH32 0x8C379A000000000000000000000000000000000000000000000000000000000 DUP2 MSTORE PUSH1 0x4 ADD PUSH2 0x263D SWAP1 PUSH2 0x2E50 JUMP JUMPDEST PUSH1 0x40 MLOAD DUP1 SWAP2 SUB SWAP1 REVERT JUMPDEST DUP2 DUP2 SUB PUSH1 0x0 DUP1 DUP7 PUSH20 0xFFFFFFFFFFFFFFFFFFFFFFFFFFFFFFFFFFFFFFFF AND PUSH20 0xFFFFFFFFFFFFFFFFFFFFFFFFFFFFFFFFFFFFFFFF AND DUP2 MSTORE PUSH1 0x20 ADD SWAP1 DUP2 MSTORE PUSH1 0x20 ADD PUSH1 0x0 KECCAK256 DUP2 SWAP1 SSTORE POP DUP2 PUSH1 0x0 DUP1 DUP6 PUSH20 0xFFFFFFFFFFFFFFFFFFFFFFFFFFFFFFFFFFFFFFFF AND PUSH20 0xFFFFFFFFFFFFFFFFFFFFFFFFFFFFFFFFFFFFFFFF AND DUP2 MSTORE PUSH1 0x20 ADD SWAP1 DUP2 MSTORE PUSH1 0x20 ADD PUSH1 0x0 KECCAK256 PUSH1 0x0 DUP3 DUP3 SLOAD PUSH2 0x26D9 SWAP2 SWAP1 PUSH2 0x2FA2 JUMP JUMPDEST SWAP3 POP POP DUP2 SWAP1 SSTORE POP DUP3 PUSH20 0xFFFFFFFFFFFFFFFFFFFFFFFFFFFFFFFFFFFFFFFF AND DUP5 PUSH20 0xFFFFFFFFFFFFFFFFFFFFFFFFFFFFFFFFFFFFFFFF AND PUSH32 0xDDF252AD1BE2C89B69C2B068FC378DAA952BA7F163C4A11628F55A4DF523B3EF DUP5 PUSH1 0x40 MLOAD PUSH2 0x273D SWAP2 SWAP1 PUSH2 0x2F50 JUMP JUMPDEST PUSH1 0x40 MLOAD DUP1 SWAP2 SUB SWAP1 LOG3 PUSH2 0x2750 DUP5 DUP5 DUP5 PUSH2 0x2997 JUMP JUMPDEST POP POP POP POP JUMP JUMPDEST PUSH1 0x0 PUSH20 0xFFFFFFFFFFFFFFFFFFFFFFFFFFFFFFFFFFFFFFFF AND DUP3 PUSH20 0xFFFFFFFFFFFFFFFFFFFFFFFFFFFFFFFFFFFFFFFF AND EQ ISZERO PUSH2 0x27C6 JUMPI PUSH1 0x40 MLOAD PUSH32 0x8C379A000000000000000000000000000000000000000000000000000000000 DUP2 MSTORE PUSH1 0x4 ADD PUSH2 0x27BD SWAP1 PUSH2 0x2F30 JUMP JUMPDEST PUSH1 0x40 MLOAD DUP1 SWAP2 SUB SWAP1 REVERT JUMPDEST PUSH2 0x27D2 PUSH1 0x0 DUP4 DUP4 PUSH2 0x2992 JUMP JUMPDEST DUP1 PUSH1 0x2 PUSH1 0x0 DUP3 DUP3 SLOAD PUSH2 0x27E4 SWAP2 SWAP1 PUSH2 0x2FA2 JUMP JUMPDEST SWAP3 POP POP DUP2 SWAP1 SSTORE POP DUP1 PUSH1 0x0 DUP1 DUP5 PUSH20 0xFFFFFFFFFFFFFFFFFFFFFFFFFFFFFFFFFFFFFFFF AND PUSH20 0xFFFFFFFFFFFFFFFFFFFFFFFFFFFFFFFFFFFFFFFF AND DUP2 MSTORE PUSH1 0x20 ADD SWAP1 DUP2 MSTORE PUSH1 0x20 ADD PUSH1 0x0 KECCAK256 PUSH1 0x0 DUP3 DUP3 SLOAD PUSH2 0x2839 SWAP2 SWAP1 PUSH2 0x2FA2 JUMP JUMPDEST SWAP3 POP POP DUP2 SWAP1 SSTORE POP DUP2 PUSH20 0xFFFFFFFFFFFFFFFFFFFFFFFFFFFFFFFFFFFFFFFF AND PUSH1 0x0 PUSH20 0xFFFFFFFFFFFFFFFFFFFFFFFFFFFFFFFFFFFFFFFF AND PUSH32 0xDDF252AD1BE2C89B69C2B068FC378DAA952BA7F163C4A11628F55A4DF523B3EF DUP4 PUSH1 0x40 MLOAD PUSH2 0x289E SWAP2 SWAP1 PUSH2 0x2F50 JUMP JUMPDEST PUSH1 0x40 MLOAD DUP1 SWAP2 SUB SWAP1 LOG3 PUSH2 0x28B2 PUSH1 0x0 DUP4 DUP4 PUSH2 0x2997 JUMP JUMPDEST POP POP JUMP JUMPDEST PUSH1 0x0 PUSH1 0x5 PUSH1 0x0 SWAP1 SLOAD SWAP1 PUSH2 0x100 EXP SWAP1 DIV PUSH20 0xFFFFFFFFFFFFFFFFFFFFFFFFFFFFFFFFFFFFFFFF AND SWAP1 POP DUP2 PUSH1 0x5 PUSH1 0x0 PUSH2 0x100 EXP DUP2 SLOAD DUP2 PUSH20 0xFFFFFFFFFFFFFFFFFFFFFFFFFFFFFFFFFFFFFFFF MUL NOT AND SWAP1 DUP4 PUSH20 0xFFFFFFFFFFFFFFFFFFFFFFFFFFFFFFFFFFFFFFFF AND MUL OR SWAP1 SSTORE POP DUP2 PUSH20 0xFFFFFFFFFFFFFFFFFFFFFFFFFFFFFFFFFFFFFFFF AND DUP2 PUSH20 0xFFFFFFFFFFFFFFFFFFFFFFFFFFFFFFFFFFFFFFFF AND PUSH32 0x8BE0079C531659141344CD1FD0A4F28419497F9722A3DAAFE3B4186F6B6457E0 PUSH1 0x40 MLOAD PUSH1 0x40 MLOAD DUP1 SWAP2 SUB SWAP1 LOG3 POP POP JUMP JUMPDEST PUSH1 0x0 DUP2 DUP4 PUSH2 0x298A SWAP2 SWAP1 PUSH2 0x31F4 JUMP JUMPDEST SWAP1 POP SWAP3 SWAP2 POP POP JUMP JUMPDEST POP POP POP JUMP JUMPDEST POP POP POP JUMP JUMPDEST PUSH1 0x0 DUP2 CALLDATALOAD SWAP1 POP PUSH2 0x29AB DUP2 PUSH2 0x375B JUMP JUMPDEST SWAP3 SWAP2 POP POP JUMP JUMPDEST PUSH1 0x0 DUP2 CALLDATALOAD SWAP1 POP PUSH2 0x29C0 DUP2 PUSH2 0x3772 JUMP JUMPDEST SWAP3 SWAP2 POP POP JUMP JUMPDEST PUSH1 0x0 PUSH1 0x20 DUP3 DUP5 SUB SLT ISZERO PUSH2 0x29DC JUMPI PUSH2 0x29DB PUSH2 0x33CD JUMP JUMPDEST JUMPDEST PUSH1 0x0 PUSH2 0x29EA DUP5 DUP3 DUP6 ADD PUSH2 0x299C JUMP JUMPDEST SWAP2 POP POP SWAP3 SWAP2 POP POP JUMP JUMPDEST PUSH1 0x0 DUP1 PUSH1 0x40 DUP4 DUP6 SUB SLT ISZERO PUSH2 0x2A0A JUMPI PUSH2 0x2A09 PUSH2 0x33CD JUMP JUMPDEST JUMPDEST PUSH1 0x0 PUSH2 0x2A18 DUP6 DUP3 DUP7 ADD PUSH2 0x299C JUMP JUMPDEST SWAP3 POP POP PUSH1 0x20 PUSH2 0x2A29 DUP6 DUP3 DUP7 ADD PUSH2 0x299C JUMP JUMPDEST SWAP2 POP POP SWAP3 POP SWAP3 SWAP1 POP JUMP JUMPDEST PUSH1 0x0 DUP1 PUSH1 0x0 PUSH1 0x60 DUP5 DUP7 SUB SLT ISZERO PUSH2 0x2A4C JUMPI PUSH2 0x2A4B PUSH2 0x33CD JUMP JUMPDEST JUMPDEST PUSH1 0x0 PUSH2 0x2A5A DUP7 DUP3 DUP8 ADD PUSH2 0x299C JUMP JUMPDEST SWAP4 POP POP PUSH1 0x20 PUSH2 0x2A6B DUP7 DUP3 DUP8 ADD PUSH2 0x299C JUMP JUMPDEST SWAP3 POP POP PUSH1 0x40 PUSH2 0x2A7C DUP7 DUP3 DUP8 ADD PUSH2 0x29B1 JUMP JUMPDEST SWAP2 POP POP SWAP3 POP SWAP3 POP SWAP3 JUMP JUMPDEST PUSH1 0x0 DUP1 PUSH1 0x40 DUP4 DUP6 SUB SLT ISZERO PUSH2 0x2A9D JUMPI PUSH2 0x2A9C PUSH2 0x33CD JUMP JUMPDEST JUMPDEST PUSH1 0x0 PUSH2 0x2AAB DUP6 DUP3 DUP7 ADD PUSH2 0x299C JUMP JUMPDEST SWAP3 POP POP PUSH1 0x20 PUSH2 0x2ABC DUP6 DUP3 DUP7 ADD PUSH2 0x29B1 JUMP JUMPDEST SWAP2 POP POP SWAP3 POP SWAP3 SWAP1 POP JUMP JUMPDEST PUSH1 0x0 PUSH1 0x20 DUP3 DUP5 SUB SLT ISZERO PUSH2 0x2ADC JUMPI PUSH2 0x2ADB PUSH2 0x33CD JUMP JUMPDEST JUMPDEST PUSH1 0x0 PUSH2 0x2AEA DUP5 DUP3 DUP6 ADD PUSH2 0x29B1 JUMP JUMPDEST SWAP2 POP POP SWAP3 SWAP2 POP POP JUMP JUMPDEST PUSH2 0x2AFC DUP2 PUSH2 0x3228 JUMP JUMPDEST DUP3 MSTORE POP POP JUMP JUMPDEST PUSH2 0x2B0B DUP2 PUSH2 0x323A JUMP JUMPDEST DUP3 MSTORE POP POP JUMP JUMPDEST PUSH1 0x0 PUSH2 0x2B1C DUP3 PUSH2 0x2F86 JUMP JUMPDEST PUSH2 0x2B26 DUP2 DUP6 PUSH2 0x2F91 JUMP JUMPDEST SWAP4 POP PUSH2 0x2B36 DUP2 DUP6 PUSH1 0x20 DUP7 ADD PUSH2 0x327D JUMP JUMPDEST PUSH2 0x2B3F DUP2 PUSH2 0x33D2 JUMP JUMPDEST DUP5 ADD SWAP2 POP POP SWAP3 SWAP2 POP POP JUMP JUMPDEST PUSH1 0x0 PUSH2 0x2B57 PUSH1 0x23 DUP4 PUSH2 0x2F91 JUMP JUMPDEST SWAP2 POP PUSH2 0x2B62 DUP3 PUSH2 0x33F0 JUMP JUMPDEST PUSH1 0x40 DUP3 ADD SWAP1 POP SWAP2 SWAP1 POP JUMP JUMPDEST PUSH1 0x0 PUSH2 0x2B7A PUSH1 0x22 DUP4 PUSH2 0x2F91 JUMP JUMPDEST SWAP2 POP PUSH2 0x2B85 DUP3 PUSH2 0x343F JUMP JUMPDEST PUSH1 0x40 DUP3 ADD SWAP1 POP SWAP2 SWAP1 POP JUMP JUMPDEST PUSH1 0x0 PUSH2 0x2B9D PUSH1 0x26 DUP4 PUSH2 0x2F91 JUMP JUMPDEST SWAP2 POP PUSH2 0x2BA8 DUP3 PUSH2 0x348E JUMP JUMPDEST PUSH1 0x40 DUP3 ADD SWAP1 POP SWAP2 SWAP1 POP JUMP JUMPDEST PUSH1 0x0 PUSH2 0x2BC0 PUSH1 0x22 DUP4 PUSH2 0x2F91 JUMP JUMPDEST SWAP2 POP PUSH2 0x2BCB DUP3 PUSH2 0x34DD JUMP JUMPDEST PUSH1 0x40 DUP3 ADD SWAP1 POP SWAP2 SWAP1 POP JUMP JUMPDEST PUSH1 0x0 PUSH2 0x2BE3 PUSH1 0x1D DUP4 PUSH2 0x2F91 JUMP JUMPDEST SWAP2 POP PUSH2 0x2BEE DUP3 PUSH2 0x352C JUMP JUMPDEST PUSH1 0x20 DUP3 ADD SWAP1 POP SWAP2 SWAP1 POP JUMP JUMPDEST PUSH1 0x0 PUSH2 0x2C06 PUSH1 0x26 DUP4 PUSH2 0x2F91 JUMP JUMPDEST SWAP2 POP PUSH2 0x2C11 DUP3 PUSH2 0x3555 JUMP JUMPDEST PUSH1 0x40 DUP3 ADD SWAP1 POP SWAP2 SWAP1 POP JUMP JUMPDEST PUSH1 0x0 PUSH2 0x2C29 PUSH1 0x20 DUP4 PUSH2 0x2F91 JUMP JUMPDEST SWAP2 POP PUSH2 0x2C34 DUP3 PUSH2 0x35A4 JUMP JUMPDEST PUSH1 0x20 DUP3 ADD SWAP1 POP SWAP2 SWAP1 POP JUMP JUMPDEST PUSH1 0x0 PUSH2 0x2C4C PUSH1 0x21 DUP4 PUSH2 0x2F91 JUMP JUMPDEST SWAP2 POP PUSH2 0x2C57 DUP3 PUSH2 0x35CD JUMP JUMPDEST PUSH1 0x40 DUP3 ADD SWAP1 POP SWAP2 SWAP1 POP JUMP JUMPDEST PUSH1 0x0 PUSH2 0x2C6F PUSH1 0x25 DUP4 PUSH2 0x2F91 JUMP JUMPDEST SWAP2 POP PUSH2 0x2C7A DUP3 PUSH2 0x361C JUMP JUMPDEST PUSH1 0x40 DUP3 ADD SWAP1 POP SWAP2 SWAP1 POP JUMP JUMPDEST PUSH1 0x0 PUSH2 0x2C92 PUSH1 0x24 DUP4 PUSH2 0x2F91 JUMP JUMPDEST SWAP2 POP PUSH2 0x2C9D DUP3 PUSH2 0x366B JUMP JUMPDEST PUSH1 0x40 DUP3 ADD SWAP1 POP SWAP2 SWAP1 POP JUMP JUMPDEST PUSH1 0x0 PUSH2 0x2CB5 PUSH1 0x1F DUP4 PUSH2 0x2F91 JUMP JUMPDEST SWAP2 POP PUSH2 0x2CC0 DUP3 PUSH2 0x36BA JUMP JUMPDEST PUSH1 0x20 DUP3 ADD SWAP1 POP SWAP2 SWAP1 POP JUMP JUMPDEST PUSH1 0x0 PUSH2 0x2CD8 PUSH1 0x25 DUP4 PUSH2 0x2F91 JUMP JUMPDEST SWAP2 POP PUSH2 0x2CE3 DUP3 PUSH2 0x36E3 JUMP JUMPDEST PUSH1 0x40 DUP3 ADD SWAP1 POP SWAP2 SWAP1 POP JUMP JUMPDEST PUSH1 0x0 PUSH2 0x2CFB PUSH1 0x1F DUP4 PUSH2 0x2F91 JUMP JUMPDEST SWAP2 POP PUSH2 0x2D06 DUP3 PUSH2 0x3732 JUMP JUMPDEST PUSH1 0x20 DUP3 ADD SWAP1 POP SWAP2 SWAP1 POP JUMP JUMPDEST PUSH2 0x2D1A DUP2 PUSH2 0x3266 JUMP JUMPDEST DUP3 MSTORE POP POP JUMP JUMPDEST PUSH2 0x2D29 DUP2 PUSH2 0x3270 JUMP JUMPDEST DUP3 MSTORE POP POP JUMP JUMPDEST PUSH1 0x0 PUSH1 0x20 DUP3 ADD SWAP1 POP PUSH2 0x2D44 PUSH1 0x0 DUP4 ADD DUP5 PUSH2 0x2AF3 JUMP JUMPDEST SWAP3 SWAP2 POP POP JUMP JUMPDEST PUSH1 0x0 PUSH1 0x20 DUP3 ADD SWAP1 POP PUSH2 0x2D5F PUSH1 0x0 DUP4 ADD DUP5 PUSH2 0x2B02 JUMP JUMPDEST SWAP3 SWAP2 POP POP JUMP JUMPDEST PUSH1 0x0 PUSH1 0x40 DUP3 ADD SWAP1 POP PUSH2 0x2D7A PUSH1 0x0 DUP4 ADD DUP6 PUSH2 0x2B02 JUMP JUMPDEST PUSH2 0x2D87 PUSH1 0x20 DUP4 ADD DUP5 PUSH2 0x2D11 JUMP JUMPDEST SWAP4 SWAP3 POP POP POP JUMP JUMPDEST PUSH1 0x0 PUSH1 0x20 DUP3 ADD SWAP1 POP DUP2 DUP2 SUB PUSH1 0x0 DUP4 ADD MSTORE PUSH2 0x2DA8 DUP2 DUP5 PUSH2 0x2B11 JUMP JUMPDEST SWAP1 POP SWAP3 SWAP2 POP POP JUMP JUMPDEST PUSH1 0x0 PUSH1 0x20 DUP3 ADD SWAP1 POP DUP2 DUP2 SUB PUSH1 0x0 DUP4 ADD MSTORE PUSH2 0x2DC9 DUP2 PUSH2 0x2B4A JUMP JUMPDEST SWAP1 POP SWAP2 SWAP1 POP JUMP JUMPDEST PUSH1 0x0 PUSH1 0x20 DUP3 ADD SWAP1 POP DUP2 DUP2 SUB PUSH1 0x0 DUP4 ADD MSTORE PUSH2 0x2DE9 DUP2 PUSH2 0x2B6D JUMP JUMPDEST SWAP1 POP SWAP2 SWAP1 POP JUMP JUMPDEST PUSH1 0x0 PUSH1 0x20 DUP3 ADD SWAP1 POP DUP2 DUP2 SUB PUSH1 0x0 DUP4 ADD MSTORE PUSH2 0x2E09 DUP2 PUSH2 0x2B90 JUMP JUMPDEST SWAP1 POP SWAP2 SWAP1 POP JUMP JUMPDEST PUSH1 0x0 PUSH1 0x20 DUP3 ADD SWAP1 POP DUP2 DUP2 SUB PUSH1 0x0 DUP4 ADD MSTORE PUSH2 0x2E29 DUP2 PUSH2 0x2BB3 JUMP JUMPDEST SWAP1 POP SWAP2 SWAP1 POP JUMP JUMPDEST PUSH1 0x0 PUSH1 0x20 DUP3 ADD SWAP1 POP DUP2 DUP2 SUB PUSH1 0x0 DUP4 ADD MSTORE PUSH2 0x2E49 DUP2 PUSH2 0x2BD6 JUMP JUMPDEST SWAP1 POP SWAP2 SWAP1 POP JUMP JUMPDEST PUSH1 0x0 PUSH1 0x20 DUP3 ADD SWAP1 POP DUP2 DUP2 SUB PUSH1 0x0 DUP4 ADD MSTORE PUSH2 0x2E69 DUP2 PUSH2 0x2BF9 JUMP JUMPDEST SWAP1 POP SWAP2 SWAP1 POP JUMP JUMPDEST PUSH1 0x0 PUSH1 0x20 DUP3 ADD SWAP1 POP DUP2 DUP2 SUB PUSH1 0x0 DUP4 ADD MSTORE PUSH2 0x2E89 DUP2 PUSH2 0x2C1C JUMP JUMPDEST SWAP1 POP SWAP2 SWAP1 POP JUMP JUMPDEST PUSH1 0x0 PUSH1 0x20 DUP3 ADD SWAP1 POP DUP2 DUP2 SUB PUSH1 0x0 DUP4 ADD MSTORE PUSH2 0x2EA9 DUP2 PUSH2 0x2C3F JUMP JUMPDEST SWAP1 POP SWAP2 SWAP1 POP JUMP JUMPDEST PUSH1 0x0 PUSH1 0x20 DUP3 ADD SWAP1 POP DUP2 DUP2 SUB PUSH1 0x0 DUP4 ADD MSTORE PUSH2 0x2EC9 DUP2 PUSH2 0x2C62 JUMP JUMPDEST SWAP1 POP SWAP2 SWAP1 POP JUMP JUMPDEST PUSH1 0x0 PUSH1 0x20 DUP3 ADD SWAP1 POP DUP2 DUP2 SUB PUSH1 0x0 DUP4 ADD MSTORE PUSH2 0x2EE9 DUP2 PUSH2 0x2C85 JUMP JUMPDEST SWAP1 POP SWAP2 SWAP1 POP JUMP JUMPDEST PUSH1 0x0 PUSH1 0x20 DUP3 ADD SWAP1 POP DUP2 DUP2 SUB PUSH1 0x0 DUP4 ADD MSTORE PUSH2 0x2F09 DUP2 PUSH2 0x2CA8 JUMP JUMPDEST SWAP1 POP SWAP2 SWAP1 POP JUMP JUMPDEST PUSH1 0x0 PUSH1 0x20 DUP3 ADD SWAP1 POP DUP2 DUP2 SUB PUSH1 0x0 DUP4 ADD MSTORE PUSH2 0x2F29 DUP2 PUSH2 0x2CCB JUMP JUMPDEST SWAP1 POP SWAP2 SWAP1 POP JUMP JUMPDEST PUSH1 0x0 PUSH1 0x20 DUP3 ADD SWAP1 POP DUP2 DUP2 SUB PUSH1 0x0 DUP4 ADD MSTORE PUSH2 0x2F49 DUP2 PUSH2 0x2CEE JUMP JUMPDEST SWAP1 POP SWAP2 SWAP1 POP JUMP JUMPDEST PUSH1 0x0 PUSH1 0x20 DUP3 ADD SWAP1 POP PUSH2 0x2F65 PUSH1 0x0 DUP4 ADD DUP5 PUSH2 0x2D11 JUMP JUMPDEST SWAP3 SWAP2 POP POP JUMP JUMPDEST PUSH1 0x0 PUSH1 0x20 DUP3 ADD SWAP1 POP PUSH2 0x2F80 PUSH1 0x0 DUP4 ADD DUP5 PUSH2 0x2D20 JUMP JUMPDEST SWAP3 SWAP2 POP POP JUMP JUMPDEST PUSH1 0x0 DUP2 MLOAD SWAP1 POP SWAP2 SWAP1 POP JUMP JUMPDEST PUSH1 0x0 DUP3 DUP3 MSTORE PUSH1 0x20 DUP3 ADD SWAP1 POP SWAP3 SWAP2 POP POP JUMP JUMPDEST PUSH1 0x0 PUSH2 0x2FAD DUP3 PUSH2 0x3266 JUMP JUMPDEST SWAP2 POP PUSH2 0x2FB8 DUP4 PUSH2 0x3266 JUMP JUMPDEST SWAP3 POP DUP3 PUSH32 0xFFFFFFFFFFFFFFFFFFFFFFFFFFFFFFFFFFFFFFFFFFFFFFFFFFFFFFFFFFFFFFFF SUB DUP3 GT ISZERO PUSH2 0x2FED JUMPI PUSH2 0x2FEC PUSH2 0x32E2 JUMP JUMPDEST JUMPDEST DUP3 DUP3 ADD SWAP1 POP SWAP3 SWAP2 POP POP JUMP JUMPDEST PUSH1 0x0 PUSH2 0x3003 DUP3 PUSH2 0x3266 JUMP JUMPDEST SWAP2 POP PUSH2 0x300E DUP4 PUSH2 0x3266 JUMP JUMPDEST SWAP3 POP DUP3 PUSH2 0x301E JUMPI PUSH2 0x301D PUSH2 0x3311 JUMP JUMPDEST JUMPDEST DUP3 DUP3 DIV SWAP1 POP SWAP3 SWAP2 POP POP JUMP JUMPDEST PUSH1 0x0 DUP1 DUP3 SWAP2 POP DUP4 SWAP1 POP JUMPDEST PUSH1 0x1 DUP6 GT ISZERO PUSH2 0x3073 JUMPI DUP1 DUP7 DIV DUP2 GT ISZERO PUSH2 0x304F JUMPI PUSH2 0x304E PUSH2 0x32E2 JUMP JUMPDEST JUMPDEST PUSH1 0x1 DUP6 AND ISZERO PUSH2 0x305E JUMPI DUP1 DUP3 MUL SWAP2 POP JUMPDEST DUP1 DUP2 MUL SWAP1 POP PUSH2 0x306C DUP6 PUSH2 0x33E3 JUMP JUMPDEST SWAP5 POP PUSH2 0x3033 JUMP JUMPDEST SWAP5 POP SWAP5 SWAP3 POP POP POP JUMP JUMPDEST PUSH1 0x0 PUSH2 0x3087 DUP3 PUSH2 0x3266 JUMP JUMPDEST SWAP2 POP PUSH2 0x3092 DUP4 PUSH2 0x3270 JUMP JUMPDEST SWAP3 POP PUSH2 0x30BF PUSH32 0xFFFFFFFFFFFFFFFFFFFFFFFFFFFFFFFFFFFFFFFFFFFFFFFFFFFFFFFFFFFFFFFF DUP5 DUP5 PUSH2 0x30C7 JUMP JUMPDEST SWAP1 POP SWAP3 SWAP2 POP POP JUMP JUMPDEST PUSH1 0x0 DUP3 PUSH2 0x30D7 JUMPI PUSH1 0x1 SWAP1 POP PUSH2 0x3193 JUMP JUMPDEST DUP2 PUSH2 0x30E5 JUMPI PUSH1 0x0 SWAP1 POP PUSH2 0x3193 JUMP JUMPDEST DUP2 PUSH1 0x1 DUP2 EQ PUSH2 0x30FB JUMPI PUSH1 0x2 DUP2 EQ PUSH2 0x3105 JUMPI PUSH2 0x3134 JUMP JUMPDEST PUSH1 0x1 SWAP2 POP POP PUSH2 0x3193 JUMP JUMPDEST PUSH1 0xFF DUP5 GT ISZERO PUSH2 0x3117 JUMPI PUSH2 0x3116 PUSH2 0x32E2 JUMP JUMPDEST JUMPDEST DUP4 PUSH1 0x2 EXP SWAP2 POP DUP5 DUP3 GT ISZERO PUSH2 0x312E JUMPI PUSH2 0x312D PUSH2 0x32E2 JUMP JUMPDEST JUMPDEST POP PUSH2 0x3193 JUMP JUMPDEST POP PUSH1 0x20 DUP4 LT PUSH2 0x133 DUP4 LT AND PUSH1 0x4E DUP5 LT PUSH1 0xB DUP5 LT AND OR ISZERO PUSH2 0x3169 JUMPI DUP3 DUP3 EXP SWAP1 POP DUP4 DUP2 GT ISZERO PUSH2 0x3164 JUMPI PUSH2 0x3163 PUSH2 0x32E2 JUMP JUMPDEST JUMPDEST PUSH2 0x3193 JUMP JUMPDEST PUSH2 0x3176 DUP5 DUP5 DUP5 PUSH1 0x1 PUSH2 0x3029 JUMP JUMPDEST SWAP3 POP SWAP1 POP DUP2 DUP5 DIV DUP2 GT ISZERO PUSH2 0x318D JUMPI PUSH2 0x318C PUSH2 0x32E2 JUMP JUMPDEST JUMPDEST DUP2 DUP2 MUL SWAP1 POP JUMPDEST SWAP4 SWAP3 POP POP POP JUMP JUMPDEST PUSH1 0x0 PUSH2 0x31A5 DUP3 PUSH2 0x3266 JUMP JUMPDEST SWAP2 POP PUSH2 0x31B0 DUP4 PUSH2 0x3266 JUMP JUMPDEST SWAP3 POP DUP2 PUSH32 0xFFFFFFFFFFFFFFFFFFFFFFFFFFFFFFFFFFFFFFFFFFFFFFFFFFFFFFFFFFFFFFFF DIV DUP4 GT DUP3 ISZERO ISZERO AND ISZERO PUSH2 0x31E9 JUMPI PUSH2 0x31E8 PUSH2 0x32E2 JUMP JUMPDEST JUMPDEST DUP3 DUP3 MUL SWAP1 POP SWAP3 SWAP2 POP POP JUMP JUMPDEST PUSH1 0x0 PUSH2 0x31FF DUP3 PUSH2 0x3266 JUMP JUMPDEST SWAP2 POP PUSH2 0x320A DUP4 PUSH2 0x3266 JUMP JUMPDEST SWAP3 POP DUP3 DUP3 LT ISZERO PUSH2 0x321D JUMPI PUSH2 0x321C PUSH2 0x32E2 JUMP JUMPDEST JUMPDEST DUP3 DUP3 SUB SWAP1 POP SWAP3 SWAP2 POP POP JUMP JUMPDEST PUSH1 0x0 PUSH2 0x3233 DUP3 PUSH2 0x3246 JUMP JUMPDEST SWAP1 POP SWAP2 SWAP1 POP JUMP JUMPDEST PUSH1 0x0 DUP2 ISZERO ISZERO SWAP1 POP SWAP2 SWAP1 POP JUMP JUMPDEST PUSH1 0x0 PUSH20 0xFFFFFFFFFFFFFFFFFFFFFFFFFFFFFFFFFFFFFFFF DUP3 AND SWAP1 POP SWAP2 SWAP1 POP JUMP JUMPDEST PUSH1 0x0 DUP2 SWAP1 POP SWAP2 SWAP1 POP JUMP JUMPDEST PUSH1 0x0 PUSH1 0xFF DUP3 AND SWAP1 POP SWAP2 SWAP1 POP JUMP JUMPDEST PUSH1 0x0 JUMPDEST DUP4 DUP2 LT ISZERO PUSH2 0x329B JUMPI DUP1 DUP3 ADD MLOAD DUP2 DUP5 ADD MSTORE PUSH1 0x20 DUP2 ADD SWAP1 POP PUSH2 0x3280 JUMP JUMPDEST DUP4 DUP2 GT ISZERO PUSH2 0x32AA JUMPI PUSH1 0x0 DUP5 DUP5 ADD MSTORE JUMPDEST POP POP POP POP JUMP JUMPDEST PUSH1 0x0 PUSH1 0x2 DUP3 DIV SWAP1 POP PUSH1 0x1 DUP3 AND DUP1 PUSH2 0x32C8 JUMPI PUSH1 0x7F DUP3 AND SWAP2 POP JUMPDEST PUSH1 0x20 DUP3 LT DUP2 EQ ISZERO PUSH2 0x32DC JUMPI PUSH2 0x32DB PUSH2 0x3340 JUMP JUMPDEST JUMPDEST POP SWAP2 SWAP1 POP JUMP JUMPDEST PUSH32 0x4E487B7100000000000000000000000000000000000000000000000000000000 PUSH1 0x0 MSTORE PUSH1 0x11 PUSH1 0x4 MSTORE PUSH1 0x24 PUSH1 0x0 REVERT JUMPDEST PUSH32 0x4E487B7100000000000000000000000000000000000000000000000000000000 PUSH1 0x0 MSTORE PUSH1 0x12 PUSH1 0x4 MSTORE PUSH1 0x24 PUSH1 0x0 REVERT JUMPDEST PUSH32 0x4E487B7100000000000000000000000000000000000000000000000000000000 PUSH1 0x0 MSTORE PUSH1 0x22 PUSH1 0x4 MSTORE PUSH1 0x24 PUSH1 0x0 REVERT JUMPDEST PUSH32 0x4E487B7100000000000000000000000000000000000000000000000000000000 PUSH1 0x0 MSTORE PUSH1 0x31 PUSH1 0x4 MSTORE PUSH1 0x24 PUSH1 0x0 REVERT JUMPDEST PUSH32 0x4E487B7100000000000000000000000000000000000000000000000000000000 PUSH1 0x0 MSTORE PUSH1 0x32 PUSH1 0x4 MSTORE PUSH1 0x24 PUSH1 0x0 REVERT JUMPDEST PUSH1 0x0 DUP1 REVERT JUMPDEST PUSH1 0x0 PUSH1 0x1F NOT PUSH1 0x1F DUP4 ADD AND SWAP1 POP SWAP2 SWAP1 POP JUMP JUMPDEST PUSH1 0x0 DUP2 PUSH1 0x1 SHR SWAP1 POP SWAP2 SWAP1 POP JUMP JUMPDEST PUSH32 0x45524332303A207472616E7366657220746F20746865207A65726F2061646472 PUSH1 0x0 DUP3 ADD MSTORE PUSH32 0x6573730000000000000000000000000000000000000000000000000000000000 PUSH1 0x20 DUP3 ADD MSTORE POP JUMP JUMPDEST PUSH32 0x45524332303A206275726E20616D6F756E7420657863656564732062616C616E PUSH1 0x0 DUP3 ADD MSTORE PUSH32 0x6365000000000000000000000000000000000000000000000000000000000000 PUSH1 0x20 DUP3 ADD MSTORE POP JUMP JUMPDEST PUSH32 0x4F776E61626C653A206E6577206F776E657220697320746865207A65726F2061 PUSH1 0x0 DUP3 ADD MSTORE PUSH32 0x6464726573730000000000000000000000000000000000000000000000000000 PUSH1 0x20 DUP3 ADD MSTORE POP JUMP JUMPDEST PUSH32 0x45524332303A20617070726F766520746F20746865207A65726F206164647265 PUSH1 0x0 DUP3 ADD MSTORE PUSH32 0x7373000000000000000000000000000000000000000000000000000000000000 PUSH1 0x20 DUP3 ADD MSTORE POP JUMP JUMPDEST PUSH32 0x45524332303A20696E73756666696369656E7420616C6C6F77616E6365000000 PUSH1 0x0 DUP3 ADD MSTORE POP JUMP JUMPDEST PUSH32 0x45524332303A207472616E7366657220616D6F756E7420657863656564732062 PUSH1 0x0 DUP3 ADD MSTORE PUSH32 0x616C616E63650000000000000000000000000000000000000000000000000000 PUSH1 0x20 DUP3 ADD MSTORE POP JUMP JUMPDEST PUSH32 0x4F776E61626C653A2063616C6C6572206973206E6F7420746865206F776E6572 PUSH1 0x0 DUP3 ADD MSTORE POP JUMP JUMPDEST PUSH32 0x45524332303A206275726E2066726F6D20746865207A65726F20616464726573 PUSH1 0x0 DUP3 ADD MSTORE PUSH32 0x7300000000000000000000000000000000000000000000000000000000000000 PUSH1 0x20 DUP3 ADD MSTORE POP JUMP JUMPDEST PUSH32 0x45524332303A207472616E736665722066726F6D20746865207A65726F206164 PUSH1 0x0 DUP3 ADD MSTORE PUSH32 0x6472657373000000000000000000000000000000000000000000000000000000 PUSH1 0x20 DUP3 ADD MSTORE POP JUMP JUMPDEST PUSH32 0x45524332303A20617070726F76652066726F6D20746865207A65726F20616464 PUSH1 0x0 DUP3 ADD MSTORE PUSH32 0x7265737300000000000000000000000000000000000000000000000000000000 PUSH1 0x20 DUP3 ADD MSTORE POP JUMP JUMPDEST PUSH32 0x5265656E7472616E637947756172643A207265656E7472616E742063616C6C00 PUSH1 0x0 DUP3 ADD MSTORE POP JUMP JUMPDEST PUSH32 0x45524332303A2064656372656173656420616C6C6F77616E63652062656C6F77 PUSH1 0x0 DUP3 ADD MSTORE PUSH32 0x207A65726F000000000000000000000000000000000000000000000000000000 PUSH1 0x20 DUP3 ADD MSTORE POP JUMP JUMPDEST PUSH32 0x45524332303A206D696E7420746F20746865207A65726F206164647265737300 PUSH1 0x0 DUP3 ADD MSTORE POP JUMP JUMPDEST PUSH2 0x3764 DUP2 PUSH2 0x3228 JUMP JUMPDEST DUP2 EQ PUSH2 0x376F JUMPI PUSH1 0x0 DUP1 REVERT JUMPDEST POP JUMP JUMPDEST PUSH2 0x377B DUP2 PUSH2 0x3266 JUMP JUMPDEST DUP2 EQ PUSH2 0x3786 JUMPI PUSH1 0x0 DUP1 REVERT JUMPDEST POP JUMP INVALID LOG2 PUSH5 0x6970667358 0x22 SLT KECCAK256 0xD2 0xE4 SUB 0x5F LOG4 0x1E 0xAE MSIZE 0xAD 0xD7 MOD SWAP10 0xA8 EQ 0xCB PUSH23 0xC2427E193F9F522625AD625A19C8093D64736F6C634300 ADDMOD SMOD STOP CALLER "
				},
				"gasEstimates": {
					"creation": {
						"codeDepositCost": "2854200",
						"executionCost": "infinite",
						"totalCost": "infinite"
					},
					"external": {
						"addStakeholder(address)": "infinite",
						"allowance(address,address)": "infinite",
						"approve(address,uint256)": "infinite",
						"balanceOf(address)": "2886",
						"buyToken(address)": "infinite",
						"calculateReward(address)": "infinite",
						"createStake(uint256)": "infinite",
						"decimals()": "455",
						"decreaseAllowance(address,uint256)": "infinite",
						"distributeRewards()": "infinite",
						"earned(address)": "infinite",
						"exit()": "infinite",
						"getReward()": "infinite",
						"increaseAllowance(address,uint256)": "infinite",
						"isStakeholder(address)": "infinite",
						"lastTimeRewardApplicable()": "4703",
						"lastUpdateTime()": "2474",
						"modifyTokenBuyPrice(uint256)": "infinite",
						"name()": "infinite",
						"owner()": "2612",
						"periodFinish()": "2539",
						"removeStake(uint256)": "infinite",
						"removeStakeholder(address)": "infinite",
						"renounceOwnership()": "30441",
						"rewardOf(address)": "2909",
						"rewardPerToken()": "infinite",
						"rewardPerTokenStored()": "2473",
						"rewardRate()": "2518",
						"rewardsDuration()": "2563",
						"stakeOf(address)": "2931",
						"stakingBase()": "infinite",
						"symbol()": "infinite",
						"tokensPerEth()": "2496",
						"totalRewards()": "infinite",
						"totalStakes()": "infinite",
						"totalSupply()": "2572",
						"transfer(address,uint256)": "infinite",
						"transferFrom(address,address,uint256)": "infinite",
						"transferOwnership(address)": "30877",
						"userRewardPerTokenPaid(address)": "2882",
						"withdrawReward()": "infinite"
					}
				},
				"methodIdentifiers": {
					"addStakeholder(address)": "e5c42fd1",
					"allowance(address,address)": "dd62ed3e",
					"approve(address,uint256)": "095ea7b3",
					"balanceOf(address)": "70a08231",
					"buyToken(address)": "7e72fb52",
					"calculateReward(address)": "d82e3962",
					"createStake(uint256)": "1bf6ddae",
					"decimals()": "313ce567",
					"decreaseAllowance(address,uint256)": "a457c2d7",
					"distributeRewards()": "6f4a2cd0",
					"earned(address)": "008cc262",
					"exit()": "e9fad8ee",
					"getReward()": "3d18b912",
					"increaseAllowance(address,uint256)": "39509351",
					"isStakeholder(address)": "ef037b90",
					"lastTimeRewardApplicable()": "80faa57d",
					"lastUpdateTime()": "c8f33c91",
					"modifyTokenBuyPrice(uint256)": "834dc984",
					"name()": "06fdde03",
					"owner()": "8da5cb5b",
					"periodFinish()": "ebe2b12b",
					"removeStake(uint256)": "939624ab",
					"removeStakeholder(address)": "bcb0c2d7",
					"renounceOwnership()": "715018a6",
					"rewardOf(address)": "1d62ebd9",
					"rewardPerToken()": "cd3daf9d",
					"rewardPerTokenStored()": "df136d65",
					"rewardRate()": "7b0a47ee",
					"rewardsDuration()": "386a9525",
					"stakeOf(address)": "42623360",
					"stakingBase()": "6041c34f",
					"symbol()": "95d89b41",
					"tokensPerEth()": "cbdd69b5",
					"totalRewards()": "0e15561a",
					"totalStakes()": "bf9befb1",
					"totalSupply()": "18160ddd",
					"transfer(address,uint256)": "a9059cbb",
					"transferFrom(address,address,uint256)": "23b872dd",
					"transferOwnership(address)": "f2fde38b",
					"userRewardPerTokenPaid(address)": "8b876347",
					"withdrawReward()": "c885bc58"
				}
			},
			"userdoc": {
				"kind": "user",
				"methods": {},
				"version": 1
			}
		}
	}
}