{
	"contracts/StakingPool.sol": {
		"StakingPool": {
			"abi": [
				{
					"inputs": [],
					"stateMutability": "nonpayable",
					"type": "constructor"
				},
				{
					"anonymous": false,
					"inputs": [
						{
							"indexed": false,
							"internalType": "address",
							"name": "investor",
							"type": "address"
						}
					],
					"name": "NewInvestor",
					"type": "event"
				},
				{
					"inputs": [],
					"name": "admin",
					"outputs": [
						{
							"internalType": "address",
							"name": "",
							"type": "address"
						}
					],
					"stateMutability": "view",
					"type": "function"
				},
				{
					"inputs": [
						{
							"internalType": "address",
							"name": "",
							"type": "address"
						}
					],
					"name": "balances",
					"outputs": [
						{
							"internalType": "uint256",
							"name": "",
							"type": "uint256"
						}
					],
					"stateMutability": "view",
					"type": "function"
				},
				{
					"inputs": [
						{
							"internalType": "address",
							"name": "",
							"type": "address"
						}
					],
					"name": "changeClaimed",
					"outputs": [
						{
							"internalType": "bool",
							"name": "",
							"type": "bool"
						}
					],
					"stateMutability": "view",
					"type": "function"
				},
				{
					"inputs": [],
					"name": "end",
					"outputs": [
						{
							"internalType": "uint256",
							"name": "",
							"type": "uint256"
						}
					],
					"stateMutability": "view",
					"type": "function"
				},
				{
					"inputs": [],
					"name": "finalize",
					"outputs": [],
					"stateMutability": "nonpayable",
					"type": "function"
				},
				{
					"inputs": [],
					"name": "finalized",
					"outputs": [
						{
							"internalType": "bool",
							"name": "",
							"type": "bool"
						}
					],
					"stateMutability": "view",
					"type": "function"
				},
				{
					"inputs": [],
					"name": "invest",
					"outputs": [],
					"stateMutability": "payable",
					"type": "function"
				},
				{
					"inputs": [],
					"name": "totalChange",
					"outputs": [
						{
							"internalType": "uint256",
							"name": "",
							"type": "uint256"
						}
					],
					"stateMutability": "view",
					"type": "function"
				},
				{
					"inputs": [],
					"name": "totalInvested",
					"outputs": [
						{
							"internalType": "uint256",
							"name": "",
							"type": "uint256"
						}
					],
					"stateMutability": "view",
					"type": "function"
				}
			],
			"devdoc": {
				"kind": "dev",
				"methods": {},
				"version": 1
			},
			"evm": {
				"assembly": "    /* \"contracts/StakingPool.sol\":74:1055  contract StakingPool{\r... */\n  mstore(0x40, 0x80)\n    /* \"contracts/StakingPool.sol\":423:515  constructor(){\r... */\n  callvalue\n  dup1\n  iszero\n  tag_1\n  jumpi\n  0x00\n  dup1\n  revert\ntag_1:\n  pop\n    /* \"contracts/StakingPool.sol\":455:465  msg.sender */\n  caller\n    /* \"contracts/StakingPool.sol\":447:452  admin */\n  0x01\n  0x00\n    /* \"contracts/StakingPool.sol\":447:465  admin = msg.sender */\n  0x0100\n  exp\n  dup2\n  sload\n  dup2\n  0xffffffffffffffffffffffffffffffffffffffff\n  mul\n  not\n  and\n  swap1\n  dup4\n  0xffffffffffffffffffffffffffffffffffffffff\n  and\n  mul\n  or\n  swap1\n  sstore\n  pop\n    /* \"contracts/StakingPool.sol\":501:507  7 days */\n  0x093a80\n    /* \"contracts/StakingPool.sol\":483:498  block.timestamp */\n  timestamp\n    /* \"contracts/StakingPool.sol\":483:507  block.timestamp + 7 days */\n  tag_4\n  swap2\n  swap1\n  tag_5\n  jump\t// in\ntag_4:\n    /* \"contracts/StakingPool.sol\":476:479  end */\n  0x02\n    /* \"contracts/StakingPool.sol\":476:507  end  = block.timestamp + 7 days */\n  dup2\n  swap1\n  sstore\n  pop\n    /* \"contracts/StakingPool.sol\":74:1055  contract StakingPool{\r... */\n  jump(tag_6)\n    /* \"#utility.yul\":7:312   */\ntag_5:\n    /* \"#utility.yul\":47:50   */\n  0x00\n    /* \"#utility.yul\":66:86   */\n  tag_9\n    /* \"#utility.yul\":84:85   */\n  dup3\n    /* \"#utility.yul\":66:86   */\n  tag_10\n  jump\t// in\ntag_9:\n    /* \"#utility.yul\":61:86   */\n  swap2\n  pop\n    /* \"#utility.yul\":100:120   */\n  tag_11\n    /* \"#utility.yul\":118:119   */\n  dup4\n    /* \"#utility.yul\":100:120   */\n  tag_10\n  jump\t// in\ntag_11:\n    /* \"#utility.yul\":95:120   */\n  swap3\n  pop\n    /* \"#utility.yul\":254:255   */\n  dup3\n    /* \"#utility.yul\":186:252   */\n  0xffffffffffffffffffffffffffffffffffffffffffffffffffffffffffffffff\n    /* \"#utility.yul\":182:256   */\n  sub\n    /* \"#utility.yul\":179:180   */\n  dup3\n    /* \"#utility.yul\":176:257   */\n  gt\n    /* \"#utility.yul\":173:280   */\n  iszero\n  tag_12\n  jumpi\n    /* \"#utility.yul\":260:278   */\n  tag_13\n  tag_14\n  jump\t// in\ntag_13:\n    /* \"#utility.yul\":173:280   */\ntag_12:\n    /* \"#utility.yul\":304:305   */\n  dup3\n    /* \"#utility.yul\":301:302   */\n  dup3\n    /* \"#utility.yul\":297:306   */\n  add\n    /* \"#utility.yul\":290:306   */\n  swap1\n  pop\n    /* \"#utility.yul\":7:312   */\n  swap3\n  swap2\n  pop\n  pop\n  jump\t// out\n    /* \"#utility.yul\":318:395   */\ntag_10:\n    /* \"#utility.yul\":355:362   */\n  0x00\n    /* \"#utility.yul\":384:389   */\n  dup2\n    /* \"#utility.yul\":373:389   */\n  swap1\n  pop\n    /* \"#utility.yul\":318:395   */\n  swap2\n  swap1\n  pop\n  jump\t// out\n    /* \"#utility.yul\":401:581   */\ntag_14:\n    /* \"#utility.yul\":449:526   */\n  0x4e487b7100000000000000000000000000000000000000000000000000000000\n    /* \"#utility.yul\":446:447   */\n  0x00\n    /* \"#utility.yul\":439:527   */\n  mstore\n    /* \"#utility.yul\":546:550   */\n  0x11\n    /* \"#utility.yul\":543:544   */\n  0x04\n    /* \"#utility.yul\":536:551   */\n  mstore\n    /* \"#utility.yul\":570:574   */\n  0x24\n    /* \"#utility.yul\":567:568   */\n  0x00\n    /* \"#utility.yul\":560:575   */\n  revert\n    /* \"contracts/StakingPool.sol\":74:1055  contract StakingPool{\r... */\ntag_6:\n  dataSize(sub_0)\n  dup1\n  dataOffset(sub_0)\n  0x00\n  codecopy\n  0x00\n  return\nstop\n\nsub_0: assembly {\n        /* \"contracts/StakingPool.sol\":74:1055  contract StakingPool{\r... */\n      mstore(0x40, 0x80)\n      jumpi(tag_1, lt(calldatasize, 0x04))\n      shr(0xe0, calldataload(0x00))\n      dup1\n      0x7aa8ff19\n      gt\n      tag_11\n      jumpi\n      dup1\n      0x7aa8ff19\n      eq\n      tag_6\n      jumpi\n      dup1\n      0xb3f05b97\n      eq\n      tag_7\n      jumpi\n      dup1\n      0xe8b5e51f\n      eq\n      tag_8\n      jumpi\n      dup1\n      0xefbe1c1c\n      eq\n      tag_9\n      jumpi\n      dup1\n      0xf851a440\n      eq\n      tag_10\n      jumpi\n      jump(tag_1)\n    tag_11:\n      dup1\n      0x27e235e3\n      eq\n      tag_2\n      jumpi\n      dup1\n      0x4bb278f3\n      eq\n      tag_3\n      jumpi\n      dup1\n      0x5216aeec\n      eq\n      tag_4\n      jumpi\n      dup1\n      0x5411c7bd\n      eq\n      tag_5\n      jumpi\n    tag_1:\n      0x00\n      dup1\n      revert\n        /* \"contracts/StakingPool.sol\":101:141  mapping(address => uint) public balances */\n    tag_2:\n      callvalue\n      dup1\n      iszero\n      tag_12\n      jumpi\n      0x00\n      dup1\n      revert\n    tag_12:\n      pop\n      tag_13\n      0x04\n      dup1\n      calldatasize\n      sub\n      dup2\n      add\n      swap1\n      tag_14\n      swap2\n      swap1\n      tag_15\n      jump\t// in\n    tag_14:\n      tag_16\n      jump\t// in\n    tag_13:\n      mload(0x40)\n      tag_17\n      swap2\n      swap1\n      tag_18\n      jump\t// in\n    tag_17:\n      mload(0x40)\n      dup1\n      swap2\n      sub\n      swap1\n      return\n        /* \"contracts/StakingPool.sol\":760:1042  function finalize() external{\r... */\n    tag_3:\n      callvalue\n      dup1\n      iszero\n      tag_19\n      jumpi\n      0x00\n      dup1\n      revert\n    tag_19:\n      pop\n      tag_20\n      tag_21\n      jump\t// in\n    tag_20:\n      stop\n        /* \"contracts/StakingPool.sol\":261:286  uint public totalInvested */\n    tag_4:\n      callvalue\n      dup1\n      iszero\n      tag_22\n      jumpi\n      0x00\n      dup1\n      revert\n    tag_22:\n      pop\n      tag_23\n      tag_24\n      jump\t// in\n    tag_23:\n      mload(0x40)\n      tag_25\n      swap2\n      swap1\n      tag_18\n      jump\t// in\n    tag_25:\n      mload(0x40)\n      dup1\n      swap2\n      sub\n      swap1\n      return\n        /* \"contracts/StakingPool.sol\":294:317  uint public totalChange */\n    tag_5:\n      callvalue\n      dup1\n      iszero\n      tag_26\n      jumpi\n      0x00\n      dup1\n      revert\n    tag_26:\n      pop\n      tag_27\n      tag_28\n      jump\t// in\n    tag_27:\n      mload(0x40)\n      tag_29\n      swap2\n      swap1\n      tag_18\n      jump\t// in\n    tag_29:\n      mload(0x40)\n      dup1\n      swap2\n      sub\n      swap1\n      return\n        /* \"contracts/StakingPool.sol\":325:370  mapping(address => bool) public changeClaimed */\n    tag_6:\n      callvalue\n      dup1\n      iszero\n      tag_30\n      jumpi\n      0x00\n      dup1\n      revert\n    tag_30:\n      pop\n      tag_31\n      0x04\n      dup1\n      calldatasize\n      sub\n      dup2\n      add\n      swap1\n      tag_32\n      swap2\n      swap1\n      tag_15\n      jump\t// in\n    tag_32:\n      tag_33\n      jump\t// in\n    tag_31:\n      mload(0x40)\n      tag_34\n      swap2\n      swap1\n      tag_35\n      jump\t// in\n    tag_34:\n      mload(0x40)\n      dup1\n      swap2\n      sub\n      swap1\n      return\n        /* \"contracts/StakingPool.sol\":232:253  bool public finalized */\n    tag_7:\n      callvalue\n      dup1\n      iszero\n      tag_36\n      jumpi\n      0x00\n      dup1\n      revert\n    tag_36:\n      pop\n      tag_37\n      tag_38\n      jump\t// in\n    tag_37:\n      mload(0x40)\n      tag_39\n      swap2\n      swap1\n      tag_35\n      jump\t// in\n    tag_39:\n      mload(0x40)\n      dup1\n      swap2\n      sub\n      swap1\n      return\n        /* \"contracts/StakingPool.sol\":523:752  function invest() external payable{\r... */\n    tag_8:\n      tag_40\n      tag_41\n      jump\t// in\n    tag_40:\n      stop\n        /* \"contracts/StakingPool.sol\":175:190  uint public end */\n    tag_9:\n      callvalue\n      dup1\n      iszero\n      tag_42\n      jumpi\n      0x00\n      dup1\n      revert\n    tag_42:\n      pop\n      tag_43\n      tag_44\n      jump\t// in\n    tag_43:\n      mload(0x40)\n      tag_45\n      swap2\n      swap1\n      tag_18\n      jump\t// in\n    tag_45:\n      mload(0x40)\n      dup1\n      swap2\n      sub\n      swap1\n      return\n        /* \"contracts/StakingPool.sol\":148:168  address public admin */\n    tag_10:\n      callvalue\n      dup1\n      iszero\n      tag_46\n      jumpi\n      0x00\n      dup1\n      revert\n    tag_46:\n      pop\n      tag_47\n      tag_48\n      jump\t// in\n    tag_47:\n      mload(0x40)\n      tag_49\n      swap2\n      swap1\n      tag_50\n      jump\t// in\n    tag_49:\n      mload(0x40)\n      dup1\n      swap2\n      sub\n      swap1\n      return\n        /* \"contracts/StakingPool.sol\":101:141  mapping(address => uint) public balances */\n    tag_16:\n      mstore(0x20, 0x00)\n      dup1\n      0x00\n      mstore\n      keccak256(0x00, 0x40)\n      0x00\n      swap2\n      pop\n      swap1\n      pop\n      sload\n      dup2\n      jump\t// out\n        /* \"contracts/StakingPool.sol\":760:1042  function finalize() external{\r... */\n    tag_21:\n        /* \"contracts/StakingPool.sol\":826:829  end */\n      sload(0x02)\n        /* \"contracts/StakingPool.sol\":807:822  block.timestamp */\n      timestamp\n        /* \"contracts/StakingPool.sol\":807:829  block.timestamp >= end */\n      lt\n      iszero\n        /* \"contracts/StakingPool.sol\":799:842  require(block.timestamp >= end,'too early') */\n      tag_52\n      jumpi\n      mload(0x40)\n      0x08c379a000000000000000000000000000000000000000000000000000000000\n      dup2\n      mstore\n      0x04\n      add\n      tag_53\n      swap1\n      tag_54\n      jump\t// in\n    tag_53:\n      mload(0x40)\n      dup1\n      swap2\n      sub\n      swap1\n      revert\n    tag_52:\n        /* \"contracts/StakingPool.sol\":874:879  false */\n      0x00\n        /* \"contracts/StakingPool.sol\":861:879  finalized == false */\n      iszero\n      iszero\n        /* \"contracts/StakingPool.sol\":861:870  finalized */\n      0x03\n      0x00\n      swap1\n      sload\n      swap1\n      0x0100\n      exp\n      swap1\n      div\n      0xff\n      and\n        /* \"contracts/StakingPool.sol\":861:879  finalized == false */\n      iszero\n      iszero\n      eq\n        /* \"contracts/StakingPool.sol\":853:900  require(finalized == false,'already finalized') */\n      tag_55\n      jumpi\n      mload(0x40)\n      0x08c379a000000000000000000000000000000000000000000000000000000000\n      dup2\n      mstore\n      0x04\n      add\n      tag_56\n      swap1\n      tag_57\n      jump\t// in\n    tag_56:\n      mload(0x40)\n      dup1\n      swap2\n      sub\n      swap1\n      revert\n    tag_55:\n        /* \"contracts/StakingPool.sol\":923:927  true */\n      0x01\n        /* \"contracts/StakingPool.sol\":911:920  finalized */\n      0x03\n      0x00\n        /* \"contracts/StakingPool.sol\":911:927  finalized = true */\n      0x0100\n      exp\n      dup2\n      sload\n      dup2\n      0xff\n      mul\n      not\n      and\n      swap1\n      dup4\n      iszero\n      iszero\n      mul\n      or\n      swap1\n      sstore\n      pop\n        /* \"contracts/StakingPool.sol\":954:975  address(this).balance */\n      selfbalance\n        /* \"contracts/StakingPool.sol\":938:951  totalInvested */\n      0x04\n        /* \"contracts/StakingPool.sol\":938:975  totalInvested = address(this).balance */\n      dup2\n      swap1\n      sstore\n      pop\n        /* \"contracts/StakingPool.sol\":1024:1032  32 ether */\n      0x01bc16d674ec800000\n        /* \"contracts/StakingPool.sol\":1000:1021  address(this).balance */\n      selfbalance\n        /* \"contracts/StakingPool.sol\":1000:1032  address(this).balance % 32 ether */\n      tag_58\n      swap2\n      swap1\n      tag_59\n      jump\t// in\n    tag_58:\n        /* \"contracts/StakingPool.sol\":986:997  totalChange */\n      0x05\n        /* \"contracts/StakingPool.sol\":986:1032  totalChange = address(this).balance % 32 ether */\n      dup2\n      swap1\n      sstore\n      pop\n        /* \"contracts/StakingPool.sol\":760:1042  function finalize() external{\r... */\n      jump\t// out\n        /* \"contracts/StakingPool.sol\":261:286  uint public totalInvested */\n    tag_24:\n      sload(0x04)\n      dup2\n      jump\t// out\n        /* \"contracts/StakingPool.sol\":294:317  uint public totalChange */\n    tag_28:\n      sload(0x05)\n      dup2\n      jump\t// out\n        /* \"contracts/StakingPool.sol\":325:370  mapping(address => bool) public changeClaimed */\n    tag_33:\n      mstore(0x20, 0x06)\n      dup1\n      0x00\n      mstore\n      keccak256(0x00, 0x40)\n      0x00\n      swap2\n      pop\n      sload\n      swap1\n      0x0100\n      exp\n      swap1\n      div\n      0xff\n      and\n      dup2\n      jump\t// out\n        /* \"contracts/StakingPool.sol\":232:253  bool public finalized */\n    tag_38:\n      0x03\n      0x00\n      swap1\n      sload\n      swap1\n      0x0100\n      exp\n      swap1\n      div\n      0xff\n      and\n      dup2\n      jump\t// out\n        /* \"contracts/StakingPool.sol\":523:752  function invest() external payable{\r... */\n    tag_41:\n        /* \"contracts/StakingPool.sol\":593:596  end */\n      sload(0x02)\n        /* \"contracts/StakingPool.sol\":576:591  block.timestamp */\n      timestamp\n        /* \"contracts/StakingPool.sol\":576:596  block.timestamp< end */\n      lt\n        /* \"contracts/StakingPool.sol\":568:608  require(block.timestamp< end,'Too Late') */\n      tag_61\n      jumpi\n      mload(0x40)\n      0x08c379a000000000000000000000000000000000000000000000000000000000\n      dup2\n      mstore\n      0x04\n      add\n      tag_62\n      swap1\n      tag_63\n      jump\t// in\n    tag_62:\n      mload(0x40)\n      dup1\n      swap2\n      sub\n      swap1\n      revert\n    tag_61:\n        /* \"contracts/StakingPool.sol\":644:645  0 */\n      0x00\n        /* \"contracts/StakingPool.sol\":622:630  balances */\n      dup1\n        /* \"contracts/StakingPool.sol\":622:642  balances[msg.sender] */\n      0x00\n        /* \"contracts/StakingPool.sol\":631:641  msg.sender */\n      caller\n        /* \"contracts/StakingPool.sol\":622:642  balances[msg.sender] */\n      0xffffffffffffffffffffffffffffffffffffffff\n      and\n      0xffffffffffffffffffffffffffffffffffffffff\n      and\n      dup2\n      mstore\n      0x20\n      add\n      swap1\n      dup2\n      mstore\n      0x20\n      add\n      0x00\n      keccak256\n      sload\n        /* \"contracts/StakingPool.sol\":622:645  balances[msg.sender]==0 */\n      eq\n        /* \"contracts/StakingPool.sol\":619:701  if(balances[msg.sender]==0){\r... */\n      iszero\n      tag_64\n      jumpi\n        /* \"contracts/StakingPool.sol\":666:689  NewInvestor(msg.sender) */\n      0x97d33a7365e760e859a3453f70484ea24a4aeb75478205a52ac35174ead0ccf6\n        /* \"contracts/StakingPool.sol\":678:688  msg.sender */\n      caller\n        /* \"contracts/StakingPool.sol\":666:689  NewInvestor(msg.sender) */\n      mload(0x40)\n      tag_65\n      swap2\n      swap1\n      tag_50\n      jump\t// in\n    tag_65:\n      mload(0x40)\n      dup1\n      swap2\n      sub\n      swap1\n      log1\n        /* \"contracts/StakingPool.sol\":619:701  if(balances[msg.sender]==0){\r... */\n    tag_64:\n        /* \"contracts/StakingPool.sol\":735:744  msg.value */\n      callvalue\n        /* \"contracts/StakingPool.sol\":711:719  balances */\n      0x00\n        /* \"contracts/StakingPool.sol\":711:731  balances[msg.sender] */\n      dup1\n        /* \"contracts/StakingPool.sol\":720:730  msg.sender */\n      caller\n        /* \"contracts/StakingPool.sol\":711:731  balances[msg.sender] */\n      0xffffffffffffffffffffffffffffffffffffffff\n      and\n      0xffffffffffffffffffffffffffffffffffffffff\n      and\n      dup2\n      mstore\n      0x20\n      add\n      swap1\n      dup2\n      mstore\n      0x20\n      add\n      0x00\n      keccak256\n      0x00\n        /* \"contracts/StakingPool.sol\":711:744  balances[msg.sender] += msg.value */\n      dup3\n      dup3\n      sload\n      tag_66\n      swap2\n      swap1\n      tag_67\n      jump\t// in\n    tag_66:\n      swap3\n      pop\n      pop\n      dup2\n      swap1\n      sstore\n      pop\n        /* \"contracts/StakingPool.sol\":523:752  function invest() external payable{\r... */\n      jump\t// out\n        /* \"contracts/StakingPool.sol\":175:190  uint public end */\n    tag_44:\n      sload(0x02)\n      dup2\n      jump\t// out\n        /* \"contracts/StakingPool.sol\":148:168  address public admin */\n    tag_48:\n      0x01\n      0x00\n      swap1\n      sload\n      swap1\n      0x0100\n      exp\n      swap1\n      div\n      0xffffffffffffffffffffffffffffffffffffffff\n      and\n      dup2\n      jump\t// out\n        /* \"#utility.yul\":7:146   */\n    tag_69:\n        /* \"#utility.yul\":53:58   */\n      0x00\n        /* \"#utility.yul\":91:97   */\n      dup2\n        /* \"#utility.yul\":78:98   */\n      calldataload\n        /* \"#utility.yul\":69:98   */\n      swap1\n      pop\n        /* \"#utility.yul\":107:140   */\n      tag_71\n        /* \"#utility.yul\":134:139   */\n      dup2\n        /* \"#utility.yul\":107:140   */\n      tag_72\n      jump\t// in\n    tag_71:\n        /* \"#utility.yul\":7:146   */\n      swap3\n      swap2\n      pop\n      pop\n      jump\t// out\n        /* \"#utility.yul\":152:481   */\n    tag_15:\n        /* \"#utility.yul\":211:217   */\n      0x00\n        /* \"#utility.yul\":260:262   */\n      0x20\n        /* \"#utility.yul\":248:257   */\n      dup3\n        /* \"#utility.yul\":239:246   */\n      dup5\n        /* \"#utility.yul\":235:258   */\n      sub\n        /* \"#utility.yul\":231:263   */\n      slt\n        /* \"#utility.yul\":228:347   */\n      iszero\n      tag_74\n      jumpi\n        /* \"#utility.yul\":266:345   */\n      tag_75\n      tag_76\n      jump\t// in\n    tag_75:\n        /* \"#utility.yul\":228:347   */\n    tag_74:\n        /* \"#utility.yul\":386:387   */\n      0x00\n        /* \"#utility.yul\":411:464   */\n      tag_77\n        /* \"#utility.yul\":456:463   */\n      dup5\n        /* \"#utility.yul\":447:453   */\n      dup3\n        /* \"#utility.yul\":436:445   */\n      dup6\n        /* \"#utility.yul\":432:454   */\n      add\n        /* \"#utility.yul\":411:464   */\n      tag_69\n      jump\t// in\n    tag_77:\n        /* \"#utility.yul\":401:464   */\n      swap2\n      pop\n        /* \"#utility.yul\":357:474   */\n      pop\n        /* \"#utility.yul\":152:481   */\n      swap3\n      swap2\n      pop\n      pop\n      jump\t// out\n        /* \"#utility.yul\":487:605   */\n    tag_78:\n        /* \"#utility.yul\":574:598   */\n      tag_80\n        /* \"#utility.yul\":592:597   */\n      dup2\n        /* \"#utility.yul\":574:598   */\n      tag_81\n      jump\t// in\n    tag_80:\n        /* \"#utility.yul\":569:572   */\n      dup3\n        /* \"#utility.yul\":562:599   */\n      mstore\n        /* \"#utility.yul\":487:605   */\n      pop\n      pop\n      jump\t// out\n        /* \"#utility.yul\":611:720   */\n    tag_82:\n        /* \"#utility.yul\":692:713   */\n      tag_84\n        /* \"#utility.yul\":707:712   */\n      dup2\n        /* \"#utility.yul\":692:713   */\n      tag_85\n      jump\t// in\n    tag_84:\n        /* \"#utility.yul\":687:690   */\n      dup3\n        /* \"#utility.yul\":680:714   */\n      mstore\n        /* \"#utility.yul\":611:720   */\n      pop\n      pop\n      jump\t// out\n        /* \"#utility.yul\":726:1091   */\n    tag_86:\n        /* \"#utility.yul\":868:871   */\n      0x00\n        /* \"#utility.yul\":889:955   */\n      tag_88\n        /* \"#utility.yul\":953:954   */\n      0x08\n        /* \"#utility.yul\":948:951   */\n      dup4\n        /* \"#utility.yul\":889:955   */\n      tag_89\n      jump\t// in\n    tag_88:\n        /* \"#utility.yul\":882:955   */\n      swap2\n      pop\n        /* \"#utility.yul\":964:1057   */\n      tag_90\n        /* \"#utility.yul\":1053:1056   */\n      dup3\n        /* \"#utility.yul\":964:1057   */\n      tag_91\n      jump\t// in\n    tag_90:\n        /* \"#utility.yul\":1082:1084   */\n      0x20\n        /* \"#utility.yul\":1077:1080   */\n      dup3\n        /* \"#utility.yul\":1073:1085   */\n      add\n        /* \"#utility.yul\":1066:1085   */\n      swap1\n      pop\n        /* \"#utility.yul\":726:1091   */\n      swap2\n      swap1\n      pop\n      jump\t// out\n        /* \"#utility.yul\":1097:1463   */\n    tag_92:\n        /* \"#utility.yul\":1239:1242   */\n      0x00\n        /* \"#utility.yul\":1260:1327   */\n      tag_94\n        /* \"#utility.yul\":1324:1326   */\n      0x11\n        /* \"#utility.yul\":1319:1322   */\n      dup4\n        /* \"#utility.yul\":1260:1327   */\n      tag_89\n      jump\t// in\n    tag_94:\n        /* \"#utility.yul\":1253:1327   */\n      swap2\n      pop\n        /* \"#utility.yul\":1336:1429   */\n      tag_95\n        /* \"#utility.yul\":1425:1428   */\n      dup3\n        /* \"#utility.yul\":1336:1429   */\n      tag_96\n      jump\t// in\n    tag_95:\n        /* \"#utility.yul\":1454:1456   */\n      0x20\n        /* \"#utility.yul\":1449:1452   */\n      dup3\n        /* \"#utility.yul\":1445:1457   */\n      add\n        /* \"#utility.yul\":1438:1457   */\n      swap1\n      pop\n        /* \"#utility.yul\":1097:1463   */\n      swap2\n      swap1\n      pop\n      jump\t// out\n        /* \"#utility.yul\":1469:1834   */\n    tag_97:\n        /* \"#utility.yul\":1611:1614   */\n      0x00\n        /* \"#utility.yul\":1632:1698   */\n      tag_99\n        /* \"#utility.yul\":1696:1697   */\n      0x09\n        /* \"#utility.yul\":1691:1694   */\n      dup4\n        /* \"#utility.yul\":1632:1698   */\n      tag_89\n      jump\t// in\n    tag_99:\n        /* \"#utility.yul\":1625:1698   */\n      swap2\n      pop\n        /* \"#utility.yul\":1707:1800   */\n      tag_100\n        /* \"#utility.yul\":1796:1799   */\n      dup3\n        /* \"#utility.yul\":1707:1800   */\n      tag_101\n      jump\t// in\n    tag_100:\n        /* \"#utility.yul\":1825:1827   */\n      0x20\n        /* \"#utility.yul\":1820:1823   */\n      dup3\n        /* \"#utility.yul\":1816:1828   */\n      add\n        /* \"#utility.yul\":1809:1828   */\n      swap1\n      pop\n        /* \"#utility.yul\":1469:1834   */\n      swap2\n      swap1\n      pop\n      jump\t// out\n        /* \"#utility.yul\":1840:1958   */\n    tag_102:\n        /* \"#utility.yul\":1927:1951   */\n      tag_104\n        /* \"#utility.yul\":1945:1950   */\n      dup2\n        /* \"#utility.yul\":1927:1951   */\n      tag_105\n      jump\t// in\n    tag_104:\n        /* \"#utility.yul\":1922:1925   */\n      dup3\n        /* \"#utility.yul\":1915:1952   */\n      mstore\n        /* \"#utility.yul\":1840:1958   */\n      pop\n      pop\n      jump\t// out\n        /* \"#utility.yul\":1964:2186   */\n    tag_50:\n        /* \"#utility.yul\":2057:2061   */\n      0x00\n        /* \"#utility.yul\":2095:2097   */\n      0x20\n        /* \"#utility.yul\":2084:2093   */\n      dup3\n        /* \"#utility.yul\":2080:2098   */\n      add\n        /* \"#utility.yul\":2072:2098   */\n      swap1\n      pop\n        /* \"#utility.yul\":2108:2179   */\n      tag_107\n        /* \"#utility.yul\":2176:2177   */\n      0x00\n        /* \"#utility.yul\":2165:2174   */\n      dup4\n        /* \"#utility.yul\":2161:2178   */\n      add\n        /* \"#utility.yul\":2152:2158   */\n      dup5\n        /* \"#utility.yul\":2108:2179   */\n      tag_78\n      jump\t// in\n    tag_107:\n        /* \"#utility.yul\":1964:2186   */\n      swap3\n      swap2\n      pop\n      pop\n      jump\t// out\n        /* \"#utility.yul\":2192:2402   */\n    tag_35:\n        /* \"#utility.yul\":2279:2283   */\n      0x00\n        /* \"#utility.yul\":2317:2319   */\n      0x20\n        /* \"#utility.yul\":2306:2315   */\n      dup3\n        /* \"#utility.yul\":2302:2320   */\n      add\n        /* \"#utility.yul\":2294:2320   */\n      swap1\n      pop\n        /* \"#utility.yul\":2330:2395   */\n      tag_109\n        /* \"#utility.yul\":2392:2393   */\n      0x00\n        /* \"#utility.yul\":2381:2390   */\n      dup4\n        /* \"#utility.yul\":2377:2394   */\n      add\n        /* \"#utility.yul\":2368:2374   */\n      dup5\n        /* \"#utility.yul\":2330:2395   */\n      tag_82\n      jump\t// in\n    tag_109:\n        /* \"#utility.yul\":2192:2402   */\n      swap3\n      swap2\n      pop\n      pop\n      jump\t// out\n        /* \"#utility.yul\":2408:2827   */\n    tag_63:\n        /* \"#utility.yul\":2574:2578   */\n      0x00\n        /* \"#utility.yul\":2612:2614   */\n      0x20\n        /* \"#utility.yul\":2601:2610   */\n      dup3\n        /* \"#utility.yul\":2597:2615   */\n      add\n        /* \"#utility.yul\":2589:2615   */\n      swap1\n      pop\n        /* \"#utility.yul\":2661:2670   */\n      dup2\n        /* \"#utility.yul\":2655:2659   */\n      dup2\n        /* \"#utility.yul\":2651:2671   */\n      sub\n        /* \"#utility.yul\":2647:2648   */\n      0x00\n        /* \"#utility.yul\":2636:2645   */\n      dup4\n        /* \"#utility.yul\":2632:2649   */\n      add\n        /* \"#utility.yul\":2625:2672   */\n      mstore\n        /* \"#utility.yul\":2689:2820   */\n      tag_111\n        /* \"#utility.yul\":2815:2819   */\n      dup2\n        /* \"#utility.yul\":2689:2820   */\n      tag_86\n      jump\t// in\n    tag_111:\n        /* \"#utility.yul\":2681:2820   */\n      swap1\n      pop\n        /* \"#utility.yul\":2408:2827   */\n      swap2\n      swap1\n      pop\n      jump\t// out\n        /* \"#utility.yul\":2833:3252   */\n    tag_57:\n        /* \"#utility.yul\":2999:3003   */\n      0x00\n        /* \"#utility.yul\":3037:3039   */\n      0x20\n        /* \"#utility.yul\":3026:3035   */\n      dup3\n        /* \"#utility.yul\":3022:3040   */\n      add\n        /* \"#utility.yul\":3014:3040   */\n      swap1\n      pop\n        /* \"#utility.yul\":3086:3095   */\n      dup2\n        /* \"#utility.yul\":3080:3084   */\n      dup2\n        /* \"#utility.yul\":3076:3096   */\n      sub\n        /* \"#utility.yul\":3072:3073   */\n      0x00\n        /* \"#utility.yul\":3061:3070   */\n      dup4\n        /* \"#utility.yul\":3057:3074   */\n      add\n        /* \"#utility.yul\":3050:3097   */\n      mstore\n        /* \"#utility.yul\":3114:3245   */\n      tag_113\n        /* \"#utility.yul\":3240:3244   */\n      dup2\n        /* \"#utility.yul\":3114:3245   */\n      tag_92\n      jump\t// in\n    tag_113:\n        /* \"#utility.yul\":3106:3245   */\n      swap1\n      pop\n        /* \"#utility.yul\":2833:3252   */\n      swap2\n      swap1\n      pop\n      jump\t// out\n        /* \"#utility.yul\":3258:3677   */\n    tag_54:\n        /* \"#utility.yul\":3424:3428   */\n      0x00\n        /* \"#utility.yul\":3462:3464   */\n      0x20\n        /* \"#utility.yul\":3451:3460   */\n      dup3\n        /* \"#utility.yul\":3447:3465   */\n      add\n        /* \"#utility.yul\":3439:3465   */\n      swap1\n      pop\n        /* \"#utility.yul\":3511:3520   */\n      dup2\n        /* \"#utility.yul\":3505:3509   */\n      dup2\n        /* \"#utility.yul\":3501:3521   */\n      sub\n        /* \"#utility.yul\":3497:3498   */\n      0x00\n        /* \"#utility.yul\":3486:3495   */\n      dup4\n        /* \"#utility.yul\":3482:3499   */\n      add\n        /* \"#utility.yul\":3475:3522   */\n      mstore\n        /* \"#utility.yul\":3539:3670   */\n      tag_115\n        /* \"#utility.yul\":3665:3669   */\n      dup2\n        /* \"#utility.yul\":3539:3670   */\n      tag_97\n      jump\t// in\n    tag_115:\n        /* \"#utility.yul\":3531:3670   */\n      swap1\n      pop\n        /* \"#utility.yul\":3258:3677   */\n      swap2\n      swap1\n      pop\n      jump\t// out\n        /* \"#utility.yul\":3683:3905   */\n    tag_18:\n        /* \"#utility.yul\":3776:3780   */\n      0x00\n        /* \"#utility.yul\":3814:3816   */\n      0x20\n        /* \"#utility.yul\":3803:3812   */\n      dup3\n        /* \"#utility.yul\":3799:3817   */\n      add\n        /* \"#utility.yul\":3791:3817   */\n      swap1\n      pop\n        /* \"#utility.yul\":3827:3898   */\n      tag_117\n        /* \"#utility.yul\":3895:3896   */\n      0x00\n        /* \"#utility.yul\":3884:3893   */\n      dup4\n        /* \"#utility.yul\":3880:3897   */\n      add\n        /* \"#utility.yul\":3871:3877   */\n      dup5\n        /* \"#utility.yul\":3827:3898   */\n      tag_102\n      jump\t// in\n    tag_117:\n        /* \"#utility.yul\":3683:3905   */\n      swap3\n      swap2\n      pop\n      pop\n      jump\t// out\n        /* \"#utility.yul\":3992:4161   */\n    tag_89:\n        /* \"#utility.yul\":4076:4087   */\n      0x00\n        /* \"#utility.yul\":4110:4116   */\n      dup3\n        /* \"#utility.yul\":4105:4108   */\n      dup3\n        /* \"#utility.yul\":4098:4117   */\n      mstore\n        /* \"#utility.yul\":4150:4154   */\n      0x20\n        /* \"#utility.yul\":4145:4148   */\n      dup3\n        /* \"#utility.yul\":4141:4155   */\n      add\n        /* \"#utility.yul\":4126:4155   */\n      swap1\n      pop\n        /* \"#utility.yul\":3992:4161   */\n      swap3\n      swap2\n      pop\n      pop\n      jump\t// out\n        /* \"#utility.yul\":4167:4472   */\n    tag_67:\n        /* \"#utility.yul\":4207:4210   */\n      0x00\n        /* \"#utility.yul\":4226:4246   */\n      tag_122\n        /* \"#utility.yul\":4244:4245   */\n      dup3\n        /* \"#utility.yul\":4226:4246   */\n      tag_105\n      jump\t// in\n    tag_122:\n        /* \"#utility.yul\":4221:4246   */\n      swap2\n      pop\n        /* \"#utility.yul\":4260:4280   */\n      tag_123\n        /* \"#utility.yul\":4278:4279   */\n      dup4\n        /* \"#utility.yul\":4260:4280   */\n      tag_105\n      jump\t// in\n    tag_123:\n        /* \"#utility.yul\":4255:4280   */\n      swap3\n      pop\n        /* \"#utility.yul\":4414:4415   */\n      dup3\n        /* \"#utility.yul\":4346:4412   */\n      0xffffffffffffffffffffffffffffffffffffffffffffffffffffffffffffffff\n        /* \"#utility.yul\":4342:4416   */\n      sub\n        /* \"#utility.yul\":4339:4340   */\n      dup3\n        /* \"#utility.yul\":4336:4417   */\n      gt\n        /* \"#utility.yul\":4333:4440   */\n      iszero\n      tag_124\n      jumpi\n        /* \"#utility.yul\":4420:4438   */\n      tag_125\n      tag_126\n      jump\t// in\n    tag_125:\n        /* \"#utility.yul\":4333:4440   */\n    tag_124:\n        /* \"#utility.yul\":4464:4465   */\n      dup3\n        /* \"#utility.yul\":4461:4462   */\n      dup3\n        /* \"#utility.yul\":4457:4466   */\n      add\n        /* \"#utility.yul\":4450:4466   */\n      swap1\n      pop\n        /* \"#utility.yul\":4167:4472   */\n      swap3\n      swap2\n      pop\n      pop\n      jump\t// out\n        /* \"#utility.yul\":4478:4574   */\n    tag_81:\n        /* \"#utility.yul\":4515:4522   */\n      0x00\n        /* \"#utility.yul\":4544:4568   */\n      tag_128\n        /* \"#utility.yul\":4562:4567   */\n      dup3\n        /* \"#utility.yul\":4544:4568   */\n      tag_129\n      jump\t// in\n    tag_128:\n        /* \"#utility.yul\":4533:4568   */\n      swap1\n      pop\n        /* \"#utility.yul\":4478:4574   */\n      swap2\n      swap1\n      pop\n      jump\t// out\n        /* \"#utility.yul\":4580:4670   */\n    tag_85:\n        /* \"#utility.yul\":4614:4621   */\n      0x00\n        /* \"#utility.yul\":4657:4662   */\n      dup2\n        /* \"#utility.yul\":4650:4663   */\n      iszero\n        /* \"#utility.yul\":4643:4664   */\n      iszero\n        /* \"#utility.yul\":4632:4664   */\n      swap1\n      pop\n        /* \"#utility.yul\":4580:4670   */\n      swap2\n      swap1\n      pop\n      jump\t// out\n        /* \"#utility.yul\":4676:4802   */\n    tag_129:\n        /* \"#utility.yul\":4713:4720   */\n      0x00\n        /* \"#utility.yul\":4753:4795   */\n      0xffffffffffffffffffffffffffffffffffffffff\n        /* \"#utility.yul\":4746:4751   */\n      dup3\n        /* \"#utility.yul\":4742:4796   */\n      and\n        /* \"#utility.yul\":4731:4796   */\n      swap1\n      pop\n        /* \"#utility.yul\":4676:4802   */\n      swap2\n      swap1\n      pop\n      jump\t// out\n        /* \"#utility.yul\":4808:4885   */\n    tag_105:\n        /* \"#utility.yul\":4845:4852   */\n      0x00\n        /* \"#utility.yul\":4874:4879   */\n      dup2\n        /* \"#utility.yul\":4863:4879   */\n      swap1\n      pop\n        /* \"#utility.yul\":4808:4885   */\n      swap2\n      swap1\n      pop\n      jump\t// out\n        /* \"#utility.yul\":4891:5067   */\n    tag_59:\n        /* \"#utility.yul\":4923:4924   */\n      0x00\n        /* \"#utility.yul\":4940:4960   */\n      tag_134\n        /* \"#utility.yul\":4958:4959   */\n      dup3\n        /* \"#utility.yul\":4940:4960   */\n      tag_105\n      jump\t// in\n    tag_134:\n        /* \"#utility.yul\":4935:4960   */\n      swap2\n      pop\n        /* \"#utility.yul\":4974:4994   */\n      tag_135\n        /* \"#utility.yul\":4992:4993   */\n      dup4\n        /* \"#utility.yul\":4974:4994   */\n      tag_105\n      jump\t// in\n    tag_135:\n        /* \"#utility.yul\":4969:4994   */\n      swap3\n      pop\n        /* \"#utility.yul\":5013:5014   */\n      dup3\n        /* \"#utility.yul\":5003:5038   */\n      tag_136\n      jumpi\n        /* \"#utility.yul\":5018:5036   */\n      tag_137\n      tag_138\n      jump\t// in\n    tag_137:\n        /* \"#utility.yul\":5003:5038   */\n    tag_136:\n        /* \"#utility.yul\":5059:5060   */\n      dup3\n        /* \"#utility.yul\":5056:5057   */\n      dup3\n        /* \"#utility.yul\":5052:5061   */\n      mod\n        /* \"#utility.yul\":5047:5061   */\n      swap1\n      pop\n        /* \"#utility.yul\":4891:5067   */\n      swap3\n      swap2\n      pop\n      pop\n      jump\t// out\n        /* \"#utility.yul\":5073:5253   */\n    tag_126:\n        /* \"#utility.yul\":5121:5198   */\n      0x4e487b7100000000000000000000000000000000000000000000000000000000\n        /* \"#utility.yul\":5118:5119   */\n      0x00\n        /* \"#utility.yul\":5111:5199   */\n      mstore\n        /* \"#utility.yul\":5218:5222   */\n      0x11\n        /* \"#utility.yul\":5215:5216   */\n      0x04\n        /* \"#utility.yul\":5208:5223   */\n      mstore\n        /* \"#utility.yul\":5242:5246   */\n      0x24\n        /* \"#utility.yul\":5239:5240   */\n      0x00\n        /* \"#utility.yul\":5232:5247   */\n      revert\n        /* \"#utility.yul\":5259:5439   */\n    tag_138:\n        /* \"#utility.yul\":5307:5384   */\n      0x4e487b7100000000000000000000000000000000000000000000000000000000\n        /* \"#utility.yul\":5304:5305   */\n      0x00\n        /* \"#utility.yul\":5297:5385   */\n      mstore\n        /* \"#utility.yul\":5404:5408   */\n      0x12\n        /* \"#utility.yul\":5401:5402   */\n      0x04\n        /* \"#utility.yul\":5394:5409   */\n      mstore\n        /* \"#utility.yul\":5428:5432   */\n      0x24\n        /* \"#utility.yul\":5425:5426   */\n      0x00\n        /* \"#utility.yul\":5418:5433   */\n      revert\n        /* \"#utility.yul\":5568:5685   */\n    tag_76:\n        /* \"#utility.yul\":5677:5678   */\n      0x00\n        /* \"#utility.yul\":5674:5675   */\n      dup1\n        /* \"#utility.yul\":5667:5679   */\n      revert\n        /* \"#utility.yul\":5691:5849   */\n    tag_91:\n        /* \"#utility.yul\":5831:5841   */\n      0x546f6f204c617465000000000000000000000000000000000000000000000000\n        /* \"#utility.yul\":5827:5828   */\n      0x00\n        /* \"#utility.yul\":5819:5825   */\n      dup3\n        /* \"#utility.yul\":5815:5829   */\n      add\n        /* \"#utility.yul\":5808:5842   */\n      mstore\n        /* \"#utility.yul\":5691:5849   */\n      pop\n      jump\t// out\n        /* \"#utility.yul\":5855:6022   */\n    tag_96:\n        /* \"#utility.yul\":5995:6014   */\n      0x616c72656164792066696e616c697a6564000000000000000000000000000000\n        /* \"#utility.yul\":5991:5992   */\n      0x00\n        /* \"#utility.yul\":5983:5989   */\n      dup3\n        /* \"#utility.yul\":5979:5993   */\n      add\n        /* \"#utility.yul\":5972:6015   */\n      mstore\n        /* \"#utility.yul\":5855:6022   */\n      pop\n      jump\t// out\n        /* \"#utility.yul\":6028:6187   */\n    tag_101:\n        /* \"#utility.yul\":6168:6179   */\n      0x746f6f206561726c790000000000000000000000000000000000000000000000\n        /* \"#utility.yul\":6164:6165   */\n      0x00\n        /* \"#utility.yul\":6156:6162   */\n      dup3\n        /* \"#utility.yul\":6152:6166   */\n      add\n        /* \"#utility.yul\":6145:6180   */\n      mstore\n        /* \"#utility.yul\":6028:6187   */\n      pop\n      jump\t// out\n        /* \"#utility.yul\":6193:6315   */\n    tag_72:\n        /* \"#utility.yul\":6266:6290   */\n      tag_148\n        /* \"#utility.yul\":6284:6289   */\n      dup2\n        /* \"#utility.yul\":6266:6290   */\n      tag_81\n      jump\t// in\n    tag_148:\n        /* \"#utility.yul\":6259:6264   */\n      dup2\n        /* \"#utility.yul\":6256:6291   */\n      eq\n        /* \"#utility.yul\":6246:6309   */\n      tag_149\n      jumpi\n        /* \"#utility.yul\":6305:6306   */\n      0x00\n        /* \"#utility.yul\":6302:6303   */\n      dup1\n        /* \"#utility.yul\":6295:6307   */\n      revert\n        /* \"#utility.yul\":6246:6309   */\n    tag_149:\n        /* \"#utility.yul\":6193:6315   */\n      pop\n      jump\t// out\n\n    auxdata: 0xa264697066735822122079a857b6b1098e77dda4adb217d4d2182a1078e24fbb2a222981f72463cd010e64736f6c63430008070033\n}\n",
				"bytecode": {
					"linkReferences": {},
					"object": "608060405234801561001057600080fd5b5033600160006101000a81548173ffffffffffffffffffffffffffffffffffffffff021916908373ffffffffffffffffffffffffffffffffffffffff16021790555062093a8042610061919061006c565b6002819055506100fb565b6000610077826100c2565b9150610082836100c2565b9250827fffffffffffffffffffffffffffffffffffffffffffffffffffffffffffffffff038211156100b7576100b66100cc565b5b828201905092915050565b6000819050919050565b7f4e487b7100000000000000000000000000000000000000000000000000000000600052601160045260246000fd5b6108088061010a6000396000f3fe6080604052600436106100865760003560e01c80637aa8ff19116100595780637aa8ff1914610135578063b3f05b9714610172578063e8b5e51f1461019d578063efbe1c1c146101a7578063f851a440146101d257610086565b806327e235e31461008b5780634bb278f3146100c85780635216aeec146100df5780635411c7bd1461010a575b600080fd5b34801561009757600080fd5b506100b260048036038101906100ad9190610489565b6101fd565b6040516100bf91906105e2565b60405180910390f35b3480156100d457600080fd5b506100dd610215565b005b3480156100eb57600080fd5b506100f46102ef565b60405161010191906105e2565b60405180910390f35b34801561011657600080fd5b5061011f6102f5565b60405161012c91906105e2565b60405180910390f35b34801561014157600080fd5b5061015c60048036038101906101579190610489565b6102fb565b6040516101699190610567565b60405180910390f35b34801561017e57600080fd5b5061018761031b565b6040516101949190610567565b60405180910390f35b6101a561032e565b005b3480156101b357600080fd5b506101bc610448565b6040516101c991906105e2565b60405180910390f35b3480156101de57600080fd5b506101e761044e565b6040516101f4919061054c565b60405180910390f35b60006020528060005260406000206000915090505481565b60025442101561025a576040517f08c379a0000000000000000000000000000000000000000000000000000000008152600401610251906105c2565b60405180910390fd5b60001515600360009054906101000a900460ff161515146102b0576040517f08c379a00000000000000000000000000000000000000000000000000000000081526004016102a7906105a2565b60405180910390fd5b6001600360006101000a81548160ff021916908315150217905550476004819055506801bc16d674ec800000476102e791906106ac565b600581905550565b60045481565b60055481565b60066020528060005260406000206000915054906101000a900460ff1681565b600360009054906101000a900460ff1681565b6002544210610372576040517f08c379a000000000000000000000000000000000000000000000000000000000815260040161036990610582565b60405180910390fd5b60008060003373ffffffffffffffffffffffffffffffffffffffff1673ffffffffffffffffffffffffffffffffffffffff1681526020019081526020016000205414156103f1577f97d33a7365e760e859a3453f70484ea24a4aeb75478205a52ac35174ead0ccf6336040516103e8919061054c565b60405180910390a15b346000803373ffffffffffffffffffffffffffffffffffffffff1673ffffffffffffffffffffffffffffffffffffffff168152602001908152602001600020600082825461043f919061060e565b92505081905550565b60025481565b600160009054906101000a900473ffffffffffffffffffffffffffffffffffffffff1681565b600081359050610483816107bb565b92915050565b60006020828403121561049f5761049e61073b565b5b60006104ad84828501610474565b91505092915050565b6104bf81610664565b82525050565b6104ce81610676565b82525050565b60006104e16008836105fd565b91506104ec82610740565b602082019050919050565b60006105046011836105fd565b915061050f82610769565b602082019050919050565b60006105276009836105fd565b915061053282610792565b602082019050919050565b610546816106a2565b82525050565b600060208201905061056160008301846104b6565b92915050565b600060208201905061057c60008301846104c5565b92915050565b6000602082019050818103600083015261059b816104d4565b9050919050565b600060208201905081810360008301526105bb816104f7565b9050919050565b600060208201905081810360008301526105db8161051a565b9050919050565b60006020820190506105f7600083018461053d565b92915050565b600082825260208201905092915050565b6000610619826106a2565b9150610624836106a2565b9250827fffffffffffffffffffffffffffffffffffffffffffffffffffffffffffffffff03821115610659576106586106dd565b5b828201905092915050565b600061066f82610682565b9050919050565b60008115159050919050565b600073ffffffffffffffffffffffffffffffffffffffff82169050919050565b6000819050919050565b60006106b7826106a2565b91506106c2836106a2565b9250826106d2576106d161070c565b5b828206905092915050565b7f4e487b7100000000000000000000000000000000000000000000000000000000600052601160045260246000fd5b7f4e487b7100000000000000000000000000000000000000000000000000000000600052601260045260246000fd5b600080fd5b7f546f6f204c617465000000000000000000000000000000000000000000000000600082015250565b7f616c72656164792066696e616c697a6564000000000000000000000000000000600082015250565b7f746f6f206561726c790000000000000000000000000000000000000000000000600082015250565b6107c481610664565b81146107cf57600080fd5b5056fea264697066735822122079a857b6b1098e77dda4adb217d4d2182a1078e24fbb2a222981f72463cd010e64736f6c63430008070033",
					"opcodes": "PUSH1 0x80 PUSH1 0x40 MSTORE CALLVALUE DUP1 ISZERO PUSH2 0x10 JUMPI PUSH1 0x0 DUP1 REVERT JUMPDEST POP CALLER PUSH1 0x1 PUSH1 0x0 PUSH2 0x100 EXP DUP2 SLOAD DUP2 PUSH20 0xFFFFFFFFFFFFFFFFFFFFFFFFFFFFFFFFFFFFFFFF MUL NOT AND SWAP1 DUP4 PUSH20 0xFFFFFFFFFFFFFFFFFFFFFFFFFFFFFFFFFFFFFFFF AND MUL OR SWAP1 SSTORE POP PUSH3 0x93A80 TIMESTAMP PUSH2 0x61 SWAP2 SWAP1 PUSH2 0x6C JUMP JUMPDEST PUSH1 0x2 DUP2 SWAP1 SSTORE POP PUSH2 0xFB JUMP JUMPDEST PUSH1 0x0 PUSH2 0x77 DUP3 PUSH2 0xC2 JUMP JUMPDEST SWAP2 POP PUSH2 0x82 DUP4 PUSH2 0xC2 JUMP JUMPDEST SWAP3 POP DUP3 PUSH32 0xFFFFFFFFFFFFFFFFFFFFFFFFFFFFFFFFFFFFFFFFFFFFFFFFFFFFFFFFFFFFFFFF SUB DUP3 GT ISZERO PUSH2 0xB7 JUMPI PUSH2 0xB6 PUSH2 0xCC JUMP JUMPDEST JUMPDEST DUP3 DUP3 ADD SWAP1 POP SWAP3 SWAP2 POP POP JUMP JUMPDEST PUSH1 0x0 DUP2 SWAP1 POP SWAP2 SWAP1 POP JUMP JUMPDEST PUSH32 0x4E487B7100000000000000000000000000000000000000000000000000000000 PUSH1 0x0 MSTORE PUSH1 0x11 PUSH1 0x4 MSTORE PUSH1 0x24 PUSH1 0x0 REVERT JUMPDEST PUSH2 0x808 DUP1 PUSH2 0x10A PUSH1 0x0 CODECOPY PUSH1 0x0 RETURN INVALID PUSH1 0x80 PUSH1 0x40 MSTORE PUSH1 0x4 CALLDATASIZE LT PUSH2 0x86 JUMPI PUSH1 0x0 CALLDATALOAD PUSH1 0xE0 SHR DUP1 PUSH4 0x7AA8FF19 GT PUSH2 0x59 JUMPI DUP1 PUSH4 0x7AA8FF19 EQ PUSH2 0x135 JUMPI DUP1 PUSH4 0xB3F05B97 EQ PUSH2 0x172 JUMPI DUP1 PUSH4 0xE8B5E51F EQ PUSH2 0x19D JUMPI DUP1 PUSH4 0xEFBE1C1C EQ PUSH2 0x1A7 JUMPI DUP1 PUSH4 0xF851A440 EQ PUSH2 0x1D2 JUMPI PUSH2 0x86 JUMP JUMPDEST DUP1 PUSH4 0x27E235E3 EQ PUSH2 0x8B JUMPI DUP1 PUSH4 0x4BB278F3 EQ PUSH2 0xC8 JUMPI DUP1 PUSH4 0x5216AEEC EQ PUSH2 0xDF JUMPI DUP1 PUSH4 0x5411C7BD EQ PUSH2 0x10A JUMPI JUMPDEST PUSH1 0x0 DUP1 REVERT JUMPDEST CALLVALUE DUP1 ISZERO PUSH2 0x97 JUMPI PUSH1 0x0 DUP1 REVERT JUMPDEST POP PUSH2 0xB2 PUSH1 0x4 DUP1 CALLDATASIZE SUB DUP2 ADD SWAP1 PUSH2 0xAD SWAP2 SWAP1 PUSH2 0x489 JUMP JUMPDEST PUSH2 0x1FD JUMP JUMPDEST PUSH1 0x40 MLOAD PUSH2 0xBF SWAP2 SWAP1 PUSH2 0x5E2 JUMP JUMPDEST PUSH1 0x40 MLOAD DUP1 SWAP2 SUB SWAP1 RETURN JUMPDEST CALLVALUE DUP1 ISZERO PUSH2 0xD4 JUMPI PUSH1 0x0 DUP1 REVERT JUMPDEST POP PUSH2 0xDD PUSH2 0x215 JUMP JUMPDEST STOP JUMPDEST CALLVALUE DUP1 ISZERO PUSH2 0xEB JUMPI PUSH1 0x0 DUP1 REVERT JUMPDEST POP PUSH2 0xF4 PUSH2 0x2EF JUMP JUMPDEST PUSH1 0x40 MLOAD PUSH2 0x101 SWAP2 SWAP1 PUSH2 0x5E2 JUMP JUMPDEST PUSH1 0x40 MLOAD DUP1 SWAP2 SUB SWAP1 RETURN JUMPDEST CALLVALUE DUP1 ISZERO PUSH2 0x116 JUMPI PUSH1 0x0 DUP1 REVERT JUMPDEST POP PUSH2 0x11F PUSH2 0x2F5 JUMP JUMPDEST PUSH1 0x40 MLOAD PUSH2 0x12C SWAP2 SWAP1 PUSH2 0x5E2 JUMP JUMPDEST PUSH1 0x40 MLOAD DUP1 SWAP2 SUB SWAP1 RETURN JUMPDEST CALLVALUE DUP1 ISZERO PUSH2 0x141 JUMPI PUSH1 0x0 DUP1 REVERT JUMPDEST POP PUSH2 0x15C PUSH1 0x4 DUP1 CALLDATASIZE SUB DUP2 ADD SWAP1 PUSH2 0x157 SWAP2 SWAP1 PUSH2 0x489 JUMP JUMPDEST PUSH2 0x2FB JUMP JUMPDEST PUSH1 0x40 MLOAD PUSH2 0x169 SWAP2 SWAP1 PUSH2 0x567 JUMP JUMPDEST PUSH1 0x40 MLOAD DUP1 SWAP2 SUB SWAP1 RETURN JUMPDEST CALLVALUE DUP1 ISZERO PUSH2 0x17E JUMPI PUSH1 0x0 DUP1 REVERT JUMPDEST POP PUSH2 0x187 PUSH2 0x31B JUMP JUMPDEST PUSH1 0x40 MLOAD PUSH2 0x194 SWAP2 SWAP1 PUSH2 0x567 JUMP JUMPDEST PUSH1 0x40 MLOAD DUP1 SWAP2 SUB SWAP1 RETURN JUMPDEST PUSH2 0x1A5 PUSH2 0x32E JUMP JUMPDEST STOP JUMPDEST CALLVALUE DUP1 ISZERO PUSH2 0x1B3 JUMPI PUSH1 0x0 DUP1 REVERT JUMPDEST POP PUSH2 0x1BC PUSH2 0x448 JUMP JUMPDEST PUSH1 0x40 MLOAD PUSH2 0x1C9 SWAP2 SWAP1 PUSH2 0x5E2 JUMP JUMPDEST PUSH1 0x40 MLOAD DUP1 SWAP2 SUB SWAP1 RETURN JUMPDEST CALLVALUE DUP1 ISZERO PUSH2 0x1DE JUMPI PUSH1 0x0 DUP1 REVERT JUMPDEST POP PUSH2 0x1E7 PUSH2 0x44E JUMP JUMPDEST PUSH1 0x40 MLOAD PUSH2 0x1F4 SWAP2 SWAP1 PUSH2 0x54C JUMP JUMPDEST PUSH1 0x40 MLOAD DUP1 SWAP2 SUB SWAP1 RETURN JUMPDEST PUSH1 0x0 PUSH1 0x20 MSTORE DUP1 PUSH1 0x0 MSTORE PUSH1 0x40 PUSH1 0x0 KECCAK256 PUSH1 0x0 SWAP2 POP SWAP1 POP SLOAD DUP2 JUMP JUMPDEST PUSH1 0x2 SLOAD TIMESTAMP LT ISZERO PUSH2 0x25A JUMPI PUSH1 0x40 MLOAD PUSH32 0x8C379A000000000000000000000000000000000000000000000000000000000 DUP2 MSTORE PUSH1 0x4 ADD PUSH2 0x251 SWAP1 PUSH2 0x5C2 JUMP JUMPDEST PUSH1 0x40 MLOAD DUP1 SWAP2 SUB SWAP1 REVERT JUMPDEST PUSH1 0x0 ISZERO ISZERO PUSH1 0x3 PUSH1 0x0 SWAP1 SLOAD SWAP1 PUSH2 0x100 EXP SWAP1 DIV PUSH1 0xFF AND ISZERO ISZERO EQ PUSH2 0x2B0 JUMPI PUSH1 0x40 MLOAD PUSH32 0x8C379A000000000000000000000000000000000000000000000000000000000 DUP2 MSTORE PUSH1 0x4 ADD PUSH2 0x2A7 SWAP1 PUSH2 0x5A2 JUMP JUMPDEST PUSH1 0x40 MLOAD DUP1 SWAP2 SUB SWAP1 REVERT JUMPDEST PUSH1 0x1 PUSH1 0x3 PUSH1 0x0 PUSH2 0x100 EXP DUP2 SLOAD DUP2 PUSH1 0xFF MUL NOT AND SWAP1 DUP4 ISZERO ISZERO MUL OR SWAP1 SSTORE POP SELFBALANCE PUSH1 0x4 DUP2 SWAP1 SSTORE POP PUSH9 0x1BC16D674EC800000 SELFBALANCE PUSH2 0x2E7 SWAP2 SWAP1 PUSH2 0x6AC JUMP JUMPDEST PUSH1 0x5 DUP2 SWAP1 SSTORE POP JUMP JUMPDEST PUSH1 0x4 SLOAD DUP2 JUMP JUMPDEST PUSH1 0x5 SLOAD DUP2 JUMP JUMPDEST PUSH1 0x6 PUSH1 0x20 MSTORE DUP1 PUSH1 0x0 MSTORE PUSH1 0x40 PUSH1 0x0 KECCAK256 PUSH1 0x0 SWAP2 POP SLOAD SWAP1 PUSH2 0x100 EXP SWAP1 DIV PUSH1 0xFF AND DUP2 JUMP JUMPDEST PUSH1 0x3 PUSH1 0x0 SWAP1 SLOAD SWAP1 PUSH2 0x100 EXP SWAP1 DIV PUSH1 0xFF AND DUP2 JUMP JUMPDEST PUSH1 0x2 SLOAD TIMESTAMP LT PUSH2 0x372 JUMPI PUSH1 0x40 MLOAD PUSH32 0x8C379A000000000000000000000000000000000000000000000000000000000 DUP2 MSTORE PUSH1 0x4 ADD PUSH2 0x369 SWAP1 PUSH2 0x582 JUMP JUMPDEST PUSH1 0x40 MLOAD DUP1 SWAP2 SUB SWAP1 REVERT JUMPDEST PUSH1 0x0 DUP1 PUSH1 0x0 CALLER PUSH20 0xFFFFFFFFFFFFFFFFFFFFFFFFFFFFFFFFFFFFFFFF AND PUSH20 0xFFFFFFFFFFFFFFFFFFFFFFFFFFFFFFFFFFFFFFFF AND DUP2 MSTORE PUSH1 0x20 ADD SWAP1 DUP2 MSTORE PUSH1 0x20 ADD PUSH1 0x0 KECCAK256 SLOAD EQ ISZERO PUSH2 0x3F1 JUMPI PUSH32 0x97D33A7365E760E859A3453F70484EA24A4AEB75478205A52AC35174EAD0CCF6 CALLER PUSH1 0x40 MLOAD PUSH2 0x3E8 SWAP2 SWAP1 PUSH2 0x54C JUMP JUMPDEST PUSH1 0x40 MLOAD DUP1 SWAP2 SUB SWAP1 LOG1 JUMPDEST CALLVALUE PUSH1 0x0 DUP1 CALLER PUSH20 0xFFFFFFFFFFFFFFFFFFFFFFFFFFFFFFFFFFFFFFFF AND PUSH20 0xFFFFFFFFFFFFFFFFFFFFFFFFFFFFFFFFFFFFFFFF AND DUP2 MSTORE PUSH1 0x20 ADD SWAP1 DUP2 MSTORE PUSH1 0x20 ADD PUSH1 0x0 KECCAK256 PUSH1 0x0 DUP3 DUP3 SLOAD PUSH2 0x43F SWAP2 SWAP1 PUSH2 0x60E JUMP JUMPDEST SWAP3 POP POP DUP2 SWAP1 SSTORE POP JUMP JUMPDEST PUSH1 0x2 SLOAD DUP2 JUMP JUMPDEST PUSH1 0x1 PUSH1 0x0 SWAP1 SLOAD SWAP1 PUSH2 0x100 EXP SWAP1 DIV PUSH20 0xFFFFFFFFFFFFFFFFFFFFFFFFFFFFFFFFFFFFFFFF AND DUP2 JUMP JUMPDEST PUSH1 0x0 DUP2 CALLDATALOAD SWAP1 POP PUSH2 0x483 DUP2 PUSH2 0x7BB JUMP JUMPDEST SWAP3 SWAP2 POP POP JUMP JUMPDEST PUSH1 0x0 PUSH1 0x20 DUP3 DUP5 SUB SLT ISZERO PUSH2 0x49F JUMPI PUSH2 0x49E PUSH2 0x73B JUMP JUMPDEST JUMPDEST PUSH1 0x0 PUSH2 0x4AD DUP5 DUP3 DUP6 ADD PUSH2 0x474 JUMP JUMPDEST SWAP2 POP POP SWAP3 SWAP2 POP POP JUMP JUMPDEST PUSH2 0x4BF DUP2 PUSH2 0x664 JUMP JUMPDEST DUP3 MSTORE POP POP JUMP JUMPDEST PUSH2 0x4CE DUP2 PUSH2 0x676 JUMP JUMPDEST DUP3 MSTORE POP POP JUMP JUMPDEST PUSH1 0x0 PUSH2 0x4E1 PUSH1 0x8 DUP4 PUSH2 0x5FD JUMP JUMPDEST SWAP2 POP PUSH2 0x4EC DUP3 PUSH2 0x740 JUMP JUMPDEST PUSH1 0x20 DUP3 ADD SWAP1 POP SWAP2 SWAP1 POP JUMP JUMPDEST PUSH1 0x0 PUSH2 0x504 PUSH1 0x11 DUP4 PUSH2 0x5FD JUMP JUMPDEST SWAP2 POP PUSH2 0x50F DUP3 PUSH2 0x769 JUMP JUMPDEST PUSH1 0x20 DUP3 ADD SWAP1 POP SWAP2 SWAP1 POP JUMP JUMPDEST PUSH1 0x0 PUSH2 0x527 PUSH1 0x9 DUP4 PUSH2 0x5FD JUMP JUMPDEST SWAP2 POP PUSH2 0x532 DUP3 PUSH2 0x792 JUMP JUMPDEST PUSH1 0x20 DUP3 ADD SWAP1 POP SWAP2 SWAP1 POP JUMP JUMPDEST PUSH2 0x546 DUP2 PUSH2 0x6A2 JUMP JUMPDEST DUP3 MSTORE POP POP JUMP JUMPDEST PUSH1 0x0 PUSH1 0x20 DUP3 ADD SWAP1 POP PUSH2 0x561 PUSH1 0x0 DUP4 ADD DUP5 PUSH2 0x4B6 JUMP JUMPDEST SWAP3 SWAP2 POP POP JUMP JUMPDEST PUSH1 0x0 PUSH1 0x20 DUP3 ADD SWAP1 POP PUSH2 0x57C PUSH1 0x0 DUP4 ADD DUP5 PUSH2 0x4C5 JUMP JUMPDEST SWAP3 SWAP2 POP POP JUMP JUMPDEST PUSH1 0x0 PUSH1 0x20 DUP3 ADD SWAP1 POP DUP2 DUP2 SUB PUSH1 0x0 DUP4 ADD MSTORE PUSH2 0x59B DUP2 PUSH2 0x4D4 JUMP JUMPDEST SWAP1 POP SWAP2 SWAP1 POP JUMP JUMPDEST PUSH1 0x0 PUSH1 0x20 DUP3 ADD SWAP1 POP DUP2 DUP2 SUB PUSH1 0x0 DUP4 ADD MSTORE PUSH2 0x5BB DUP2 PUSH2 0x4F7 JUMP JUMPDEST SWAP1 POP SWAP2 SWAP1 POP JUMP JUMPDEST PUSH1 0x0 PUSH1 0x20 DUP3 ADD SWAP1 POP DUP2 DUP2 SUB PUSH1 0x0 DUP4 ADD MSTORE PUSH2 0x5DB DUP2 PUSH2 0x51A JUMP JUMPDEST SWAP1 POP SWAP2 SWAP1 POP JUMP JUMPDEST PUSH1 0x0 PUSH1 0x20 DUP3 ADD SWAP1 POP PUSH2 0x5F7 PUSH1 0x0 DUP4 ADD DUP5 PUSH2 0x53D JUMP JUMPDEST SWAP3 SWAP2 POP POP JUMP JUMPDEST PUSH1 0x0 DUP3 DUP3 MSTORE PUSH1 0x20 DUP3 ADD SWAP1 POP SWAP3 SWAP2 POP POP JUMP JUMPDEST PUSH1 0x0 PUSH2 0x619 DUP3 PUSH2 0x6A2 JUMP JUMPDEST SWAP2 POP PUSH2 0x624 DUP4 PUSH2 0x6A2 JUMP JUMPDEST SWAP3 POP DUP3 PUSH32 0xFFFFFFFFFFFFFFFFFFFFFFFFFFFFFFFFFFFFFFFFFFFFFFFFFFFFFFFFFFFFFFFF SUB DUP3 GT ISZERO PUSH2 0x659 JUMPI PUSH2 0x658 PUSH2 0x6DD JUMP JUMPDEST JUMPDEST DUP3 DUP3 ADD SWAP1 POP SWAP3 SWAP2 POP POP JUMP JUMPDEST PUSH1 0x0 PUSH2 0x66F DUP3 PUSH2 0x682 JUMP JUMPDEST SWAP1 POP SWAP2 SWAP1 POP JUMP JUMPDEST PUSH1 0x0 DUP2 ISZERO ISZERO SWAP1 POP SWAP2 SWAP1 POP JUMP JUMPDEST PUSH1 0x0 PUSH20 0xFFFFFFFFFFFFFFFFFFFFFFFFFFFFFFFFFFFFFFFF DUP3 AND SWAP1 POP SWAP2 SWAP1 POP JUMP JUMPDEST PUSH1 0x0 DUP2 SWAP1 POP SWAP2 SWAP1 POP JUMP JUMPDEST PUSH1 0x0 PUSH2 0x6B7 DUP3 PUSH2 0x6A2 JUMP JUMPDEST SWAP2 POP PUSH2 0x6C2 DUP4 PUSH2 0x6A2 JUMP JUMPDEST SWAP3 POP DUP3 PUSH2 0x6D2 JUMPI PUSH2 0x6D1 PUSH2 0x70C JUMP JUMPDEST JUMPDEST DUP3 DUP3 MOD SWAP1 POP SWAP3 SWAP2 POP POP JUMP JUMPDEST PUSH32 0x4E487B7100000000000000000000000000000000000000000000000000000000 PUSH1 0x0 MSTORE PUSH1 0x11 PUSH1 0x4 MSTORE PUSH1 0x24 PUSH1 0x0 REVERT JUMPDEST PUSH32 0x4E487B7100000000000000000000000000000000000000000000000000000000 PUSH1 0x0 MSTORE PUSH1 0x12 PUSH1 0x4 MSTORE PUSH1 0x24 PUSH1 0x0 REVERT JUMPDEST PUSH1 0x0 DUP1 REVERT JUMPDEST PUSH32 0x546F6F204C617465000000000000000000000000000000000000000000000000 PUSH1 0x0 DUP3 ADD MSTORE POP JUMP JUMPDEST PUSH32 0x616C72656164792066696E616C697A6564000000000000000000000000000000 PUSH1 0x0 DUP3 ADD MSTORE POP JUMP JUMPDEST PUSH32 0x746F6F206561726C790000000000000000000000000000000000000000000000 PUSH1 0x0 DUP3 ADD MSTORE POP JUMP JUMPDEST PUSH2 0x7C4 DUP2 PUSH2 0x664 JUMP JUMPDEST DUP2 EQ PUSH2 0x7CF JUMPI PUSH1 0x0 DUP1 REVERT JUMPDEST POP JUMP INVALID LOG2 PUSH5 0x6970667358 0x22 SLT KECCAK256 PUSH26 0xA857B6B1098E77DDA4ADB217D4D2182A1078E24FBB2A222981F7 0x24 PUSH4 0xCD010E64 PUSH20 0x6F6C634300080700330000000000000000000000 "
				},
				"gasEstimates": {
					"creation": {
						"codeDepositCost": "411200",
						"executionCost": "infinite",
						"totalCost": "infinite"
					},
					"external": {
						"admin()": "2602",
						"balances(address)": "2815",
						"changeClaimed(address)": "2845",
						"end()": "2495",
						"finalize()": "infinite",
						"finalized()": "2493",
						"invest()": "infinite",
						"totalChange()": "2496",
						"totalInvested()": "2474"
					}
				},
				"methodIdentifiers": {
					"admin()": "f851a440",
					"balances(address)": "27e235e3",
					"changeClaimed(address)": "7aa8ff19",
					"end()": "efbe1c1c",
					"finalize()": "4bb278f3",
					"finalized()": "b3f05b97",
					"invest()": "e8b5e51f",
					"totalChange()": "5411c7bd",
					"totalInvested()": "5216aeec"
				}
			},
			"userdoc": {
				"kind": "user",
				"methods": {},
				"version": 1
			}
		}
	}
}