{
	"contracts/StakingPool.sol": {
		"StakingPool": {
			"abi": [
				{
					"inputs": [],
					"stateMutability": "nonpayable",
					"type": "constructor"
				},
				{
					"inputs": [],
					"name": "admin",
					"outputs": [
						{
							"internalType": "address",
							"name": "",
							"type": "address"
						}
					],
					"stateMutability": "view",
					"type": "function"
				},
				{
					"inputs": [],
					"name": "end",
					"outputs": [
						{
							"internalType": "uint256",
							"name": "",
							"type": "uint256"
						}
					],
					"stateMutability": "view",
					"type": "function"
				},
				{
					"inputs": [],
					"name": "invest",
					"outputs": [],
					"stateMutability": "payable",
					"type": "function"
				}
			],
			"devdoc": {
				"kind": "dev",
				"methods": {},
				"version": 1
			},
			"evm": {
				"assembly": "    /* \"contracts/StakingPool.sol\":74:342  contract StakingPool{\r... */\n  mstore(0x40, 0x80)\n    /* \"contracts/StakingPool.sol\":193:285  constructor(){\r... */\n  callvalue\n  dup1\n  iszero\n  tag_1\n  jumpi\n  0x00\n  dup1\n  revert\ntag_1:\n  pop\n    /* \"contracts/StakingPool.sol\":225:235  msg.sender */\n  caller\n    /* \"contracts/StakingPool.sol\":217:222  admin */\n  0x00\n  dup1\n    /* \"contracts/StakingPool.sol\":217:235  admin = msg.sender */\n  0x0100\n  exp\n  dup2\n  sload\n  dup2\n  0xffffffffffffffffffffffffffffffffffffffff\n  mul\n  not\n  and\n  swap1\n  dup4\n  0xffffffffffffffffffffffffffffffffffffffff\n  and\n  mul\n  or\n  swap1\n  sstore\n  pop\n    /* \"contracts/StakingPool.sol\":271:277  7 days */\n  0x093a80\n    /* \"contracts/StakingPool.sol\":253:268  block.timestamp */\n  timestamp\n    /* \"contracts/StakingPool.sol\":253:277  block.timestamp + 7 days */\n  tag_4\n  swap2\n  swap1\n  tag_5\n  jump\t// in\ntag_4:\n    /* \"contracts/StakingPool.sol\":246:249  end */\n  0x01\n    /* \"contracts/StakingPool.sol\":246:277  end  = block.timestamp + 7 days */\n  dup2\n  swap1\n  sstore\n  pop\n    /* \"contracts/StakingPool.sol\":74:342  contract StakingPool{\r... */\n  jump(tag_6)\n    /* \"#utility.yul\":7:312   */\ntag_5:\n    /* \"#utility.yul\":47:50   */\n  0x00\n    /* \"#utility.yul\":66:86   */\n  tag_9\n    /* \"#utility.yul\":84:85   */\n  dup3\n    /* \"#utility.yul\":66:86   */\n  tag_10\n  jump\t// in\ntag_9:\n    /* \"#utility.yul\":61:86   */\n  swap2\n  pop\n    /* \"#utility.yul\":100:120   */\n  tag_11\n    /* \"#utility.yul\":118:119   */\n  dup4\n    /* \"#utility.yul\":100:120   */\n  tag_10\n  jump\t// in\ntag_11:\n    /* \"#utility.yul\":95:120   */\n  swap3\n  pop\n    /* \"#utility.yul\":254:255   */\n  dup3\n    /* \"#utility.yul\":186:252   */\n  0xffffffffffffffffffffffffffffffffffffffffffffffffffffffffffffffff\n    /* \"#utility.yul\":182:256   */\n  sub\n    /* \"#utility.yul\":179:180   */\n  dup3\n    /* \"#utility.yul\":176:257   */\n  gt\n    /* \"#utility.yul\":173:280   */\n  iszero\n  tag_12\n  jumpi\n    /* \"#utility.yul\":260:278   */\n  tag_13\n  tag_14\n  jump\t// in\ntag_13:\n    /* \"#utility.yul\":173:280   */\ntag_12:\n    /* \"#utility.yul\":304:305   */\n  dup3\n    /* \"#utility.yul\":301:302   */\n  dup3\n    /* \"#utility.yul\":297:306   */\n  add\n    /* \"#utility.yul\":290:306   */\n  swap1\n  pop\n    /* \"#utility.yul\":7:312   */\n  swap3\n  swap2\n  pop\n  pop\n  jump\t// out\n    /* \"#utility.yul\":318:395   */\ntag_10:\n    /* \"#utility.yul\":355:362   */\n  0x00\n    /* \"#utility.yul\":384:389   */\n  dup2\n    /* \"#utility.yul\":373:389   */\n  swap1\n  pop\n    /* \"#utility.yul\":318:395   */\n  swap2\n  swap1\n  pop\n  jump\t// out\n    /* \"#utility.yul\":401:581   */\ntag_14:\n    /* \"#utility.yul\":449:526   */\n  0x4e487b7100000000000000000000000000000000000000000000000000000000\n    /* \"#utility.yul\":446:447   */\n  0x00\n    /* \"#utility.yul\":439:527   */\n  mstore\n    /* \"#utility.yul\":546:550   */\n  0x11\n    /* \"#utility.yul\":543:544   */\n  0x04\n    /* \"#utility.yul\":536:551   */\n  mstore\n    /* \"#utility.yul\":570:574   */\n  0x24\n    /* \"#utility.yul\":567:568   */\n  0x00\n    /* \"#utility.yul\":560:575   */\n  revert\n    /* \"contracts/StakingPool.sol\":74:342  contract StakingPool{\r... */\ntag_6:\n  dataSize(sub_0)\n  dup1\n  dataOffset(sub_0)\n  0x00\n  codecopy\n  0x00\n  return\nstop\n\nsub_0: assembly {\n        /* \"contracts/StakingPool.sol\":74:342  contract StakingPool{\r... */\n      mstore(0x40, 0x80)\n      jumpi(tag_1, lt(calldatasize, 0x04))\n      shr(0xe0, calldataload(0x00))\n      dup1\n      0xe8b5e51f\n      eq\n      tag_2\n      jumpi\n      dup1\n      0xefbe1c1c\n      eq\n      tag_3\n      jumpi\n      dup1\n      0xf851a440\n      eq\n      tag_4\n      jumpi\n    tag_1:\n      0x00\n      dup1\n      revert\n        /* \"contracts/StakingPool.sol\":293:337  function invest() external payable{\r... */\n    tag_2:\n      tag_5\n      tag_6\n      jump\t// in\n    tag_5:\n      stop\n        /* \"contracts/StakingPool.sol\":134:149  uint public end */\n    tag_3:\n      callvalue\n      dup1\n      iszero\n      tag_7\n      jumpi\n      0x00\n      dup1\n      revert\n    tag_7:\n      pop\n      tag_8\n      tag_9\n      jump\t// in\n    tag_8:\n      mload(0x40)\n      tag_10\n      swap2\n      swap1\n      tag_11\n      jump\t// in\n    tag_10:\n      mload(0x40)\n      dup1\n      swap2\n      sub\n      swap1\n      return\n        /* \"contracts/StakingPool.sol\":107:127  address public admin */\n    tag_4:\n      callvalue\n      dup1\n      iszero\n      tag_12\n      jumpi\n      0x00\n      dup1\n      revert\n    tag_12:\n      pop\n      tag_13\n      tag_14\n      jump\t// in\n    tag_13:\n      mload(0x40)\n      tag_15\n      swap2\n      swap1\n      tag_16\n      jump\t// in\n    tag_15:\n      mload(0x40)\n      dup1\n      swap2\n      sub\n      swap1\n      return\n        /* \"contracts/StakingPool.sol\":293:337  function invest() external payable{\r... */\n    tag_6:\n      jump\t// out\n        /* \"contracts/StakingPool.sol\":134:149  uint public end */\n    tag_9:\n      sload(0x01)\n      dup2\n      jump\t// out\n        /* \"contracts/StakingPool.sol\":107:127  address public admin */\n    tag_14:\n      0x00\n      dup1\n      sload\n      swap1\n      0x0100\n      exp\n      swap1\n      div\n      0xffffffffffffffffffffffffffffffffffffffff\n      and\n      dup2\n      jump\t// out\n        /* \"#utility.yul\":7:125   */\n    tag_19:\n        /* \"#utility.yul\":94:118   */\n      tag_21\n        /* \"#utility.yul\":112:117   */\n      dup2\n        /* \"#utility.yul\":94:118   */\n      tag_22\n      jump\t// in\n    tag_21:\n        /* \"#utility.yul\":89:92   */\n      dup3\n        /* \"#utility.yul\":82:119   */\n      mstore\n        /* \"#utility.yul\":7:125   */\n      pop\n      pop\n      jump\t// out\n        /* \"#utility.yul\":131:249   */\n    tag_23:\n        /* \"#utility.yul\":218:242   */\n      tag_25\n        /* \"#utility.yul\":236:241   */\n      dup2\n        /* \"#utility.yul\":218:242   */\n      tag_26\n      jump\t// in\n    tag_25:\n        /* \"#utility.yul\":213:216   */\n      dup3\n        /* \"#utility.yul\":206:243   */\n      mstore\n        /* \"#utility.yul\":131:249   */\n      pop\n      pop\n      jump\t// out\n        /* \"#utility.yul\":255:477   */\n    tag_16:\n        /* \"#utility.yul\":348:352   */\n      0x00\n        /* \"#utility.yul\":386:388   */\n      0x20\n        /* \"#utility.yul\":375:384   */\n      dup3\n        /* \"#utility.yul\":371:389   */\n      add\n        /* \"#utility.yul\":363:389   */\n      swap1\n      pop\n        /* \"#utility.yul\":399:470   */\n      tag_28\n        /* \"#utility.yul\":467:468   */\n      0x00\n        /* \"#utility.yul\":456:465   */\n      dup4\n        /* \"#utility.yul\":452:469   */\n      add\n        /* \"#utility.yul\":443:449   */\n      dup5\n        /* \"#utility.yul\":399:470   */\n      tag_19\n      jump\t// in\n    tag_28:\n        /* \"#utility.yul\":255:477   */\n      swap3\n      swap2\n      pop\n      pop\n      jump\t// out\n        /* \"#utility.yul\":483:705   */\n    tag_11:\n        /* \"#utility.yul\":576:580   */\n      0x00\n        /* \"#utility.yul\":614:616   */\n      0x20\n        /* \"#utility.yul\":603:612   */\n      dup3\n        /* \"#utility.yul\":599:617   */\n      add\n        /* \"#utility.yul\":591:617   */\n      swap1\n      pop\n        /* \"#utility.yul\":627:698   */\n      tag_30\n        /* \"#utility.yul\":695:696   */\n      0x00\n        /* \"#utility.yul\":684:693   */\n      dup4\n        /* \"#utility.yul\":680:697   */\n      add\n        /* \"#utility.yul\":671:677   */\n      dup5\n        /* \"#utility.yul\":627:698   */\n      tag_23\n      jump\t// in\n    tag_30:\n        /* \"#utility.yul\":483:705   */\n      swap3\n      swap2\n      pop\n      pop\n      jump\t// out\n        /* \"#utility.yul\":711:807   */\n    tag_22:\n        /* \"#utility.yul\":748:755   */\n      0x00\n        /* \"#utility.yul\":777:801   */\n      tag_32\n        /* \"#utility.yul\":795:800   */\n      dup3\n        /* \"#utility.yul\":777:801   */\n      tag_33\n      jump\t// in\n    tag_32:\n        /* \"#utility.yul\":766:801   */\n      swap1\n      pop\n        /* \"#utility.yul\":711:807   */\n      swap2\n      swap1\n      pop\n      jump\t// out\n        /* \"#utility.yul\":813:939   */\n    tag_33:\n        /* \"#utility.yul\":850:857   */\n      0x00\n        /* \"#utility.yul\":890:932   */\n      0xffffffffffffffffffffffffffffffffffffffff\n        /* \"#utility.yul\":883:888   */\n      dup3\n        /* \"#utility.yul\":879:933   */\n      and\n        /* \"#utility.yul\":868:933   */\n      swap1\n      pop\n        /* \"#utility.yul\":813:939   */\n      swap2\n      swap1\n      pop\n      jump\t// out\n        /* \"#utility.yul\":945:1022   */\n    tag_26:\n        /* \"#utility.yul\":982:989   */\n      0x00\n        /* \"#utility.yul\":1011:1016   */\n      dup2\n        /* \"#utility.yul\":1000:1016   */\n      swap1\n      pop\n        /* \"#utility.yul\":945:1022   */\n      swap2\n      swap1\n      pop\n      jump\t// out\n\n    auxdata: 0xa2646970667358221220928f362c70d8cb362eeb75d2e12ab5c404726364139af0ee45e16cd9fcf43c1e64736f6c63430008070033\n}\n",
				"bytecode": {
					"linkReferences": {},
					"object": "608060405234801561001057600080fd5b50336000806101000a81548173ffffffffffffffffffffffffffffffffffffffff021916908373ffffffffffffffffffffffffffffffffffffffff16021790555062093a8042610060919061006b565b6001819055506100fa565b6000610076826100c1565b9150610081836100c1565b9250827fffffffffffffffffffffffffffffffffffffffffffffffffffffffffffffffff038211156100b6576100b56100cb565b5b828201905092915050565b6000819050919050565b7f4e487b7100000000000000000000000000000000000000000000000000000000600052601160045260246000fd5b61018b806101096000396000f3fe6080604052600436106100345760003560e01c8063e8b5e51f14610039578063efbe1c1c14610043578063f851a4401461006e575b600080fd5b610041610099565b005b34801561004f57600080fd5b5061005861009b565b60405161006591906100fe565b60405180910390f35b34801561007a57600080fd5b506100836100a1565b60405161009091906100e3565b60405180910390f35b565b60015481565b60008054906101000a900473ffffffffffffffffffffffffffffffffffffffff1681565b6100ce81610119565b82525050565b6100dd8161014b565b82525050565b60006020820190506100f860008301846100c5565b92915050565b600060208201905061011360008301846100d4565b92915050565b60006101248261012b565b9050919050565b600073ffffffffffffffffffffffffffffffffffffffff82169050919050565b600081905091905056fea2646970667358221220928f362c70d8cb362eeb75d2e12ab5c404726364139af0ee45e16cd9fcf43c1e64736f6c63430008070033",
					"opcodes": "PUSH1 0x80 PUSH1 0x40 MSTORE CALLVALUE DUP1 ISZERO PUSH2 0x10 JUMPI PUSH1 0x0 DUP1 REVERT JUMPDEST POP CALLER PUSH1 0x0 DUP1 PUSH2 0x100 EXP DUP2 SLOAD DUP2 PUSH20 0xFFFFFFFFFFFFFFFFFFFFFFFFFFFFFFFFFFFFFFFF MUL NOT AND SWAP1 DUP4 PUSH20 0xFFFFFFFFFFFFFFFFFFFFFFFFFFFFFFFFFFFFFFFF AND MUL OR SWAP1 SSTORE POP PUSH3 0x93A80 TIMESTAMP PUSH2 0x60 SWAP2 SWAP1 PUSH2 0x6B JUMP JUMPDEST PUSH1 0x1 DUP2 SWAP1 SSTORE POP PUSH2 0xFA JUMP JUMPDEST PUSH1 0x0 PUSH2 0x76 DUP3 PUSH2 0xC1 JUMP JUMPDEST SWAP2 POP PUSH2 0x81 DUP4 PUSH2 0xC1 JUMP JUMPDEST SWAP3 POP DUP3 PUSH32 0xFFFFFFFFFFFFFFFFFFFFFFFFFFFFFFFFFFFFFFFFFFFFFFFFFFFFFFFFFFFFFFFF SUB DUP3 GT ISZERO PUSH2 0xB6 JUMPI PUSH2 0xB5 PUSH2 0xCB JUMP JUMPDEST JUMPDEST DUP3 DUP3 ADD SWAP1 POP SWAP3 SWAP2 POP POP JUMP JUMPDEST PUSH1 0x0 DUP2 SWAP1 POP SWAP2 SWAP1 POP JUMP JUMPDEST PUSH32 0x4E487B7100000000000000000000000000000000000000000000000000000000 PUSH1 0x0 MSTORE PUSH1 0x11 PUSH1 0x4 MSTORE PUSH1 0x24 PUSH1 0x0 REVERT JUMPDEST PUSH2 0x18B DUP1 PUSH2 0x109 PUSH1 0x0 CODECOPY PUSH1 0x0 RETURN INVALID PUSH1 0x80 PUSH1 0x40 MSTORE PUSH1 0x4 CALLDATASIZE LT PUSH2 0x34 JUMPI PUSH1 0x0 CALLDATALOAD PUSH1 0xE0 SHR DUP1 PUSH4 0xE8B5E51F EQ PUSH2 0x39 JUMPI DUP1 PUSH4 0xEFBE1C1C EQ PUSH2 0x43 JUMPI DUP1 PUSH4 0xF851A440 EQ PUSH2 0x6E JUMPI JUMPDEST PUSH1 0x0 DUP1 REVERT JUMPDEST PUSH2 0x41 PUSH2 0x99 JUMP JUMPDEST STOP JUMPDEST CALLVALUE DUP1 ISZERO PUSH2 0x4F JUMPI PUSH1 0x0 DUP1 REVERT JUMPDEST POP PUSH2 0x58 PUSH2 0x9B JUMP JUMPDEST PUSH1 0x40 MLOAD PUSH2 0x65 SWAP2 SWAP1 PUSH2 0xFE JUMP JUMPDEST PUSH1 0x40 MLOAD DUP1 SWAP2 SUB SWAP1 RETURN JUMPDEST CALLVALUE DUP1 ISZERO PUSH2 0x7A JUMPI PUSH1 0x0 DUP1 REVERT JUMPDEST POP PUSH2 0x83 PUSH2 0xA1 JUMP JUMPDEST PUSH1 0x40 MLOAD PUSH2 0x90 SWAP2 SWAP1 PUSH2 0xE3 JUMP JUMPDEST PUSH1 0x40 MLOAD DUP1 SWAP2 SUB SWAP1 RETURN JUMPDEST JUMP JUMPDEST PUSH1 0x1 SLOAD DUP2 JUMP JUMPDEST PUSH1 0x0 DUP1 SLOAD SWAP1 PUSH2 0x100 EXP SWAP1 DIV PUSH20 0xFFFFFFFFFFFFFFFFFFFFFFFFFFFFFFFFFFFFFFFF AND DUP2 JUMP JUMPDEST PUSH2 0xCE DUP2 PUSH2 0x119 JUMP JUMPDEST DUP3 MSTORE POP POP JUMP JUMPDEST PUSH2 0xDD DUP2 PUSH2 0x14B JUMP JUMPDEST DUP3 MSTORE POP POP JUMP JUMPDEST PUSH1 0x0 PUSH1 0x20 DUP3 ADD SWAP1 POP PUSH2 0xF8 PUSH1 0x0 DUP4 ADD DUP5 PUSH2 0xC5 JUMP JUMPDEST SWAP3 SWAP2 POP POP JUMP JUMPDEST PUSH1 0x0 PUSH1 0x20 DUP3 ADD SWAP1 POP PUSH2 0x113 PUSH1 0x0 DUP4 ADD DUP5 PUSH2 0xD4 JUMP JUMPDEST SWAP3 SWAP2 POP POP JUMP JUMPDEST PUSH1 0x0 PUSH2 0x124 DUP3 PUSH2 0x12B JUMP JUMPDEST SWAP1 POP SWAP2 SWAP1 POP JUMP JUMPDEST PUSH1 0x0 PUSH20 0xFFFFFFFFFFFFFFFFFFFFFFFFFFFFFFFFFFFFFFFF DUP3 AND SWAP1 POP SWAP2 SWAP1 POP JUMP JUMPDEST PUSH1 0x0 DUP2 SWAP1 POP SWAP2 SWAP1 POP JUMP INVALID LOG2 PUSH5 0x6970667358 0x22 SLT KECCAK256 SWAP3 DUP16 CALLDATASIZE 0x2C PUSH17 0xD8CB362EEB75D2E12AB5C404726364139A CREATE 0xEE GASLIMIT 0xE1 PUSH13 0xD9FCF43C1E64736F6C63430008 SMOD STOP CALLER "
				},
				"gasEstimates": {
					"creation": {
						"codeDepositCost": "79000",
						"executionCost": "infinite",
						"totalCost": "infinite"
					},
					"external": {
						"admin()": "2533",
						"end()": "2429",
						"invest()": "98"
					}
				},
				"methodIdentifiers": {
					"admin()": "f851a440",
					"end()": "efbe1c1c",
					"invest()": "e8b5e51f"
				}
			},
			"userdoc": {
				"kind": "user",
				"methods": {},
				"version": 1
			}
		}
	}
}