{
	"contracts/StakingPool.sol": {
		"StakingPool": {
			"abi": [
				{
					"inputs": [],
					"stateMutability": "nonpayable",
					"type": "constructor"
				},
				{
					"anonymous": false,
					"inputs": [
						{
							"indexed": false,
							"internalType": "address",
							"name": "investor",
							"type": "address"
						}
					],
					"name": "NewInvestor",
					"type": "event"
				},
				{
					"inputs": [],
					"name": "admin",
					"outputs": [
						{
							"internalType": "address",
							"name": "",
							"type": "address"
						}
					],
					"stateMutability": "view",
					"type": "function"
				},
				{
					"inputs": [
						{
							"internalType": "address",
							"name": "",
							"type": "address"
						}
					],
					"name": "balances",
					"outputs": [
						{
							"internalType": "uint256",
							"name": "",
							"type": "uint256"
						}
					],
					"stateMutability": "view",
					"type": "function"
				},
				{
					"inputs": [],
					"name": "end",
					"outputs": [
						{
							"internalType": "uint256",
							"name": "",
							"type": "uint256"
						}
					],
					"stateMutability": "view",
					"type": "function"
				},
				{
					"inputs": [],
					"name": "finalize",
					"outputs": [],
					"stateMutability": "nonpayable",
					"type": "function"
				},
				{
					"inputs": [],
					"name": "finalized",
					"outputs": [
						{
							"internalType": "uint256",
							"name": "",
							"type": "uint256"
						}
					],
					"stateMutability": "view",
					"type": "function"
				},
				{
					"inputs": [],
					"name": "invest",
					"outputs": [],
					"stateMutability": "payable",
					"type": "function"
				},
				{
					"inputs": [],
					"name": "totalChange",
					"outputs": [
						{
							"internalType": "uint256",
							"name": "",
							"type": "uint256"
						}
					],
					"stateMutability": "view",
					"type": "function"
				},
				{
					"inputs": [],
					"name": "totalInvested",
					"outputs": [
						{
							"internalType": "uint256",
							"name": "",
							"type": "uint256"
						}
					],
					"stateMutability": "view",
					"type": "function"
				}
			],
			"devdoc": {
				"kind": "dev",
				"methods": {},
				"version": 1
			},
			"evm": {
				"assembly": "    /* \"contracts/StakingPool.sol\":74:804  contract StakingPool{\r... */\n  mstore(0x40, 0x80)\n    /* \"contracts/StakingPool.sol\":371:463  constructor(){\r... */\n  callvalue\n  dup1\n  iszero\n  tag_1\n  jumpi\n  0x00\n  dup1\n  revert\ntag_1:\n  pop\n    /* \"contracts/StakingPool.sol\":403:413  msg.sender */\n  caller\n    /* \"contracts/StakingPool.sol\":395:400  admin */\n  0x01\n  0x00\n    /* \"contracts/StakingPool.sol\":395:413  admin = msg.sender */\n  0x0100\n  exp\n  dup2\n  sload\n  dup2\n  0xffffffffffffffffffffffffffffffffffffffff\n  mul\n  not\n  and\n  swap1\n  dup4\n  0xffffffffffffffffffffffffffffffffffffffff\n  and\n  mul\n  or\n  swap1\n  sstore\n  pop\n    /* \"contracts/StakingPool.sol\":449:455  7 days */\n  0x093a80\n    /* \"contracts/StakingPool.sol\":431:446  block.timestamp */\n  timestamp\n    /* \"contracts/StakingPool.sol\":431:455  block.timestamp + 7 days */\n  tag_4\n  swap2\n  swap1\n  tag_5\n  jump\t// in\ntag_4:\n    /* \"contracts/StakingPool.sol\":424:427  end */\n  0x02\n    /* \"contracts/StakingPool.sol\":424:455  end  = block.timestamp + 7 days */\n  dup2\n  swap1\n  sstore\n  pop\n    /* \"contracts/StakingPool.sol\":74:804  contract StakingPool{\r... */\n  jump(tag_6)\n    /* \"#utility.yul\":7:312   */\ntag_5:\n    /* \"#utility.yul\":47:50   */\n  0x00\n    /* \"#utility.yul\":66:86   */\n  tag_9\n    /* \"#utility.yul\":84:85   */\n  dup3\n    /* \"#utility.yul\":66:86   */\n  tag_10\n  jump\t// in\ntag_9:\n    /* \"#utility.yul\":61:86   */\n  swap2\n  pop\n    /* \"#utility.yul\":100:120   */\n  tag_11\n    /* \"#utility.yul\":118:119   */\n  dup4\n    /* \"#utility.yul\":100:120   */\n  tag_10\n  jump\t// in\ntag_11:\n    /* \"#utility.yul\":95:120   */\n  swap3\n  pop\n    /* \"#utility.yul\":254:255   */\n  dup3\n    /* \"#utility.yul\":186:252   */\n  0xffffffffffffffffffffffffffffffffffffffffffffffffffffffffffffffff\n    /* \"#utility.yul\":182:256   */\n  sub\n    /* \"#utility.yul\":179:180   */\n  dup3\n    /* \"#utility.yul\":176:257   */\n  gt\n    /* \"#utility.yul\":173:280   */\n  iszero\n  tag_12\n  jumpi\n    /* \"#utility.yul\":260:278   */\n  tag_13\n  tag_14\n  jump\t// in\ntag_13:\n    /* \"#utility.yul\":173:280   */\ntag_12:\n    /* \"#utility.yul\":304:305   */\n  dup3\n    /* \"#utility.yul\":301:302   */\n  dup3\n    /* \"#utility.yul\":297:306   */\n  add\n    /* \"#utility.yul\":290:306   */\n  swap1\n  pop\n    /* \"#utility.yul\":7:312   */\n  swap3\n  swap2\n  pop\n  pop\n  jump\t// out\n    /* \"#utility.yul\":318:395   */\ntag_10:\n    /* \"#utility.yul\":355:362   */\n  0x00\n    /* \"#utility.yul\":384:389   */\n  dup2\n    /* \"#utility.yul\":373:389   */\n  swap1\n  pop\n    /* \"#utility.yul\":318:395   */\n  swap2\n  swap1\n  pop\n  jump\t// out\n    /* \"#utility.yul\":401:581   */\ntag_14:\n    /* \"#utility.yul\":449:526   */\n  0x4e487b7100000000000000000000000000000000000000000000000000000000\n    /* \"#utility.yul\":446:447   */\n  0x00\n    /* \"#utility.yul\":439:527   */\n  mstore\n    /* \"#utility.yul\":546:550   */\n  0x11\n    /* \"#utility.yul\":543:544   */\n  0x04\n    /* \"#utility.yul\":536:551   */\n  mstore\n    /* \"#utility.yul\":570:574   */\n  0x24\n    /* \"#utility.yul\":567:568   */\n  0x00\n    /* \"#utility.yul\":560:575   */\n  revert\n    /* \"contracts/StakingPool.sol\":74:804  contract StakingPool{\r... */\ntag_6:\n  dataSize(sub_0)\n  dup1\n  dataOffset(sub_0)\n  0x00\n  codecopy\n  0x00\n  return\nstop\n\nsub_0: assembly {\n        /* \"contracts/StakingPool.sol\":74:804  contract StakingPool{\r... */\n      mstore(0x40, 0x80)\n      jumpi(tag_1, lt(calldatasize, 0x04))\n      shr(0xe0, calldataload(0x00))\n      dup1\n      0xb3f05b97\n      gt\n      tag_10\n      jumpi\n      dup1\n      0xb3f05b97\n      eq\n      tag_6\n      jumpi\n      dup1\n      0xe8b5e51f\n      eq\n      tag_7\n      jumpi\n      dup1\n      0xefbe1c1c\n      eq\n      tag_8\n      jumpi\n      dup1\n      0xf851a440\n      eq\n      tag_9\n      jumpi\n      jump(tag_1)\n    tag_10:\n      dup1\n      0x27e235e3\n      eq\n      tag_2\n      jumpi\n      dup1\n      0x4bb278f3\n      eq\n      tag_3\n      jumpi\n      dup1\n      0x5216aeec\n      eq\n      tag_4\n      jumpi\n      dup1\n      0x5411c7bd\n      eq\n      tag_5\n      jumpi\n    tag_1:\n      0x00\n      dup1\n      revert\n        /* \"contracts/StakingPool.sol\":101:141  mapping(address => uint) public balances */\n    tag_2:\n      callvalue\n      dup1\n      iszero\n      tag_11\n      jumpi\n      0x00\n      dup1\n      revert\n    tag_11:\n      pop\n      tag_12\n      0x04\n      dup1\n      calldatasize\n      sub\n      dup2\n      add\n      swap1\n      tag_13\n      swap2\n      swap1\n      tag_14\n      jump\t// in\n    tag_13:\n      tag_15\n      jump\t// in\n    tag_12:\n      mload(0x40)\n      tag_16\n      swap2\n      swap1\n      tag_17\n      jump\t// in\n    tag_16:\n      mload(0x40)\n      dup1\n      swap2\n      sub\n      swap1\n      return\n        /* \"contracts/StakingPool.sol\":708:799  function finalize() external {\r... */\n    tag_3:\n      callvalue\n      dup1\n      iszero\n      tag_18\n      jumpi\n      0x00\n      dup1\n      revert\n    tag_18:\n      pop\n      tag_19\n      tag_20\n      jump\t// in\n    tag_19:\n      stop\n        /* \"contracts/StakingPool.sol\":261:286  uint public totalInvested */\n    tag_4:\n      callvalue\n      dup1\n      iszero\n      tag_21\n      jumpi\n      0x00\n      dup1\n      revert\n    tag_21:\n      pop\n      tag_22\n      tag_23\n      jump\t// in\n    tag_22:\n      mload(0x40)\n      tag_24\n      swap2\n      swap1\n      tag_17\n      jump\t// in\n    tag_24:\n      mload(0x40)\n      dup1\n      swap2\n      sub\n      swap1\n      return\n        /* \"contracts/StakingPool.sol\":294:317  uint public totalChange */\n    tag_5:\n      callvalue\n      dup1\n      iszero\n      tag_25\n      jumpi\n      0x00\n      dup1\n      revert\n    tag_25:\n      pop\n      tag_26\n      tag_27\n      jump\t// in\n    tag_26:\n      mload(0x40)\n      tag_28\n      swap2\n      swap1\n      tag_17\n      jump\t// in\n    tag_28:\n      mload(0x40)\n      dup1\n      swap2\n      sub\n      swap1\n      return\n        /* \"contracts/StakingPool.sol\":232:253  uint public finalized */\n    tag_6:\n      callvalue\n      dup1\n      iszero\n      tag_29\n      jumpi\n      0x00\n      dup1\n      revert\n    tag_29:\n      pop\n      tag_30\n      tag_31\n      jump\t// in\n    tag_30:\n      mload(0x40)\n      tag_32\n      swap2\n      swap1\n      tag_17\n      jump\t// in\n    tag_32:\n      mload(0x40)\n      dup1\n      swap2\n      sub\n      swap1\n      return\n        /* \"contracts/StakingPool.sol\":471:700  function invest() external payable{\r... */\n    tag_7:\n      tag_33\n      tag_34\n      jump\t// in\n    tag_33:\n      stop\n        /* \"contracts/StakingPool.sol\":175:190  uint public end */\n    tag_8:\n      callvalue\n      dup1\n      iszero\n      tag_35\n      jumpi\n      0x00\n      dup1\n      revert\n    tag_35:\n      pop\n      tag_36\n      tag_37\n      jump\t// in\n    tag_36:\n      mload(0x40)\n      tag_38\n      swap2\n      swap1\n      tag_17\n      jump\t// in\n    tag_38:\n      mload(0x40)\n      dup1\n      swap2\n      sub\n      swap1\n      return\n        /* \"contracts/StakingPool.sol\":148:168  address public admin */\n    tag_9:\n      callvalue\n      dup1\n      iszero\n      tag_39\n      jumpi\n      0x00\n      dup1\n      revert\n    tag_39:\n      pop\n      tag_40\n      tag_41\n      jump\t// in\n    tag_40:\n      mload(0x40)\n      tag_42\n      swap2\n      swap1\n      tag_43\n      jump\t// in\n    tag_42:\n      mload(0x40)\n      dup1\n      swap2\n      sub\n      swap1\n      return\n        /* \"contracts/StakingPool.sol\":101:141  mapping(address => uint) public balances */\n    tag_15:\n      mstore(0x20, 0x00)\n      dup1\n      0x00\n      mstore\n      keccak256(0x00, 0x40)\n      0x00\n      swap2\n      pop\n      swap1\n      pop\n      sload\n      dup2\n      jump\t// out\n        /* \"contracts/StakingPool.sol\":708:799  function finalize() external {\r... */\n    tag_20:\n        /* \"contracts/StakingPool.sol\":775:778  end */\n      sload(0x02)\n        /* \"contracts/StakingPool.sol\":756:771  block.timestamp */\n      timestamp\n        /* \"contracts/StakingPool.sol\":756:778  block.timestamp >= end */\n      lt\n      iszero\n        /* \"contracts/StakingPool.sol\":748:791  require(block.timestamp >= end,'too early') */\n      tag_45\n      jumpi\n      mload(0x40)\n      0x08c379a000000000000000000000000000000000000000000000000000000000\n      dup2\n      mstore\n      0x04\n      add\n      tag_46\n      swap1\n      tag_47\n      jump\t// in\n    tag_46:\n      mload(0x40)\n      dup1\n      swap2\n      sub\n      swap1\n      revert\n    tag_45:\n        /* \"contracts/StakingPool.sol\":708:799  function finalize() external {\r... */\n      jump\t// out\n        /* \"contracts/StakingPool.sol\":261:286  uint public totalInvested */\n    tag_23:\n      sload(0x04)\n      dup2\n      jump\t// out\n        /* \"contracts/StakingPool.sol\":294:317  uint public totalChange */\n    tag_27:\n      sload(0x05)\n      dup2\n      jump\t// out\n        /* \"contracts/StakingPool.sol\":232:253  uint public finalized */\n    tag_31:\n      sload(0x03)\n      dup2\n      jump\t// out\n        /* \"contracts/StakingPool.sol\":471:700  function invest() external payable{\r... */\n    tag_34:\n        /* \"contracts/StakingPool.sol\":541:544  end */\n      sload(0x02)\n        /* \"contracts/StakingPool.sol\":524:539  block.timestamp */\n      timestamp\n        /* \"contracts/StakingPool.sol\":524:544  block.timestamp< end */\n      lt\n        /* \"contracts/StakingPool.sol\":516:556  require(block.timestamp< end,'Too Late') */\n      tag_49\n      jumpi\n      mload(0x40)\n      0x08c379a000000000000000000000000000000000000000000000000000000000\n      dup2\n      mstore\n      0x04\n      add\n      tag_50\n      swap1\n      tag_51\n      jump\t// in\n    tag_50:\n      mload(0x40)\n      dup1\n      swap2\n      sub\n      swap1\n      revert\n    tag_49:\n        /* \"contracts/StakingPool.sol\":592:593  0 */\n      0x00\n        /* \"contracts/StakingPool.sol\":570:578  balances */\n      dup1\n        /* \"contracts/StakingPool.sol\":570:590  balances[msg.sender] */\n      0x00\n        /* \"contracts/StakingPool.sol\":579:589  msg.sender */\n      caller\n        /* \"contracts/StakingPool.sol\":570:590  balances[msg.sender] */\n      0xffffffffffffffffffffffffffffffffffffffff\n      and\n      0xffffffffffffffffffffffffffffffffffffffff\n      and\n      dup2\n      mstore\n      0x20\n      add\n      swap1\n      dup2\n      mstore\n      0x20\n      add\n      0x00\n      keccak256\n      sload\n        /* \"contracts/StakingPool.sol\":570:593  balances[msg.sender]==0 */\n      eq\n        /* \"contracts/StakingPool.sol\":567:649  if(balances[msg.sender]==0){\r... */\n      iszero\n      tag_52\n      jumpi\n        /* \"contracts/StakingPool.sol\":614:637  NewInvestor(msg.sender) */\n      0x97d33a7365e760e859a3453f70484ea24a4aeb75478205a52ac35174ead0ccf6\n        /* \"contracts/StakingPool.sol\":626:636  msg.sender */\n      caller\n        /* \"contracts/StakingPool.sol\":614:637  NewInvestor(msg.sender) */\n      mload(0x40)\n      tag_53\n      swap2\n      swap1\n      tag_43\n      jump\t// in\n    tag_53:\n      mload(0x40)\n      dup1\n      swap2\n      sub\n      swap1\n      log1\n        /* \"contracts/StakingPool.sol\":567:649  if(balances[msg.sender]==0){\r... */\n    tag_52:\n        /* \"contracts/StakingPool.sol\":683:692  msg.value */\n      callvalue\n        /* \"contracts/StakingPool.sol\":659:667  balances */\n      0x00\n        /* \"contracts/StakingPool.sol\":659:679  balances[msg.sender] */\n      dup1\n        /* \"contracts/StakingPool.sol\":668:678  msg.sender */\n      caller\n        /* \"contracts/StakingPool.sol\":659:679  balances[msg.sender] */\n      0xffffffffffffffffffffffffffffffffffffffff\n      and\n      0xffffffffffffffffffffffffffffffffffffffff\n      and\n      dup2\n      mstore\n      0x20\n      add\n      swap1\n      dup2\n      mstore\n      0x20\n      add\n      0x00\n      keccak256\n      0x00\n        /* \"contracts/StakingPool.sol\":659:692  balances[msg.sender] += msg.value */\n      dup3\n      dup3\n      sload\n      tag_54\n      swap2\n      swap1\n      tag_55\n      jump\t// in\n    tag_54:\n      swap3\n      pop\n      pop\n      dup2\n      swap1\n      sstore\n      pop\n        /* \"contracts/StakingPool.sol\":471:700  function invest() external payable{\r... */\n      jump\t// out\n        /* \"contracts/StakingPool.sol\":175:190  uint public end */\n    tag_37:\n      sload(0x02)\n      dup2\n      jump\t// out\n        /* \"contracts/StakingPool.sol\":148:168  address public admin */\n    tag_41:\n      0x01\n      0x00\n      swap1\n      sload\n      swap1\n      0x0100\n      exp\n      swap1\n      div\n      0xffffffffffffffffffffffffffffffffffffffff\n      and\n      dup2\n      jump\t// out\n        /* \"#utility.yul\":7:146   */\n    tag_57:\n        /* \"#utility.yul\":53:58   */\n      0x00\n        /* \"#utility.yul\":91:97   */\n      dup2\n        /* \"#utility.yul\":78:98   */\n      calldataload\n        /* \"#utility.yul\":69:98   */\n      swap1\n      pop\n        /* \"#utility.yul\":107:140   */\n      tag_59\n        /* \"#utility.yul\":134:139   */\n      dup2\n        /* \"#utility.yul\":107:140   */\n      tag_60\n      jump\t// in\n    tag_59:\n        /* \"#utility.yul\":7:146   */\n      swap3\n      swap2\n      pop\n      pop\n      jump\t// out\n        /* \"#utility.yul\":152:481   */\n    tag_14:\n        /* \"#utility.yul\":211:217   */\n      0x00\n        /* \"#utility.yul\":260:262   */\n      0x20\n        /* \"#utility.yul\":248:257   */\n      dup3\n        /* \"#utility.yul\":239:246   */\n      dup5\n        /* \"#utility.yul\":235:258   */\n      sub\n        /* \"#utility.yul\":231:263   */\n      slt\n        /* \"#utility.yul\":228:347   */\n      iszero\n      tag_62\n      jumpi\n        /* \"#utility.yul\":266:345   */\n      tag_63\n      tag_64\n      jump\t// in\n    tag_63:\n        /* \"#utility.yul\":228:347   */\n    tag_62:\n        /* \"#utility.yul\":386:387   */\n      0x00\n        /* \"#utility.yul\":411:464   */\n      tag_65\n        /* \"#utility.yul\":456:463   */\n      dup5\n        /* \"#utility.yul\":447:453   */\n      dup3\n        /* \"#utility.yul\":436:445   */\n      dup6\n        /* \"#utility.yul\":432:454   */\n      add\n        /* \"#utility.yul\":411:464   */\n      tag_57\n      jump\t// in\n    tag_65:\n        /* \"#utility.yul\":401:464   */\n      swap2\n      pop\n        /* \"#utility.yul\":357:474   */\n      pop\n        /* \"#utility.yul\":152:481   */\n      swap3\n      swap2\n      pop\n      pop\n      jump\t// out\n        /* \"#utility.yul\":487:605   */\n    tag_66:\n        /* \"#utility.yul\":574:598   */\n      tag_68\n        /* \"#utility.yul\":592:597   */\n      dup2\n        /* \"#utility.yul\":574:598   */\n      tag_69\n      jump\t// in\n    tag_68:\n        /* \"#utility.yul\":569:572   */\n      dup3\n        /* \"#utility.yul\":562:599   */\n      mstore\n        /* \"#utility.yul\":487:605   */\n      pop\n      pop\n      jump\t// out\n        /* \"#utility.yul\":611:976   */\n    tag_70:\n        /* \"#utility.yul\":753:756   */\n      0x00\n        /* \"#utility.yul\":774:840   */\n      tag_72\n        /* \"#utility.yul\":838:839   */\n      0x08\n        /* \"#utility.yul\":833:836   */\n      dup4\n        /* \"#utility.yul\":774:840   */\n      tag_73\n      jump\t// in\n    tag_72:\n        /* \"#utility.yul\":767:840   */\n      swap2\n      pop\n        /* \"#utility.yul\":849:942   */\n      tag_74\n        /* \"#utility.yul\":938:941   */\n      dup3\n        /* \"#utility.yul\":849:942   */\n      tag_75\n      jump\t// in\n    tag_74:\n        /* \"#utility.yul\":967:969   */\n      0x20\n        /* \"#utility.yul\":962:965   */\n      dup3\n        /* \"#utility.yul\":958:970   */\n      add\n        /* \"#utility.yul\":951:970   */\n      swap1\n      pop\n        /* \"#utility.yul\":611:976   */\n      swap2\n      swap1\n      pop\n      jump\t// out\n        /* \"#utility.yul\":982:1347   */\n    tag_76:\n        /* \"#utility.yul\":1124:1127   */\n      0x00\n        /* \"#utility.yul\":1145:1211   */\n      tag_78\n        /* \"#utility.yul\":1209:1210   */\n      0x09\n        /* \"#utility.yul\":1204:1207   */\n      dup4\n        /* \"#utility.yul\":1145:1211   */\n      tag_73\n      jump\t// in\n    tag_78:\n        /* \"#utility.yul\":1138:1211   */\n      swap2\n      pop\n        /* \"#utility.yul\":1220:1313   */\n      tag_79\n        /* \"#utility.yul\":1309:1312   */\n      dup3\n        /* \"#utility.yul\":1220:1313   */\n      tag_80\n      jump\t// in\n    tag_79:\n        /* \"#utility.yul\":1338:1340   */\n      0x20\n        /* \"#utility.yul\":1333:1336   */\n      dup3\n        /* \"#utility.yul\":1329:1341   */\n      add\n        /* \"#utility.yul\":1322:1341   */\n      swap1\n      pop\n        /* \"#utility.yul\":982:1347   */\n      swap2\n      swap1\n      pop\n      jump\t// out\n        /* \"#utility.yul\":1353:1471   */\n    tag_81:\n        /* \"#utility.yul\":1440:1464   */\n      tag_83\n        /* \"#utility.yul\":1458:1463   */\n      dup2\n        /* \"#utility.yul\":1440:1464   */\n      tag_84\n      jump\t// in\n    tag_83:\n        /* \"#utility.yul\":1435:1438   */\n      dup3\n        /* \"#utility.yul\":1428:1465   */\n      mstore\n        /* \"#utility.yul\":1353:1471   */\n      pop\n      pop\n      jump\t// out\n        /* \"#utility.yul\":1477:1699   */\n    tag_43:\n        /* \"#utility.yul\":1570:1574   */\n      0x00\n        /* \"#utility.yul\":1608:1610   */\n      0x20\n        /* \"#utility.yul\":1597:1606   */\n      dup3\n        /* \"#utility.yul\":1593:1611   */\n      add\n        /* \"#utility.yul\":1585:1611   */\n      swap1\n      pop\n        /* \"#utility.yul\":1621:1692   */\n      tag_86\n        /* \"#utility.yul\":1689:1690   */\n      0x00\n        /* \"#utility.yul\":1678:1687   */\n      dup4\n        /* \"#utility.yul\":1674:1691   */\n      add\n        /* \"#utility.yul\":1665:1671   */\n      dup5\n        /* \"#utility.yul\":1621:1692   */\n      tag_66\n      jump\t// in\n    tag_86:\n        /* \"#utility.yul\":1477:1699   */\n      swap3\n      swap2\n      pop\n      pop\n      jump\t// out\n        /* \"#utility.yul\":1705:2124   */\n    tag_51:\n        /* \"#utility.yul\":1871:1875   */\n      0x00\n        /* \"#utility.yul\":1909:1911   */\n      0x20\n        /* \"#utility.yul\":1898:1907   */\n      dup3\n        /* \"#utility.yul\":1894:1912   */\n      add\n        /* \"#utility.yul\":1886:1912   */\n      swap1\n      pop\n        /* \"#utility.yul\":1958:1967   */\n      dup2\n        /* \"#utility.yul\":1952:1956   */\n      dup2\n        /* \"#utility.yul\":1948:1968   */\n      sub\n        /* \"#utility.yul\":1944:1945   */\n      0x00\n        /* \"#utility.yul\":1933:1942   */\n      dup4\n        /* \"#utility.yul\":1929:1946   */\n      add\n        /* \"#utility.yul\":1922:1969   */\n      mstore\n        /* \"#utility.yul\":1986:2117   */\n      tag_88\n        /* \"#utility.yul\":2112:2116   */\n      dup2\n        /* \"#utility.yul\":1986:2117   */\n      tag_70\n      jump\t// in\n    tag_88:\n        /* \"#utility.yul\":1978:2117   */\n      swap1\n      pop\n        /* \"#utility.yul\":1705:2124   */\n      swap2\n      swap1\n      pop\n      jump\t// out\n        /* \"#utility.yul\":2130:2549   */\n    tag_47:\n        /* \"#utility.yul\":2296:2300   */\n      0x00\n        /* \"#utility.yul\":2334:2336   */\n      0x20\n        /* \"#utility.yul\":2323:2332   */\n      dup3\n        /* \"#utility.yul\":2319:2337   */\n      add\n        /* \"#utility.yul\":2311:2337   */\n      swap1\n      pop\n        /* \"#utility.yul\":2383:2392   */\n      dup2\n        /* \"#utility.yul\":2377:2381   */\n      dup2\n        /* \"#utility.yul\":2373:2393   */\n      sub\n        /* \"#utility.yul\":2369:2370   */\n      0x00\n        /* \"#utility.yul\":2358:2367   */\n      dup4\n        /* \"#utility.yul\":2354:2371   */\n      add\n        /* \"#utility.yul\":2347:2394   */\n      mstore\n        /* \"#utility.yul\":2411:2542   */\n      tag_90\n        /* \"#utility.yul\":2537:2541   */\n      dup2\n        /* \"#utility.yul\":2411:2542   */\n      tag_76\n      jump\t// in\n    tag_90:\n        /* \"#utility.yul\":2403:2542   */\n      swap1\n      pop\n        /* \"#utility.yul\":2130:2549   */\n      swap2\n      swap1\n      pop\n      jump\t// out\n        /* \"#utility.yul\":2555:2777   */\n    tag_17:\n        /* \"#utility.yul\":2648:2652   */\n      0x00\n        /* \"#utility.yul\":2686:2688   */\n      0x20\n        /* \"#utility.yul\":2675:2684   */\n      dup3\n        /* \"#utility.yul\":2671:2689   */\n      add\n        /* \"#utility.yul\":2663:2689   */\n      swap1\n      pop\n        /* \"#utility.yul\":2699:2770   */\n      tag_92\n        /* \"#utility.yul\":2767:2768   */\n      0x00\n        /* \"#utility.yul\":2756:2765   */\n      dup4\n        /* \"#utility.yul\":2752:2769   */\n      add\n        /* \"#utility.yul\":2743:2749   */\n      dup5\n        /* \"#utility.yul\":2699:2770   */\n      tag_81\n      jump\t// in\n    tag_92:\n        /* \"#utility.yul\":2555:2777   */\n      swap3\n      swap2\n      pop\n      pop\n      jump\t// out\n        /* \"#utility.yul\":2864:3033   */\n    tag_73:\n        /* \"#utility.yul\":2948:2959   */\n      0x00\n        /* \"#utility.yul\":2982:2988   */\n      dup3\n        /* \"#utility.yul\":2977:2980   */\n      dup3\n        /* \"#utility.yul\":2970:2989   */\n      mstore\n        /* \"#utility.yul\":3022:3026   */\n      0x20\n        /* \"#utility.yul\":3017:3020   */\n      dup3\n        /* \"#utility.yul\":3013:3027   */\n      add\n        /* \"#utility.yul\":2998:3027   */\n      swap1\n      pop\n        /* \"#utility.yul\":2864:3033   */\n      swap3\n      swap2\n      pop\n      pop\n      jump\t// out\n        /* \"#utility.yul\":3039:3344   */\n    tag_55:\n        /* \"#utility.yul\":3079:3082   */\n      0x00\n        /* \"#utility.yul\":3098:3118   */\n      tag_97\n        /* \"#utility.yul\":3116:3117   */\n      dup3\n        /* \"#utility.yul\":3098:3118   */\n      tag_84\n      jump\t// in\n    tag_97:\n        /* \"#utility.yul\":3093:3118   */\n      swap2\n      pop\n        /* \"#utility.yul\":3132:3152   */\n      tag_98\n        /* \"#utility.yul\":3150:3151   */\n      dup4\n        /* \"#utility.yul\":3132:3152   */\n      tag_84\n      jump\t// in\n    tag_98:\n        /* \"#utility.yul\":3127:3152   */\n      swap3\n      pop\n        /* \"#utility.yul\":3286:3287   */\n      dup3\n        /* \"#utility.yul\":3218:3284   */\n      0xffffffffffffffffffffffffffffffffffffffffffffffffffffffffffffffff\n        /* \"#utility.yul\":3214:3288   */\n      sub\n        /* \"#utility.yul\":3211:3212   */\n      dup3\n        /* \"#utility.yul\":3208:3289   */\n      gt\n        /* \"#utility.yul\":3205:3312   */\n      iszero\n      tag_99\n      jumpi\n        /* \"#utility.yul\":3292:3310   */\n      tag_100\n      tag_101\n      jump\t// in\n    tag_100:\n        /* \"#utility.yul\":3205:3312   */\n    tag_99:\n        /* \"#utility.yul\":3336:3337   */\n      dup3\n        /* \"#utility.yul\":3333:3334   */\n      dup3\n        /* \"#utility.yul\":3329:3338   */\n      add\n        /* \"#utility.yul\":3322:3338   */\n      swap1\n      pop\n        /* \"#utility.yul\":3039:3344   */\n      swap3\n      swap2\n      pop\n      pop\n      jump\t// out\n        /* \"#utility.yul\":3350:3446   */\n    tag_69:\n        /* \"#utility.yul\":3387:3394   */\n      0x00\n        /* \"#utility.yul\":3416:3440   */\n      tag_103\n        /* \"#utility.yul\":3434:3439   */\n      dup3\n        /* \"#utility.yul\":3416:3440   */\n      tag_104\n      jump\t// in\n    tag_103:\n        /* \"#utility.yul\":3405:3440   */\n      swap1\n      pop\n        /* \"#utility.yul\":3350:3446   */\n      swap2\n      swap1\n      pop\n      jump\t// out\n        /* \"#utility.yul\":3452:3578   */\n    tag_104:\n        /* \"#utility.yul\":3489:3496   */\n      0x00\n        /* \"#utility.yul\":3529:3571   */\n      0xffffffffffffffffffffffffffffffffffffffff\n        /* \"#utility.yul\":3522:3527   */\n      dup3\n        /* \"#utility.yul\":3518:3572   */\n      and\n        /* \"#utility.yul\":3507:3572   */\n      swap1\n      pop\n        /* \"#utility.yul\":3452:3578   */\n      swap2\n      swap1\n      pop\n      jump\t// out\n        /* \"#utility.yul\":3584:3661   */\n    tag_84:\n        /* \"#utility.yul\":3621:3628   */\n      0x00\n        /* \"#utility.yul\":3650:3655   */\n      dup2\n        /* \"#utility.yul\":3639:3655   */\n      swap1\n      pop\n        /* \"#utility.yul\":3584:3661   */\n      swap2\n      swap1\n      pop\n      jump\t// out\n        /* \"#utility.yul\":3667:3847   */\n    tag_101:\n        /* \"#utility.yul\":3715:3792   */\n      0x4e487b7100000000000000000000000000000000000000000000000000000000\n        /* \"#utility.yul\":3712:3713   */\n      0x00\n        /* \"#utility.yul\":3705:3793   */\n      mstore\n        /* \"#utility.yul\":3812:3816   */\n      0x11\n        /* \"#utility.yul\":3809:3810   */\n      0x04\n        /* \"#utility.yul\":3802:3817   */\n      mstore\n        /* \"#utility.yul\":3836:3840   */\n      0x24\n        /* \"#utility.yul\":3833:3834   */\n      0x00\n        /* \"#utility.yul\":3826:3841   */\n      revert\n        /* \"#utility.yul\":3976:4093   */\n    tag_64:\n        /* \"#utility.yul\":4085:4086   */\n      0x00\n        /* \"#utility.yul\":4082:4083   */\n      dup1\n        /* \"#utility.yul\":4075:4087   */\n      revert\n        /* \"#utility.yul\":4099:4257   */\n    tag_75:\n        /* \"#utility.yul\":4239:4249   */\n      0x546f6f204c617465000000000000000000000000000000000000000000000000\n        /* \"#utility.yul\":4235:4236   */\n      0x00\n        /* \"#utility.yul\":4227:4233   */\n      dup3\n        /* \"#utility.yul\":4223:4237   */\n      add\n        /* \"#utility.yul\":4216:4250   */\n      mstore\n        /* \"#utility.yul\":4099:4257   */\n      pop\n      jump\t// out\n        /* \"#utility.yul\":4263:4422   */\n    tag_80:\n        /* \"#utility.yul\":4403:4414   */\n      0x746f6f206561726c790000000000000000000000000000000000000000000000\n        /* \"#utility.yul\":4399:4400   */\n      0x00\n        /* \"#utility.yul\":4391:4397   */\n      dup3\n        /* \"#utility.yul\":4387:4401   */\n      add\n        /* \"#utility.yul\":4380:4415   */\n      mstore\n        /* \"#utility.yul\":4263:4422   */\n      pop\n      jump\t// out\n        /* \"#utility.yul\":4428:4550   */\n    tag_60:\n        /* \"#utility.yul\":4501:4525   */\n      tag_114\n        /* \"#utility.yul\":4519:4524   */\n      dup2\n        /* \"#utility.yul\":4501:4525   */\n      tag_69\n      jump\t// in\n    tag_114:\n        /* \"#utility.yul\":4494:4499   */\n      dup2\n        /* \"#utility.yul\":4491:4526   */\n      eq\n        /* \"#utility.yul\":4481:4544   */\n      tag_115\n      jumpi\n        /* \"#utility.yul\":4540:4541   */\n      0x00\n        /* \"#utility.yul\":4537:4538   */\n      dup1\n        /* \"#utility.yul\":4530:4542   */\n      revert\n        /* \"#utility.yul\":4481:4544   */\n    tag_115:\n        /* \"#utility.yul\":4428:4550   */\n      pop\n      jump\t// out\n\n    auxdata: 0xa2646970667358221220a9c8beaf692c6e43347ddb944cbd613db3a19a48ab0a3118956eccb0781cb5a564736f6c63430008070033\n}\n",
				"bytecode": {
					"linkReferences": {},
					"object": "608060405234801561001057600080fd5b5033600160006101000a81548173ffffffffffffffffffffffffffffffffffffffff021916908373ffffffffffffffffffffffffffffffffffffffff16021790555062093a8042610061919061006c565b6002819055506100fb565b6000610077826100c2565b9150610082836100c2565b9250827fffffffffffffffffffffffffffffffffffffffffffffffffffffffffffffffff038211156100b7576100b66100cc565b5b828201905092915050565b6000819050919050565b7f4e487b7100000000000000000000000000000000000000000000000000000000600052601160045260246000fd5b6105fe8061010a6000396000f3fe60806040526004361061007b5760003560e01c8063b3f05b971161004e578063b3f05b971461012a578063e8b5e51f14610155578063efbe1c1c1461015f578063f851a4401461018a5761007b565b806327e235e3146100805780634bb278f3146100bd5780635216aeec146100d45780635411c7bd146100ff575b600080fd5b34801561008c57600080fd5b506100a760048036038101906100a29190610381565b6101b5565b6040516100b4919061046d565b60405180910390f35b3480156100c957600080fd5b506100d26101cd565b005b3480156100e057600080fd5b506100e9610214565b6040516100f6919061046d565b60405180910390f35b34801561010b57600080fd5b5061011461021a565b604051610121919061046d565b60405180910390f35b34801561013657600080fd5b5061013f610220565b60405161014c919061046d565b60405180910390f35b61015d610226565b005b34801561016b57600080fd5b50610174610340565b604051610181919061046d565b60405180910390f35b34801561019657600080fd5b5061019f610346565b6040516101ac9190610412565b60405180910390f35b60006020528060005260406000206000915090505481565b600254421015610212576040517f08c379a00000000000000000000000000000000000000000000000000000000081526004016102099061044d565b60405180910390fd5b565b60045481565b60055481565b60035481565b600254421061026a576040517f08c379a00000000000000000000000000000000000000000000000000000000081526004016102619061042d565b60405180910390fd5b60008060003373ffffffffffffffffffffffffffffffffffffffff1673ffffffffffffffffffffffffffffffffffffffff1681526020019081526020016000205414156102e9577f97d33a7365e760e859a3453f70484ea24a4aeb75478205a52ac35174ead0ccf6336040516102e09190610412565b60405180910390a15b346000803373ffffffffffffffffffffffffffffffffffffffff1673ffffffffffffffffffffffffffffffffffffffff16815260200190815260200160002060008282546103379190610499565b92505081905550565b60025481565b600160009054906101000a900473ffffffffffffffffffffffffffffffffffffffff1681565b60008135905061037b816105b1565b92915050565b6000602082840312156103975761039661055a565b5b60006103a58482850161036c565b91505092915050565b6103b7816104ef565b82525050565b60006103ca600883610488565b91506103d58261055f565b602082019050919050565b60006103ed600983610488565b91506103f882610588565b602082019050919050565b61040c81610521565b82525050565b600060208201905061042760008301846103ae565b92915050565b60006020820190508181036000830152610446816103bd565b9050919050565b60006020820190508181036000830152610466816103e0565b9050919050565b60006020820190506104826000830184610403565b92915050565b600082825260208201905092915050565b60006104a482610521565b91506104af83610521565b9250827fffffffffffffffffffffffffffffffffffffffffffffffffffffffffffffffff038211156104e4576104e361052b565b5b828201905092915050565b60006104fa82610501565b9050919050565b600073ffffffffffffffffffffffffffffffffffffffff82169050919050565b6000819050919050565b7f4e487b7100000000000000000000000000000000000000000000000000000000600052601160045260246000fd5b600080fd5b7f546f6f204c617465000000000000000000000000000000000000000000000000600082015250565b7f746f6f206561726c790000000000000000000000000000000000000000000000600082015250565b6105ba816104ef565b81146105c557600080fd5b5056fea2646970667358221220a9c8beaf692c6e43347ddb944cbd613db3a19a48ab0a3118956eccb0781cb5a564736f6c63430008070033",
					"opcodes": "PUSH1 0x80 PUSH1 0x40 MSTORE CALLVALUE DUP1 ISZERO PUSH2 0x10 JUMPI PUSH1 0x0 DUP1 REVERT JUMPDEST POP CALLER PUSH1 0x1 PUSH1 0x0 PUSH2 0x100 EXP DUP2 SLOAD DUP2 PUSH20 0xFFFFFFFFFFFFFFFFFFFFFFFFFFFFFFFFFFFFFFFF MUL NOT AND SWAP1 DUP4 PUSH20 0xFFFFFFFFFFFFFFFFFFFFFFFFFFFFFFFFFFFFFFFF AND MUL OR SWAP1 SSTORE POP PUSH3 0x93A80 TIMESTAMP PUSH2 0x61 SWAP2 SWAP1 PUSH2 0x6C JUMP JUMPDEST PUSH1 0x2 DUP2 SWAP1 SSTORE POP PUSH2 0xFB JUMP JUMPDEST PUSH1 0x0 PUSH2 0x77 DUP3 PUSH2 0xC2 JUMP JUMPDEST SWAP2 POP PUSH2 0x82 DUP4 PUSH2 0xC2 JUMP JUMPDEST SWAP3 POP DUP3 PUSH32 0xFFFFFFFFFFFFFFFFFFFFFFFFFFFFFFFFFFFFFFFFFFFFFFFFFFFFFFFFFFFFFFFF SUB DUP3 GT ISZERO PUSH2 0xB7 JUMPI PUSH2 0xB6 PUSH2 0xCC JUMP JUMPDEST JUMPDEST DUP3 DUP3 ADD SWAP1 POP SWAP3 SWAP2 POP POP JUMP JUMPDEST PUSH1 0x0 DUP2 SWAP1 POP SWAP2 SWAP1 POP JUMP JUMPDEST PUSH32 0x4E487B7100000000000000000000000000000000000000000000000000000000 PUSH1 0x0 MSTORE PUSH1 0x11 PUSH1 0x4 MSTORE PUSH1 0x24 PUSH1 0x0 REVERT JUMPDEST PUSH2 0x5FE DUP1 PUSH2 0x10A PUSH1 0x0 CODECOPY PUSH1 0x0 RETURN INVALID PUSH1 0x80 PUSH1 0x40 MSTORE PUSH1 0x4 CALLDATASIZE LT PUSH2 0x7B JUMPI PUSH1 0x0 CALLDATALOAD PUSH1 0xE0 SHR DUP1 PUSH4 0xB3F05B97 GT PUSH2 0x4E JUMPI DUP1 PUSH4 0xB3F05B97 EQ PUSH2 0x12A JUMPI DUP1 PUSH4 0xE8B5E51F EQ PUSH2 0x155 JUMPI DUP1 PUSH4 0xEFBE1C1C EQ PUSH2 0x15F JUMPI DUP1 PUSH4 0xF851A440 EQ PUSH2 0x18A JUMPI PUSH2 0x7B JUMP JUMPDEST DUP1 PUSH4 0x27E235E3 EQ PUSH2 0x80 JUMPI DUP1 PUSH4 0x4BB278F3 EQ PUSH2 0xBD JUMPI DUP1 PUSH4 0x5216AEEC EQ PUSH2 0xD4 JUMPI DUP1 PUSH4 0x5411C7BD EQ PUSH2 0xFF JUMPI JUMPDEST PUSH1 0x0 DUP1 REVERT JUMPDEST CALLVALUE DUP1 ISZERO PUSH2 0x8C JUMPI PUSH1 0x0 DUP1 REVERT JUMPDEST POP PUSH2 0xA7 PUSH1 0x4 DUP1 CALLDATASIZE SUB DUP2 ADD SWAP1 PUSH2 0xA2 SWAP2 SWAP1 PUSH2 0x381 JUMP JUMPDEST PUSH2 0x1B5 JUMP JUMPDEST PUSH1 0x40 MLOAD PUSH2 0xB4 SWAP2 SWAP1 PUSH2 0x46D JUMP JUMPDEST PUSH1 0x40 MLOAD DUP1 SWAP2 SUB SWAP1 RETURN JUMPDEST CALLVALUE DUP1 ISZERO PUSH2 0xC9 JUMPI PUSH1 0x0 DUP1 REVERT JUMPDEST POP PUSH2 0xD2 PUSH2 0x1CD JUMP JUMPDEST STOP JUMPDEST CALLVALUE DUP1 ISZERO PUSH2 0xE0 JUMPI PUSH1 0x0 DUP1 REVERT JUMPDEST POP PUSH2 0xE9 PUSH2 0x214 JUMP JUMPDEST PUSH1 0x40 MLOAD PUSH2 0xF6 SWAP2 SWAP1 PUSH2 0x46D JUMP JUMPDEST PUSH1 0x40 MLOAD DUP1 SWAP2 SUB SWAP1 RETURN JUMPDEST CALLVALUE DUP1 ISZERO PUSH2 0x10B JUMPI PUSH1 0x0 DUP1 REVERT JUMPDEST POP PUSH2 0x114 PUSH2 0x21A JUMP JUMPDEST PUSH1 0x40 MLOAD PUSH2 0x121 SWAP2 SWAP1 PUSH2 0x46D JUMP JUMPDEST PUSH1 0x40 MLOAD DUP1 SWAP2 SUB SWAP1 RETURN JUMPDEST CALLVALUE DUP1 ISZERO PUSH2 0x136 JUMPI PUSH1 0x0 DUP1 REVERT JUMPDEST POP PUSH2 0x13F PUSH2 0x220 JUMP JUMPDEST PUSH1 0x40 MLOAD PUSH2 0x14C SWAP2 SWAP1 PUSH2 0x46D JUMP JUMPDEST PUSH1 0x40 MLOAD DUP1 SWAP2 SUB SWAP1 RETURN JUMPDEST PUSH2 0x15D PUSH2 0x226 JUMP JUMPDEST STOP JUMPDEST CALLVALUE DUP1 ISZERO PUSH2 0x16B JUMPI PUSH1 0x0 DUP1 REVERT JUMPDEST POP PUSH2 0x174 PUSH2 0x340 JUMP JUMPDEST PUSH1 0x40 MLOAD PUSH2 0x181 SWAP2 SWAP1 PUSH2 0x46D JUMP JUMPDEST PUSH1 0x40 MLOAD DUP1 SWAP2 SUB SWAP1 RETURN JUMPDEST CALLVALUE DUP1 ISZERO PUSH2 0x196 JUMPI PUSH1 0x0 DUP1 REVERT JUMPDEST POP PUSH2 0x19F PUSH2 0x346 JUMP JUMPDEST PUSH1 0x40 MLOAD PUSH2 0x1AC SWAP2 SWAP1 PUSH2 0x412 JUMP JUMPDEST PUSH1 0x40 MLOAD DUP1 SWAP2 SUB SWAP1 RETURN JUMPDEST PUSH1 0x0 PUSH1 0x20 MSTORE DUP1 PUSH1 0x0 MSTORE PUSH1 0x40 PUSH1 0x0 KECCAK256 PUSH1 0x0 SWAP2 POP SWAP1 POP SLOAD DUP2 JUMP JUMPDEST PUSH1 0x2 SLOAD TIMESTAMP LT ISZERO PUSH2 0x212 JUMPI PUSH1 0x40 MLOAD PUSH32 0x8C379A000000000000000000000000000000000000000000000000000000000 DUP2 MSTORE PUSH1 0x4 ADD PUSH2 0x209 SWAP1 PUSH2 0x44D JUMP JUMPDEST PUSH1 0x40 MLOAD DUP1 SWAP2 SUB SWAP1 REVERT JUMPDEST JUMP JUMPDEST PUSH1 0x4 SLOAD DUP2 JUMP JUMPDEST PUSH1 0x5 SLOAD DUP2 JUMP JUMPDEST PUSH1 0x3 SLOAD DUP2 JUMP JUMPDEST PUSH1 0x2 SLOAD TIMESTAMP LT PUSH2 0x26A JUMPI PUSH1 0x40 MLOAD PUSH32 0x8C379A000000000000000000000000000000000000000000000000000000000 DUP2 MSTORE PUSH1 0x4 ADD PUSH2 0x261 SWAP1 PUSH2 0x42D JUMP JUMPDEST PUSH1 0x40 MLOAD DUP1 SWAP2 SUB SWAP1 REVERT JUMPDEST PUSH1 0x0 DUP1 PUSH1 0x0 CALLER PUSH20 0xFFFFFFFFFFFFFFFFFFFFFFFFFFFFFFFFFFFFFFFF AND PUSH20 0xFFFFFFFFFFFFFFFFFFFFFFFFFFFFFFFFFFFFFFFF AND DUP2 MSTORE PUSH1 0x20 ADD SWAP1 DUP2 MSTORE PUSH1 0x20 ADD PUSH1 0x0 KECCAK256 SLOAD EQ ISZERO PUSH2 0x2E9 JUMPI PUSH32 0x97D33A7365E760E859A3453F70484EA24A4AEB75478205A52AC35174EAD0CCF6 CALLER PUSH1 0x40 MLOAD PUSH2 0x2E0 SWAP2 SWAP1 PUSH2 0x412 JUMP JUMPDEST PUSH1 0x40 MLOAD DUP1 SWAP2 SUB SWAP1 LOG1 JUMPDEST CALLVALUE PUSH1 0x0 DUP1 CALLER PUSH20 0xFFFFFFFFFFFFFFFFFFFFFFFFFFFFFFFFFFFFFFFF AND PUSH20 0xFFFFFFFFFFFFFFFFFFFFFFFFFFFFFFFFFFFFFFFF AND DUP2 MSTORE PUSH1 0x20 ADD SWAP1 DUP2 MSTORE PUSH1 0x20 ADD PUSH1 0x0 KECCAK256 PUSH1 0x0 DUP3 DUP3 SLOAD PUSH2 0x337 SWAP2 SWAP1 PUSH2 0x499 JUMP JUMPDEST SWAP3 POP POP DUP2 SWAP1 SSTORE POP JUMP JUMPDEST PUSH1 0x2 SLOAD DUP2 JUMP JUMPDEST PUSH1 0x1 PUSH1 0x0 SWAP1 SLOAD SWAP1 PUSH2 0x100 EXP SWAP1 DIV PUSH20 0xFFFFFFFFFFFFFFFFFFFFFFFFFFFFFFFFFFFFFFFF AND DUP2 JUMP JUMPDEST PUSH1 0x0 DUP2 CALLDATALOAD SWAP1 POP PUSH2 0x37B DUP2 PUSH2 0x5B1 JUMP JUMPDEST SWAP3 SWAP2 POP POP JUMP JUMPDEST PUSH1 0x0 PUSH1 0x20 DUP3 DUP5 SUB SLT ISZERO PUSH2 0x397 JUMPI PUSH2 0x396 PUSH2 0x55A JUMP JUMPDEST JUMPDEST PUSH1 0x0 PUSH2 0x3A5 DUP5 DUP3 DUP6 ADD PUSH2 0x36C JUMP JUMPDEST SWAP2 POP POP SWAP3 SWAP2 POP POP JUMP JUMPDEST PUSH2 0x3B7 DUP2 PUSH2 0x4EF JUMP JUMPDEST DUP3 MSTORE POP POP JUMP JUMPDEST PUSH1 0x0 PUSH2 0x3CA PUSH1 0x8 DUP4 PUSH2 0x488 JUMP JUMPDEST SWAP2 POP PUSH2 0x3D5 DUP3 PUSH2 0x55F JUMP JUMPDEST PUSH1 0x20 DUP3 ADD SWAP1 POP SWAP2 SWAP1 POP JUMP JUMPDEST PUSH1 0x0 PUSH2 0x3ED PUSH1 0x9 DUP4 PUSH2 0x488 JUMP JUMPDEST SWAP2 POP PUSH2 0x3F8 DUP3 PUSH2 0x588 JUMP JUMPDEST PUSH1 0x20 DUP3 ADD SWAP1 POP SWAP2 SWAP1 POP JUMP JUMPDEST PUSH2 0x40C DUP2 PUSH2 0x521 JUMP JUMPDEST DUP3 MSTORE POP POP JUMP JUMPDEST PUSH1 0x0 PUSH1 0x20 DUP3 ADD SWAP1 POP PUSH2 0x427 PUSH1 0x0 DUP4 ADD DUP5 PUSH2 0x3AE JUMP JUMPDEST SWAP3 SWAP2 POP POP JUMP JUMPDEST PUSH1 0x0 PUSH1 0x20 DUP3 ADD SWAP1 POP DUP2 DUP2 SUB PUSH1 0x0 DUP4 ADD MSTORE PUSH2 0x446 DUP2 PUSH2 0x3BD JUMP JUMPDEST SWAP1 POP SWAP2 SWAP1 POP JUMP JUMPDEST PUSH1 0x0 PUSH1 0x20 DUP3 ADD SWAP1 POP DUP2 DUP2 SUB PUSH1 0x0 DUP4 ADD MSTORE PUSH2 0x466 DUP2 PUSH2 0x3E0 JUMP JUMPDEST SWAP1 POP SWAP2 SWAP1 POP JUMP JUMPDEST PUSH1 0x0 PUSH1 0x20 DUP3 ADD SWAP1 POP PUSH2 0x482 PUSH1 0x0 DUP4 ADD DUP5 PUSH2 0x403 JUMP JUMPDEST SWAP3 SWAP2 POP POP JUMP JUMPDEST PUSH1 0x0 DUP3 DUP3 MSTORE PUSH1 0x20 DUP3 ADD SWAP1 POP SWAP3 SWAP2 POP POP JUMP JUMPDEST PUSH1 0x0 PUSH2 0x4A4 DUP3 PUSH2 0x521 JUMP JUMPDEST SWAP2 POP PUSH2 0x4AF DUP4 PUSH2 0x521 JUMP JUMPDEST SWAP3 POP DUP3 PUSH32 0xFFFFFFFFFFFFFFFFFFFFFFFFFFFFFFFFFFFFFFFFFFFFFFFFFFFFFFFFFFFFFFFF SUB DUP3 GT ISZERO PUSH2 0x4E4 JUMPI PUSH2 0x4E3 PUSH2 0x52B JUMP JUMPDEST JUMPDEST DUP3 DUP3 ADD SWAP1 POP SWAP3 SWAP2 POP POP JUMP JUMPDEST PUSH1 0x0 PUSH2 0x4FA DUP3 PUSH2 0x501 JUMP JUMPDEST SWAP1 POP SWAP2 SWAP1 POP JUMP JUMPDEST PUSH1 0x0 PUSH20 0xFFFFFFFFFFFFFFFFFFFFFFFFFFFFFFFFFFFFFFFF DUP3 AND SWAP1 POP SWAP2 SWAP1 POP JUMP JUMPDEST PUSH1 0x0 DUP2 SWAP1 POP SWAP2 SWAP1 POP JUMP JUMPDEST PUSH32 0x4E487B7100000000000000000000000000000000000000000000000000000000 PUSH1 0x0 MSTORE PUSH1 0x11 PUSH1 0x4 MSTORE PUSH1 0x24 PUSH1 0x0 REVERT JUMPDEST PUSH1 0x0 DUP1 REVERT JUMPDEST PUSH32 0x546F6F204C617465000000000000000000000000000000000000000000000000 PUSH1 0x0 DUP3 ADD MSTORE POP JUMP JUMPDEST PUSH32 0x746F6F206561726C790000000000000000000000000000000000000000000000 PUSH1 0x0 DUP3 ADD MSTORE POP JUMP JUMPDEST PUSH2 0x5BA DUP2 PUSH2 0x4EF JUMP JUMPDEST DUP2 EQ PUSH2 0x5C5 JUMPI PUSH1 0x0 DUP1 REVERT JUMPDEST POP JUMP INVALID LOG2 PUSH5 0x6970667358 0x22 SLT KECCAK256 0xA9 0xC8 0xBE 0xAF PUSH10 0x2C6E43347DDB944CBD61 RETURNDATASIZE 0xB3 LOG1 SWAP11 BASEFEE 0xAB EXP BALANCE XOR SWAP6 PUSH15 0xCCB0781CB5A564736F6C6343000807 STOP CALLER "
				},
				"gasEstimates": {
					"creation": {
						"codeDepositCost": "306800",
						"executionCost": "infinite",
						"totalCost": "infinite"
					},
					"external": {
						"admin()": "2580",
						"balances(address)": "2815",
						"end()": "2473",
						"finalize()": "2581",
						"finalized()": "2429",
						"invest()": "infinite",
						"totalChange()": "2496",
						"totalInvested()": "2474"
					}
				},
				"methodIdentifiers": {
					"admin()": "f851a440",
					"balances(address)": "27e235e3",
					"end()": "efbe1c1c",
					"finalize()": "4bb278f3",
					"finalized()": "b3f05b97",
					"invest()": "e8b5e51f",
					"totalChange()": "5411c7bd",
					"totalInvested()": "5216aeec"
				}
			},
			"userdoc": {
				"kind": "user",
				"methods": {},
				"version": 1
			}
		}
	}
}