{
	"contracts/StakingPool.sol": {
		"StakingPool": {
			"abi": [
				{
					"inputs": [],
					"stateMutability": "nonpayable",
					"type": "constructor"
				},
				{
					"anonymous": false,
					"inputs": [
						{
							"indexed": false,
							"internalType": "address",
							"name": "investor",
							"type": "address"
						}
					],
					"name": "NewInvestor",
					"type": "event"
				},
				{
					"inputs": [],
					"name": "admin",
					"outputs": [
						{
							"internalType": "address",
							"name": "",
							"type": "address"
						}
					],
					"stateMutability": "view",
					"type": "function"
				},
				{
					"inputs": [
						{
							"internalType": "address",
							"name": "",
							"type": "address"
						}
					],
					"name": "balances",
					"outputs": [
						{
							"internalType": "uint256",
							"name": "",
							"type": "uint256"
						}
					],
					"stateMutability": "view",
					"type": "function"
				},
				{
					"inputs": [],
					"name": "end",
					"outputs": [
						{
							"internalType": "uint256",
							"name": "",
							"type": "uint256"
						}
					],
					"stateMutability": "view",
					"type": "function"
				},
				{
					"inputs": [],
					"name": "finalized",
					"outputs": [
						{
							"internalType": "uint256",
							"name": "",
							"type": "uint256"
						}
					],
					"stateMutability": "view",
					"type": "function"
				},
				{
					"inputs": [],
					"name": "invest",
					"outputs": [],
					"stateMutability": "payable",
					"type": "function"
				},
				{
					"inputs": [],
					"name": "total",
					"outputs": [
						{
							"internalType": "uint256",
							"name": "",
							"type": "uint256"
						}
					],
					"stateMutability": "view",
					"type": "function"
				},
				{
					"inputs": [],
					"name": "totalInvested",
					"outputs": [
						{
							"internalType": "uint256",
							"name": "",
							"type": "uint256"
						}
					],
					"stateMutability": "view",
					"type": "function"
				}
			],
			"devdoc": {
				"kind": "dev",
				"methods": {},
				"version": 1
			},
			"evm": {
				"assembly": "    /* \"contracts/StakingPool.sol\":74:699  contract StakingPool{\r... */\n  mstore(0x40, 0x80)\n    /* \"contracts/StakingPool.sol\":365:457  constructor(){\r... */\n  callvalue\n  dup1\n  iszero\n  tag_1\n  jumpi\n  0x00\n  dup1\n  revert\ntag_1:\n  pop\n    /* \"contracts/StakingPool.sol\":397:407  msg.sender */\n  caller\n    /* \"contracts/StakingPool.sol\":389:394  admin */\n  0x01\n  0x00\n    /* \"contracts/StakingPool.sol\":389:407  admin = msg.sender */\n  0x0100\n  exp\n  dup2\n  sload\n  dup2\n  0xffffffffffffffffffffffffffffffffffffffff\n  mul\n  not\n  and\n  swap1\n  dup4\n  0xffffffffffffffffffffffffffffffffffffffff\n  and\n  mul\n  or\n  swap1\n  sstore\n  pop\n    /* \"contracts/StakingPool.sol\":443:449  7 days */\n  0x093a80\n    /* \"contracts/StakingPool.sol\":425:440  block.timestamp */\n  timestamp\n    /* \"contracts/StakingPool.sol\":425:449  block.timestamp + 7 days */\n  tag_4\n  swap2\n  swap1\n  tag_5\n  jump\t// in\ntag_4:\n    /* \"contracts/StakingPool.sol\":418:421  end */\n  0x02\n    /* \"contracts/StakingPool.sol\":418:449  end  = block.timestamp + 7 days */\n  dup2\n  swap1\n  sstore\n  pop\n    /* \"contracts/StakingPool.sol\":74:699  contract StakingPool{\r... */\n  jump(tag_6)\n    /* \"#utility.yul\":7:312   */\ntag_5:\n    /* \"#utility.yul\":47:50   */\n  0x00\n    /* \"#utility.yul\":66:86   */\n  tag_9\n    /* \"#utility.yul\":84:85   */\n  dup3\n    /* \"#utility.yul\":66:86   */\n  tag_10\n  jump\t// in\ntag_9:\n    /* \"#utility.yul\":61:86   */\n  swap2\n  pop\n    /* \"#utility.yul\":100:120   */\n  tag_11\n    /* \"#utility.yul\":118:119   */\n  dup4\n    /* \"#utility.yul\":100:120   */\n  tag_10\n  jump\t// in\ntag_11:\n    /* \"#utility.yul\":95:120   */\n  swap3\n  pop\n    /* \"#utility.yul\":254:255   */\n  dup3\n    /* \"#utility.yul\":186:252   */\n  0xffffffffffffffffffffffffffffffffffffffffffffffffffffffffffffffff\n    /* \"#utility.yul\":182:256   */\n  sub\n    /* \"#utility.yul\":179:180   */\n  dup3\n    /* \"#utility.yul\":176:257   */\n  gt\n    /* \"#utility.yul\":173:280   */\n  iszero\n  tag_12\n  jumpi\n    /* \"#utility.yul\":260:278   */\n  tag_13\n  tag_14\n  jump\t// in\ntag_13:\n    /* \"#utility.yul\":173:280   */\ntag_12:\n    /* \"#utility.yul\":304:305   */\n  dup3\n    /* \"#utility.yul\":301:302   */\n  dup3\n    /* \"#utility.yul\":297:306   */\n  add\n    /* \"#utility.yul\":290:306   */\n  swap1\n  pop\n    /* \"#utility.yul\":7:312   */\n  swap3\n  swap2\n  pop\n  pop\n  jump\t// out\n    /* \"#utility.yul\":318:395   */\ntag_10:\n    /* \"#utility.yul\":355:362   */\n  0x00\n    /* \"#utility.yul\":384:389   */\n  dup2\n    /* \"#utility.yul\":373:389   */\n  swap1\n  pop\n    /* \"#utility.yul\":318:395   */\n  swap2\n  swap1\n  pop\n  jump\t// out\n    /* \"#utility.yul\":401:581   */\ntag_14:\n    /* \"#utility.yul\":449:526   */\n  0x4e487b7100000000000000000000000000000000000000000000000000000000\n    /* \"#utility.yul\":446:447   */\n  0x00\n    /* \"#utility.yul\":439:527   */\n  mstore\n    /* \"#utility.yul\":546:550   */\n  0x11\n    /* \"#utility.yul\":543:544   */\n  0x04\n    /* \"#utility.yul\":536:551   */\n  mstore\n    /* \"#utility.yul\":570:574   */\n  0x24\n    /* \"#utility.yul\":567:568   */\n  0x00\n    /* \"#utility.yul\":560:575   */\n  revert\n    /* \"contracts/StakingPool.sol\":74:699  contract StakingPool{\r... */\ntag_6:\n  dataSize(sub_0)\n  dup1\n  dataOffset(sub_0)\n  0x00\n  codecopy\n  0x00\n  return\nstop\n\nsub_0: assembly {\n        /* \"contracts/StakingPool.sol\":74:699  contract StakingPool{\r... */\n      mstore(0x40, 0x80)\n      jumpi(tag_1, lt(calldatasize, 0x04))\n      shr(0xe0, calldataload(0x00))\n      dup1\n      0xb3f05b97\n      gt\n      tag_9\n      jumpi\n      dup1\n      0xb3f05b97\n      eq\n      tag_5\n      jumpi\n      dup1\n      0xe8b5e51f\n      eq\n      tag_6\n      jumpi\n      dup1\n      0xefbe1c1c\n      eq\n      tag_7\n      jumpi\n      dup1\n      0xf851a440\n      eq\n      tag_8\n      jumpi\n      jump(tag_1)\n    tag_9:\n      dup1\n      0x27e235e3\n      eq\n      tag_2\n      jumpi\n      dup1\n      0x2ddbd13a\n      eq\n      tag_3\n      jumpi\n      dup1\n      0x5216aeec\n      eq\n      tag_4\n      jumpi\n    tag_1:\n      0x00\n      dup1\n      revert\n        /* \"contracts/StakingPool.sol\":101:141  mapping(address => uint) public balances */\n    tag_2:\n      callvalue\n      dup1\n      iszero\n      tag_10\n      jumpi\n      0x00\n      dup1\n      revert\n    tag_10:\n      pop\n      tag_11\n      0x04\n      dup1\n      calldatasize\n      sub\n      dup2\n      add\n      swap1\n      tag_12\n      swap2\n      swap1\n      tag_13\n      jump\t// in\n    tag_12:\n      tag_14\n      jump\t// in\n    tag_11:\n      mload(0x40)\n      tag_15\n      swap2\n      swap1\n      tag_16\n      jump\t// in\n    tag_15:\n      mload(0x40)\n      dup1\n      swap2\n      sub\n      swap1\n      return\n        /* \"contracts/StakingPool.sol\":294:311  uint public total */\n    tag_3:\n      callvalue\n      dup1\n      iszero\n      tag_17\n      jumpi\n      0x00\n      dup1\n      revert\n    tag_17:\n      pop\n      tag_18\n      tag_19\n      jump\t// in\n    tag_18:\n      mload(0x40)\n      tag_20\n      swap2\n      swap1\n      tag_16\n      jump\t// in\n    tag_20:\n      mload(0x40)\n      dup1\n      swap2\n      sub\n      swap1\n      return\n        /* \"contracts/StakingPool.sol\":261:286  uint public totalInvested */\n    tag_4:\n      callvalue\n      dup1\n      iszero\n      tag_21\n      jumpi\n      0x00\n      dup1\n      revert\n    tag_21:\n      pop\n      tag_22\n      tag_23\n      jump\t// in\n    tag_22:\n      mload(0x40)\n      tag_24\n      swap2\n      swap1\n      tag_16\n      jump\t// in\n    tag_24:\n      mload(0x40)\n      dup1\n      swap2\n      sub\n      swap1\n      return\n        /* \"contracts/StakingPool.sol\":232:253  uint public finalized */\n    tag_5:\n      callvalue\n      dup1\n      iszero\n      tag_25\n      jumpi\n      0x00\n      dup1\n      revert\n    tag_25:\n      pop\n      tag_26\n      tag_27\n      jump\t// in\n    tag_26:\n      mload(0x40)\n      tag_28\n      swap2\n      swap1\n      tag_16\n      jump\t// in\n    tag_28:\n      mload(0x40)\n      dup1\n      swap2\n      sub\n      swap1\n      return\n        /* \"contracts/StakingPool.sol\":465:694  function invest() external payable{\r... */\n    tag_6:\n      tag_29\n      tag_30\n      jump\t// in\n    tag_29:\n      stop\n        /* \"contracts/StakingPool.sol\":175:190  uint public end */\n    tag_7:\n      callvalue\n      dup1\n      iszero\n      tag_31\n      jumpi\n      0x00\n      dup1\n      revert\n    tag_31:\n      pop\n      tag_32\n      tag_33\n      jump\t// in\n    tag_32:\n      mload(0x40)\n      tag_34\n      swap2\n      swap1\n      tag_16\n      jump\t// in\n    tag_34:\n      mload(0x40)\n      dup1\n      swap2\n      sub\n      swap1\n      return\n        /* \"contracts/StakingPool.sol\":148:168  address public admin */\n    tag_8:\n      callvalue\n      dup1\n      iszero\n      tag_35\n      jumpi\n      0x00\n      dup1\n      revert\n    tag_35:\n      pop\n      tag_36\n      tag_37\n      jump\t// in\n    tag_36:\n      mload(0x40)\n      tag_38\n      swap2\n      swap1\n      tag_39\n      jump\t// in\n    tag_38:\n      mload(0x40)\n      dup1\n      swap2\n      sub\n      swap1\n      return\n        /* \"contracts/StakingPool.sol\":101:141  mapping(address => uint) public balances */\n    tag_14:\n      mstore(0x20, 0x00)\n      dup1\n      0x00\n      mstore\n      keccak256(0x00, 0x40)\n      0x00\n      swap2\n      pop\n      swap1\n      pop\n      sload\n      dup2\n      jump\t// out\n        /* \"contracts/StakingPool.sol\":294:311  uint public total */\n    tag_19:\n      sload(0x05)\n      dup2\n      jump\t// out\n        /* \"contracts/StakingPool.sol\":261:286  uint public totalInvested */\n    tag_23:\n      sload(0x04)\n      dup2\n      jump\t// out\n        /* \"contracts/StakingPool.sol\":232:253  uint public finalized */\n    tag_27:\n      sload(0x03)\n      dup2\n      jump\t// out\n        /* \"contracts/StakingPool.sol\":465:694  function invest() external payable{\r... */\n    tag_30:\n        /* \"contracts/StakingPool.sol\":535:538  end */\n      sload(0x02)\n        /* \"contracts/StakingPool.sol\":518:533  block.timestamp */\n      timestamp\n        /* \"contracts/StakingPool.sol\":518:538  block.timestamp< end */\n      lt\n        /* \"contracts/StakingPool.sol\":510:550  require(block.timestamp< end,'Too Late') */\n      tag_41\n      jumpi\n      mload(0x40)\n      0x08c379a000000000000000000000000000000000000000000000000000000000\n      dup2\n      mstore\n      0x04\n      add\n      tag_42\n      swap1\n      tag_43\n      jump\t// in\n    tag_42:\n      mload(0x40)\n      dup1\n      swap2\n      sub\n      swap1\n      revert\n    tag_41:\n        /* \"contracts/StakingPool.sol\":586:587  0 */\n      0x00\n        /* \"contracts/StakingPool.sol\":564:572  balances */\n      dup1\n        /* \"contracts/StakingPool.sol\":564:584  balances[msg.sender] */\n      0x00\n        /* \"contracts/StakingPool.sol\":573:583  msg.sender */\n      caller\n        /* \"contracts/StakingPool.sol\":564:584  balances[msg.sender] */\n      0xffffffffffffffffffffffffffffffffffffffff\n      and\n      0xffffffffffffffffffffffffffffffffffffffff\n      and\n      dup2\n      mstore\n      0x20\n      add\n      swap1\n      dup2\n      mstore\n      0x20\n      add\n      0x00\n      keccak256\n      sload\n        /* \"contracts/StakingPool.sol\":564:587  balances[msg.sender]==0 */\n      eq\n        /* \"contracts/StakingPool.sol\":561:643  if(balances[msg.sender]==0){\r... */\n      iszero\n      tag_44\n      jumpi\n        /* \"contracts/StakingPool.sol\":608:631  NewInvestor(msg.sender) */\n      0x97d33a7365e760e859a3453f70484ea24a4aeb75478205a52ac35174ead0ccf6\n        /* \"contracts/StakingPool.sol\":620:630  msg.sender */\n      caller\n        /* \"contracts/StakingPool.sol\":608:631  NewInvestor(msg.sender) */\n      mload(0x40)\n      tag_45\n      swap2\n      swap1\n      tag_39\n      jump\t// in\n    tag_45:\n      mload(0x40)\n      dup1\n      swap2\n      sub\n      swap1\n      log1\n        /* \"contracts/StakingPool.sol\":561:643  if(balances[msg.sender]==0){\r... */\n    tag_44:\n        /* \"contracts/StakingPool.sol\":677:686  msg.value */\n      callvalue\n        /* \"contracts/StakingPool.sol\":653:661  balances */\n      0x00\n        /* \"contracts/StakingPool.sol\":653:673  balances[msg.sender] */\n      dup1\n        /* \"contracts/StakingPool.sol\":662:672  msg.sender */\n      caller\n        /* \"contracts/StakingPool.sol\":653:673  balances[msg.sender] */\n      0xffffffffffffffffffffffffffffffffffffffff\n      and\n      0xffffffffffffffffffffffffffffffffffffffff\n      and\n      dup2\n      mstore\n      0x20\n      add\n      swap1\n      dup2\n      mstore\n      0x20\n      add\n      0x00\n      keccak256\n      0x00\n        /* \"contracts/StakingPool.sol\":653:686  balances[msg.sender] += msg.value */\n      dup3\n      dup3\n      sload\n      tag_46\n      swap2\n      swap1\n      tag_47\n      jump\t// in\n    tag_46:\n      swap3\n      pop\n      pop\n      dup2\n      swap1\n      sstore\n      pop\n        /* \"contracts/StakingPool.sol\":465:694  function invest() external payable{\r... */\n      jump\t// out\n        /* \"contracts/StakingPool.sol\":175:190  uint public end */\n    tag_33:\n      sload(0x02)\n      dup2\n      jump\t// out\n        /* \"contracts/StakingPool.sol\":148:168  address public admin */\n    tag_37:\n      0x01\n      0x00\n      swap1\n      sload\n      swap1\n      0x0100\n      exp\n      swap1\n      div\n      0xffffffffffffffffffffffffffffffffffffffff\n      and\n      dup2\n      jump\t// out\n        /* \"#utility.yul\":7:146   */\n    tag_49:\n        /* \"#utility.yul\":53:58   */\n      0x00\n        /* \"#utility.yul\":91:97   */\n      dup2\n        /* \"#utility.yul\":78:98   */\n      calldataload\n        /* \"#utility.yul\":69:98   */\n      swap1\n      pop\n        /* \"#utility.yul\":107:140   */\n      tag_51\n        /* \"#utility.yul\":134:139   */\n      dup2\n        /* \"#utility.yul\":107:140   */\n      tag_52\n      jump\t// in\n    tag_51:\n        /* \"#utility.yul\":7:146   */\n      swap3\n      swap2\n      pop\n      pop\n      jump\t// out\n        /* \"#utility.yul\":152:481   */\n    tag_13:\n        /* \"#utility.yul\":211:217   */\n      0x00\n        /* \"#utility.yul\":260:262   */\n      0x20\n        /* \"#utility.yul\":248:257   */\n      dup3\n        /* \"#utility.yul\":239:246   */\n      dup5\n        /* \"#utility.yul\":235:258   */\n      sub\n        /* \"#utility.yul\":231:263   */\n      slt\n        /* \"#utility.yul\":228:347   */\n      iszero\n      tag_54\n      jumpi\n        /* \"#utility.yul\":266:345   */\n      tag_55\n      tag_56\n      jump\t// in\n    tag_55:\n        /* \"#utility.yul\":228:347   */\n    tag_54:\n        /* \"#utility.yul\":386:387   */\n      0x00\n        /* \"#utility.yul\":411:464   */\n      tag_57\n        /* \"#utility.yul\":456:463   */\n      dup5\n        /* \"#utility.yul\":447:453   */\n      dup3\n        /* \"#utility.yul\":436:445   */\n      dup6\n        /* \"#utility.yul\":432:454   */\n      add\n        /* \"#utility.yul\":411:464   */\n      tag_49\n      jump\t// in\n    tag_57:\n        /* \"#utility.yul\":401:464   */\n      swap2\n      pop\n        /* \"#utility.yul\":357:474   */\n      pop\n        /* \"#utility.yul\":152:481   */\n      swap3\n      swap2\n      pop\n      pop\n      jump\t// out\n        /* \"#utility.yul\":487:605   */\n    tag_58:\n        /* \"#utility.yul\":574:598   */\n      tag_60\n        /* \"#utility.yul\":592:597   */\n      dup2\n        /* \"#utility.yul\":574:598   */\n      tag_61\n      jump\t// in\n    tag_60:\n        /* \"#utility.yul\":569:572   */\n      dup3\n        /* \"#utility.yul\":562:599   */\n      mstore\n        /* \"#utility.yul\":487:605   */\n      pop\n      pop\n      jump\t// out\n        /* \"#utility.yul\":611:976   */\n    tag_62:\n        /* \"#utility.yul\":753:756   */\n      0x00\n        /* \"#utility.yul\":774:840   */\n      tag_64\n        /* \"#utility.yul\":838:839   */\n      0x08\n        /* \"#utility.yul\":833:836   */\n      dup4\n        /* \"#utility.yul\":774:840   */\n      tag_65\n      jump\t// in\n    tag_64:\n        /* \"#utility.yul\":767:840   */\n      swap2\n      pop\n        /* \"#utility.yul\":849:942   */\n      tag_66\n        /* \"#utility.yul\":938:941   */\n      dup3\n        /* \"#utility.yul\":849:942   */\n      tag_67\n      jump\t// in\n    tag_66:\n        /* \"#utility.yul\":967:969   */\n      0x20\n        /* \"#utility.yul\":962:965   */\n      dup3\n        /* \"#utility.yul\":958:970   */\n      add\n        /* \"#utility.yul\":951:970   */\n      swap1\n      pop\n        /* \"#utility.yul\":611:976   */\n      swap2\n      swap1\n      pop\n      jump\t// out\n        /* \"#utility.yul\":982:1100   */\n    tag_68:\n        /* \"#utility.yul\":1069:1093   */\n      tag_70\n        /* \"#utility.yul\":1087:1092   */\n      dup2\n        /* \"#utility.yul\":1069:1093   */\n      tag_71\n      jump\t// in\n    tag_70:\n        /* \"#utility.yul\":1064:1067   */\n      dup3\n        /* \"#utility.yul\":1057:1094   */\n      mstore\n        /* \"#utility.yul\":982:1100   */\n      pop\n      pop\n      jump\t// out\n        /* \"#utility.yul\":1106:1328   */\n    tag_39:\n        /* \"#utility.yul\":1199:1203   */\n      0x00\n        /* \"#utility.yul\":1237:1239   */\n      0x20\n        /* \"#utility.yul\":1226:1235   */\n      dup3\n        /* \"#utility.yul\":1222:1240   */\n      add\n        /* \"#utility.yul\":1214:1240   */\n      swap1\n      pop\n        /* \"#utility.yul\":1250:1321   */\n      tag_73\n        /* \"#utility.yul\":1318:1319   */\n      0x00\n        /* \"#utility.yul\":1307:1316   */\n      dup4\n        /* \"#utility.yul\":1303:1320   */\n      add\n        /* \"#utility.yul\":1294:1300   */\n      dup5\n        /* \"#utility.yul\":1250:1321   */\n      tag_58\n      jump\t// in\n    tag_73:\n        /* \"#utility.yul\":1106:1328   */\n      swap3\n      swap2\n      pop\n      pop\n      jump\t// out\n        /* \"#utility.yul\":1334:1753   */\n    tag_43:\n        /* \"#utility.yul\":1500:1504   */\n      0x00\n        /* \"#utility.yul\":1538:1540   */\n      0x20\n        /* \"#utility.yul\":1527:1536   */\n      dup3\n        /* \"#utility.yul\":1523:1541   */\n      add\n        /* \"#utility.yul\":1515:1541   */\n      swap1\n      pop\n        /* \"#utility.yul\":1587:1596   */\n      dup2\n        /* \"#utility.yul\":1581:1585   */\n      dup2\n        /* \"#utility.yul\":1577:1597   */\n      sub\n        /* \"#utility.yul\":1573:1574   */\n      0x00\n        /* \"#utility.yul\":1562:1571   */\n      dup4\n        /* \"#utility.yul\":1558:1575   */\n      add\n        /* \"#utility.yul\":1551:1598   */\n      mstore\n        /* \"#utility.yul\":1615:1746   */\n      tag_75\n        /* \"#utility.yul\":1741:1745   */\n      dup2\n        /* \"#utility.yul\":1615:1746   */\n      tag_62\n      jump\t// in\n    tag_75:\n        /* \"#utility.yul\":1607:1746   */\n      swap1\n      pop\n        /* \"#utility.yul\":1334:1753   */\n      swap2\n      swap1\n      pop\n      jump\t// out\n        /* \"#utility.yul\":1759:1981   */\n    tag_16:\n        /* \"#utility.yul\":1852:1856   */\n      0x00\n        /* \"#utility.yul\":1890:1892   */\n      0x20\n        /* \"#utility.yul\":1879:1888   */\n      dup3\n        /* \"#utility.yul\":1875:1893   */\n      add\n        /* \"#utility.yul\":1867:1893   */\n      swap1\n      pop\n        /* \"#utility.yul\":1903:1974   */\n      tag_77\n        /* \"#utility.yul\":1971:1972   */\n      0x00\n        /* \"#utility.yul\":1960:1969   */\n      dup4\n        /* \"#utility.yul\":1956:1973   */\n      add\n        /* \"#utility.yul\":1947:1953   */\n      dup5\n        /* \"#utility.yul\":1903:1974   */\n      tag_68\n      jump\t// in\n    tag_77:\n        /* \"#utility.yul\":1759:1981   */\n      swap3\n      swap2\n      pop\n      pop\n      jump\t// out\n        /* \"#utility.yul\":2068:2237   */\n    tag_65:\n        /* \"#utility.yul\":2152:2163   */\n      0x00\n        /* \"#utility.yul\":2186:2192   */\n      dup3\n        /* \"#utility.yul\":2181:2184   */\n      dup3\n        /* \"#utility.yul\":2174:2193   */\n      mstore\n        /* \"#utility.yul\":2226:2230   */\n      0x20\n        /* \"#utility.yul\":2221:2224   */\n      dup3\n        /* \"#utility.yul\":2217:2231   */\n      add\n        /* \"#utility.yul\":2202:2231   */\n      swap1\n      pop\n        /* \"#utility.yul\":2068:2237   */\n      swap3\n      swap2\n      pop\n      pop\n      jump\t// out\n        /* \"#utility.yul\":2243:2548   */\n    tag_47:\n        /* \"#utility.yul\":2283:2286   */\n      0x00\n        /* \"#utility.yul\":2302:2322   */\n      tag_82\n        /* \"#utility.yul\":2320:2321   */\n      dup3\n        /* \"#utility.yul\":2302:2322   */\n      tag_71\n      jump\t// in\n    tag_82:\n        /* \"#utility.yul\":2297:2322   */\n      swap2\n      pop\n        /* \"#utility.yul\":2336:2356   */\n      tag_83\n        /* \"#utility.yul\":2354:2355   */\n      dup4\n        /* \"#utility.yul\":2336:2356   */\n      tag_71\n      jump\t// in\n    tag_83:\n        /* \"#utility.yul\":2331:2356   */\n      swap3\n      pop\n        /* \"#utility.yul\":2490:2491   */\n      dup3\n        /* \"#utility.yul\":2422:2488   */\n      0xffffffffffffffffffffffffffffffffffffffffffffffffffffffffffffffff\n        /* \"#utility.yul\":2418:2492   */\n      sub\n        /* \"#utility.yul\":2415:2416   */\n      dup3\n        /* \"#utility.yul\":2412:2493   */\n      gt\n        /* \"#utility.yul\":2409:2516   */\n      iszero\n      tag_84\n      jumpi\n        /* \"#utility.yul\":2496:2514   */\n      tag_85\n      tag_86\n      jump\t// in\n    tag_85:\n        /* \"#utility.yul\":2409:2516   */\n    tag_84:\n        /* \"#utility.yul\":2540:2541   */\n      dup3\n        /* \"#utility.yul\":2537:2538   */\n      dup3\n        /* \"#utility.yul\":2533:2542   */\n      add\n        /* \"#utility.yul\":2526:2542   */\n      swap1\n      pop\n        /* \"#utility.yul\":2243:2548   */\n      swap3\n      swap2\n      pop\n      pop\n      jump\t// out\n        /* \"#utility.yul\":2554:2650   */\n    tag_61:\n        /* \"#utility.yul\":2591:2598   */\n      0x00\n        /* \"#utility.yul\":2620:2644   */\n      tag_88\n        /* \"#utility.yul\":2638:2643   */\n      dup3\n        /* \"#utility.yul\":2620:2644   */\n      tag_89\n      jump\t// in\n    tag_88:\n        /* \"#utility.yul\":2609:2644   */\n      swap1\n      pop\n        /* \"#utility.yul\":2554:2650   */\n      swap2\n      swap1\n      pop\n      jump\t// out\n        /* \"#utility.yul\":2656:2782   */\n    tag_89:\n        /* \"#utility.yul\":2693:2700   */\n      0x00\n        /* \"#utility.yul\":2733:2775   */\n      0xffffffffffffffffffffffffffffffffffffffff\n        /* \"#utility.yul\":2726:2731   */\n      dup3\n        /* \"#utility.yul\":2722:2776   */\n      and\n        /* \"#utility.yul\":2711:2776   */\n      swap1\n      pop\n        /* \"#utility.yul\":2656:2782   */\n      swap2\n      swap1\n      pop\n      jump\t// out\n        /* \"#utility.yul\":2788:2865   */\n    tag_71:\n        /* \"#utility.yul\":2825:2832   */\n      0x00\n        /* \"#utility.yul\":2854:2859   */\n      dup2\n        /* \"#utility.yul\":2843:2859   */\n      swap1\n      pop\n        /* \"#utility.yul\":2788:2865   */\n      swap2\n      swap1\n      pop\n      jump\t// out\n        /* \"#utility.yul\":2871:3051   */\n    tag_86:\n        /* \"#utility.yul\":2919:2996   */\n      0x4e487b7100000000000000000000000000000000000000000000000000000000\n        /* \"#utility.yul\":2916:2917   */\n      0x00\n        /* \"#utility.yul\":2909:2997   */\n      mstore\n        /* \"#utility.yul\":3016:3020   */\n      0x11\n        /* \"#utility.yul\":3013:3014   */\n      0x04\n        /* \"#utility.yul\":3006:3021   */\n      mstore\n        /* \"#utility.yul\":3040:3044   */\n      0x24\n        /* \"#utility.yul\":3037:3038   */\n      0x00\n        /* \"#utility.yul\":3030:3045   */\n      revert\n        /* \"#utility.yul\":3180:3297   */\n    tag_56:\n        /* \"#utility.yul\":3289:3290   */\n      0x00\n        /* \"#utility.yul\":3286:3287   */\n      dup1\n        /* \"#utility.yul\":3279:3291   */\n      revert\n        /* \"#utility.yul\":3303:3461   */\n    tag_67:\n        /* \"#utility.yul\":3443:3453   */\n      0x546f6f204c617465000000000000000000000000000000000000000000000000\n        /* \"#utility.yul\":3439:3440   */\n      0x00\n        /* \"#utility.yul\":3431:3437   */\n      dup3\n        /* \"#utility.yul\":3427:3441   */\n      add\n        /* \"#utility.yul\":3420:3454   */\n      mstore\n        /* \"#utility.yul\":3303:3461   */\n      pop\n      jump\t// out\n        /* \"#utility.yul\":3467:3589   */\n    tag_52:\n        /* \"#utility.yul\":3540:3564   */\n      tag_98\n        /* \"#utility.yul\":3558:3563   */\n      dup2\n        /* \"#utility.yul\":3540:3564   */\n      tag_61\n      jump\t// in\n    tag_98:\n        /* \"#utility.yul\":3533:3538   */\n      dup2\n        /* \"#utility.yul\":3530:3565   */\n      eq\n        /* \"#utility.yul\":3520:3583   */\n      tag_99\n      jumpi\n        /* \"#utility.yul\":3579:3580   */\n      0x00\n        /* \"#utility.yul\":3576:3577   */\n      dup1\n        /* \"#utility.yul\":3569:3581   */\n      revert\n        /* \"#utility.yul\":3520:3583   */\n    tag_99:\n        /* \"#utility.yul\":3467:3589   */\n      pop\n      jump\t// out\n\n    auxdata: 0xa2646970667358221220cc057d7c9aacb540d84713f5380e821d80d4183206b602bdb6d05e1378d51fbd64736f6c63430008070033\n}\n",
				"bytecode": {
					"linkReferences": {},
					"object": "608060405234801561001057600080fd5b5033600160006101000a81548173ffffffffffffffffffffffffffffffffffffffff021916908373ffffffffffffffffffffffffffffffffffffffff16021790555062093a8042610061919061006c565b6002819055506100fb565b6000610077826100c2565b9150610082836100c2565b9250827fffffffffffffffffffffffffffffffffffffffffffffffffffffffffffffffff038211156100b7576100b66100cc565b5b828201905092915050565b6000819050919050565b7f4e487b7100000000000000000000000000000000000000000000000000000000600052601160045260246000fd5b6105298061010a6000396000f3fe6080604052600436106100705760003560e01c8063b3f05b971161004e578063b3f05b9714610108578063e8b5e51f14610133578063efbe1c1c1461013d578063f851a4401461016857610070565b806327e235e3146100755780632ddbd13a146100b25780635216aeec146100dd575b600080fd5b34801561008157600080fd5b5061009c60048036038101906100979190610318565b610193565b6040516100a991906103c1565b60405180910390f35b3480156100be57600080fd5b506100c76101ab565b6040516100d491906103c1565b60405180910390f35b3480156100e957600080fd5b506100f26101b1565b6040516100ff91906103c1565b60405180910390f35b34801561011457600080fd5b5061011d6101b7565b60405161012a91906103c1565b60405180910390f35b61013b6101bd565b005b34801561014957600080fd5b506101526102d7565b60405161015f91906103c1565b60405180910390f35b34801561017457600080fd5b5061017d6102dd565b60405161018a9190610386565b60405180910390f35b60006020528060005260406000206000915090505481565b60055481565b60045481565b60035481565b6002544210610201576040517f08c379a00000000000000000000000000000000000000000000000000000000081526004016101f8906103a1565b60405180910390fd5b60008060003373ffffffffffffffffffffffffffffffffffffffff1673ffffffffffffffffffffffffffffffffffffffff168152602001908152602001600020541415610280577f97d33a7365e760e859a3453f70484ea24a4aeb75478205a52ac35174ead0ccf6336040516102779190610386565b60405180910390a15b346000803373ffffffffffffffffffffffffffffffffffffffff1673ffffffffffffffffffffffffffffffffffffffff16815260200190815260200160002060008282546102ce91906103ed565b92505081905550565b60025481565b600160009054906101000a900473ffffffffffffffffffffffffffffffffffffffff1681565b600081359050610312816104dc565b92915050565b60006020828403121561032e5761032d6104ae565b5b600061033c84828501610303565b91505092915050565b61034e81610443565b82525050565b60006103616008836103dc565b915061036c826104b3565b602082019050919050565b61038081610475565b82525050565b600060208201905061039b6000830184610345565b92915050565b600060208201905081810360008301526103ba81610354565b9050919050565b60006020820190506103d66000830184610377565b92915050565b600082825260208201905092915050565b60006103f882610475565b915061040383610475565b9250827fffffffffffffffffffffffffffffffffffffffffffffffffffffffffffffffff038211156104385761043761047f565b5b828201905092915050565b600061044e82610455565b9050919050565b600073ffffffffffffffffffffffffffffffffffffffff82169050919050565b6000819050919050565b7f4e487b7100000000000000000000000000000000000000000000000000000000600052601160045260246000fd5b600080fd5b7f546f6f204c617465000000000000000000000000000000000000000000000000600082015250565b6104e581610443565b81146104f057600080fd5b5056fea2646970667358221220cc057d7c9aacb540d84713f5380e821d80d4183206b602bdb6d05e1378d51fbd64736f6c63430008070033",
					"opcodes": "PUSH1 0x80 PUSH1 0x40 MSTORE CALLVALUE DUP1 ISZERO PUSH2 0x10 JUMPI PUSH1 0x0 DUP1 REVERT JUMPDEST POP CALLER PUSH1 0x1 PUSH1 0x0 PUSH2 0x100 EXP DUP2 SLOAD DUP2 PUSH20 0xFFFFFFFFFFFFFFFFFFFFFFFFFFFFFFFFFFFFFFFF MUL NOT AND SWAP1 DUP4 PUSH20 0xFFFFFFFFFFFFFFFFFFFFFFFFFFFFFFFFFFFFFFFF AND MUL OR SWAP1 SSTORE POP PUSH3 0x93A80 TIMESTAMP PUSH2 0x61 SWAP2 SWAP1 PUSH2 0x6C JUMP JUMPDEST PUSH1 0x2 DUP2 SWAP1 SSTORE POP PUSH2 0xFB JUMP JUMPDEST PUSH1 0x0 PUSH2 0x77 DUP3 PUSH2 0xC2 JUMP JUMPDEST SWAP2 POP PUSH2 0x82 DUP4 PUSH2 0xC2 JUMP JUMPDEST SWAP3 POP DUP3 PUSH32 0xFFFFFFFFFFFFFFFFFFFFFFFFFFFFFFFFFFFFFFFFFFFFFFFFFFFFFFFFFFFFFFFF SUB DUP3 GT ISZERO PUSH2 0xB7 JUMPI PUSH2 0xB6 PUSH2 0xCC JUMP JUMPDEST JUMPDEST DUP3 DUP3 ADD SWAP1 POP SWAP3 SWAP2 POP POP JUMP JUMPDEST PUSH1 0x0 DUP2 SWAP1 POP SWAP2 SWAP1 POP JUMP JUMPDEST PUSH32 0x4E487B7100000000000000000000000000000000000000000000000000000000 PUSH1 0x0 MSTORE PUSH1 0x11 PUSH1 0x4 MSTORE PUSH1 0x24 PUSH1 0x0 REVERT JUMPDEST PUSH2 0x529 DUP1 PUSH2 0x10A PUSH1 0x0 CODECOPY PUSH1 0x0 RETURN INVALID PUSH1 0x80 PUSH1 0x40 MSTORE PUSH1 0x4 CALLDATASIZE LT PUSH2 0x70 JUMPI PUSH1 0x0 CALLDATALOAD PUSH1 0xE0 SHR DUP1 PUSH4 0xB3F05B97 GT PUSH2 0x4E JUMPI DUP1 PUSH4 0xB3F05B97 EQ PUSH2 0x108 JUMPI DUP1 PUSH4 0xE8B5E51F EQ PUSH2 0x133 JUMPI DUP1 PUSH4 0xEFBE1C1C EQ PUSH2 0x13D JUMPI DUP1 PUSH4 0xF851A440 EQ PUSH2 0x168 JUMPI PUSH2 0x70 JUMP JUMPDEST DUP1 PUSH4 0x27E235E3 EQ PUSH2 0x75 JUMPI DUP1 PUSH4 0x2DDBD13A EQ PUSH2 0xB2 JUMPI DUP1 PUSH4 0x5216AEEC EQ PUSH2 0xDD JUMPI JUMPDEST PUSH1 0x0 DUP1 REVERT JUMPDEST CALLVALUE DUP1 ISZERO PUSH2 0x81 JUMPI PUSH1 0x0 DUP1 REVERT JUMPDEST POP PUSH2 0x9C PUSH1 0x4 DUP1 CALLDATASIZE SUB DUP2 ADD SWAP1 PUSH2 0x97 SWAP2 SWAP1 PUSH2 0x318 JUMP JUMPDEST PUSH2 0x193 JUMP JUMPDEST PUSH1 0x40 MLOAD PUSH2 0xA9 SWAP2 SWAP1 PUSH2 0x3C1 JUMP JUMPDEST PUSH1 0x40 MLOAD DUP1 SWAP2 SUB SWAP1 RETURN JUMPDEST CALLVALUE DUP1 ISZERO PUSH2 0xBE JUMPI PUSH1 0x0 DUP1 REVERT JUMPDEST POP PUSH2 0xC7 PUSH2 0x1AB JUMP JUMPDEST PUSH1 0x40 MLOAD PUSH2 0xD4 SWAP2 SWAP1 PUSH2 0x3C1 JUMP JUMPDEST PUSH1 0x40 MLOAD DUP1 SWAP2 SUB SWAP1 RETURN JUMPDEST CALLVALUE DUP1 ISZERO PUSH2 0xE9 JUMPI PUSH1 0x0 DUP1 REVERT JUMPDEST POP PUSH2 0xF2 PUSH2 0x1B1 JUMP JUMPDEST PUSH1 0x40 MLOAD PUSH2 0xFF SWAP2 SWAP1 PUSH2 0x3C1 JUMP JUMPDEST PUSH1 0x40 MLOAD DUP1 SWAP2 SUB SWAP1 RETURN JUMPDEST CALLVALUE DUP1 ISZERO PUSH2 0x114 JUMPI PUSH1 0x0 DUP1 REVERT JUMPDEST POP PUSH2 0x11D PUSH2 0x1B7 JUMP JUMPDEST PUSH1 0x40 MLOAD PUSH2 0x12A SWAP2 SWAP1 PUSH2 0x3C1 JUMP JUMPDEST PUSH1 0x40 MLOAD DUP1 SWAP2 SUB SWAP1 RETURN JUMPDEST PUSH2 0x13B PUSH2 0x1BD JUMP JUMPDEST STOP JUMPDEST CALLVALUE DUP1 ISZERO PUSH2 0x149 JUMPI PUSH1 0x0 DUP1 REVERT JUMPDEST POP PUSH2 0x152 PUSH2 0x2D7 JUMP JUMPDEST PUSH1 0x40 MLOAD PUSH2 0x15F SWAP2 SWAP1 PUSH2 0x3C1 JUMP JUMPDEST PUSH1 0x40 MLOAD DUP1 SWAP2 SUB SWAP1 RETURN JUMPDEST CALLVALUE DUP1 ISZERO PUSH2 0x174 JUMPI PUSH1 0x0 DUP1 REVERT JUMPDEST POP PUSH2 0x17D PUSH2 0x2DD JUMP JUMPDEST PUSH1 0x40 MLOAD PUSH2 0x18A SWAP2 SWAP1 PUSH2 0x386 JUMP JUMPDEST PUSH1 0x40 MLOAD DUP1 SWAP2 SUB SWAP1 RETURN JUMPDEST PUSH1 0x0 PUSH1 0x20 MSTORE DUP1 PUSH1 0x0 MSTORE PUSH1 0x40 PUSH1 0x0 KECCAK256 PUSH1 0x0 SWAP2 POP SWAP1 POP SLOAD DUP2 JUMP JUMPDEST PUSH1 0x5 SLOAD DUP2 JUMP JUMPDEST PUSH1 0x4 SLOAD DUP2 JUMP JUMPDEST PUSH1 0x3 SLOAD DUP2 JUMP JUMPDEST PUSH1 0x2 SLOAD TIMESTAMP LT PUSH2 0x201 JUMPI PUSH1 0x40 MLOAD PUSH32 0x8C379A000000000000000000000000000000000000000000000000000000000 DUP2 MSTORE PUSH1 0x4 ADD PUSH2 0x1F8 SWAP1 PUSH2 0x3A1 JUMP JUMPDEST PUSH1 0x40 MLOAD DUP1 SWAP2 SUB SWAP1 REVERT JUMPDEST PUSH1 0x0 DUP1 PUSH1 0x0 CALLER PUSH20 0xFFFFFFFFFFFFFFFFFFFFFFFFFFFFFFFFFFFFFFFF AND PUSH20 0xFFFFFFFFFFFFFFFFFFFFFFFFFFFFFFFFFFFFFFFF AND DUP2 MSTORE PUSH1 0x20 ADD SWAP1 DUP2 MSTORE PUSH1 0x20 ADD PUSH1 0x0 KECCAK256 SLOAD EQ ISZERO PUSH2 0x280 JUMPI PUSH32 0x97D33A7365E760E859A3453F70484EA24A4AEB75478205A52AC35174EAD0CCF6 CALLER PUSH1 0x40 MLOAD PUSH2 0x277 SWAP2 SWAP1 PUSH2 0x386 JUMP JUMPDEST PUSH1 0x40 MLOAD DUP1 SWAP2 SUB SWAP1 LOG1 JUMPDEST CALLVALUE PUSH1 0x0 DUP1 CALLER PUSH20 0xFFFFFFFFFFFFFFFFFFFFFFFFFFFFFFFFFFFFFFFF AND PUSH20 0xFFFFFFFFFFFFFFFFFFFFFFFFFFFFFFFFFFFFFFFF AND DUP2 MSTORE PUSH1 0x20 ADD SWAP1 DUP2 MSTORE PUSH1 0x20 ADD PUSH1 0x0 KECCAK256 PUSH1 0x0 DUP3 DUP3 SLOAD PUSH2 0x2CE SWAP2 SWAP1 PUSH2 0x3ED JUMP JUMPDEST SWAP3 POP POP DUP2 SWAP1 SSTORE POP JUMP JUMPDEST PUSH1 0x2 SLOAD DUP2 JUMP JUMPDEST PUSH1 0x1 PUSH1 0x0 SWAP1 SLOAD SWAP1 PUSH2 0x100 EXP SWAP1 DIV PUSH20 0xFFFFFFFFFFFFFFFFFFFFFFFFFFFFFFFFFFFFFFFF AND DUP2 JUMP JUMPDEST PUSH1 0x0 DUP2 CALLDATALOAD SWAP1 POP PUSH2 0x312 DUP2 PUSH2 0x4DC JUMP JUMPDEST SWAP3 SWAP2 POP POP JUMP JUMPDEST PUSH1 0x0 PUSH1 0x20 DUP3 DUP5 SUB SLT ISZERO PUSH2 0x32E JUMPI PUSH2 0x32D PUSH2 0x4AE JUMP JUMPDEST JUMPDEST PUSH1 0x0 PUSH2 0x33C DUP5 DUP3 DUP6 ADD PUSH2 0x303 JUMP JUMPDEST SWAP2 POP POP SWAP3 SWAP2 POP POP JUMP JUMPDEST PUSH2 0x34E DUP2 PUSH2 0x443 JUMP JUMPDEST DUP3 MSTORE POP POP JUMP JUMPDEST PUSH1 0x0 PUSH2 0x361 PUSH1 0x8 DUP4 PUSH2 0x3DC JUMP JUMPDEST SWAP2 POP PUSH2 0x36C DUP3 PUSH2 0x4B3 JUMP JUMPDEST PUSH1 0x20 DUP3 ADD SWAP1 POP SWAP2 SWAP1 POP JUMP JUMPDEST PUSH2 0x380 DUP2 PUSH2 0x475 JUMP JUMPDEST DUP3 MSTORE POP POP JUMP JUMPDEST PUSH1 0x0 PUSH1 0x20 DUP3 ADD SWAP1 POP PUSH2 0x39B PUSH1 0x0 DUP4 ADD DUP5 PUSH2 0x345 JUMP JUMPDEST SWAP3 SWAP2 POP POP JUMP JUMPDEST PUSH1 0x0 PUSH1 0x20 DUP3 ADD SWAP1 POP DUP2 DUP2 SUB PUSH1 0x0 DUP4 ADD MSTORE PUSH2 0x3BA DUP2 PUSH2 0x354 JUMP JUMPDEST SWAP1 POP SWAP2 SWAP1 POP JUMP JUMPDEST PUSH1 0x0 PUSH1 0x20 DUP3 ADD SWAP1 POP PUSH2 0x3D6 PUSH1 0x0 DUP4 ADD DUP5 PUSH2 0x377 JUMP JUMPDEST SWAP3 SWAP2 POP POP JUMP JUMPDEST PUSH1 0x0 DUP3 DUP3 MSTORE PUSH1 0x20 DUP3 ADD SWAP1 POP SWAP3 SWAP2 POP POP JUMP JUMPDEST PUSH1 0x0 PUSH2 0x3F8 DUP3 PUSH2 0x475 JUMP JUMPDEST SWAP2 POP PUSH2 0x403 DUP4 PUSH2 0x475 JUMP JUMPDEST SWAP3 POP DUP3 PUSH32 0xFFFFFFFFFFFFFFFFFFFFFFFFFFFFFFFFFFFFFFFFFFFFFFFFFFFFFFFFFFFFFFFF SUB DUP3 GT ISZERO PUSH2 0x438 JUMPI PUSH2 0x437 PUSH2 0x47F JUMP JUMPDEST JUMPDEST DUP3 DUP3 ADD SWAP1 POP SWAP3 SWAP2 POP POP JUMP JUMPDEST PUSH1 0x0 PUSH2 0x44E DUP3 PUSH2 0x455 JUMP JUMPDEST SWAP1 POP SWAP2 SWAP1 POP JUMP JUMPDEST PUSH1 0x0 PUSH20 0xFFFFFFFFFFFFFFFFFFFFFFFFFFFFFFFFFFFFFFFF DUP3 AND SWAP1 POP SWAP2 SWAP1 POP JUMP JUMPDEST PUSH1 0x0 DUP2 SWAP1 POP SWAP2 SWAP1 POP JUMP JUMPDEST PUSH32 0x4E487B7100000000000000000000000000000000000000000000000000000000 PUSH1 0x0 MSTORE PUSH1 0x11 PUSH1 0x4 MSTORE PUSH1 0x24 PUSH1 0x0 REVERT JUMPDEST PUSH1 0x0 DUP1 REVERT JUMPDEST PUSH32 0x546F6F204C617465000000000000000000000000000000000000000000000000 PUSH1 0x0 DUP3 ADD MSTORE POP JUMP JUMPDEST PUSH2 0x4E5 DUP2 PUSH2 0x443 JUMP JUMPDEST DUP2 EQ PUSH2 0x4F0 JUMPI PUSH1 0x0 DUP1 REVERT JUMPDEST POP JUMP INVALID LOG2 PUSH5 0x6970667358 0x22 SLT KECCAK256 0xCC SDIV PUSH30 0x7C9AACB540D84713F5380E821D80D4183206B602BDB6D05E1378D51FBD64 PUSH20 0x6F6C634300080700330000000000000000000000 "
				},
				"gasEstimates": {
					"creation": {
						"codeDepositCost": "264200",
						"executionCost": "infinite",
						"totalCost": "infinite"
					},
					"external": {
						"admin()": "2580",
						"balances(address)": "2815",
						"end()": "2473",
						"finalized()": "2429",
						"invest()": "infinite",
						"total()": "2452",
						"totalInvested()": "2474"
					}
				},
				"methodIdentifiers": {
					"admin()": "f851a440",
					"balances(address)": "27e235e3",
					"end()": "efbe1c1c",
					"finalized()": "b3f05b97",
					"invest()": "e8b5e51f",
					"total()": "2ddbd13a",
					"totalInvested()": "5216aeec"
				}
			},
			"userdoc": {
				"kind": "user",
				"methods": {},
				"version": 1
			}
		}
	}
}